:020000040000FA
:10000000107C0020E91F01001F910200D51F010094
:10001000D51F0100D51F0100D51F0100D51F01000C
:100020000000000000000000000000004D21010061
:10003000D51F010000000000E5200100D51F0100D0
:10004000052301000523010005230100052301000C
:1000500005230100052301000523010005230100FC
:1000600005230100052301000523010005230100EC
:1000700005230100052301000523010005230100DC
:1002500005230100D1BB0200052301000523010095
:100260000523010005230100BBBB0200052301009B
:1002700005230100052301000523010005230100DA
:1002800005230100052301000523010005230100CA
:1002900005230100052301000523010005230100BA
:1002A00005230100052301000523010005230100AA
:1002B000052301000523010005230100052301009A
:1002C000052301000523010005230100052301008A
:1002D000052301000523010005230100052301007A
:1002E000052301000523010005230100052301006A
:1002F000052301000523010005230100052301005A
:100300000523010005230100052301000523010049
:100310000523010005230100052301000523010039
:100320000523010005230100052301000523010029
:100330000523010005230100052301000523010019
:100340000523010005230100052301000523010009
:1003500005230100052301000523010005230100F9
:1003600005230100052301000523010005230100E9
:1003700005230100052301000523010005230100D9
:1003800005230100052301000523010005230100C9
:1003900005230100052301000523010005230100B9
:1003A00005230100052301000523010005230100A9
:1003B0000523010005230100052301000523010099
:1003C0000523010005230100052301000523010089
:1003D00005230100A5BB0200052301000523010040
:1003E0000523010005230100052301000523010069
:1003F0000523010005230100052301000523010059
:100400000523010005230100052301000523010048
:100410000523010005230100052301000523010038
:100420000523010005230100052301000523010028
:100430000523010005230100052301000523010018
:100440000523010005230100052301000523010008
:1004500005230100052301000523010005230100F8
:1004600005230100052301000523010005230100E8
:1004700005230100052301000523010005230100D8
:1004800005230100052301000523010005230100C8
:1004900005230100052301000523010005230100B8
:1004A00005230100052301000523010005230100A8
:1004B0000523010005230100052301000523010098
:1004C0000523010005230100064A074B02604FF493
:1004D0001A725B7882800822C371002382710372D2
:1004E000704700BF3DCF000050100020064A074B68
:1004F00002604FF490725B7A82800822C371FF23FE
:1005000082710372704700BF5BCA00005010002068
:10051000F8B5C41D0028054624F007040CBF0020D0
:10052000204600F0E5FA071E02DA6FF00B00F8BD76
:10053000254EB18870880331F3790330B27989B2DE
:1005400080B20AF001F80028EFDB3C447378317880
:10055000002D04F10304194424F0030400FB01F10D
:100560000CBF0020204600F047FC23180DB9002BDB
:10057000DBDB717A184679B10333002D728923F0E1
:1005800003040CBF0020204600F0A6FC0028CCDBB2
:1005900020440DB90028C8DB317A91B1737A83B158
:1005A000C41D002D24F007040CBF0020204603F0DA
:1005B000C9FF0028B9DB0DB10020B8E72018B6D577
:1005C000B3E7002DF8D1B2E7501000201FB572B686
:1005D000194BDC68ECB9BFF34F8F1849184BCA6848
:1005E00002F4E0621343CB60BFF34F8F00BFFDE71F
:1005F000B2FBF6F22B465D1C002AF9D1DBB203F107
:1006000010056D4405F80C2C0A2233B901A8A04747
:10061000E1E7024600230A26EDE7013BDBB203F1E6
:1006200010050DEB0506B0FBF2F502FB15003030AE
:1006300006F80C0C2846E8E75010002000ED00E01A
:100640000400FA050A4B07B5DA886846ADF80020C1
:100650009A885B88ADF80420ADF8023002F062FAA7
:1006600018B1FC219C20FFF7B1FF03B05DF804FB3B
:100670005010002038B5054640B309F099F810B97C
:100680004FF0FF3038BD07F0E7FCB0F5FA7FF7D840
:10069000104C1148E56000F0A7F9002323744FF4D3
:1006A000807323801B236380A38040F20323E380B5
:1006B0004FF4847323811F236381EFF3108472B698
:1006C00000F0E0FC04B962B60020DBE76FF0150033
:1006D000D8E700BF501000204506000010B50028E4
:1006E00040D1234C237C032B39D059B1002A3CD074
:1006F0000239052936D8DFE801F0031227352A2D03
:10070000137863700020FFF703FF0028B7BF0123B1
:1007100002236FF00B002374A8BF237410BD13795C
:100720001BB353790BB31188FB291ED853881B3B8D
:100730009BB2E02B19D81A2917D913689288C4F8EC
:1007400002300C4B9A80DDE713786372DAE7138886
:100750006381D7E71388FF2B07D82372D2E74FF0C6
:10076000FF30DBE76FF02C00D8E76FF01500D5E71E
:100770005010002052100020F8B50D46064620B358
:1007800019B311F0070420D1114F3B7C012B02D18A
:100790006FF00B00F8BD032B02D14FF0FF30F9E7EB
:1007A00000F060F80028F8D02846FFF7B1FE0028D6
:1007B000EEDB0CF028FC3046214602F047FAFFF74A
:1007C00041FF032320463B74E4E76FF01500E1E7A7
:1007D0005010002010B5064C237C032B03D102F0EF
:1007E0004DFA03F0B1F909F0A8FF0020207410BD04
:1007F0005010002050B1074B03F1140253F8041BB2
:10080000934240F8041BF9D1002070476FF01500A7
:10081000704700BF315E030008B502F0E1F90349FB
:100820000120BDE8084000F05BB900BFED04000006
:1008300008B502F0E9F903490020BDE8084000F0DE
:100840004FB900BFC904000002680020014B1A60C4
:10085000704700BF64100020014B1B68184700BFA1
:1008600064100020024B1868003818BF0120704740
:10087000641000202DE9F7430446264E071D254845
:10088000376003F079F90228054607D1214920464F
:1008900009F0FEF9284603B0BDE8F0830428F9D139
:1008A0003378072B18D13E2000F04AF878B9F37856
:1008B00001A93279684643EA0223ADF8003009F015
:1008C0001DFC0028DBD053210820FFF77FFE052008
:1008D00000F076F80028EAD03146204609F010FAF8
:1008E000B0F5817F01D37221EEE70028C7D094F8DC
:1008F000008094F80290404600F022F80028BED014
:10090000B8F13E0FC6D1484600F05AF80028C1D1D0
:10091000B5E700BF68100020074B4FF0FF3141F6EC
:10092000FF72C3E9001205490022C1E900221F211C
:10093000C3E90212704700BF00050020AC10002080
:100940003F280CD801380B4BC0F3421200F01F00B7
:1009500053F8223023FA00F000F001007047FF281E
:1009600006D04038044BC0F3421200F01F00EFE7FE
:100970000120704700050020AC100020074B014605
:10098000006849681A4603C240F48C221A6041F09C
:10099000107242F4FF625A60704700BF00050020E9
:1009A0000246024B0068516803C37047AC10002038
:1009B0000246024B0068516803C3704708050020D7
:1009C000431EF428DBB21FBF064A590903F01F0378
:1009D00002EB81021DBF9068D84000F001000020AA
:1009E000704700BF00050020014B1860704700BF32
:1009F000B410002010B5FFF78FFF0AF066FB034B21
:100A000004461B6803B19847204610BDB41000206F
:100A10000A8870B595B2C67CC2F30E02048802360D
:100A200002F118033444C35AA4B233442344013BB3
:100A3000B3FBF4F303FB0422438892B29342044BCA
:100A40008BBF2B40AB4313439BB20B8070BD00BFE9
:100A50000080FFFF4A1E062A08B50346084604D850
:100A60004FF4D1711520FFF7B1FD094A914202D927
:100A700040F2A311F6E711B903B1196008BD2BB11B
:100A80001B680022C3E901211A1D1A600430F5E732
:100A9000FAFFFF7F10B5114B00EB41041A78638910
:100AA000B3FBF2F303FB0223013A1A44B2F5706F71
:100AB0000279807828BF00231A440B18B2FBF0F1AA
:100AC00000FB11215B1AB3FBF0F100FB113313445F
:100AD0006FEA43436FEA5343638110BDB8100020AF
:100AE000024B03EB80035960704700BFB810002031
:100AF0002DE9F04F10F0070A85B0054604D040F20A
:100B000061111720FFF762FD524F044607F10C06F2
:100B1000B146B04657F8043B8DF80BA03BB101A895
:100B200098479DF80A30082B01D9E821E9E79DF89C
:100B30000B1041BB05B131604F4506F10406E9D108
:100B4000002D6ED00022DFF810910227964689F81A
:100B5000002058F827A0013FBAF1000F54D09AF8AE
:100B600004609AF802C0FF2E5FD039460023481C6B
:100B700037D19C44BCF1FF0F3ED90AB189F800E09F
:100B800040F22711BDE79DF80AC04B1D60465A0090
:100B900004EB4303022838BF0220441E4042234492
:100BA000BDF808406444CCF1000C0340013C04EA69
:100BB0000C04B4F5803F01D3F821A2E775B19A1A6D
:100BC0000120326091701480D0709DF80C0010717B
:100BD00001984FEA104C1081A2F806C004FB0134C2
:100BE000AAE758F8210028B190F804B0B34504BF33
:100BF00080781B180139BAE7DBB2E6458AF8043081
:100C00003CBF5FFA8CFE01227B1CA2D10AB189F89D
:100C100000E0022640F6FF6A58F82670B7B9013E98
:100C2000FAD2601B05B0BDE8F08F0023E5E707EBC3
:100C3000410309F101093846A3F80AA0FFF72AFF8A
:100C40005FFA89F1BB788B42F1D8E8E74FF00009F1
:100C5000F6E700BFBC100020B810002038B54FF6F2
:100C6000FF7302460380184B03EB81031869A8B198
:100C700084780379B3FBF4F104FB1133DBB219463A
:100C800000EB4105B5F90A50002D0EDB0131B1FB37
:100C9000F4F504FB1511C9B28B42F1D1002038BD27
:100CA0006381BDE8384009F02BBC00EB4104638947
:100CB000C3F30E031380C278002AF1D14FF4D5712B
:100CC0001720FFF783FC00BFB81000201C4B03EB7C
:100CD000810370B51C69054644B3030404D54FF481
:100CE000DC711720FFF772FC0146204609F0EBFB90
:100CF000FF28014604D02046BDE8704009F000BC42
:100D0000A078B5FBF0F300FB1353DBB219460A1DC4
:100D100004EB4206B6F90260002E09DB0131B1FB9B
:100D2000F0F200FB1211C9B28B42F0D1002070BD6D
:100D30008B4201D00023E37004EB42025580DAE7D6
:100D4000B8100020094B03EB8103014610B51C6964
:100D5000204609F0B8FBFF28014604D02046BDE834
:100D6000104009F0CDBB002010BD00BFB81000201E
:100D7000F8B5104B074603EB810301461C6920467A
:100D800009F0A1FBFF28054611D0E288238953EA28
:100D9000024606D00146204609F0B2FB014638461D
:100DA000B04720462946FFF775FE0020F8BD052014
:100DB000FCE700BFB810002038B50E4B044682791E
:100DC00003EB8203186908B9052038BD8278E17900
:100DD0009142F9D24B1CE37100EB41035D89B3F9F9
:100DE0000A30002BF3DBA58009F08AFB206000208D
:100DF000EBE700BFB810002070B5044610F0030008
:100E00000E4603D04E211820FFF7E0FBFFF722FE2D
:100E1000054624B1034831460460FFF71BFE28460F
:100E200070BD00BFD41000202DE9F14FDFF870B085
:100E30001E4607460D46DBF8003090469DF828A078
:100E40009DF82C901BB960211820FFF7BFFB52467C
:100E50000921404609F0B7F94A4684B209213046D3
:100E600009F0B1F981B2DBF80000214409F0FFFA82
:100E7000386018B9286001B0BDE8F08F04445346CB
:100E8000414609222C60386809F060F94B46092276
:100E90003146286801B0BDE8F04F09F057B900BFEE
:100EA000D410002070B50E46044609F09FF905469F
:100EB000304609F09BF9044B2A1821461868BDE812
:100EC000704009F0F9BA00BFD4100020014B186837
:100ED00009F0C1BAD41000201F2AF8B50446134601
:100EE0000ED89200033222F00303B3F5803F2DD2D7
:100EF000184DACB1A00710D05F210920FFF766FBA9
:100F0000FF2B4FEA420204D9FF339A42A8BF1A4688
:100F1000E8E77C2AB8BF7C22E4E729706C602B816B
:100F200022F0030228230127120403FB01F06B685F
:100F30000025120CEEB2B14200D8F8BD14B126184B
:100F40001F705E60104401352833F3E74FF0FF3027
:100F5000F3E700BFD8100020154A002170B5536890
:100F60001578C8B2854203D8AB210920FFF72EFBC4
:100F70001C461846013114F8286B0EB92346F0E7D9
:100F80000021997001241289996103F126055C7092
:100F90009208D96103F11E04596824F8022FA54272
:100FA00043F8041F1144F8D100234361037070BD5E
:100FB000D81000204B782DE9F04106460C4602F08F
:100FC000040702F0FB05E3B1A5BBFF23A3707B0878
:100FD00004EB57073A7D032A02D1022D18BF0133D3
:100FE000E2180121117503F10C01002204EB8303C7
:100FF00024F811205B68A27030463360B280BDE8EF
:10100000F081002DE1D1012301F11E028D61204606
:101010004B7004F1260C1A4BCD611B8949689B0863
:1010200022F8023F944540F8041F1944F8D10023E8
:101030006361CAE7D1F8048014220021A01861700E
:101040000CF0FBFB0E4B1B89B3F5FF7F0FD25A0848
:101050009B1A9BB208EB0301C4F804802384A160AF
:101060006284C4F80C80A3842161E284ADE7B3F507
:10107000EE6F4FF0FF02EBD940F27263EAE700BF78
:10108000D81000201F4B4FF0FF3000211A680123B9
:101090005360C2F80803C2F80015C2F804351A4AB2
:1010A00012685360C2F80803C2F8001540F6FE71DA
:1010B000164A1748C2F80815B0F90020002A0CDBC0
:1010C000510902F01F02934001F12002114941F839
:1010D0002230BFF34F8FBFF36F8FB0F90030002B7A
:1010E00009DB5A09012103F01F03994002F1600353
:1010F000084A42F82310054B40F6FE72C3F8082553
:10110000704700BF601C00205C1C002000200850BD
:10111000741C002000E100E00A460648192302F88A
:10112000033BC368C1F803300369536043699360AC
:10113000704700BFE8100020024B5A8C02435A84CB
:101140005B6A1847E8100020014B00215B6A1847D2
:10115000E810002010B5154C05F042FE05F012FA1B
:10116000208DFFF7F1FF237E63B12246104904F181
:10117000190052F80C3BE36063685360A368936006
:101180000BF038F80B4B228D93E8030003F05CFA68
:10119000236B188803F08CF9A36B94F8341094F83F
:1011A00035009847002384F83C3010BDE81000203B
:1011B0001911000014110020034B93F83C300BB1BF
:1011C000FFF7C8BF704700BFE810002070B51D4C86
:1011D0000646256B636C95F88C20236494F84830A0
:1011E00095F8691003EB82002EB9FF2803D195F81A
:1011F00068308B4201D005F0A5FC95F88C30D3B156
:10120000E06C05F0A5FE0123E16C84F87030206CE1
:10121000D5E93A23C4E9182305F038F916B9304660
:1012200005F0DEFE95F86810002005F021FF02238E
:1012300084F83C3070BD206C05F08AFE05F0A2F900
:10124000ECE700BFE810002008B5094B93F83C20FC
:10125000022A04D040F24F212720FFF7B7F9DA7AAB
:1012600042F00102DA72BDE80840FFF773BF00BF29
:10127000E810002003280B4B10B5044605D19A6FE7
:10128000D278022A01D1002010BDD86F09F02DF8C4
:101290000028F9D1032CF6D001F0BEFE80F0010049
:1012A000C0B2F1E7E81000202DE9F043474C85B0CB
:1012B0000546884694F83C30012BDFB204D040F25A
:1012C00004512720FFF782F9266B02A8A16F09F0CD
:1012D00036FA96F87C309DF808903BB10021042046
:1012E00086F87C10FFF728FF86F87E70B9F1030FAF
:1012F00025D0BDF80C30002B18BF022796F88C3093
:1013000086F88270ABB10123216B94F8487084F8A1
:10131000703091F86900D6E93A23C4E9182309F03E
:101320002BFA002203462A49009202203A4604F092
:10133000EDFF6DB105B0BDE8F043FFF70BBF96F8C8
:1013400082301BB9A16F0220FFF7F6FE0327D5E715
:10135000B8F1000FEED0D4F8803028469847002826
:10136000E8D094F83430002BE4D194F8843023B1E1
:1013700094F88500FFF77EFF0546606C0AF0AFFE2B
:10138000D4F88830B3B9B4F88C30B3FA83F35B097E
:10139000628C910710D5A26F137803F00303032B1F
:1013A000C8D1D378022BC5D1002005B0BDE8F043E9
:1013B000FFF70CBF0123EBE7002ABBD1012814BFC4
:1013C000002303F001032B43EED1B3E7E810002024
:1013D0003811002010B5094CD4F8883023B940F2F8
:1013E000F6412720FFF7F2F8B4F88C201846216C5C
:1013F000033208F085FB206410BD00BFE810002018
:10140000064B10B593F83C2002F0FF0422B91C767D
:1014100003F012F9204610BD0C24FBE7E810002071
:101420000A4B0B4A70B506460D461A60FFF7E8FFF7
:1014300018B1F4212720FFF7C9F8064C012104F167
:101440008E000AF03CFE6664E56470BD480500202D
:10145000601C0000E8100020024B012283F891205C
:10146000704700BFE8100020F0B585B0754C02AEA3
:101470000A9F86E8030094F83C1001F0FF0511B9BB
:101480000AB103B127B940F283112720FFF79EF874
:1014900096E8030004F12C0C84F8915084F8345041
:1014A00084F8925084F8355084F8935084F894501E
:1014B00065842585C4F880306262A7638CE80300E8
:1014C000256B05F071FB05F05DF895F9700005F5E9
:1014D000807705F0C5FB6E6AE86905F0C7FB30460A
:1014E00005F028FD95F89C0005F0CAFB04F15006B4
:1014F0000BF034FA95F8692000F17601012005F02F
:101500005BFC514B186805F01BFD2B69E3676B69A9
:10151000C4F8983005F1F0031868083353F8041C38
:101520003246BB4203C21646F6D15968474A236B7E
:10153000D5F8000193F8686003C293F88620A2F101
:101540002501012903D993F8871025295DD193F846
:101550003E322BB1012E03D0012B0CBF01260226F7
:1015600005F13007314638460AF0D4FE31460AF01C
:101570000CFCAB8F95F86910834228BF03463846B0
:1015800084F89C300AF0AFFE95F8691095F88C70DD
:101590000429B5F8446008BF03210AF0F6FB0FB92F
:1015A000043080B2864295F88C3028BF0646F6B2E9
:1015B00084F89D6084F8486093B10123D5E93A012D
:1015C00084F87030C4E9180195F8690009F0D4F87E
:1015D000002203461E4900920220324604F096FE85
:1015E0000120FFF7F3FD002323606360A360B5F8DB
:1015F000803063802B88238095F89C302371EB6EBC
:101600000BB101221A6005B0F0BD203A012A0DD8B5
:1016100023290DD093F8263113F0010202D19B0744
:101620009ED50222012E18BF164699E7232905D11F
:1016300093F8262193F861301340EDE7032E08BF9D
:1016400004268DE7E81000204805002050110020F6
:101650003811002008B50C4B93F83C201AB9BDE8AE
:101660000840FFF777BD93F83C20022A04D040F2EF
:1016700031212720FEF7AAFF1B6BD3F8B001BDE88C
:10168000084005F081BC00BFE8100020014B18762F
:10169000704700BFE8100020014B93F8930070479B
:1016A000E8100020024B93F82900C0F3C0007047F7
:1016B000E8100020014B93F892007047E8100020DA
:1016C0002DE9F043314D85B004460F4602A8296C40
:1016D0002E6B09F034F814F00109BDF80C8004F009
:1016E000020428D0002385F89E3094B1FFF772FEE3
:1016F0000DF1020201A9D5F8980008F0A2FE0198A8
:1017000008F085FE012238604146D5F8980008F0BF
:101710002DFEB9F1000F0BD0D6E93A32013342F178
:101720000002C6E93A3296F88430013386F88430F4
:1017300005B0BDE8F08395F89E30032B20D801A2B8
:1017400052F823F0EB160000551700006F17000049
:101750006F170000002CEBD0FFF73CFE0022414643
:10176000D5F8980005B0BDE8F04308F0FFBD002CA7
:10177000DED0D5F8980005B0BDE8F04308F05DBEB6
:1017800040F2A2412720FEF721FF00BFE810002011
:101790002DE9F04F0023A94C89B080468946276B7C
:1017A000CDE9043394F83C30022B04D040F28B5145
:1017B0002720FEF70BFF216C06A808F0C0FF97F862
:1017C0008C30B8F1000F00F027819DF819B0BDF8FA
:1017D0001C60002B39D004F0E3FEB0BB6EB197F86B
:1017E000843003F001035B450BD1012384F83530CD
:1017F000FFF7B0FC09B0BDE8F08FA4F88C600020C2
:1018000006E0A4F88C603146D4F8980008F08EFD0C
:10181000238D9DF81A2043F40073C4F888002385B3
:1018200097F8833003F001039A4263D0256B95F853
:101830008230002B3DD0022B13D104A9E06F08F0B9
:101840001EFD38B940F23B41B2E7A4F88C60002E8F
:10185000D5D0D8E7D5E93832013342F10002C5E9E5
:101860003832002195F87E3085F8821023B110209F
:1018700085F87E10FFF760FC95F87D30A3B14FF03E
:10188000000A85F87DA001F0B1FB10B940F2524189
:101890008EE751460820FFF74FFCD5E93832013377
:1018A00042F10002C5E9383295F88330013385F8FA
:1018B0008330238D4FF0000A43F40063238597F8AB
:1018C000843003F001035B4544D19DF81830256B4B
:1018D000022B11D8EBB995F88430013385F88430A8
:1018E000002E37D0D5E93A32013342F10002C5E982
:1018F0003A322FE0C246E2E7032BECD1238D0120E0
:10190000216C43F4805385F87C002385FFF714FC99
:10191000E1E7002EDFD0238D95F88C5043F48053FF
:10192000238505F0C5F8042894F89D3006D1002DD4
:101930000CBF1F221B22934228BF1346B34261D320
:10194000D4F8883033B194F89130002B73D0202034
:10195000FFF7FAFB002697F88B308BB1002597F83C
:101960006800D7E9382384F87050C4E9182308F0D8
:1019700003FFFB22034632490420009504F0C6FC15
:10198000B9F1000F5ED1638C94F89210180708D556
:10199000A26F137803F00303032B02D1D378022B39
:1019A00050D001294ED8D4F8803001209847002823
:1019B00048D094F83430002B44D11EB105A9012041
:1019C000FFF77EFE256B002395F88C208DF80D30F7
:1019D00094F8483095F8681003EB8203FF2B03D18D
:1019E00095F869308B4202D0FF2005F0ABF895F8EE
:1019F0008230032B00F21B81DFE813F07B00A6008E
:101A00000001110194F83430012043F0100384F8F0
:101A1000343006F0AFFB9DE70BB104F0D5FD94F830
:101A2000923000260133B24684F89230238D43F47D
:101A3000806323858FE746468DE700BFE8100020CE
:101A40003811002005F020FB002E4DD14FF0010988
:101A5000238D5A0606D44020FFF776FB238D43F0F2
:101A600040032385BAF1000F0DD0B4F80720B4F875
:101A700005301343B7F8802013431EBFB4F8093074
:101A80000133A4F80930B8F1000F00F0DC80B4F89D
:101A900005300133A4F80530002384F892306D48F6
:101AA00002F0F4FC049830B108F0B1FC216B002284
:101AB000027202F0A5F8059B33B1216B00221A7265
:101AC0000C22059802F06AF8B9F1000F7FF490AE8D
:101AD000238D1B063FF58EAE8020FFF735FB238D4F
:101AE00043F08003238585E605A90320FFF7E8FD81
:101AF000ACE794F89C305848ADF80E30A5F8583053
:101B000001F064FA28B1012385F87D3084F894301F
:101B10001CE00DF10D020DF10E01E06F08F08DFBE0
:101B2000A06788B195F8C73073B99DF80D302BB90F
:101B3000038001218370A06F0AF0C1FAA36FBDF882
:101B40000E205A700123E1E7444BA367D4F878B024
:101B500095F883209BF80000D20000F0F30300F01A
:101B6000030002F00802134395F88420920002F06B
:101B7000040213438BF80030FFF77CFB9BF8003026
:101B800023F0100343EA00138BF8003095F88B30F4
:101B9000A06F002B4ED04378002B4BD0E06C05F0AB
:101BA000D7F90022D5E9380184F87020C4E918017A
:101BB000E16CA06F05F0A8FB18B9A16FE06C04F010
:101BC000F9FB95F869100120012505F051FAA06F85
:101BD00084F893500AF083FAA36F84F884001B788A
:101BE00084F83C5003F0030384F88530002E3FF462
:101BF0002FAF05A90220FFF763FD29E7B5F858309C
:101C00000DF10D020DF10E01E06FADF80E3008F090
:101C100014FBA067002895D140F2F121C8E50E48D9
:101C200001F0D4F900288DD140F2FB21C0E540F24B
:101C30000931BDE505F08CF904F0A4FC0021A06F8A
:101C40000BF008FABDE7B4F807300133A4F8073009
:101C500025E700BF1411002060110020761100203C
:101C60004912000091170000A9120000B9110000EC
:101C7000094B53F8203003F5224370B5B1331646B3
:101C80004FF47A720C46B3FBF2F5344405F02EFBA8
:101C90002C44204470BD00BF60E802002DE9F04FE5
:101CA00004468BB00F469846039290F8699009F06D
:101CB00081FE94F873200B2A04D940F233410620A8
:101CC000FEF784FCBC4B03EB42039B8900EB030A49
:101CD0000AF044FE94F8873000F14D061FFA8AFAA4
:101CE0000293039B83BB94F8DC31032B2CD1029B22
:101CF0000D2B29D1B4F83C32BB4225D1D4F8E431C4
:101D00002046B4F8B421C4F8D031A369C4F8D43162
:101D1000B4F82A321344C4F8D83104F0BDF9D4E938
:101D20009023A262B4F83E22A361A285D4F848228F
:101D3000226241F64B5293428CBF0023012384F868
:101D40007230022384F8DC31B4F8285204F5FC73B5
:101D5000B4F880E07D1B0493A7EB0E0E2DB20FFAB2
:101D60008EFE002D10DA7546D4E98423C4E9882359
:101D7000012294F8DC31032B00F26D81DFE813F0CF
:101D80000600FA0054001E014246F2E7012100203D
:101D90000AF020F88146A06A5146484406F010F93E
:101DA0005146C4F8E001A06906F00AF907A9C4F891
:101DB000E40108A805F078F9079B0093DDE9082302
:101DC000D4E988010BF0E8F98346204608F0F4FCDA
:101DD000A26AD4F82C3294F86900D51805F08EFA6E
:101DE000D4F8E01100F52240203D4FF47A73B13071
:101DF00032466D1A3031AD1BB0FBF3F04D44A38D6C
:101E0000A5EB0B0503EB41012D1A94F86900FFF7D0
:101E10002FFFD4F82C32C4F8E801EB1ACC2B58D899
:101E200040F2DB4130204BE7A36A5146D4F8D4019D
:101E3000184406F0C5F85146C4F8E001A06906F060
:101E4000BFF8C4F8E401204608F0B6FCA36AD4F851
:101E5000D4511D44B4F8B431002B40F08780B8F160
:101E6000000F00F0838094F8690005F047FAD4F879
:101E7000E011D4F8183200F522406D1A94F8692068
:101E8000B130203D1D444C4B53F822204FF47A735F
:101E900002F2E732D4E9849AB2FBF3F2A5EB09052A
:101EA000B0FBF3F01544AD1B2D1AD4F8D821D4F8AB
:101EB000D03194F8690002FB0313A18D3246303310
:101EC00001EB4301FFF7D4FE0123C4F8E80184F8D5
:101ED000DC31A369D4F8E421A93B9B1A9E1B0023A3
:101EE000864284F8F831D4E9883228BF064604F1E6
:101EF00030005B19C4F8B06142F10002C4E98232DB
:101F00000AF0EFF93044A4F82872C4F8FC01D4E9CF
:101F10008223C4E98823B4F8A031DB1B1BB2002B59
:101F2000D4BF00220122520084F80022029A0D2A16
:101F300000F09480B8F1000F40F0938094F8DC3109
:101F4000002B00F0AA80A16904F5FC70D4F8E431FC
:101F5000C91A09F0EAFE80B2002800F09E80149BA6
:101F600003B1188001200BB0BDE8F08FD4F8E01168
:101F70006D1A9AE7D4F8E421A369B4F8B4C19B1AA6
:101F8000D4F8D811F444D4F8D0015D43D4F8E0314A
:101F9000ACEB010C30330CF1FF3C00FB0133A18DA5
:101FA00094F8690002FB0C33324601EB4301FFF762
:101FB0005FFEC4F8E8018CE760E80200D4F8E4A111
:101FC000A369A3EB0A035D4394F88630252B03D065
:101FD00094F88730252B09D1B4F83C32FB1A1B0446
:101FE00004D494F83F32002B18BF9946B4F8B4C11A
:101FF00042B3BCF1000F25D1D4E98623D4E9840192
:10200000904271EB030302D340F22F510AE794F898
:1020100069104FF47A7B2A4B203A53F82130D4E9E7
:102020008401CDE9040103F2E73103F5224304986A
:10203000B133121AB1FBFBF1B3FBFBF30A44D21A22
:10204000921B15440CEB0E01324648460AFB01F187
:1020500030314900ABE740F24751E3E6B8F1000FF9
:102060001BD0B4F8C80110B3B4F8CA1194F8CC214D
:102070004D1CA4F8CA1101FB022290420DDD002B79
:102080000BDD0023A4F8CA5184F8003201F04EFEA3
:1020900000F00700013084F8CC0104F5FC7194F8DD
:1020A000F70106F0E1FE20B94FF4B261BAE601464D
:1020B000DCE7039B83F0010384F8F431002052E74E
:1020C00060E802002DE9F04104460E46154690F8FE
:1020D000F03003F0FF071BB10C273846BDE8F08154
:1020E0000146444806F00AFE20288046F4D05722D4
:1020F000394604F1C9000BF0A0FB84F8C880C4F88D
:10210000CC60FF2384F8F03036B101F027FE00F0F8
:102110000700013086F8CC0102234FF00008A4F834
:10212000003184F8F88005F0A1FF00F1490620464F
:102130000AF079FD0146B6B270B309F03BFC00F538
:10214000CD61284689B205F03BFF2844AE3DC4F876
:10215000FC000AF0F1FF3018A4F8268041F10001DC
:10216000C4E94201012084F8D0000AF013FE2D1AC0
:10217000C4F8D4504FF0FF356FF0004194F8C80018
:10218000C4E9445104F1F80106F06EFE38BB40F298
:10219000CD113020FEF71AFA2046DFF85C800AF0F5
:1021A00066FCAE30C4F8FC00B8F8000048B1E08C22
:1021B00038B101F0D3FDB8F80030B0FBF3F202FB08
:1021C000130006440AF0B8FF361841F10001C4E9D3
:1021D0004261002DCED0AD1941F10001CEE7D4E926
:1021E000422300212046C4E93823C4E93A230AF0F7
:1021F00037FD72E735AA000088110020F0B50023F2
:1022000085B0CDE9003301238DF806306846FEF72E
:10221000D3FD70B11D4E01230027B370CDE90277C5
:1022200002A8FEF7C9FD0546C8B10023B37005B08A
:10223000F0BD009808F0B8FCE8E790F8F70106F068
:1022400017FF94F8F70107F0F5F894F8F70184F810
:10225000DC5106F079FD202384F8F731DEE7029B9C
:10226000002BDDD093F8F721202AD9D018884FF61B
:10227000FF739842D9D02946FEF764FD0446002832
:10228000DBD14FF49B713020FEF7A0F988110020BC
:10229000044B0022DA709A7042F210721A80FFF733
:1022A000ADBF00BF88110020014BD870704700BF40
:1022B0008811002008B504F001FC044B5A688242E2
:1022C0002ABF9878002080F0010008BD8811002006
:1022D000F7B5044606296ED8DFE801F00427152576
:1022E0002B306800354B9B7803F0FF025BB90092FE
:1022F0000123B0F8A411FFF7D1FC38B140F2D96145
:102300003020FEF763F9042384F8DC3104F0BEFDCD
:1023100006F00AFC0023B4F88020A4F82A32A4F8BE
:10232000F22184F8F53103B0F0BD032380F8DC31ED
:10233000F9E70AF085FEC4E98601F4E78569D0F87B
:10234000E4311E4F9D4288BFED1AFB7898BF0025EF
:102350001BB9036B9D4228BF1D46D4F8B06104F140
:10236000300009F0BEFF0644022006F0BFFF022144
:10237000AD1B25EAE575854228BF0546284606F0CF
:10238000FBFF00B92E4401234FF4807231462046F2
:102390000AF004F8D4F8B0317860A069184406F067
:1023A00077FF0028BFD140F28231A9E703B0BDE832
:1023B000F04008F001BA40F29571A1E788110020C1
:1023C0002DE970430C4615466ABB0246174994F83E
:1023D000C80005F0BFFE20B940F2A5713020FEF71D
:1023E000F5F804F06BFB84F8D0500646D4E9428936
:1023F00084F8F0500121D4F8CC0009F03EFCD4F868
:10240000CC00C0E9848994F8C830C0F82C6280F808
:10241000F731C0E9888908F0BFFA04F037FDBDE85C
:10242000704306F081BB4FF4F861D7E7D3A70000F3
:10243000014B1880704700BF88110020304BF0B569
:102440005A8885B0B0F85C700C46B0F85A60974274
:102450009D8828BF1746964228BF16461B2E2ED0B1
:10246000B5F5A47F2DD040F6480301A99D4228BFB1
:102470001D4608F0F9FCBDF80A30BB4228BF3B46B8
:10248000E380BDF80C30AB4228BF2B462381BDF85A
:102490000630B34228BF33466380BDF80830AB42F4
:1024A00028BF2B46A380FF232370E3881B3B9BB2EE
:1024B000E02B08D940F27C613920FEF787F81B2F0A
:1024C000CED105B0F0BD63881B3B9BB2E02B02D997
:1024D00040F27E61F0E72389A3F5A4739BB2B3F5C4
:1024E000E06F02D94FF4D061E6E7A388A3F5A473A7
:1024F0009BB2B3F5E06FE4D940F28261DCE700BF44
:102500009011002010B501210020FEF71BFC0446AD
:1025100070B90121FEF7DAFB044620B940F283319D
:102520003920FEF753F8034B93F906100AF067FAC7
:10253000204610BD9011002008B509F042FB00F0C4
:102540000FFF00F0C9FB09F02DFE01F007F902F0C2
:102550000BF80022084B1B214FF4A4701A60074BA4
:1025600098801A8059800648064B186099805A74E2
:102570005A829A829A7508BD4C050020901100205D
:1025800003021B00BC150020044B41F64C52C3E96A
:1025900002221B221A74FFF7CFBF00BFBC15002018
:1025A0002DE9FF41344D0446AB680363334B83612F
:1025B00008F031FB064600F07FFB8306297C53BF01
:1025C0001B236B88AA881A46A4F85A302C4BA4F80F
:1025D0005C201B6884F8381066871BB194F9701072
:1025E00020889847AE7CEF7CB5F8148016B900F0CF
:1025F00069FB0646002F3BD100F064FB07464EB94D
:1026000000212088FEF7B4FB60B340F22961392035
:10261000FDF7DCFF0028F3D003A920468DF80C60FD
:102620008DF80D70ADF80E8009F0D0FB01236A889B
:10263000697804F11000E3850332AB88019192B20E
:102640002978033300919BB204F11401FEF7ECFBEF
:10265000236913B940F25361D9E7636933B940F292
:102660005461D4E7092004B0BDE8F0810020FAE706
:10267000002ED1D1C4E700BFBC15002000093D00E9
:1026800050050020F7B504460D460AF0EBF9002886
:1026900070D020460AF0C7FA38B1B5F80130013BD6
:1026A0007F2B02D9122003B0F0BD20460AF0BFFAFA
:1026B00008B90C20F7E7204608F061FB0028F8D1A4
:1026C00020460AF08DF906460028F2D1204602F095
:1026D00003FC0028E6D042F21073B5F80170E978E7
:1026E00020465F430AF08BFA20460AF094FA01462E
:1026F00048B93A462046FFF7E5FCA8B341F6EE316B
:102700003920FDF763FF31460DF10600FEF7A6FA0A
:10271000054658B3314609F0B0FABDF806302046F8
:1027200029462B800AF08DFA20460AF086FA90B9E5
:10273000216A20460AF083FA01462846FFF730FF57
:10274000B0B93A4629462046FFF7BCFC024620B104
:1027500041F61141D4E70121EFE7074B9B681BB11C
:1027600005F58D712846984700209CE70D209AE7D3
:10277000092098E7422096E790110020024B1B6841
:1027800003B118470C2070474C050020034B5A88B2
:1027900002801B7883700020704700BFBC150020AA
:1027A00037B5837805461A2B08D8042B04D9144A68
:1027B00022FA03F3DB0705D412241AE0292B01D0F7
:1027C0003B2BF9D12888B0F5706FF5D2694609F036
:1027D00047FA88B9019B93F8182102F0FF046AB9FF
:1027E000AA7883F81921FF2283F81821684609F096
:1027F000B4FC204603B030BD0224FAE70C24F8E70D
:10280000200038040188A1F11B039BB2E02B0CD8F7
:10281000428844F24810A2F5A4739BB2834204D8C4
:10282000034B002059809A8070471220704700BFE8
:1028300090110020034B5A889B880280438000201F
:10284000704700BF9011002038B50278447802F03C
:10285000010302F0020254EA030101D1112038BD44
:10286000BAB98578002DF9D0002B18BF002400E0FC
:102870001D46204608F089FA0028EFD0284608F0C7
:1028800084FA0028EAD0054B00209C74DD749882FD
:10289000E5E7002BECD000242546EAE7BC15002034
:1028A00013B50088694609F0DBF918B10224204607
:1028B00002B010BD019A92F8DC31DBB292F8A82088
:1028C000002AF3D113F0FB0FF0D0019890F82A31D1
:1028D0000BB13A24EBE790F8D23003F0FF04002B61
:1028E000F7D190F8C9309B0706D1FF2380F82A3131
:1028F000684609F032FCDAE70249CA3009F07AFC8E
:10290000D5E700BFCFC80000F7B5077805460C46ED
:10291000EF2F0FD890F901204378002A0ADB827844
:10292000900707D113F010001DD1990603F00302A0
:1029300002D51AB1122442E0032AFBD01E07F9D4B3
:102940002979EA78EE7942EA0122697942EA01427C
:10295000A97941EA06212E7A41EA06418A42E9D85C
:102960001F2A0FD8E6E713F0600FE3D103F0070248
:10297000052A05D003F00F010D22CA40D107D9D591
:102980001A07DDD56A7A013A062AD3D8AA7A032A29
:10299000D0D813F0040102D1023A012A03D8EA7A0E
:1029A000012AC7D811B9AA7C032AC3D82A7D48B105
:1029B000012ABFD12A7E012ABCD830B91124204671
:1029C00003B0F0BD022AF5D1B4E7DB0712D46B786F
:1029D0002A7D03F01803082B11D1022AEED1012120
:1029E0003846FEF7AFF9064678B108F0C8F9B8B135
:1029F0000C24E4E700F024F90028E8D1DEE7022AFD
:102A0000EDD02B7F002BEAD0D8E701213846FEF726
:102A10005DF9064640B3154B93F9061009F0EFFF38
:102A200030460AF0F5F829462070E87430460AF07E
:102A30003AF8EB7E0446002BC1D00028BFD10246F5
:102A4000316B6846FEF7B6FA2246306B012107F07B
:102A5000C2FD316B68460422FEF7ACFA22462146DD
:102A6000306B07F0B8FDAAE70724A8E79011002013
:102A700030B502798BB00346042A4FD84088B0F5B0
:102A8000804F4BD8264900248D5C1144ADF800409E
:102A90004A798DF8084042F010028DF8244042EA4D
:102AA00045028D7AC97B42EA850242EAC102694643
:102AB00002F01F028DF80020BDF80020ADF80920BB
:102AC0001A888DF80E00000A8DF80B20120A8DF876
:102AD0000D408DF80C208DF80F008DF810405A7BBA
:102AE000D3F807008DF811205A79059002A88DF8C7
:102AF00012209A798DF81320B3F80B209B7BADF848
:102B000018208DF81A307F238DF81B304FF00113F9
:102B1000CDE90734FFF7F8FE0BB030BD1220FBE71C
:102B200084E802000278034672B1427862B14288BA
:102B30001A2A09D982881A2A06D90068034A10601D
:102B400000209B889380704712207047BC1500209E
:102B500002680020014B9A60704700BFBC1500203E
:102B60000378A3F10A02112A9BBF024A0020122017
:102B700013747047BC15002008B5052000F090F8CC
:102B800003F0BAFA014B024A9A6008BD9011002086
:102B90003D24000008B502F087F9FFF779FB0248F1
:102BA000BDE8084002F06AB99C1100200B4A0123DD
:102BB00010B5144682F8023102F07EF90AF0E1F90C
:102BC00008F0FDFF04F203112046FEF729FC002067
:102BD00007F09EFCBDE8104000F0C6BF9C1100202D
:102BE00010B5064C064904F5027008F0A8FE04F57D
:102BF00003700449BDE8104008F0A1BE9C110020FC
:102C0000540500205C05002010B5094C094904F565
:102C1000027008F094FE04F50370074908F08FFE77
:102C200004F504700549BDE8104008F088BE00BFF7
:102C30009C110020640500206C0500207405002014
:102C4000014B93F8020170479C11002010B5074C0E
:102C500000F066FFD4F8080208F069FEFFF794FC64
:102C600001F094F8012384F8143210BD9C11002067
:102C7000014B93F8140270479C11002010B5074CCB
:102C8000D4F80C0208F053FED4F8100208F04FFEFE
:102C9000FFF752FC002384F8143210BD9C11002071
:102CA000C208044900F0070001238340885C034305
:102CB0008B54704710050020014BD3E90001704789
:102CC00010050020034B1868C0F30020400040F0BE
:102CD000010070471005002008B505F0BDF900237C
:102CE000074A32F82310814205D302EB830293781E
:102CF000044A137008BD01330C2BF2D10023F7E70F
:102D000098E80200B113002010B54468238884F8C5
:102D10006711A4F8683194F86830012B06D0022BB3
:102D200004D040F281310620FDF750FC84F86A316E
:102D300094F86930012B01D0022BF2D184F86B3169
:102D400004F5AF70034909F055FA002384F82431E3
:102D500010BD00BFB9B9000040680749038800F200
:102D60005110A0F8093010F8F13CC37210F8F03C93
:102D7000037309F039BA00BFCFB900002DE9F04361
:102D800089460979446885B099F8057001F0070112
:102D9000054694F8866007F007074B1E7A1E0B4025
:102DA0003A40134394F88720232A3FD104F187083F
:102DB0001BBB384608F054FE002841D094F8683018
:102DC00098423DD094F82421012A0CBF94F8262182
:102DD00094F86420174210D0212E31D094F861204D
:102DE00017422DD1013B0138524ADBB2C0B2032B4E
:102DF000105C20D8D35C834222D994F82431012B73
:102E00005AD11E212846FFF77FFF212E58D16B682B
:102E1000182283F80921092283F8862093F8C2300A
:102E2000002B45D14FF42F71AE2007E0212E7ED12B
:102E300004F18608BCE740F239210620FDF7C6FB05
:102E4000084608F00DFE68B194F86930834209D055
:102E500094F82431012B0CBF94F8273194F8653095
:102E60001942CAD0B9F8066003AB20463A4600932F
:102E7000334608F002FE6B68044688BB93F82421B1
:102E8000012A2AD101462846FFF73EFF88F8004074
:102E90006B6803F18702904502D1002283F88720F6
:102EA0006B6803F1870290453DD1284609F0BEFAD0
:102EB000002005B0BDE8F083002384F82431A4E7A6
:102EC0000023284688F8003009F0B0FA1821284677
:102ED00005B0BDE8F04309F0D1BA83F82401D7E783
:102EE000B3F88020A3F83C62013EB61A47F6FD72A3
:102EF000B6B2964206D92822284683F8A92001F0C6
:102F0000C9F8CDE793F887200D2A02D00A3A012AA2
:102F100001D82A22F0E7BDF80C20A3F83E22252391
:102F200088F80030BCE7002283F8C220C0E7022006
:102F3000BFE700BFC8E80200044B002283F822204C
:102F40004FF6FF729A84DA841A857047B213002014
:102F5000054B9A8C824201BF002283F822204FF653
:102F6000FF729A84704700BFB2130020014BD884CF
:102F7000704700BFB2130020084B4FF6FF72998CC8
:102F8000914206D193F82220012A04D00360012047
:102F90007047002303600020704700BFB213002079
:102FA000064B93F82220012A1BBF0120DA8C002057
:102FB00083F8220018BF9A84704700BFB213002024
:102FC000014B1885704700BFB2130020064B024624
:102FD000198D988C884205D193F8220018B10120F0
:102FE0001360704700207047B2130020094B998C82
:102FF0001A8D914201D0002070474FF6FF729A84DB
:1030000093F82220002AF6D00022012083F8222003
:10301000704700BFB2130020054B998C1A8D914266
:1030200003BF93F82200B0FA80F0400901207047F6
:10303000B213002050B90A4A0120134603F8010BCD
:103040000868C2F801008A889A807047012805D173
:10305000034B0A68D8719A608A889A81704700BFCA
:10306000DC13002050B90B4B187888B1D3F801203D
:10307000B3F805300A6001208B807047012806D123
:10308000044BD87920B19A689B890A60F3E7002045
:10309000704700BFDC13002010B9044B187870474C
:1030A000012806BF014BD87900207047DC130020AF
:1030B000F7B58A8800238DF80600ADF8042008686B
:1030C0000B4A8DF807300146147802F5A872019D6D
:1030D000D8B2844201D8082007E052F8087F0133B3
:1030E0005668AE4208BF8F42F2D103B0F0BD00BFB8
:1030F000F0130020084B0146002230B55C7803F243
:103100000113D0B2844201D8082004E013F8015F13
:1031100001328D42F5D130BDF0130020F8B52D4CB1
:1031200063782218013B92F80251DBB2834263704C
:1031300030D01A010101961C8F1C2644274406F149
:10314000100C56F804EB664547F804EBF9D18232CF
:1031500082312244214402F1100652F8047BB2422B
:1031600041F8047BF9D1E118221891F8026182F844
:10317000026106267343704303F5857300F585707D
:10318000E618E35827182350B388BB8091F83A31EA
:1031900082F83A312846FFF7ADFF082818D1237886
:1031A000013BDBB29D42237012D02B3305F12B0281
:1031B00004EBC30304EBC20293E8030082E80300BC
:1031C0002078FFF797FF08281CBF241884F80251C5
:1031D000F8BD00BFF0130020F0B5254D89B095F87B
:1031E000984105F299116846224606F089FC21466D
:1031F000684608F005FD0446B8B300EB400102A89C
:10320000C9B2FDF729FB631E95F8A1610124DBB269
:1032100095F8981105E0721CB2FBF1F001FB102249
:10322000D6B206F120020DEB020010F8202C002A85
:10323000F1D103EB430100F8204C06EB46022031AC
:103240002A44694411F8187C82F8A27111F8177C9D
:1032500011F8161C82F8A37182F8A411013BAA1977
:10326000DBB282F89941FF2BD2D109B0F0BD00BF8B
:10327000F013002070B5064688B00C46002A4ED0E8
:10328000294A92F8A131D01890F8991119B9FF2163
:103290002820FDF79BF903EB43010133114491F81A
:1032A000A251E57091F8A35191F8A41125716171B3
:1032B000002180F8991192F89811B3FBF1F001FB0D
:1032C000103382F8A13192F8C23123B9174902F5BF
:1032D000DD7008F08CFF65790D220021684605F04D
:1032E0003F0545F0400565710AF0A7FAE37804AAA6
:1032F00069468DF80F30304623798DF80D508DF8E2
:103300000E3004230AF0FEF99DF81F3023709DF85B
:103310001E3063709DF81D30A37008B070BD03218E
:103320006018FDF799FAD6E7F0130020D9310000B4
:10333000044B5A78824286BF1B1893F84A0100203A
:10334000704700BFF0130020044B5A78824286BFBA
:103350001B1893F842010020704700BFF0130020B3
:10336000064B00224FF461711A8083F8C32183F861
:10337000C421A3F8C61183F8C2217047F0130020BE
:10338000014B83F8C4017047F01300202DE9F0478A
:103390008246894617469846FFF78AFE0828054662
:1033A000064603D0FFF7A6FE082860D1324C6378AA
:1033B000072B5ED8082D15D12678731C072E237095
:1033C00003D96C212820FDF701F906F12B02D9F869
:1033D000000004EBC20344F83200B9F8042083F87B
:1033E00006A09A80657807F110026B1C29016370B2
:1033F0004B1C234412F8010DBA4203F8010FF9D116
:10340000813108F11003214413F8012D984501F88A
:10341000012FF9D125441021404608F07AFC1021F3
:1034200085F84201384608F074FC85F80261667838
:10343000002385F84A013146104885F83A3108F0F2
:10344000DFFB0128054607D831460D4808F0D8FBB8
:10345000002818BF0135EDB284F8985100252846A0
:1034600084F8A151FFF7B8FE2846BDE8F087122086
:10347000FBE70720F9E700BFF0130020321500201A
:103480003A150020064B10B55878013840B2002894
:1034900000DA10BDC4B22046FFF740FE601EF5E71B
:1034A000F0130020014B83F8C3017047F013002094
:1034B000014B93F8C3017047F0130020431E4AF2FA
:1034C000B7129BB293429DBF024BA3F8C6010120E5
:1034D00000207047F0130020014BB3F8C60170477D
:1034E000F01300200A4B30B55C7884420ED91844A2
:1034F00090F802012B3003EBC004A5790D7053F84E
:10350000300010600120A388938030BD0020FCE7CC
:10351000F01300200246074810B590F8C34124B1CB
:10352000417821B1023002F00DFE204610BD0C465C
:10353000FBE700BFF01300202DE9F74F2F4C9A4610
:10354000804689466378834256D9231893F84251BE
:1035500085F00105F9B193F84A31E3B945F0020766
:103560000135BAF1000F18D1FA070AD5062104EB8C
:103570000810524601FB0841823001F58571FFF7C2
:1035800079FEBB0734D504EB081052464946023099
:10359000FFF770FE2CE02F46E3E794F8A1614FF0AF
:1035A000010B002DE0D0A31993F89911019399B95B
:1035B0000092DAB100F0BAFB019B06EB4601009ADB
:1035C0004FEA102C83F899B1214481F8A201000C34
:1035D00081F8A3C181F8A401013694F89831013D26
:1035E000B6FBF3F103FB1166F6B2DAE747F0040726
:1035F000384603B0BDE8F08F0027F9E7F01300204C
:10360000074B5A78824209D91A1892F842212AB9EE
:10361000062202FB003000F58570704700207047DD
:10362000F0130020064B5A78824281BF1B1893F892
:103630003A01B0FA80F0400998BF0020704700BFFF
:10364000F0130020F8B50E46074606211546304611
:1036500008F05FFB044670B10C4B0022587803F26F
:103660003913D1B2884202D801242046F8BD013274
:1036700003F8015FF5E73146384608F0DDFA08281F
:10368000F3D0024B034483F83A51EDE7F0130020E6
:1036900030B5002442F21075A0F84040B0F8444024
:1036A0004C43B4FBF2F4A0F84440541E05FB034322
:1036B000B3FBF2F3A0F84230084BB3FBF2F3013353
:1036C000A0F84830838F05FB0344436B5943B4FB98
:1036D000F2F4B1FBF2F18463416330BD005A62023F
:1036E000034B80F870101B680BB1008818477047B7
:1036F0007C050020074B93F900301844142804DCA3
:1037000010F17F0F03DB40B27047142070476FF059
:103710007E007047B81500207F2307B50DF1070024
:103720008DF8073003F098FC03469DF9070053B16C
:10373000094B5B785B425BB21844142806DC10F13D
:103740007F0F05DB40B203B05DF804FB1420FAE7FD
:103750006FF07E00F7E700BFB8150020024B002293
:103760001A705A70704700BFB815002003464078A1
:10377000B8B1DB783F2B06D80A4AD35C83428CBFB2
:1037800000200120704703F10A02D2B2022A07D8B2
:10379000044A134413F8B63C1B1A58425841704768
:1037A00001207047CCE802003F2908B5C17003D85A
:1037B0000B4B5B5C437008BD01F10A03DBB2022BCB
:1037C00004D8074B0B4413F8B63CF3E7FF2904D0A9
:1037D00040F239412A20FCF7F9FE0123EAE700BF55
:1037E000CCE802002DE9F34789466946154698461C
:1037F00008F036FA044620B9019E35B9012386F84F
:103800008D30012002B0BDE8F0873769294638467F
:1038100006F0BDFC01460028F4D0164B5B88AB4295
:1038200025D3384606F0EFFD96F88D3082460480A9
:10383000002B84700CBF4946022108F040FC414631
:103840002A460AF1030006F05BF92946384606F0DD
:10385000D9FC18B97E212B20FCF7B8FE684608F089
:103860007CFC019BA3F8A24186F88D40C9E7204665
:10387000C8E700BFBC150020024B987DC04300F094
:1038800001007047BC150020044B987DC0F3400038
:1038900080F0010000F00100704700BFBC1500205F
:1038A00083230B70014B1B78CB707047D41500201D
:1038B0002DE9F84FD0F804800D46D8F81460304652
:1038C00006F093FD044618B9FF211020FCF77EFE98
:1038D0000146304606F097FDB4F800B082461FFA64
:1038E0008BF9B9F1000F02D140F20311EDE71E4B45
:1038F000C71C1B688BB9B8F80030A5F806B0AB80C0
:1039000000236B729AF8003003F00303012B0FD0F1
:10391000022B0DD040F21D11D7E74A463946B8F8C0
:103920000000984704460028E5D12046BDE8F88FFE
:1039300030462B7206F06DFD044610B94FF49371BA
:10394000C3E7B9F1FB0F02D940F23511BDE7286892
:1039500010B94FF49B71B8E74A46394606F0D0F8E3
:10396000304606F0B1FCE0E7800500202DE9F34782
:103970008246894605270026DFF84881D9F81030AD
:1039800053B11B7A1BB980211020FCF71FFED9F818
:103990001040B4B9002071E0D9F80440237A012B1B
:1039A000F8D0EFF3108372B6D9F804201268C9F882
:1039B000042003B962B6C9F81040237A0BB9A621D6
:1039C000E2E7257AEDB227726B1E0B2B6AD8DFE88F
:1039D00003F066061C3463693D6969696958636868
:1039E00013B94FF4D771CFE72046514698470420CA
:1039F000EFF3108272B6237A052BD9B25CD126720E
:103A0000C9F81060B2B962B614E0636813B940F245
:103A1000B711B9E75146204698470346ADF8040070
:103A2000C0B2C3F30723012B3FD0022BE0D1002308
:103A3000C9F810300028A1D020E0636813B940F223
:103A4000BF11A1E7204698470020D1E763680BB972
:103A5000B52199E70B2200248AF800200122198859
:103A600018698AF80220AAF803108AF805208AF853
:103A7000064006F029FC0420C9F8104002B0BDE859
:103A8000F087D8F80030514620469847034660B189
:103A90000220C9F81060F1E74FF4FB7174E740F2BF
:103AA000F91171E74FF4FE716EE725720028E5D138
:103AB000002B7FF463AF6DE711B940F21D2163E77E
:103AC00000209FE78405002038B5134C1422002104
:103AD000201D09F0B2FE0125257404F1080314220B
:103AE000002104F11800C4E9013309F0A6FE84F8AE
:103AF000245004F11C03094AC4E906330023E3629D
:103B0000236384F83430C4F83530C4F8393084F88D
:103B10003D30136038BD00BFD41500208005002063
:103B200010B5084C2378FF2B04D04FF4A07110205F
:103B3000FCF74CFD05F018FF2070BDE81040FFF7C2
:103B4000C3BF00BF1D05002010B5034C207805F051
:103B500025FFFF23237010BD1D050020014B1878A1
:103B600005F02CBF1D050020014B024A1A6070476A
:103B700084050020B138000010B506490446FFF75F
:103B8000F5FE28B920460449BDE81040FFF7EEBE17
:103B900010BD00BFEC150020D8150020134610B54D
:103BA000027A22B140F299211020FCF70FFD0A465B
:103BB00001460248BDE8104008F0F6BAD8150020CA
:103BC000044890F834301BB903492C3008F009BB85
:103BD000704700BFD41500209BC100000346064873
:103BE00090F83E203AB190F83D2022B9034900F800
:103BF000353B08F0F6BA7047D4150020A138000014
:103C00000A4610B5037A23B140F2A1211020FCF737
:103C1000DDFC014607230248BDE8104008F0C4BAA5
:103C2000EC1500201346027A0AB1037270470A4667
:103C30000146014808F0B8BAD81500201B234FF000
:103C40001B128384038482618382C260038539B935
:103C50004FF4A473034AC3844384C261C3820261E4
:103C6000704700BF4801480103460846F0B4B3F866
:103C70005420B3F84840B3F856109442B3F8446067
:103C8000DF8F28BF1446B3F84C20B3F842508A4265
:103C9000DC8728BF0A46B3F846109142A3F84220B9
:103CA00038BF1146A64238BF2646A742A3F84610A1
:103CB000A3F844601FD1AA1A18BF0122B3F84A50D2
:103CC000B3F85040B3F85270A5429E8FB3F840103D
:103CD00028BF2546B3F84E40BC429D8728BF3C46CE
:103CE000AE42A3F8404002D1A14200D12AB104491A
:103CF000F0BC08F07FBA0122E0E7F0BC704700BFDB
:103D0000FBC100000B8BA2F809001046A2F80B3093
:103D10004B8BA2F80D308B8BA2F80F30CB8B024966
:103D2000A2F8113008F060BA4BC20000094AD2E98B
:103D30000003434083EAB01181EA43214FEAF34391
:103D400011605360044B58434FEAF06000EB800071
:103D5000704700BF14160020BB79379E094AD2E98C
:103D60000003434083EAB01181EA43214FEAF34361
:103D700011605360044B58434FEAF06000EB800041
:103D8000704700BF20050020BB79379E10B50A4C54
:103D900008210948FCF760FDD4E900321343F7D04D
:103DA000064CFFF7DBFF2060FFF7D8FF2368606059
:103DB0001843F6D010BD00BF2005002014160020C7
:103DC000174B184A9A60184A5A60184A1A60184ADB
:103DD0009A62184ADA62184ADA60184A9A61184AEE
:103DE0001A63184A1A62184ADA64184A9A64184A16
:103DF0005A62184B184A9A60184A5A62184ADA628C
:103E0000184A1A61184A5A61184A9A61184A1A637C
:103E1000184A9A64184ADA64184A9A63704700BFCD
:103E20008805002011C5000041C50000ADC5000097
:103E300013C7000067C70000BD4100007DC7000038
:103E4000F5430000A14200004BC8000067C8000015
:103E5000E9420000940600202DC500001DC80000A6
:103E60009FC7000043C70000C3C7000041420000D5
:103E7000EDC8000095C8000087C8000003C8000016
:103E8000044B054A5A65054B054A1A65054A5A65A9
:103E9000704700BF8805002061C60000940600201E
:103EA00047C60000BFC60000054B064A9A65064A91
:103EB0001A66064B064A9A65064ADA65704700BFDD
:103EC00088050020FDBA00007D2D0000940600202A
:103ED00047BA00009FBB0000252A0346084610B5DC
:103EE00018D8012A19D9023A232A16D8DFE802F095
:103EF0001A15252424311533152439444815154C39
:103F000024245F5F757C15151515151515151515E8
:103F10001587929AFF2A00F08D804FF49D61512001
:103F2000FCF754FB1A785B68012A02D193F8103130
:103F300001E093F81931037110BD5968D1F8BE2121
:103F40004260D1F8C22182605B68D3F80431C3605B
:103F5000F2E75B68EAE701461846BDE8104000F06A
:103F600013BA0F2303715923437100238371B123C3
:103F7000C37130230372DFE75B6893F80A31DAE735
:103F8000BDE8104000F0F0B95A681B784BB992F8C0
:103F9000103133B192F80D31037192F80C31437145
:103FA000CAE792F80B31037192F80A31F7E75B68C0
:103FB000B3F854200271120A4271B3F812218271CF
:103FC000120AC271B3F850200272120A4272B3F898
:103FD000103183721B0AC372AEE75B6893F8262127
:103FE000027193F82731DAE75B6893F82421012AFC
:103FF000F4D093F86420027193F86530CFE7124A49
:104000001468002C98D001461A4623202346BDE8A8
:10401000104018470C4A1468002C8DD001461A46EF
:104020002420F3E7084A1468002C85D001461A467C
:104030002520EBE75B68BDE8104093F83722D3F802
:10404000381208F050B800BFA00700203F2803D85E
:10405000064B53F82000704700F10A03DBB2022B35
:1040600001D8B638F4E70020704700BF880500206B
:104070003F2803D8064B53F82000704700F10A038D
:10408000DBB2022B01D8B638F4E70020704700BF3E
:1040900094060020F7B5456804464FF6FF772E6971
:1040A0000DF102010DF101023046ADF8027006F08B
:1040B000C4F801A9304606F0E2F840B1019806F0D4
:1040C000A6F9616800220272FFF79AFDE8E7044949
:1040D00005F1A00003B0BDE8F04008F085B800BFCE
:1040E0009FC40000F0B5044685B00D46FF2600F8D9
:1040F000896C10F88A3CF3B1184F3B781BB148210A
:104100001F20FCF763FA0C21381DFCF7A5FB3E705D
:10411000002304F8893C07232A4602F8033BD4F81D
:104120000930C5F80330D4F80D305360D4F811309D
:10413000936005B0F0BD01A80C21FCF78DFBA4F540
:104140001473039AC3F8042101AB03CB44F8920C17
:1041500044F88E1C04F88A6CDAE700BF1C160020B5
:1041600010B5054C23782BB90C21201DFCF774FBEE
:10417000FF23237010BD00BF1C160020024690F8DC
:10418000C631BBB990F8C73103F0FF010BB1002075
:104190007047094B18780028F9D01970D968043392
:1041A000C2F8041103CBC2F8BE01C2F8C211FF234A
:1041B00082F8C631012070471C160020426838B5CD
:1041C00092F8873004460D463BB1132B05D0113BC6
:1041D0000B2B8CBF0120082038BD92F8C83013B9D2
:1041E000204608F019F96268D5F80E30C2F8B631E9
:1041F000D5F81230C2F8BA316368D5F81620C3F882
:1042000000211A88A3F859226A68C3F85B22AA68B9
:10421000C3F85F226368AA89A3F863226368002554
:1042200083F8C6516068054900F5147007F0D9FF9E
:1042300063681522284683F88720CDE7E540000013
:1042400038B54368044693F887201C2A04D04FF4FD
:10425000DE711F20FCF7BAF9002293F8C8101D8800
:1042600003F5C97083F8C72069B10B4983F8C820EA
:10427000A3F89C5183F89B2107F0B3FF63680022E9
:1042800083F8872038BD012283F89B11A3F89C5145
:10429000024983F89E21EFE7FFC60000F1C6000047
:1042A00038B54568AB6F13F0010417D14A680C4B61
:1042B000896813400B4AC5F8D830C3F307630A4036
:1042C00043F00803C5F8DC2085F8DB3008F0A4F8DB
:1042D000AB6F204643F00103AB6738BD0120FCE71C
:1042E0002FC904F76FDB0080406808B590F886306E
:1042F000042B24D14B688A68C0F8D830C3F3076315
:10430000C0F8DC2043F0080380F8DB30002380F89D
:10431000C23080F8863090F8743103F0FF020BB1A0
:10432000002008BD038800F5B670427243814B68D7
:10433000C3608B680349036107F053FFF0E7012076
:10434000EFE700BFE1C70000406890F8743143B95F
:10435000038800F5B670034943811A23437207F0BE
:1043600040BF7047E1C7000010B50446FEF7A4FC4B
:10437000034A044B02400B406260A36010BD00BFC3
:104380002FC904F76FDB008037B50C464568FEF790
:1043900093FC084B084A03400A4095F8D810009354
:1043A0000B4001928DF800306B4603CB6060A1603A
:1043B00003B030BD2FC904F76FDB008038B5DB04D4
:1043C000154604D5037D13B10023436338BD446B08
:1043D0000134446308F06BFA836B9C42F6D30023EC
:1043E000034943632846BDE8384007F003BF00BFD8
:1043F0003DC8000038B54468054694F88630012B66
:1044000002D0A36F98073CD494F8C9309A0715D40A
:104410000A79D80784F8D320B1F80520A4F8D4206D
:10442000B1F80720A4F8D62043F0020284F8C9208E
:104430000FD5154904F1CA0007F0DCFE94F8C93025
:10444000D90711D4A36F9A0708D555214020FCF74E
:10445000BDF894F82A31002BEBD1EFE743F00203CB
:104460002846A36707F0D8FF94F88630012B4FF059
:10447000000301D0002038BD84F8863084F8C230B3
:10448000F8E70120F7E700BFCFC8000070B5456826
:104490000446FFF741F9054B014685F885001B6886
:1044A0001BB12046BDE87040184770BDA80700202A
:1044B000024B1B6803B11847704700BFA4070020D8
:1044C000F0B51F4D00242B7814709BB1013B6D6833
:1044D000DBB21E1B012E0FDC05EBC40655F8347051
:1044E00076688E4208BF874227D0B84271EB060635
:1044F00012D214700020F0BD1E197710C6F34706C3
:1045000055F837C005EBC70E8445DEF804708F41BF
:104510002CBF33463446DCE705EBC30455F8335073
:1045200064688C4208BF854206D0A84271EB04043F
:1045300028BF01331370DDE71C4601201470DAE751
:104540003C16002010F0070208B503D06321482074
:10455000FCF73CF818B1034B197258601A70C80088
:1045600008BD00BF3C160020014B00221A707047A6
:104570003C160020014B187A704700BF3C16002003
:104580002DE9D34308F0D4F90DF1070207460E4692
:10459000FFF796FF90B90F4C2378227A9A420ED0FB
:1045A000626819469DF807E002EBC3008E4509D307
:1045B00002EBCE020133C2E900762370012002B083
:1045C000BDE8D08350E90289013960E80289C9B2A7
:1045D000ECE700BF3C16002037B508F0A9F90DF153
:1045E0000702FFF76DFF58B10A499DF807300A78B6
:1045F000013AD2B20A70496801EBC3019A4201D86C
:1046000003B030BDD1E902450133E1E80245DBB238
:10461000F4E700BF3C1600200A460648822302F851
:10462000033B0368C1F803304368536083689360B9
:10463000704700BF4516002016220021014809F0EE
:10464000FCB800BF4516002082B002AB03E90300AE
:104650000D48437DB3B1530614D50A880C30B1F828
:10466000803020F80C2CD1F8182220F80A3C40F8B1
:10467000082CD1F81C22054940F8042C022202B073
:10468000FFF7D0BA02B07047451600201946000067
:104690000346074A1068D3F85120C0F80320B3F846
:1046A0005520A0F8072093F8501007F08EBC00BFEB
:1046B0006816002070B504460E461346407F658894
:1046C000324615F0040118BF04F15F01FEF734FF14
:1046D0004107054621D4C2070BD50123607F84F82A
:1046E0005030FEF78DFF0368C4F851308388A4F87A
:1046F0005530AB0701D4012070BD094B012118686A
:10470000D4F85F3084F85E10C0F80930B4F8633034
:10471000A0F80D3007F062FCEDE70020ECE700BFE9
:104720006816002038B5C38D04460F4D0133C3F31E
:104730000E03C385AB7C2BB102F080FC01F060FD61
:104740000023AB7400232B7194F871302BB101213D
:104750002046BDE8384006F0D2BA637C13B1E28D42
:104760009A42F4D20021F3E76816002010B5094CF4
:104770002379012B02D02379022B05D1A37C1BB115
:1047800002F05CFC01F03CFDE069BDE81040FFF781
:10479000C9BF00BF6816002070B5294C2379012BD2
:1047A00007D02379022B04D040F659412D20FBF786
:1047B0000DFFA0B90125A37C1BB102F03FFC01F065
:1047C0001FFD002D3AD0E06906F013FA002830D022
:1047D00002F006FB236ABDE870409B681847216819
:1047E000E26911F8095B02F1510392F85020E809DF
:1047F00007F0E8F90028DDD00021206807F013FC5D
:104800000028D7D02379E069012B05D02379022B2A
:1048100002D040F63241C9E7237905F00F01226A40
:1048200003F180435269013B52F823309847054613
:10483000C1E7E069BDE87040FFF774BF70BD00BF1D
:10484000681600200346074AD06903B909B9FFF783
:1048500069BF1379126A03F180431269033B52F86E
:10486000233018476816002003292DE9F043054638
:1048700085B0174607D14388980723D400242046E3
:1048800005B0BDE8F083428890F87030D107DBB204
:10489000F4D5002BF2D14FF00108DFF8D49099F84D
:1048A0001260C6B107F0D2F90828387016D002AAF3
:1048B0000DF10701FEF716FE38B940F6D1612D2043
:1048C000FBF784FE4FF00208E7E702A99DF8070016
:1048D00008F03AF806463B78082B08D1D9F80010C2
:1048E00011F8030BC0F3801008F02EF80646D9F833
:1048F000001005F1580395F8572011F8030BC0F389
:10490000801007F05FF9D9F80010044611F8030B86
:10491000C0F3801007F090F98146FEF783FE40B1A6
:10492000B9F1080F1BD04846FEF702FD80F00103E5
:10493000D8B23A78082A14D01CB96C7FA21A544213
:1049400054416A8853079AD4002897D176B9EC7CF1
:10495000444518BF002C0CBF012400248FE7002021
:10496000E7E780F001022240D4B2EAE7344686E766
:10497000681600202DE9F04F85B008230521044674
:104980000DF107028DF80730FFF76EFF064620B9DC
:104990000026304605B0BDE8F08F744F396807F146
:1049A0001403FA7C11F8030BC0F3801007F00AF926
:1049B00080460028ECD13B6840F2E249216A184663
:1049C00091F88E2010F8035B02EA55121D4602F0A2
:1049D000010281F88E20D3F80320C1F803208288D9
:1049E000A1F8072015F81F1B226AC1F380119170EE
:1049F00002A9D3F81F00029028790871D3F80F009C
:104A0000D061587D1D7D000440EA0520DD7C2843EF
:104A10005062B3F8190082F8728009FB00F09061CF
:104A20009D7DC5EB451005EB800505EB85056D000B
:104A30009585B3F8170009FB00F09062B3F81B00EE
:104A40001084B3F81D00508493F8243003F01F0045
:104A50005B0982F89A0082F87330256A94F912A0F3
:104A600005F18E0007F00CFA40F20113A5F868304A
:104A70004FF0FF0B85F86AB0414605F13000FFF7B3
:104A8000DDF851462846FEF72BFE236A84F87B802A
:104A900004F186011A8884F899B0A4F87C204FF6B6
:104AA000FF729DF80700A4F89A209A69B2FBF9F208
:104AB000A4F892201A8CA4F894205A8CA4F896207A
:104AC00093F8732084F89820227F5AB394F85020EA
:104AD000012A27D194F8562002F0C002402A21D1A1
:104AE000D4F85120C4F88620B4F855208A800828CC
:104AF0009A7803F1030504F18C0184F87F2004F116
:104B00008002D3F8033027D0C4F88C30AB888B8078
:104B100004F17F01FEF7E6FC40B940F6B8312D20E4
:104B2000FBF754FD0022C4F88620DFE794F87F30BD
:104B300043F0020384F87F3004F172000C4907F05F
:104B400050FB0C4B0022206A1B683A71002B3FF48B
:104B500020AF214698471CE7C4F88030AB8893808B
:104B60000023C4F88C308B80E6E700BF6816002075
:104B700085C90000B0070020032973B5044604D09E
:104B8000052956D0012002B070BD08230DF107029F
:104B90008DF80730FFF768FE0028F3D0237C294DFD
:104BA00003B39DF8070094F8BE30DBB923780828DA
:104BB00004F1C10284F8BF302CD004F1C001FEF72B
:104BC00091FC20B940F647712D20FBF7FFFC94F8CB
:104BD000C03043F0020384F8C0301B4904F1B60032
:104BE00007F0FFFA2B680622042620465A701E7032
:104BF000FFF74EFDE16B94F84020286807F004FAB7
:104C000028682E7102F0A4F90021286808F022FA21
:104C10000020B8E72868034613F8031BC1F380118E
:104C200084F8C010D0F80310C4F8C1109B8893809A
:104C3000D3E7064B1B68002BEAD0984780F00100B1
:104C4000C0B2A0E7681600206DC90000AC070020C4
:104C5000F8B504460F4619B300F12805284608F0B8
:104C600076F8A0B963881A072ED5284608F084F88C
:104C70000646284608F06BF8301AC0B208F08AF8E9
:104C8000494A936803442846936008F03FF8284651
:104C900008F041F801F0F4FF2179252001F052FFDE
:104CA000414E002394F85E2030680370437063889F
:104CB000103B0D2B68D8DFE803F063675F0C674497
:104CC00067676767676767442046BDE8F840FFF796
:104CD00029BD06234370202303702046FFF7D8FC2C
:104CE000638823F008039BB2152B05D094F8382075
:104CF000616B306807F079F9306802F029F900211A
:104D0000306808F0A7F9032321790020337101F0FE
:104D1000E3FF054607B9F06063881B0704D508F078
:104D200036F80544C4F8D8506388103B0D2B36D8AC
:104D3000DFE803F038352F2F352F3535353535354C
:104D4000352F0C2321214370034603F8091B52B170
:104D5000D4F85F200121C0F80920B4F863209A80BC
:104D600007F03CF9B9E7A26DC0F80920B4F85C205F
:104D70009A8094F85710F3E7062303704370ACE76A
:104D8000022303700623F9E740F233612D20FBF77D
:104D90001DFC21790120BDE8F84002F069B940F618
:104DA000CC41F3E7F8BD00BF6816002038B5438852
:104DB0000446102B04D10121BDE83840FFF748BF5D
:104DC0000B4DAB7C23B101F0EFF9402002F02AF942
:104DD000286802F0BDF8608810F0040002D1217943
:104DE00002F046F9002002F0FBF801232B7138BDD8
:104DF00068160020024B0121D869FFF729BF00BFC8
:104E00006816002010B5134CA37C1BB102F016F9F4
:104E100001F0F6F9E06905F0ECFE70B12379012BA1
:104E200010D12379226A03F18043E069D268013B03
:104E3000BDE8104052F823301847E069BDE8104043
:104E4000FFF770BC2379022BEBD040F65B312D20AD
:104E5000FBF7BCFB68160020074810B5037903F088
:104E6000FF0433B918222146043008F0E6FC20463E
:104E700010BD0C24FBE700BF6816002010B500230E
:104E8000084C23712060FFF7E7FF20B14FF43B711E
:104E90002D20FBF79BFB236A13B940F2EF21F7E7C4
:104EA00010BD00BF68160020014B024A1A6270470D
:104EB000681600207C510000034B044A1A60044B22
:104EC000044A1A60704700BFAC0700207549000013
:104ED000B0070020C1230000F8B5057D0446AF1ED1
:104EE000FFB2002D3AD0012F2DD800F1580190F8D3
:104EF000570006F0A1FE0828064624D0FEF724FA43
:104F000010BB023D18BF0125012F84F85050667771
:104F10008CBF002701272777FEF7DEFA054608F049
:104F20000BF90022164B84F85E20E5FB0301C4E96F
:104F3000120111462046FFF7BDFB70B940F27741E0
:104F40002D20FBF743FB0826022D09D104F1510166
:104F50000020FEF787F880B90020F8BD0826F5E7A5
:104F6000E37E002BF8D0D4F815300125C4F8513079
:104F7000B4F81930A4F85530C6E70025C4E700BFDF
:104F800040420F00F0B5464E85B00446327902F03B
:104F9000FF0312B90278FF2A04D140F6B6112D2082
:104FA000FBF714FB3382B3607371B37180F8713017
:104FB0003C4B684604F1280500933B4B01933B4B67
:104FC0000293336A5B68039301F0BAFF01F0ECFDD2
:104FD00002F034F801F014F9354801F047FE354885
:104FE00001F0A8FF284607F091FE284607F093FE3F
:104FF00001F046FE2179252001F0A4FD94F912006C
:1050000001F02EFE04F13401206B05F002FB07468F
:1050100004F13C01206B05F023FB0546E7B194F851
:105020002430CBB1B4F92E50ED43ED0F237F13B9EB
:1050300063885B0709D56FF00043D4E912129A42E6
:1050400008BFB1F1FF3F0ED1A5B930680330FEF7BC
:1050500061FAB07405B0F0BD002DE7D094F825508A
:10506000002DDFD1E2E708F067F8D4E9122390427F
:105070009941E9D3012229462046FFF71BFB50B195
:10508000FEF72AFA054608F057F80B4BE5FB03013B
:10509000C4E91201D9E7002DD7D040F6F3117EE71D
:1050A00068160020054E00009947000045480000A2
:1050B000D6BE898E5555550040420F0073B5044643
:1050C000FFF760FF00212046FFF7C2FDA36E0BB182
:1050D00001221A606388DB0720D50023104E256A61
:1050E000CDE90033FF23F3746846FBF765FEA8B9EA
:1050F000009CA542F8D005F10A036A7A04F10A017E
:10510000607A06F05FFD0028EED0A378F374D4F83F
:105110000300044B7061B4F807209A8002B070BDA0
:10512000681600207C160020024BD8611B6A1B68A1
:10513000184700BF6816002043881B0710B50446B7
:105140000ED5036A3C220849723042721B884381A3
:10515000FF2380F827304FF6FF73038507F041F8EF
:10516000FF2384F8713010BD85C90000D7C9000045
:10517000AD4D0000DDC90000794B0000BD500000BE
:105180006D470000F54D00006C51000070510000AB
:10519000785100000138022808B503D9C3212F2017
:1051A000FBF714FA13290A4B05D811290CD810293A
:1051B00007D0D121F3E71529FBD103EB4003D888B1
:1051C00001E033F8100008BD03EB40039889FAE7CB
:1051D00068E902000C4A0346117889B9906833B92E
:1051E000B0F85810828F91420AD8FDF763B89389BE
:1051F0001B0707D590F88800073818BF01207047B3
:1052000000207047012070478C1600202D4AF8B509
:105210000346948990681C43402B948104D1042157
:10522000BDE8F840FDF754B8802B01D10521F7E720
:1052300003F00304032C04D140F6B9213120FBF71D
:10524000C5F913F0020418BF1161DD0705D55161DE
:10525000C97806290DD00B2917D02CB11169C9784E
:1052600005291DD00B2927D09B0644BF08231370A6
:10527000F8BD90F887101829EFD1002600270121EA
:10528000C0E9386780F88B10E7E790F8871012299B
:1052900001BF002180F88B10012180F8C810DCE7E5
:1052A00090F887101629DFD1002400250121C0E9DC
:1052B0003A4580F88C10D7E790F887101129D3D1A0
:1052C0000021F6E78C16002073B5044640680D46B1
:1052D000836F13F0300F47D109891A2903D96B89DD
:1052E000B3F5A47F06D2E978204602B0BDE870404D
:1052F00007F0C4B8AA881A2AF5D9EE88B6F5A47FB3
:10530000F1D33030009606F0FEFF184B9A899207D1
:105310000ED51B69DB78142B0AD16268936F43F0BA
:1053200010039367204607F077F8002002B070BDA5
:10533000636893F886201D2AEFD093F81B31002B69
:10534000EBD1636893F81A31002BE6D16268936F52
:10535000114602F59F7243F0200331F8300B42F8FA
:10536000C63CFEF7CFFCDDE70120DFE78C1600200E
:1053700037B5044601A8FDF7FFFD20B940F69E01B0
:105380003120FBF723F922220021019808F055FA79
:10539000019D0321284606F092FE2B78214623F03A
:1053A00010032B700198FEF7FFF92246019905487A
:1053B000FEF792FDFDF7F4FD10B940F6A801DFE716
:1053C00003B030BD90160020264B70B59C6894F851
:1053D0003E5294F83F62002D3DD194F86810002EA3
:1053E0003BD194F8693084F8681084F86930FF2361
:1053F00084F86A301C4B1B680BB12046984794F820
:105400002431012B01D0354303D000211748FDF78B
:105410007BFC04F13006304606F063FF04F23511E0
:1054200005462046FEF720FC20460621FCF750FFEB
:10543000304606F056FF8542044610D202F0AAFE1E
:105440000146601B192838BF192003F095FFB0FAF8
:1054500080F0400970BD2946C1E73346C3E701200B
:10546000F8E700BF8C160020C0070020901600202F
:10547000154B1B6910B51979436893F88620092AE2
:1054800009D193F809218A4205D1002283F88620A8
:1054900083F8C22010BD9A6F12F0080406D022F0E3
:1054A0000802BDE810409A6706F0C0BFFF2905D189
:1054B000332283F8344283F88620EBE740F24B51E5
:1054C0003120FBF783F800BF8C160020F8B50D796A
:1054D0000446A5F10E03DBB2152B0DD8012640F2D0
:1054E000512206FA03F7174208D14268152B92F8A9
:1054F000862028D0082B08D00020F8BD024631466F
:105500002846BDE8F84007F049BC212A01D02E2AE0
:10551000F2D1204606F077FF636893F88720222AAD
:10552000EAD093F8D9201A21204622F0010283F80C
:10553000D920626892F8D93023F0080382F8D93074
:10554000FDF7E2FBD8E7282AD6D1034B1B68002BD6
:10555000D2D09847D0E700BFBC0700202DE9F0412A
:10556000A0F10E0400291346E4B208BF1F21172C36
:105570000AD8012640F25127A6403E4207D116F430
:10558000600F23D1082C07D00020BDE8F081002156
:10559000BDE8F04107F002BC546894F88620212A47
:1055A00008D11846FDF7B0FB002384F8863084F854
:1055B000C230E9E72E2AE7D194F88720A2F1200132
:1055C0000629F1D92E2AEFD02A21EAE7054A1468E4
:1055D000002CD9D00A46014618462346BDE8F041C2
:1055E000184700BFB80700202DE9F7437F4D064656
:1055F000AC68002840F0A480AB891A0724D594F841
:105600000E31FE2B04D140F2CE513120FAF7DEFFED
:10561000FE2384F80E3194F887301A2B06D184F8D3
:10562000C700281D06F002FF84F8876094F88630D2
:10563000202B33D0332B3FD094F88830072B02BF78
:1056400002232B7684F80E31AB89DB073DD4AB897E
:105650005F0700F1AB80990740F1B280AB6801228F
:1056600083F80F212B69DF780D2F00F0A680112F12
:1056700000F0B180072F00F0B0803846FEF7F8FC4C
:105680000346002840F09A80FF2F40F0A880AA68C7
:10569000332182F8340282F8861091E094F8873042
:1056A000A3F12002062A05D92E2B03D0212384F84A
:1056B0008630C1E72E23FAE7012384F83532002330
:1056C00084F8863084F8C230B6E7D5F80890D5F86B
:1056D000148099F88730113B0B2B0BD898F80330C6
:1056E000023BDBB2092B7DD840F2333222FA03F3BE
:1056F000D80777D54046FEF739F898F8037020B9F7
:1057000039463B4806F0BAFE49E0012F01D9162F71
:1057100030D199F8860006F09EFE40B199F88630A7
:10572000202B04D0212B07D12E2389F88630384630
:10573000FEF78CFC03462AE0162F14BF0226202613
:105740002B781B0712D594F88730113B0B2B4BD9C4
:10575000002501A903200195FBF7B2FF019B2BB1A6
:105760001D720C2221460198FEF718FA304603B04C
:10577000BDE8F083112F0ED005D8072F14D00D2FC0
:10578000D5D11C4B08E0142FD1D11B4B1B681BB982
:1057900098F80310B5E7194B696915489847002830
:1057A0003FF455AF0646CBE7154BF5E794F8882054
:1057B000062A04BF01222A764DE7124B0C4898476F
:1057C000AB89DA06BCD594F887300A2BB8D10B2305
:1057D00084F88730B4E70C4BF0E70C4BEEE740F26F
:1057E000C15112E70826ABE70820C0E78C1600205D
:1057F00090160020DBCE0000B407002023CF00006D
:10580000CD5400006BCE000089CE00007154000022
:105810002DE9F74FB64F0E468046B989BC688D0515
:1058200004F1780A54BFB4F8B8200023504653BF9F
:105830000132A4F8B83084F8AF31A4F8B82007F0EA
:105840003BFB30B10B4604F5967221465046FEF7FD
:10585000B5FDBB8903F4C0632BB194F88A30002BEB
:1058600047D0032B4CD094F88A20BB89012A04D15D
:10587000180544BF022284F88A20B8F1000F40F0D6
:105880009580590657BFB4F8C8214246013292B2FA
:10589000A4F8C82103F00A020A2A0DD13A69D27885
:1058A000022A09D123F008033046BB81FFF79CFE92
:1058B00030430823C6B2BB813046FFF795FEBD6872
:1058C000304395F80E31C6B2FE2B3CD1DEBB95F8C5
:1058D0008830063B012B36D995F81831ABB195F8D5
:1058E000193101220221A5F8BC6085F81031284643
:1058F0002BE1012184F88A102046FCF7E9FCB2E78D
:105900000223012184F88A30F6E795F88790A9F1FF
:1059100010095FFA89F9B9F10C0F40F2ED80AB6F15
:10592000DA0702D532460921E1E7980740F1938072
:1059300032460C21284607F07FFA95F8C93043F02B
:10594000010385F8C930B4F8A83194F8AC5101339B
:10595000A4F8A831002D00F0FD81FBF7A3FE10B1E3
:105960000023A4F8A83194F88A10012940F2278274
:1059700094F88830072B40F00582B4F8B830022B39
:1059800040F21D82B4F8BA500135ADB2B4F880309F
:105990002B44A4F8A03194F8AD31002B00F0138211
:1059A0000123B4F880201344A4F8A431BB89BD6856
:1059B0005B0657BFB5F8B4310023B5F8A6219B1894
:1059C00058BF9BB2A5F8B43195F8183123B995F8B2
:1059D0008830063B012B06D8B5F8BC30B5F8A621B7
:1059E0001344A5F8BC3095F8C21031B1B5F8BE30FB
:1059F000B5F8A6211344A5F8BE3095F9C620002AB3
:105A0000C1BFB5F8C430B5F8A6011B18A5F8C4305D
:105A100095F8A93063B9B8F1000F40F065823B7E7C
:105A2000022B40F0178295F81031062B18BF162371
:105A300095F8A82022B92F4885F8A930FEF72AFB4F
:105A4000284607F0A7FA002384F8AB3103B0BDE87D
:105A5000F04FFDF7CBBA590702D53246132146E77E
:105A60001A0706D595F80831324685F81031072116
:105A70003DE713F0300F35D095F81B31002B4AD19C
:105A800095F81A31CBB195F8873005F58D7105F28F
:105A90003E22252B24D095F88630A3F125004342E1
:105AA0004341284606F021FCAB6F23F0200343F06E
:105AB0001003AB67002385F81A31AB6FDA062AD5DD
:105AC00005F235112846FEF7CFF8B5F8523000221E
:105AD0001521A5F81031B5F85630A5F8123106E7B2
:105AE0000123DEE75B0616D500222421FFE600BF76
:105AF0008C16002090160020D7F808B09BF887304D
:105B0000113B0B2B0ED8DFE803F01D0D0D0D232CE0
:105B10000D0D0D0D0D55B86890F88730222B4FD024
:105B2000312B4AD095F88630002B59D195F8873023
:105B3000103B0C2B5CD995F8B630002B58D00122C5
:105B40001221D4E600220B21584607F075F9FAE637
:105B50005846FEF713FB00283FF4F5AE002204215F
:105B6000F2E79BF83032012B08D10022052158467C
:105B700007F062F900238BF83032E4E69BF830320C
:105B8000022BD9B27FF4DFAE9BF8C85025B10623B3
:105B900000228BF81031EAE703210622B34806F011
:105BA00054FC9BF8D8302A4613F0040F0CBF0D218B
:105BB0001121DCE700220621C6E700221121C4E7FB
:105BC00090F82431022B02D100221721BDE790F872
:105BD0002431012BA6D190F82531002BF4D0A1E778
:105BE000092B05D195F80931012285F810313EE7DE
:105BF000B9F10C0F7FF6A7AED7F8089099F886B0E8
:105C0000BBF1000F40F08C8099F82B313BB10122A1
:105C10000E21484607F010F989F82BB1ADE799F845
:105C20002A3193B199F8C9B01BF003030DD14BF0A1
:105C3000010B01220C214846019307F0FDF889F879
:105C4000C9B0019B89F82A3197E799F81A3133B323
:105C500099F81B311BBB99F8873009F58D7109F252
:105C60003E22252B19D099F88630A3F12500434216
:105C70004341484606F039FB002389F81A310122D6
:105C80001421484607F0D8F8B9F85230A9F8103175
:105C9000B9F85630A9F8123155E60123E9E799F829
:105CA0002431012B4BD199F82531002B47D199F89C
