:020000040000FA
:1000000008680020A1400100877302008D400100B4
:100010008D4001008D4001008D4001008D400100A8
:100020000000000000000000000000007942010014
:100030008D40010000000000394201008D400100A8
:100040001144010011440100114401001144010058
:100050001144010011440100114401001144010048
:100060001144010011440100114401001144010038
:100070001144010011440100114401001144010028
:10025000114401004F9602001144010011440100B5
:1002600011440100114401007F9602001144010075
:100270001144010011440100114401001144010026
:100280001144010011440100114401001144010016
:100290001144010011440100114401001144010006
:1002A00011440100114401001144010011440100F6
:1002B00011440100114401001144010011440100E6
:1002C00011440100114401001144010011440100D6
:1002D00011440100114401001144010011440100C6
:1002E00011440100114401001144010011440100B6
:1002F00011440100114401001144010011440100A6
:100300001144010011440100114401001144010095
:100310001144010011440100114401001144010085
:100320001144010011440100114401001144010075
:100330001144010011440100114401001144010065
:100340001144010011440100114401001144010055
:100350001144010011440100114401001144010045
:100360001144010011440100114401001144010035
:100370001144010011440100114401001144010025
:100380001144010011440100114401001144010015
:100390001144010011440100114401001144010005
:1003A00011440100114401001144010011440100F5
:1003B00011440100114401001144010011440100E5
:1003C00011440100114401001144010011440100D5
:1003D000114401006996020011440100114401001A
:1003E00011440100114401001144010011440100B5
:1003F00011440100114401001144010011440100A5
:100400001144010011440100114401001144010094
:100410001144010011440100114401001144010084
:100420001144010011440100114401001144010074
:100430001144010011440100114401001144010064
:100440001144010011440100114401001144010054
:100450001144010011440100114401001144010044
:100460001144010011440100114401001144010034
:10047000114401001144010011440100FFFFFFFF7E
:1004800053B94AB9002908BF00281CBF4FF0FF31FB
:100490004FF0FF3000F00CB8ADF1080C6DE904CE60
:1004A0000BF00AFFDDF804E0DDE9022304B0704739
:1004B000704700BF2DE9F00791E8F807B2E8021095
:1004C0005B1854EB0C04B2E802104D4156EB0C06DD
:1004D000B2E802104F4158EB0C08B2E8021059EB99
:1004E00001095AEB0C0A80E8F80780410130BDE8A9
:1004F000F00770472DE9F00791E8F807B2E802101D
:100500005B1A74EB0C04B2E802108D4176EB0C061A
:10051000B2E802108F4178EB0C08B2E8021079EBD8
:1005200001097AEB0C0A80E8F80780414042BDE8F7
:10053000F00770472DE9F007524290E87800B1E8E3
:1005400080071740DB1918EA020854EB080419EA7F
:10055000020955EB09051AEA020A56EB0A0678C0A9
:1005600090E87800B1E8800717407B4118EA02085C
:1005700054EB080419EA020955EB09051AEA020AC4
:1005800056EB0A0678C080410130BDE8F00770479D
:100590002DE9F007524290E87800B1E88007174053
:1005A000DB1B18EA020874EB080419EA020975EB70
:1005B00009051AEA020A76EB0A0678C090E8780084
:1005C000B1E880071740BB4118EA020874EB080441
:1005D00019EA020975EB09051AEA020A76EB0A061E
:1005E00078C080414042BDE8F00770472DE9F00136
:1005F00052424FF0040890E8300091E8C000A31B7D
:100600001340E41AF618EB1B1340ED1AFF1830C024
:10061000C0C1B8F10108EED1BDE8F001704700BFDC
:1006200000B592E8DC072DE9DC07B1E8805702B499
:10063000A7FB02510A95A8FB020BE7FB6310E9FB3D
:1006400062B00B91A8FB0351EAFB6201E7FB64B5C2
:10065000E7FB6605E8FB6615CDF830B0A9FB03B6ED
:10066000EAFB6316ECFB6356E8FB640BE9FB641BD7
:10067000EAFB645BECFB646B0D90ACFB0230059C09
:10068000EEFB6250E9FB6460EAFB64B0E7FB6431B7
:10069000E8FB6451069CE8FB6461E9FB64B1EAFB9A
:1006A00064010E93A7FB0432079CE7FB6462E8FB3E
:1006B00064B2E9FB6402EAFB6412049CE9FB645344
:1006C000EAFB6463089CE7FB64B3E8FB6403E9FBB3
:1006D0006413EAFB64230F955DF8049B99E8000618
:1006E000DDF80080A9FB0854EAFB68B4DDF810804F
:1006F000ECFB6804EEFB6814E9FB6824EAFB683451
:10070000DDF80480EEFB6865E9FB68B5EAFB680587
:10071000DDF81480ECFB6815EEFB6825E9FB683515
:10072000EAFB68450F96DDF80880AEFB0876E9FB2A
:100730006806EAFB6816DDF81880ECFB6826EEFB1D
:100740006836E9FB6846EAFB6856DDF80C80ECFB8E
:1007500068B7EEFB6807E9FB6817EAFB6827DDF876
:100760001C80ECFB6837EEFB6847E9FB6857EAFB47
:10077000686708B000BD00BF2DE9F14F87B0FFF7F3
:100780004FFFDDF81C8008F1200888E8FF00FFBC5F
:1007900087E87F08BDE8F08F00B591E89857A3FB84
:1007A00003520195A3FB0401E3FB6420E3FB671004
:1007B0000292A3FB0752E3FB6802E4FB6415E3FB30
:1007C0006805E3FB69250391A4FB07B6E3FB6926F3
:1007D000E3FB6A56E4FB670BE4FB682BE3FB6A5B15
:1007E000E3FB6C6B0490A4FB0810E4FB6950E3FB93
:1007F0006C60E3FB6EB0E7FB6721E4FB6951E4FB4F
:100800006A61E3FB6EB1E4FB6E010592A7FB08325F
:10081000E4FB6A62E4FB6CB2E4FB6E02E7FB6E127F
:10082000E7FB6853E7FB6963E4FB6CB3E7FB6C032E
:10083000E7FB6E13E8FB6E230695A7FB0954E7FB65
:100840006AB4E7FB6C04E8FB6C14E8FB6E24E9FB7C
:100850006E34E8FB6865E7FB6AB5E8FB6A05E8FB10
:100860006C15E9FB6C25E9FB6E35EAFB6E450796D6
:10087000A8FB0976E8FB6A06E9FB6A16E9FB6C2629
:10088000EAFB6C36EAFB6E46ECFB6E56E8FB69B79A
:10089000E9FB6907E9FB6A17EAFB6A27EAFB6C37A1
:1008A000ECFB6C47ECFB6E57EEFB6E6700BD00BFC8
:1008B0002DE9F14F87B0FFF76FFFDDF81C8008F1DD
:1008C000200888E8FF00FFBC87E87F08BDE8F08FBC
:1008D00030B44FF0000310F8014B11F8015B013AFE
:1008E00084EA050443EA0403F5D1A3F101034FEAC6
:1008F000D37030BC704700BF4FF0000310F8012BDD
:10090000013943EA0203F9D1A3F101034FEAD3709D
:10091000704700BF30B411F8014B12F8015B6C4016
:1009200000F8014B013BF6D130BC70472DE9F007D0
:1009300091E8F807B2E802105B1854EB0C04B2E837
:1009400002104D4156EB0C06B2E802104F4158EB35
:100950000C08B2E8021059EB01095AEB0C0A894164
:10096000B3F1FF3374F1FF3475F1FF3576F1000612
:1009700077F1000778F1000879F101097AF1FF3A7F
:1009800051F100015B184C414D4156F1000657F101
:10099000000758F1000859EBD1795AEB010A80E8B9
:1009A000F807BDE8F00770472DE9F00791E8F80770
:1009B000B2E802105B1A74EB0C04B2E802108D412D
:1009C00076EB0C06B2E802108F4178EB0C08B2E827
:1009D000021079EB01097AEB0C0A89415B184C4152
:1009E0004D4156F1000657F1000758F1000859EB48
:1009F000D1795AEB010A80E8F807BDE8F0077047A3
:100A000018EB040859EB05095AEB060A5BEB070BD8
:100A10005FF0000C4CF1000C18EB050859EB0609CF
:100A20005AEB070A5BEB070B50EB0C005FF0000C76
:100A300051EB0C0152EB0C0263414CF1000CB8EB92
:100A4000070879F100097AF1000A7BEB040BA84151
:100A5000B141A241B3416CF1000CBBEB050BB041BD
:100A6000B941AA41BB416CF1000C4CF001068CF07D
:100A7000020718EB060859EB6C095AEB6C0A7BEB82
:100A80006C0B70EB6C0471EB6C0572EB670653EB4F
:100A90006C076CEB6C0C18EB0C0059EB0C015AEB6F
:100AA0000C025BF1000354F1000455F1000556EB14
:100AB000DC7657EB0C0770472DE9F14F87B0FFF755
:100AC000AFFDDDF81080DDF81490DDF818A0FFF719
:100AD00097FFBDE8000FFFF793FF03B05DF8048BAD
:100AE00088E8FF00BDE8F08F2DE9F14F87B0FFF7F0
:100AF00053FEDDF81080DDF81490DDF818A0FFF744
:100B00007FFFBDE8000FFFF77BFF03B05DF8048BAC
:100B100088E8FF00BDE8F08F1FB50B4B01A90193DA
:100B20004FF4B073ADF8083008238DF80A3083789D
:100B300003208DF80B30FF238DF80C3000F0ACFD56
:100B400005B05DF804FB00BFC70D01001FB50B4BDE
:100B500001A901934FF48063ADF8083008238DF8A4
:100B60000A30437802208DF80B3000238DF80C30CA
:100B700000F092FD05B05DF804FB00BFE311010039
:100B8000F7B504460D4641B9134B5B78012B04D0F1
:100B9000019101A80121FFF7F3FF2368002D0F4EFB
:100BA0004FF0000503F107030D4F0CBF2046002056
:100BB00023F00703236000F047FD56F8043B0BB118
:100BC0003846984701350F2DF7D100F0B7FD23685F
:100BD0000344236003B0F0BD380B00205400002014
:100BE0003A0B00202DE9F04385B09B4C06460D469C
:100BF000039003A8FFF7C4FFA778E3784FF000093C
:100C00001F44C846FFB25FFA89F39F4200F2128187
:100C10000398002D414600F1030020F003000390EB
:100C200018BF002000F0CCFE039B217918440390EC
:100C300081B163790330627C002D20F003001A44F7
:100C4000A389039018BF0020D2B200F02DFF039BB0
:100C500003440393814F7B68CBB1E17AB9B194F837
:100C600028300398002B00F1070014BF40232523F0
:100C700020F0070014BF4FF481722822002D03904A
:100C800018BF002002F002FC039B03440393A17BE6
:100C900099B123791BB97B687BB1E37A6BB1039877
:100CA000002D00F1070020F00700039018BF00207E
:100CB00005F074F9039B03440393694B1B687BB1F4
:100CC000A17969B10398002DE27B00F1030020F0C7
:100CD0000300039018BF00209847039B034403932D
:100CE000604B1B6873B1217C61B10398002D00F14A
:100CF000030020F00300039018BF00209847039BD7
:100D000003440393584BD3F80080B8F1000F12D07E
:100D1000617C81B10398002D237D00F10300A27C4A
:100D2000009320F00300E37C039018BF0020C0472D
:100D3000039B03440393FB6983B1A17971B10398C9
:100D4000002DA27D00F1030020F00300039018BFE6
:100D5000002000F095FF039B0344039394F82100C7
:100D600080B1039AE37E0332217E22F00702194408
:100D70002B4642F00402C9B2039200F0C1FF039B6C
:100D80000344039394F8221000295DD0039F002DA3
:100D9000A28C07F1070718BF002027F0070708BF3C
:100DA000384603970CF087FA039B034403931DB95D
:100DB000A18C384609F0BCF9217F002946D094F86F
:100DC0002030002B42D00398002DE28B00F1070069
:100DD00002F1240220F0070092B2039018BF002015
:100DE0000CF069FA039FA37E3A18217E94F8200044
:100DF000033219442B4622F00702C9B242F0040222
:100E0000039200F06FFF039B0344039335B9E28B19
:100E10003846217F083292B209F0A4F9E36A23B17F
:100E2000039B05B9E362283303930398801B05B045
:100E3000BDE8F083A37A09F10109627A217AE079A9
:100E40000CF00BFA8044DEE60F46B0E7002DE5D14A
:100E50002A4629462846DFE7380B002054000020A8
:100E60009000002098000020940000208FB572B6FA
:100E70001A4B1D6BE5B9BFF34F8F1949194BCA685F
:100E800002F4E0621343CB60BFF34F8F00BFFDE776
:100E9000B4FBF6F4D3B20132002CF9D103F1100205
:100EA0006A4402F80C4C0A2433B901A8A847E2E7C7
:100EB000044600220A26EDE7013BDBB203F11002F3
:100EC0000DEB0206C2B2B2FBF4F704FB172230327C
:100ED000B0FBF4F006F80C2CE6E700BF380B00205E
:100EE00000ED00E00400FA051FB5164C02A8A37A35
:100EF0008DF80930637A8DF80830237AADF80C301C
:100F0000E379ADF80A3003F04DF818B1DB21032086
:100F1000FFF7ACFF012301A88DF804300EF025F88F
:100F200008B1DF21F3E7207D03F06CF808B1E2217E
:100F3000EDE7E07C03F060F808B1E321E7E704B0F7
:100F400010BD00BF380B002038B50546002840D042
:100F50000AF09CFF10B94FF0FF3038BD09F0D0FA0D
:100F6000B0F5FA7FF7D81D4C1D482563002500F029
:100F70006BFA3C2229461B48657010F0D7FE2622EA
:100F80002946A01C257084F82850E56210F0CEFE9A
:100F90001B2240F20113E27140F21B3263800123F5
:100FA000228140F20232237162811F22A375FB234A
:100FB000A2814FF40272A384E28144F6011262829C
:100FC000EFF3108472B600F0ABFE2CB962B6204687
:100FD000C3E76FF01500C0E72846BEE7380B0020D6
:100FE000E90E00005400002010B5002840F0A38056
:100FF000544C6378022B00F09B80A1B1002A6CD086
:101000000139142900F29780DFE801F00B181B2B3F
:10101000535B74315E616F373D4A4F797C898C8FA9
:1010200081001378A37001210020FFF7DBFDB0F5EC
:10103000803F80F283800123637010BD1378E370DA
:10104000F1E79378002B48D0D378002B45D0137864
:101050001A2B42D953781A2B3FD91368C4F807309A
:10106000E1E713786279934237D32371DBE7137892
:101070002279934231D86371D5E71378227993426C
:101080002BD86374CFE713783BB35378013BDBB2C3
:10109000F82B22D81388927863822B4B9A70C2E780
:1010A0001078607507F052FCBDE71378ABB1A375FB
:1010B000B9E71378254A52680AB1012B0DD9E372BA
:1010C000B1E71388A381AEE71378A371ABE71F499B
:1010D0001378C96921B9012B04D86FF01500ACE76A
:1010E000002BFAD01378E3739DE71378082BF4D81C
:1010F000237498E71388FF2BEFD8A37393E7137833
:10110000E37590E713780E2BE7D823768BE7136807
:101110000F49E36153684B6013890B8183E71378B0
:10112000637680E71378E3767DE71378A3767AE732
:101130004FF0FF3081E76FF02C007EE76FF00B007F
:101140007BE700BF380B00204A0B00205400002032
:10115000540B002070B50D460646E8B1E1B111F020
:10116000070419D100F0A4F8C8B130460D4E0AF0BA
:101170004BFF214686F834002846FFF733FD10F078
:101180000AF996F83400F16A02F0B6FFFFF7ACFEF8
:1011900002232046737070BD6FF01500FBE74FF01F
:1011A000FF30F8E7380B002010B5074C6378022BAE
:1011B00005D102F0BDFF94F834000AF041FF0CF0B5
:1011C000ADF90020607010BD380B002050B1074B06
:1011D00003F1140253F8041B934240F8041BF9D1A5
:1011E000002070476FF01500704700BFA81403007F
:1011F000064B10B55C7834B902F048FF044B054A41
:101200002046DA6010BD4FF0FF30FBE7380B0020BE
:1012100054000020190B0000064B10B55C7834B95F
:1012200002F048FF044B054A20469A6010BD4FF07B
:10123000FF30FBE7380B0020540000204D0B00006E
:10124000054B10B55C781CB902F0E2FE204610BDDB
:101250004FF0FF30FBE700BF380B0020054B10B507
:101260005C781CB90DF0CAFE204610BD4FF0FF306F
:10127000FBE700BF380B0020054B10B55C781CB9AC
:101280000DF0BFFE204610BD4FF0FF30FBE700BF62
:10129000380B002002680020014B1A60704700BF25
:1012A000700B0020014B1B68184700BF700B00201B
:1012B000024B1868003818BF01207047700B0020DF
:1012C00073B5031D2D4D04462B60284603F006FF21
:1012D0000228064606D1294920460BF068F9304617
:1012E00002B070BD042842D12B78092B0AD0252BDF
:1012F0001ED0294620460BF0D4F9B0F5817F2DD3BE
:10130000722112E005213E200BF024F90028F0D1D3
:10131000EB7801A92A79684643EA0223ADF8003048
:101320000BF036FD0028D0D053210820FFF79EFD9A
:101330001A213E200BF00EF90028DAD16B686946BD
:1013400001A8C3F30F23ADF8043011238DF8063044
:101350000BF040FD0028B8D06521E6E70028B4D0A6
:10136000A17820780BF0F6F80028B8D1ADE708286E
:10137000B5D1024920460BF052F9B0E7740B0020BA
:10138000074B4FF0FF3141F6FF72C3E900120549E8
:101390000022C1E900221F21C3E90212704700BFE9
:1013A00000000020780C00203F280CD801380B4B9F
:1013B000C0F3421200F01F0053F8223023FA00F06D
:1013C00000F001007047FF2806D04038044BC0F3FE
:1013D000421200F01F00EFE70120704700000020DC
:1013E000780C0020074B0146006849681A4603C282
:1013F00040F48C221A6041F0107242F4FF625A608D
:10140000704700BF000000200246024B0068516890
:1014100003C37047780C00200246024B00685168F5
:1014200003C37047080000200138064BC0F3421286
:1014300000F01F0003EB82039B6823FA00F000F02A
:101440000100704700000020014B1860704700BF8A
:10145000800C002010B5FFF793FF0DF0A7F8034BA9
:1014600004461B6803B19847204610BD800C00203D
:1014700038B5274B0446D3F8A023D3F8A413013181
:1014800006D1D3F8A8334FF6FF719BB28B423DD003
:10149000D3073BD51E4DD5F8A423D5F8A833C4F8FF
:1014A0000120A4F80530C3F3072363F03F03A371C1
:1014B000D5F89033013323D0D5F8943301331FD0BE
:1014C000D5F8983301331BD0D5F89C33013317D0AE
:1014D000002003F08BF898B9D5F89003D5F8941351
:1014E000D5F89823D5F89C33C4F80700C4F80B103E
:1014F000C4F80F20C4F8133001230020237038BD36
:1015000010220021E01D10F011FCF5E70023F4E7A4
:1015100000C0FF0070B5274D102200210446D5F809
:10152000A06310F003FC10220021A01810F0FEFBB5
:10153000D5F8803301330BD1D5F88433013307D18B
:10154000D5F88833013303D1D5F88C3301330BD070
:10155000D5F88003D5F88413D5F88823D5F88C33D3
:1015600020616161A261E361002003F03FF808B9E6
:10157000F3071CD40F4BD3F8902301320BD1D3F8CF
:101580009423013207D1D3F89823013203D1D3F841
:101590009C2301320BD0D3F89003D3F89413D3F8E3
:1015A0009823D3F89C3320606160A260E360002040
:1015B00070BD00BF00C0FF0070B50C88C27CA6B231
:1015C000C4F30E04531D058804F118021D44825A09
:1015D000ADB21A4443882A44013AB2FBF5F202FB49
:1015E000054292B29342044B8BBF3340B343134343
:1015F0009BB20B8070BD00BF0080FFFF10B5114B88
:1016000000EB41041A786389B3FBF2F303FB022376
:10161000013A1A44B2F5706F027928BF00231A44C8
:101620008378B2FBF3F0194403FB1020091AB1FBD5
:10163000F3F003FB101313446FEA43436FEA534381
:10164000638110BD840C0020124B10B5E0B15A78B4
:10165000022A04D040F22B111720FFF707FC0322C7
:101660005A70026812F0070102D04FF49871F3E744
:101670005C685A602244BDE81040026003F10C002F
:101680009A603C2210F052BB0122C3E901005A705B
:1016900010BD00BF840C00202DE9F041264E96F8C5
:1016A00001E00EF0FD0CBCF1010F04D040F2451139
:1016B0001720FFF7DBFB91F80680B8F1080F02D97D
:1016C00040F24711F4E7CF799FB345467B1D72681E
:1016D000022D4FEA430402EB430338BF02256A1E82
:1016E0006D421344C8F100022B408D884544013DF2
:1016F0002A404FF6FE75AA4202D94FF4A971D7E7E6
:10170000BEF1030F12D106EB80001C1BC56815B19A
:1017100040F25711CCE7C460A770228084F803C060
:10172000087A09682071080C2181E08007FB0233E8
:101730007360BDE8F08100BF840C00202DE9F04704
:10174000364C6378012B65D0032B04D040F267112F
:101750001720FFF78BFBD4E901329A4202D04FF4F5
:10176000B571F5E7002325460E221E46994605F879
:101770000C3B55F82200013A58B190F8048081786A
:10178000B8F1FF0F2FD180F804908E423CBFCEB24B
:101790000123511CEDD103B126700E2640F6FF69DE
:1017A00055F826709FBB013EFAD2042300206370D7
:1017B000BDE8F08755F82CE0BEF1000F06D09EF88A
:1017C00004A0C24504BF9EF802E077440CF1FF3C40
:1017D000BCF1000FEEDA3944FF2907D903B12670B6
:1017E0004FF48371B4E794460027F1E70771CCE723
:1017F00007EB410308F101083846A3F80A90FFF708
:10180000FDFE5FFA88F1BB788B42F1D8CBE74FF051
:101810000008F6E7022360686370C9E7840C0020C3
:10182000F8B54FF6FF7305460380184B03EB8103B1
:10183000D868B8B186780379B3FBF6F206FB1233A9
:10184000DBB219460A1D00EB4202B2F9027054885D
:10185000002F09DB0131B1FBF6F206FB1211C9B210
:101860008B42EFD10020F8BDFF29FBD0C4F30E035B
:10187000C4782B8024B94FF4D9711720FFF7F6FAFA
:101880005380BDE8F8400BF0C7BC00BF840C0020BB
:101890001D4B03EB810370B5DC68054644B30304BC
:1018A00004D54FF4E0711720FFF7E0FA0146204617
:1018B0000BF095FCFF28014604D02046BDE870409F
:1018C0000BF0AABCA078B5FBF0F300FB1353DBB21E
:1018D00019460A1D04EB4206B6F90260002E09DB28
:1018E0000131B1FBF0F200FB1211C9B28B42F0D111
:1018F000002070BDFF29FBD08B4204EB42021CBFCD
:101900000023E3705580D8E7840C0020094B03EBDB
:101910008103014610B5DC6820460BF060FCFF280F
:10192000014604D02046BDE810400BF075BC0020F5
:1019300010BD00BF840C0020F8B5104B074603EB28
:1019400081030146DC6820460BF049FCFF28054670
:1019500011D0E688238953EA064606D00146204680
:101960000BF05AFC01463846B04720462946FFF79F
:1019700045FE0020F8BD0320FCE700BF840C0020DA
:1019800038B50E4B0446827903EB8203D86808B958
:10199000022038BD8278E1799142F9D24B1CE37183
:1019A00000EB41035D89B3F90A30002BF3DBA5801E
:1019B0000BF032FC20600020EBE700BF840C00201D
:1019C00070B5044610F003000E4603D049211820DC
:1019D000FFF74CFA0BF0A7FB054624B1034831464C
:1019E00004600BF0A0FB284670BD00BFCC0C0020AB
:1019F0002DE9F04F1E4C85B09246984622688146EC
:101A00000D46BDF83830BDF83CB01AB95B2118203E
:101A1000FFF72CFA1A460A21504603930BF02FFACF
:101A200006465A46092140460BF029FA3118074666
:101A300020680BF0A3FB039BC9F8000018B92860CD
:101A400005B0BDE8F08F84195246314600932C60F2
:101A50000A23D9F800000BF0C5F90923424639469C
:101A60002868CDF838B005B0BDE8F04F0BF0BAB932
:101A7000CC0C002070B50E4604460BF008FA054663
:101A800030460BF004FA044B2A1821461868BDE8CA
:101A900070400BF09DBB00BFCC0C0020014B1868C0
:101AA0000BF05FBBCC0C00201144F8B5C9B21C4C44
:101AB00010F00305217003D04D210920FFF7D6F95E
:101AC0001F2B17D89B009BB2033323F003039BB259
:101AD00008B160602381282264684FF0010C4A43FA
:101AE0008618EFB2B94212D8D01D03FB010323F0D0
:101AF0000700F8BDFF2B4FEA430204D9FF3393429E
:101B0000E1DB93B2E0E77C2AFBDC7C23DCE710B16D
:101B100084F800C06660013528341E44E1E700BF48
:101B2000D00C0020144A002138B553681478C8B28C
:101B3000844203D8A8210920FFF798F918460131FB
:101B400028330578002DF2D00021817001241289FC
:101B50008161051D44709208C16100F12001446853
:101B600021F8022B994245F8044B1444F8D1002384
:101B70004361037038BD00BFD00C00200A4B1B89A5
:101B8000B3F5FF7F4FEA930006D25A089B1A9BB227
:101B9000984238BF18467047B3F5EE6F01D8FF2260
:101BA000F4E740F27263F3E7D00C00202DE9F8432C
:101BB0004B7880460C4602F0040602F0FB07D3B1D6
:101BC000DFB12E4BD4F804901D89B7BB0123AD08BB
:101BD0004A46211D637004F1280004F12003A76127
:101BE000E76123F8025B984241F8042B2A44F8D1BC
:101BF0000023636101E0002FE3D0FF23A370002ED8
:101C000018BF0226A3191B7D032B03D1022F1CBF73
:101C10000136F6B2A31901221A7506F10C0200234F
:101C200004EB860624F812307268A3704046C8F8A8
:101C30000020A8F80430BDE8F88300211422617068
:101C4000A01810F073F8B5F5FF7F0FD26B08ED1AEE
:101C5000ADB209EB0502C4F804902584A260638448
:101C6000C4F80C90A5842261E384C6E7B5F5EE6F55
:101C70004FF0FF03EBD940F27265EAE7D00C002089
:101C80002DE9F74305460C46F720052190460BF059
:101C9000F6F8064685B115F0030703D08F21192009
:101CA000FFF7E4F8DFF83890C9F81050A5B2A9F8AA
:101CB0001400BBB29D4204D806FB04F003B0BDE89B
:101CC000F083B9F814C00523D9F81000F722314683
:101CD000CDF8008007FB0C0001370BF083F8E8E734
:101CE000E40C002007B5CDE900230B46034902466A
:101CF000081D0BF0EDFB03B05DF804FBFC0C0020AD
:101D000013B5064CCDE900230B46024604F1080149
:101D100004F10C000BF0DCFB02B010BDFC0C002049
:101D2000114B01224FF0FF3000215A60C3F8080325
:101D3000C3F80015C3F804255A6041F6FE72C3F8D3
:101D400008034020C3F8001503F570330749C3F8B2
:101D50000825C1F88800BFF34F8FBFF36F8FC1F81C
:101D60008801C3F8082570470060045000E100E0D6
:101D70000A460648382302F8033BC368C1F803301B
:101D80000369536043699360704700BF100D0020E2
:101D9000024B5A8C02435A845B6A1847100D00208C
:101DA000014B00215B6A1847100D002038B51C4C10
:101DB0000546A36A984700282ED094F82C302BB9FA
:101DC00094F830201AB9012D02D0104638BD2DBB31
:101DD00094F83830DD06C3F30011256C57BFE36B70
:101DE00000231B78C3F3001358BFC3F1010325B9C7
:101DF000B4F844500DB10029E8D042B1628C92078A
:101E000005D5A36CD878023818BF0120DEE7002B77
:101E1000DCD1608C0038F7E70120D7E71846D5E71A
:101E2000100D0020014B586BA8307047100D00209A
:101E300038B5224C0246FFF7F5FF0546E16C0B78FA
:101E400003F00303032B14D0EBB14978D9B1B4F8F4
:101E5000503043F40063A4F85030236C63B3FB2983
:101E600024D894F85230F3B12020BDE83840FFF771
:101E700097BFB4F85030012043F400632875A4F8EC
:101E80005030FFF785FF2B7F013B18BF01232B77D5
:101E9000E36C5B7883B1D5E92232013342F1000271
:101EA000C5E9223208E001231370ECE794F82C30E6
:101EB00043F0100384F82C3038BD00BF100D002013
:101EC000014B586B704700BF100D002010B5164C29
:101ED00007F0A0FB06F06EFFB4F85000FFF760FFBC
:101EE000237E6BB12246114904F1190052F80C3BD4
:101EF000E36063685360A368936002220DF070FF93
:101F0000FFF7DEFF90F89E30022B02D1084803F065
:101F1000FBFF636D94F82C1094F85300984700234E
:101F200084F8583010BD00BF100D0020711D000056
:101F3000400D0020034B93F858300BB1FFF7C6BF9C
:101F4000704700BF100D002008B5094B93F85820CA
:101F5000022A04D04FF40F712720FEF787FFDA7AA8
:101F600042F00102DA72BDE80840FFF7AFBF00BFE0
:101F7000100D0020F8B5244C0746FFF7A1FF0546D9
:101F8000FFF750FFE36B064694F85900E36496F8B8
:101F900024300BB1031DD8B295F87D102FB9FF285E
:101FA00003D195F87C308B4201D007F0F1F996F817
:101FB00024301BB3E06D07F035FD94F83030E16D4F
:101FC000003BE06C18BF012384F88030D6E922235F
:101FD000C4E91C2306F00EFE3FB995F87D0010F011
:101FE0000C0018BF282007F059FD95F87C10002040
:101FF00007F0B4FD022384F85830F8BDE06C07F018
:1020000011FD06F0D7FEE7E7100D00202DE9F3479C
:10201000314D0646FFF706FF0F4695F85830044647
:10202000012B5FFA83F804D040F275412720FEF7B8
:102030001DFF037D4BB1002101750420FFF7A8FEB1
:1020400095F830300BB184F81680A96C0B7803F04A
:102050000303032B04D1A37E13B90220FFF798FEDC
:10206000AA6C137803F00303032B02D053782BBB25
:102070000123A37694F82430D3B1FFF721FF95F81C
:10208000303090F87D00003B95F859A018BF01232F
:10209000D4E9228985F88030C5E91C890BF052FA11
:1020A000002203460D4900920220524606F028FD08
:1020B00036B102B0BDE8F047FFF708BF0223D8E70A
:1020C000002FF6D03046FFF771FE0028F1D102B0A4
:1020D000BDE8F047FFF74EBF100D0020700D002047
:1020E00073B50246FFF79EFE0546704CFFF7E8FE0B
:1020F000002395F8241006468DF8053094F85930E1
:1021000009B10433DBB296F87C102AB9FF2B03D156
:1021100096F87D308B4202D0FF2007F039F9AB7E74
:10212000032B00F2A980DFE803F00283869A94F87B
:1021300088305F48ADF80630A6F86C3002F0F2F94E
:1021400070B1A16C8020FFF723FE0121A36C69759B
:10215000DB781B2B21D106F1100007F04DF91CE0B4
:102160000DF105020DF10601D4F88C000AF0B1FE64
:10217000A06400285CD095F86130002B58D19DF800
:1021800005302BB9038001218370A06C0DF0D8FCC1
:10219000BDF80610A06C0DF0DEFDEB7EA16CDB003F
:1021A00003F008020B7803F0F30313432A7F920035
:1021B00002F00402134323F0100203F00303032B85
:1021C0000A705CD1CB78022B59D10023A06C027825
:1021D0001343037095F82330002B61D04378002B14
:1021E0005ED0E06D07F01EFC94F83030A16CB3FABD
:1021F00083F3E06D5B0984F88030D5E92023C4E9DE
:102200001C2306F0F7FCA06C0BF0CAF996F87D10C1
:10221000012007F0A3FCA26C0123118884F8C230CE
:1022200021879178234A84F85830917002B070BDAC
:10223000214BA364B1E7B6F86C300DF105020DF146
:102240000601D4F88C00ADF806300AF042FEA06416
:102250000028A2D140F2D5212720FEF707FE14481E
:1022600002F060F910B940F2DE21F5E7A36CDB78EB
:102270001B2B92D101216EE740F2EB21ECE7D4F861
:102280008C000AF090FE48B9A36C1B7803F003039E
:10229000032B9AD002F06CF9002896D1102395E711
:1022A00007F0C0FB06F086FDADE700BF100D002073
:1022B000580D0020480D0020A00D0020044B93F87D
:1022C000582002F0FF000AB9187670470C207047BA
:1022D000100D00200A4B0B4A70B506460D461A60D9
:1022E000FFF7ECFF18B1DE212720FEF7BFFD064CFB
:1022F000012104F190000DF023FCE663E56570BD5B
:10230000AC0000209C000020100D0020024B012298
:1023100083F85220704700BF100D00202DE9F043D4
:1023200085B0B44C02AE0C9F86E8030094F85810B8
:1023300001F0FF0511B90AB103B127B940F24F11FD
:102340002720FEF793FD04F1300C676584F85250A6
:1023500084F82C5084F8C35084F8535084F8C25049
:102360006584A4F8505096E80300C4E909238CE87A
:102370000300FFF757FD0746FFF7A2FD054607F0EC
:102380005DF841F64B5606F015FD95F9800007F013
:10239000BFF8A86B07F02AFB286A07F0BFF897F888
:1023A000340007F0E1F894F83030002B40F0AB80B7
:1023B000032009F007FFEB69B34294BF4D2096203C
:1023C00006F07AFF95F87C10002007F0FFF900284E
:1023D00000F00C81884B186807F00EFB6B69C4F89D
:1023E0008C30AB69C4F8C43095F88B30002B00F00A
:1023F000988007F19003814E07F1A00C186808330C
:1024000053F8041C3246634503C21646F6D1596898
:10241000D7F8A0007A4A03C2FFF752FD0146FFF742
:1024200001FD837F0246A3F12600012891F87C007C
:1024300003D9D27F262A40F08D8094F83020636B38
:10244000002A40F0848093F832130BF069F80646B6
:1024500005F14408314640460DF07CFD31460DF053
:10246000A9F8B5F8503095F87D10834228BF03468F
:10247000404684F888300DF033FD95F87D1097F8CC
:1024800024800829B5F8586008BF04210DF092F89F
:10249000B8F1000F01D1043080B2B04228BF3046FD
:1024A000C6B284F8C86002F089FF10B12B2E38BF85
:1024B0002B2694F8308084F85960B8F1000F70D161
:1024C00097F8233093B1012395F87C0084F880308D
:1024D000D7E92023C4E91C230BF034F8FB22034680
:1024E00046490420CDF8008006F00AFB0120FFF7E2
:1024F000F7FD444BD3F8203523F00803032B6AD1B2
:1025000040F2F9111CE7042009F05CFEEB69B342CC
:1025100094BF4D20962006F0CFFE95F87D10012047
:1025200053E7D5F8841000293FF463AFB7F84E2085
:102530003B8B93427FF45DAFB5F8882013440122B2
:10254000A7F84E3095F88A0007F064FF51E793F83A
:10255000CE137AE7213B012B10D8242A10D094F80F
:102560003030CBB1636B93F86E315A0712D413F04D
:1025700001017FF46AAF03F0020166E7242A0BD160
:1025800094F8303043B1626B92F86E3192F8752056
:102590001340EAE7082158E7042814BF0646082636
:1025A00056E797F8243093B1012395F87D00D7E9D9
:1025B000228984F88030C4E91C890AF0C3FF002214
:1025C00003460E4900920220324606F099FA012095
:1025D000FFF7D0FC8DE7002323606360A3603B8B93
:1025E00063802B88238097F83430237105B0BDE8D1
:1025F000F08300BF100D0020AC000020700D002003
:10260000880D002000A0085008B5184B93F85820FA
:1026100092B9FFF75BFCFFF753FC90F88B3003F0A7
:10262000FF0213BBD0F88430FBB1114690F88A004A
:10263000BDE8084007F0EEBE93F8302042B993F8A9
:102640005830012BE7D040F20E212720FEF70EFC78
:1026500093F85820022A02D040F21221F5E75B6B72
:10266000D3F8080307F0F0F9D5E708BD100D0020F6
:10267000014B1876704700BF100D0020014B93F8F6
:10268000C2007047100D0020024BB3F85000C0F399
:1026900080207047100D0020014B93F8C300704755
:1026A000100D00202DE9F3410646FFF7BBFB0F4656
:1026B0000446B20722D51A4D2B6C23B940F266416D
:1026C0002720FEF7D3FBB5F844201846E96C033207
:1026D00091F801800FF0FFFA0DF1020201A9E86400
:1026E000D5F8C4000AF015FD01980AF0FCFC01229F
:1026F00038604146D5F8C4000AF0A1FCF3070CD5B8
:10270000D4E92232013342F10002C4E92232237FAC
:10271000012B0CBF00230123237702B0BDE8F08119
:10272000100D00202DE9F04387B00746A84CFFF7B5
:1027300079FB0023894606468DF80F30CDE9043336
:1027400094F85830022B04D04FF49D612720FEF7F7
:102750008DFBB4F85030590608D44020FFF720FB19
:10276000B4F8503043F04003A4F8503096F82430C9
:10277000002F00F0FF809BB106F058FB06F03CFBF9
:1027800070B9E36C5A785AB11B78327FC3F3C00337
:102790009A4205D1012384F85330FFF797FBE6E016
:1027A000E36C5978A4F8441011B3D4F8C4000AF0CB
:1027B0001BFC2064B4F85030F27E43F48073A4F81C
:1027C0005030E36C1B78C3F380039A4264D0FFF768
:1027D00029FB837E0546002B3BD0022B11D104A997
:1027E000D4F88C000AF097FB20B94FF47971ADE76B
:1027F0002164DFE7D5E92032013342F10002C5E967
:102800002032002194F83030A9762BB1AB7D1BB17A
:102810001020A975FFF7BCFA6B7DA3B14FF000083B
:1028200085F8158001F08EFE10B940F2FB318DE77E
:1028300041460820FFF7ACFAD5E92032013342F1D6
:102840000002C5E92032EB7E012B0CBF00230123DF
:10285000EB76B4F850304FF0000843F48063A4F8EE
:102860005030E36C327F1B78C3F3C0039A421BD114
:1028700002F0A4FD58B1E26C137803F00303013BAE
:10288000012B04D8527894F8C8309A4206D80DF13A
:102890000F00FFF7CDFA07E0B846E2E794F82C30D6
:1028A00043F0100384F82C30E06C0AF079FE96F8BF
:1028B0002330C3B1FFF704FB94F8303090F87C006C
:1028C000B3FA83F35B0984F88030D6E92023C4E9A6
:1028D0001C230AF037FE002203463E4900920420E2
:1028E000FB2206F00DF9B9F1000F54D0012507F0D5
:1028F00089F99DF80F301BB105A90220FFF7D2FE20
:10290000B8F1000F0FD094F830303BB1B4F8072085
:10291000B4F805301343328B134304D0B4F80930B4
:102920000133A4F80930002F4CD0B4F8053001333E
:10293000A4F80530002384F8C330274803F0C2FA16
:10294000049840B10AF0CFFB616B00234372072269
:1029500001300DF033FA059B33B1616B00221A721E
:102960000C2205980DF02AFA002D7FF416AF07B05F
:10297000BDE8F0830BB106F067FA94F8C3304FF06E
:102980000008013384F8C330B4F8503043F40073C6
:10299000A4F850308BE794F8302094F8C33032B16B
:1029A000628C120703D5A26CD278022A9ED0012B2A
:1029B0009CD80120FFF7FAF90546002896D1FFF7C9
:1029C0008FFB96E7B4F807300133A4F80730B4E77B
:1029D000100D0020700D0020400D00202DE9F04F5B
:1029E00004468BB01F4600230E469046069390F88F
:1029F0007DB00CF066FB94F8F0320B2B04D94FF449
:102A000052710620FEF732FAC24A32F8135094F897
:102A1000C7300544029388F00103ADB20393B8F1C7
:102A2000000F34D194F83C33032B30D1029B0E2B92
:102A30002DD1B4F8CC33B34229D1D4F84433204655
:102A4000B4F80E23C4F83033E369C4F83433B4F86F
:102A500082331344C4F8383305F08AFEE269D4F8AF
:102A6000D4339A4203D004F128000EF084FCD4F849
:102A7000D033E363B4F8CE33A4F84030D4F8D43381
:102A8000E361D4F8D8336362022384F83C33B4F8AA
:102A9000800304F55679B4F8C020301AB21A00B297
:102AA0000FFA82FA002816DA0023D4E9DC0184F850
:102AB0005333C4E9DE015046012194F83C33DFF87A
:102AC0005882DBB2032B00F2B881DFE813F0060076
:102AD0002701660049013946EFE794F87D1094F824
:102AE000060304930CF08FFD8346E06B294658449F
:102AF00007F0DCFC2946C4F84003E06907F0D6FC87
:102B0000E16941F64B52049B914298BF022307A909
:102B1000034408A8C4F8443307F07CF8079BD4E9C1
:102B2000DE010093DDE908230EF0C5FF05462046CF
:102B30000AF09EFDD4F8883394F87D00D4F83CA0C8
:102B4000069307F0DFF9069B00F52340D4F8401305
:102B5000203BA13003EB0A024FF47A73521A303152
:102B60009344B0FBF3F0ABEB050BB4F84030ABEBA8
:102B7000000003EB4101069094F87D000AF061FD2E
:102B8000D4F88823069BC8F800009B1AB3F5C07FD1
:102B900060D240F2F241302034E7E26B2946D4F8AB
:102BA00034030493104407F081FC2946C4F8400321
:102BB000E06907F07BFC41F64B52E169049B9142CE
:102BC00088BF002303442046C4F844330AF050FD74
:102BD000B4F80E23E56BD4F834A3002A40F09380B8
:102BE000002F00F0908094F87D2055441046059207
:102BF000203D07F087F9059A8346D4F88C03D4F872
:102C000040130BF5234B05441046049107F072F96D
:102C100004990BF1A10B6D1A2D1A4FF47A70BBFBBE
:102C2000F0FBA5EB0B050695D4F84013D4F8303330
:102C3000D4F83823303194F87D0002FB0311B4F846
:102C4000403003EB41010AF0FCFC0123C8F800000E
:102C500084F83C33E5696FF4A173069904F14400EC
:102C60001D44D4F84433ED1AD8F800304FF0000872
:102C70009D4284F8588328BF1D469B23A4F86033E7
:102C8000C4F80853D4E9DE325B1842F10002C4E90B
:102C9000DA320DF023F90544A4F88063C4F85C53DC
:102CA000D4E9DA23C4E9DE2304F0DAFE20B1D4F853
:102CB0005C331E33C4F85C33B4F8F81284F86283D2
:102CC0008E1B36B2002EC4BF022384F86233029BEF
:102CD0000E2B00F0B580002F40F0B38094F83C3309
:102CE000002B00F0CB80E1694846D4F84433C91A80
:102CF0000CF02FFC80B2002800F0C080149B03B1C0
:102D000018800120C9E00AEB0503D4F840535B1B8F
:102D1000069389E7BCB30200DC0D0020D4F84453CD
:102D2000E369D4F838135B1B5843B4F80E3303EB54
:102D30000A02CB4306901A44D4F84033D4F8300347
:102D4000303300FB0133B4F8401094F87D0005FBEC
:102D5000023301EB43010AF074FCC8F8000079E784
:102D6000E569454306952FB3B4F80E3313BB84F8D9
:102D70005333D4F8443303FB105594F8C630262B54
:102D8000069503D094F8C730262B09D1B4F8CC337C
:102D9000F31A1A0404D494F8CF33002B18BF9B46BF
:102DA00069B3B4F80E3353BBD4F88C3343B940F253
:102DB0004451F0E694F85333002B7FF44BAFD8E73F
:102DC00094F87D0010F00C0F35D107F09BF800F55A
:102DD00023404FF47A73A130B0FBF3F000F11003FD
:102DE000D4F88C1394F87D0010390593049107F002
:102DF00081F80499059B0D44ED1A2D1A0695B4F837
:102E00000E535846D4F844235544554330356D008D
:102E100029460AF016FC41F64B53C8F80000E06959
:102E200098423FF617AF06AB1D4A29460CF009FC45
:102E300084F853030EE77523D2E740F25951AAE60E
:102E4000E7B1B4F8241311B3B4F8262394F8283367
:102E5000501CA4F8262302FB033399420EDD94F89C
:102E600062335BB10023A4F8260384F8623302F0D6
:102E7000ABFA00F00700013084F82803494694F8C3
:102E8000840308F00FFC20B940F2A35183E60A4600
:102E9000DCE7039B002084F850330BB0BDE8F08FD3
:102EA000DC0D00202DE9F043044685B018B99C21C3
:102EB0003020FDF7DBFF082900F24181DFE811F047
:102EC00009007900830083007E003F012B0133015C
:102ED0003D010023B0F8C020C0F88C3390F8503387
:102EE000002B5ED0B0F84E33934254D1B0F8FC22A0
:102EF000D31AA0F8C020A0F8FE322046D4E9DA2385
:102F0000C4E9DC2305F014FB94F80333002B00F034
:102F1000EC8094F87D20E56912F00C02D4F844337B
:102F2000DFF8209218BF28229D4288BFED1A99F839
:102F3000043002F2A11898BF00251BB9636C9D42B2
:102F400028BF1D46D4F8087304F144000CF0C6FFF6
:102F50000744022008F0F0FD0221ED1B25EAE5758B
:102F6000854228BF0546284608F024FE00B92F44B4
:102F70004246394620460DF032F8D4F80833C9F8F5
:102F80000800E069184408F09DFD002840F0AD807D
:102F900040F2AA318CE79A1AA0F8FE22A4F8C030B9
:102FA000ABE7B0F84C339A1AB0F84C33A0F8FE22D5
:102FB000F4E705B0BDE8F0430EF030B905B0BDE868
:102FC000F04306F033BE0EF0E4FCD4E9DC23801AB3
:102FD00061EB0301012871F1000302DA4FF4C461CF
:102FE00066E76FF0010383424FF000038B4102DA82
:102FF00040F221615CE7E3690BB1B0FBF3F394F8B5
:10300000C710B4F84E230E2933D10132A4F84E2351
:10301000B4F882330DF10E06B4F8C0500133A4F8B1
:103020008233B4F8FC301D44B4F8FA30013DED1A97
:10303000ADB2B4F84E136B1A1B0434D594F8CA30F1
:1030400004F1E0004049002B0CBF3E23082384F824
:10305000E9300CF0BFFE20460EF0E2F8002394F8B1
:10306000840384F83C3308F09BFA202384F88433EB
:103070003BE0B4F8C0100B449BB2D11A090454BF12
:10308000531C01339BB2A4F84E3394F85133002BF8
:10309000BED1B4F8FC32B4F84E23934204BF0133DE
:1030A000A4F84E33B4E70023204600961A46FFF7F3
:1030B00095FCB8B1012812D1B4F84E23B4F8F81237
:1030C000BDF80E301344521A12049BB204D5EA1A0A
:1030D00012F4004F18BF0B46A4F84E33A9E74FF483
:1030E000CC61E5E6D4F8843013B905B0BDE8F083CF
:1030F000B4F8F620B4F84E339B1A1BB2002BF4DD63
:10310000B4F888100B44013BB3FBF1F303FB01233C
:10311000A4F8F630E9E7012007F092F905B0BDE820
:10312000F0430AF04DBA90F83C33042B01D0C02193
:10313000BEE6002380F83C33D7E7C621B8E6CA21B3
:10314000B6E600BFDC0D00207159000090F8303168
:103150002DE9F04104460E46154603F0FF0813B171
:103160000C20BDE8F08101464E4808F0F9F920280E
:103170000746F5D05022414604F588700EF0D6FD82
:10318000012384F81071C4F8146184F8303136B129
:1031900002F032F900F00700013086F828032046DB
:1031A00000270AF00FFA0223A4F84001A4F84231E4
:1031B00084F8387107F0AAF9B4F84061453606443E
:1031C00020460DF085FE0146B6B2D8B30BF079FF6C
:1031D00000F5CD61284689B207F068F92844C4F8A3
:1031E0003C010EF0D6FB30184FF00106E78441F1A8
:1031F000000184F81861C4E9520120460DF07EFEFA
:10320000D8B1314620460DF0E8FD6FF497631D44B8
:103210002D1AC4F81C514FF0FF326FF00043C4E97F
:10322000542304F59C7194F8100108F03BFA58BB44
:1032300040F2EF113020FDF719FE3046BD3D0DF094
:1032400029FFE5E72046184F0DF0C7FDBD30C4F853
:103250003C01B88940B1E08C30B102F0CDF8BB89B7
:10326000B0FBF3F202FB130006440EF092FB36189B
:1032700041F10001C4E95261002DCCD0AE1941F1F9
:103280000001C4E95461CCE700252046D4E952236B
:103290002946A4F83251C4E94A230DF05EFE2846BF
:1032A0005FE700BF25D70000DC0D0020F0B500234C
:1032B00085B0CDE9003303238DF806306846FEF76C
:1032C0005FFB88B11D4E01230027B3730223CDE9B4
:1032D00002778DF80E3002A8FEF752FB0546A8B122
:1032E0000020B07305B0F0BD00980AF0FDFAE5E7E4
:1032F00090F8840308F0C2FC94F8840384F83C53EB
:1033000008F04EF9202384F88433DFE7029B002B7A
:10331000E1D093F88423202ADDD018884FF6FF737C
:103320009842DDD00221FEF7F1FA04460028DFD1F1
:1033300040F229113020FDF799FD00BFDC0D00207F
:10334000044B00221A719A7342F210729A81FFF7AD
:10335000ADBF00BFDC0D0020014B1871704700BFEE
:10336000DC0D002010B5044605F0CCFF074B9A6831
:10337000824208D3E16941F64B52914203D9987BCE
:1033800080F0010010BD0020FCE700BFDC0D002034
:1033900013B50446052935D8DFE801F003261424C7
:1033A0002A2F1A4B9B7B03F0FF025BB9009201238B
:1033B000B0F8FC12FFF712FB38B140F2DA613020AE
:1033C000FDF754FD042384F83C3306F089F907F037
:1033D000C9FF0023B4F8C020A4F88233A4F84E2318
:1033E00084F8513302B010BD032380F83C33F9E771
:1033F00005F082FFC4F88C03F4E702B0BDE810408A
:103400000AF036B940F26E71D9E700BFDC0D00203A
:10341000012A70B505460C46164615D0022A18D06A
:1034200042BB05F06FFF3246014620460AF02CFAF7
:103430002A46124994F8100106F0DCFF40B940F228
:1034400081713020FDF712FD05F05CFFC5F888039F
:1034500070BDD0F88813012220460AF015FA2A46DA
:10346000064994F8100106F0C5FF0028F0D140F29B
:103470009271E6E74FF4F361E3E700BFA52E000089
:10348000014B9881704700BFDC0D0020253270B5DC
:10349000054692B20C461E4609F00DFF45B1054A9D
:1034A0000023156082F8484082F849601471536423
:1034B00070BD00BFF80D0020014B1870704700BFB1
:1034C0001100002038B50A4B0C4653F8205008462E
:1034D00006F018FD14F00C0405F29D7518BF2824A1
:1034E00005444FF47A70B5FBF0F0204438BD00BFBE
:1034F00050B40200014B5870704700BF500E0020BE
:1035000010B5044604293FD8DFE801F0031A161E5F
:103510003A00204B1B7803F0FF026BB901210AF03F
:1035200091FCB4F8C0300133A4F8C03006F0D8F8EC
:10353000BDE8104007F016BF042384F81833F5E700
:10354000032384F8183310BDC369D0F84023C0F8B2
:103550002033934202D028300DF00DFFD4F83C33D5
:103560002046E363B4F83833A4F84030D4F840334D
:10357000E361D4F8443363620AF07BFB0223E0E7A3
:10358000BDE810400AF075BB40F23E313520FDF732
:103590006DFC00BF500E0020014B1879704700BF32
:1035A000580E0020014B1868704700BFB000002083
:1035B000F8B51E468B1F40F67A4507469BB210466B
:1035C000BDF81820AB423AD8841FA4B2AC428CBFDD
:1035D000002401242546A7BB1C4B1B796BB15CB9A9
:1035E0006FF450654B19062B06D86FF45063C4185E
:1035F000062C8CBF002401242546F5B1814223D836
:10360000B6F5FA7F20D2A2F10A0340F676419BB2CA
:103610008B4219D801360AF026FD42F21073B6B279
:103620005A434643B2EB460F0ED9BDF81C50BDF8C5
:10363000200085428CBF002501252846F8BD0024C6
:10364000C8E797F88130C9E70025F6E7280F002082
:10365000304BF0B5B0F870700C4611461A88B0F8CF
:103660006E6085B097425D8828BF1746964228BF96
:1036700016461B2E2ED0B5F5A47F2DD040F648035C
:1036800001AA9D4228BF1D460AF016FDBDF80A306A
:103690009F4228BF1F46BDF80C30AB42E78028BFD1
:1036A0002B462381BDF806309E4228BF1E46BDF83A
:1036B00008309D42668028BF1D46A580FF232370E9
:1036C000E3881B3B9BB2E02B08D94FF4B76139204C
:1036D000FDF7CCFB1B2FCED105B0F0BD63881B3BA3
:1036E0009BB2E02B02D940F2BA51F0E7238940F6B1
:1036F0004812A3F5A4739BB2934202D940F2BC5185
:10370000E5E7A388A3F5A4739BB29342E4D940F202
:10371000BE51DCE7280F002010B503210020FEF782
:10372000F5F8044670B90321FEF7B2F8044620B953
:1037300040F21B313920FDF799FB034B93F9281018
:103740000DF001FB204610BD280F0020114BF7B5EE
:103750009C7E0646DD7E9F8B14B900F033FD044647
:10376000A5B900F02FFD054614B9092003B0F0BD3E
:103770000028FAD0304601A98DF804408DF8055094
:10378000ADF806700BF03BFF0020EFE7002CF1D105
:10379000EBE700BF8C13002008B50BF0FAFD01F039
:1037A0008DF800F01DFD0CF007FB01F02DFB02F081
:1037B00007FC01F051FB012000F0D6FC0F4A104934
:1037C0000023104811601B2153831E30918001F1AA
:1037D000A471D383138413760B4A20F81A3C40F863
:1037E000062C012200F8083CC37240F81E1C00F8A9
:1037F000022CBDE808400DF0C4BD00BF8C130020B2
:1038000003021B00280F0020F9000007044B41F6BB
:103810004C521B215A611974C3E90222FFF7BCBF45
:103820008C1300207FB5364D0446AB6840F8443F0A
:103830000AF090F8064600F0BFFC2B7C10F0200F39
:10384000A4F84E602F4E0EBF1B22AA88698884F808
:103850004C30336814BFA4F86E10A4F86E20A4F89E
:1038600070205BB1012302A803948DF808300DF09D
:1038700065FD336894F9801020889847224B04F145
:103880008C061A790833002A14BF0122002284F81A
:1038900081200FCB86E80F0041F64C5318BF4FF440
:1038A0007A732046E361FFF751FF064648B10221D3
:1038B0002088FEF741F8F0B140F27E513920FDF743
:1038C000D5FA04F128000DF056FD6B786A8804F1F2
:1038D0001801019304F114002B780093AB88FEF7D4
:1038E00087F8636913B940F28F51E7E7A3691BB901
:1038F0004FF4B261E2E70926304604B070BD00BF64
:103900008C130020B4000020280F00202DE9F34183
:1039100005460E460DF05CFA002800F0AE80284601
:103920000DF0D6FA30B1B6F80130013B7F2B01D94A
:10393000122404E028460DF0CFFA20B90C242046CA
:1039400002B0BDE8F08128460AF0C4F80028F5D19D
:1039500028460DF0E2F980460028EFD1284603F012
:103960004BF90028E4D042F21073B6F80170F178F8
:1039700028465F430DF098FA04213078FDF7C6FF22
:10398000044606213078FDF7C1FF002C77D038B10E
:1039900041F2F4713920FDF769FA044690F8BD80D0
:1039A000404E3368002B6CD0403420460DF0BAFCFA
:1039B000002866D020460DF0A9FC002861D1B8F19E
:1039C000000F08D0384B20461B689847002858D075
:1039D00041F60801DEE73549424633682046496929
:1039E000984700284DD041F60D01D3E728460DF049
:1039F0006FFA40B902210DF10600FDF711FF0646EE
:103A000058B90D249BE728460DF074FA0028F1D12F
:103A1000274B1B79002BEDD18AE7002101F00EF92D
:103A2000BDF806302846314633800DF084FA28462A
:103A30000DF060FAA0B928460DF066FA014630464E
:103A4000FFF7F0FE044600287FF479AF3A4631468E
:103A50002846FFF77BFB044620B141F6390199E780
:103A60000121ECE7124B1B6B002B3FF468AF0246C1
:103A700006F5B1713046984761E742245FE70028B8
:103A80008BD128460DF01CFA01460028AED13A46EB
:103A90002846FFF75BFB044600283FF450AF41F691
:103AA000160177E7BC000020B80000208C1300202E
:103AB000280F0020034B5A8802801B788370002057
:103AC000704700BF8C1300207FB5837806461A2B01
:103AD00009D8042B05D9012202FA03F3324A134212
:103AE00005D1122519E0292B01D03B2BF9D13088C3
:103AF000B0F5706FF5D269460BF0A8FC80B9684646
:103B00000AF0A9FA037803F0FF05B3B9B37843705C
:103B1000FF23037068460CF028F9284604B070BDF6
:103B200009213088FDF7F2FE044600283AD002A9A8
:103B3000B0F8AC010BF08AFC08B10C25EDE70821C8
:103B4000B4F8AE01FDF7E2FE024620B940F6D60118
:103B50003920FDF78BF903781BB994F8C831032B92
:103B6000EBD102A80AF077FA90F84A100029E4D1C4
:103B700094F8F01101F0FF050029DED1B4F8B0117E
:103B8000A0F84C1094F8B41180F84E10127D80F813
:103B90004F20B27880F8502084F8F021FF2280F87E
:103BA0004A20BAE70225B8E7200038040188A1F1CD
:103BB0001B039BB2E02B0CD8428844F24810A2F5BC
:103BC000A4739BB2834204D8034B002019805A800F
:103BD00070471220704700BF280F0020034B1A883F
:103BE0005B88028043800020704700BF280F0020C0
:103BF00038B50478427804F00103857804F00204B3
:103C000052EA030101D1112038BDBCB9002DFAD010
:103C1000002B08BF144601E00024254620460AF088
:103C2000E6FA0028EFD028460AF0E1FA0028EAD0A8
:103C3000054B00209C76DD769883E5E7002BEBD1E1
:103C400014461D46EAE700BF8C13002013B5008818
:103C500069460BF0FBFB18B10224204602B010BDF0
:103C600068460AF097FB0028F6D068460AF0F3F998
:103C7000827C03460AB13A24EFE768460AF0DFF98E
:103C800090F86C2002F0FF04002AF4D190F8632031
:103C9000920705D1012268469A740CF066F8DCE7B9
:103CA0000222024964300CF09BF8D6E7F5050100CA
:103CB0002DE9FF41077804460E46EF2F04D912265E
:103CC000304604B0BDE8F081B0F80130ADF80C30FA
:103CD0009DF80C30D80660D4990603F0030259D53C
:103CE000002AECD11D0703D503F06703012BE6D1B1
:103CF0006378180711D42179E278E07942EA012249
:103D0000617942EA0142A17941EA0021207A41EA3F
:103D100000418A42D3D81F2AD1D9627A013A062AB1
:103D2000CDD8A27A032ACAD813F0040102D1023AEC
:103D3000012A03D8E27A012AC1D811B9A27C032A48
:103D4000BDD813F01001227D36D0012AB7D1237ED1
:103D5000012BB4D800293FD06378D90703D500F0F0
:103D6000C5F900283FD06378227D03F01803082BA3
:103D700049D1022A37D11FFA87F803214046FDF7BF
:103D8000C5FD0546002844D009F0A4FE00284CD00B
:103D90000C2695E7032AA5D191E713F0600F8ED189
:103DA00003F00F0203F00703052BA1D0931E012B94
:103DB0009ED9002A83D19BE7022A04D103F06F0326
:103DC000092B7FF47CAFA37D013B022B3FF677AF3D
:103DD000E37D0F2BBBD972E700F0F4F9820707D41B
:103DE000237D022B01D111266AE7A37D022BFAD095
:103DF00000F0E8F94307AFD4237D032BF3D0A37D74
:103E0000032BA9D1EFE7022AB5D0A37E002BB2D0B5
:103E1000E9E703214046FDF73BFD0546002842D077
:103E2000224B93F928100CF08EFF002138460DF03C
:103E300059FA28BB28460DF040F821463070E0744E
:103E4000284602F031FF637E0646002B3FF438AF70
:103E500000287FF435AF0246E96C6846FDF7A6FE00
:103E60003246E86C012109F085FAE96C68460422C3
:103E7000FDF79CFE32463146E86C09F07BFA1FE7FD
:103E800040300DF04FFA0028D4D0637813F0330F90
:103E90007FF415AFA77D28460DF036F809F064FED3
:103EA0008742C7D074E707260AE700BF280F002023
:103EB00030B502798BB00346042A58D84488B4F54B
:103EC000804F54D82B4800211044ADF804108DF8D1
:103ED0000C10027AC57842F010028DF8211042EAE7
:103EE0004502457B807C42EA850242EAC00202F03C
:103EF0001F028DF80420BDF80420ADF80D201A88AB
:103F00008DF81240240A8DF80F20120A8DF8111036
:103F10008DF814108DF810208DF813405A7BD3F8CB
:103F200007008DF815205A79069003A88DF8162001
:103F30009A798DF81720B3F80B209B7BADF81C20E5
:103F40008DF81E307F238DF81F3001238DF820302F
:103F50008DF822308DF823108DF824108DF825105F
:103F60008DF8261001A9FFF7A3FE0BB030BD12207B
:103F7000FBE700BF1AB5020013B50378044653B13E
:103F8000002301A8019306F0F5F8019B9B0702D0DE
:103F90000C2002B010BD22780020014B1A71F8E706
:103FA000280F00200278034672B1427862B142883D
:103FB0001A2A09D982881A2A06D90068034A106089
:103FC00000209B8893807047122070478C1300203C
:103FD00002680020014B9A60704700BF8C130020DC
:103FE0000378A3F10A02112A9BBF024A0020122083
:103FF000137470478C130020014B18760020704713
:10400000280F0020014B587600207047280F002011
:1040100008B5052000F0B4F804F0E4FB014B024AB7
:104020001A6308BD280F00205136000008B502F0C1
:10403000C5FDFFF785F90248BDE8084002F0A8BDBC
:104040005C0F002008B50BF0A2F9064800F584715A
:10405000FEF740F9022009F0E7F80020BDE808402B
:1040600009F0E2B85C0F002008B50122064B83F886
:104070000A2202F0ABFD03F0EBFCFFF7E3FFBDE823
:10408000084001F023B800BF5C0F002010B5064CBB
:10409000064904F503700AF0D0FF04F504700449E2
:1040A000BDE810400AF0C9BF5C0F0020C00000202E
:1040B000C800002010B5094C094904F503700AF046
:1040C000BCFF04F5047007490AF0B7FF04F505705A
:1040D0000549BDE810400AF0B0BF00BF5C0F0020EA
:1040E000D8000020E0000020D0000020014B93F811
:1040F0000A0270475C0F002038B5094C0D4600F0ED
:10410000DDFFD4F80C02C4F804510AF08EFFFFF76B
:104110007DFB01F089F9012384F8183238BD00BF16
:104120005C0F0020014B93F8180270475C0F0020D1
:1041300010B50C4CD4F810020AF077FFD4F8140232
:104140000AF073FFFFF728FB202000F027F82F204C
:1041500000F024F8262000F021F8002384F818321B
:1041600010BD00BF5C0F0020014B83F8190270479F
:104170005C0F0020014B93F8190270475C0F002080
:10418000C2080549012300F0070003FA00F08B5C28
:1041900018438854704700BF18000020C208054922
:1041A00000F0070001238340885C20EA0300885464
:1041B000704700BF18000020014BD3E90001704791
:1041C00018000020054B1868C0F3C022C0F300207F
:1041D000400040EA820040F00100704718000020D3
:1041E00008B506F08DF90023074A32F82310814202
:1041F00005D302EB83039B78044A137008BD013397
:104200000C2BF2D10023F7E770B5020076110020E5
:10421000024B187800F00700704700BF76110020AD
:1042200010B54468238884F80D12A4F80E3294F86F
:104230007C0009F0AAFC84F8100294F87D0009F0D3
:10424000A4FC022284F8110204F5017003490BF06A
:10425000C7FD002384F86C3110BD00BFC7F000001B
:10426000406806490388A0F80032B0F8743000F2C4
:10427000F710A0F80B300BF0ADBD00BFDDF0000073
:104280002DE9F743456804460F4695F8C73095F881
:10429000C680242B2CD1C73538460BF045FD0028AD
:1042A0004DD038460BF038FD814638460BF038FDCE
:1042B00001460AF068FF666848B396F87C30984279
:1042C00025D096F86C21012A0CBF96F86E2196F83D
:1042D0007820114233D0B8F1220F18D096F875200B
:1042E000114214D153B940F26D110620FCF7BEFD06
:1042F000B8F1220F40F0C480C635CDE7042B01D0C1
:10430000042832D1984294BF00200120B8B9484611
:104310000AF039FF00284BD096F87D30834247D011
:1043200096F86C31012B0CBF96F86F3196F8793006
:1043300019EA030F14BF01230023002B38D163684F
:1043400093F86C21012A19D11E212046FFF768FF3E
:10435000B8F1220F20D1FA786368182A83F8512126
:1043600010D040F26D217E20C0E7082BCAD008286B
:10437000C8D098422CBF00200120C7E7002283F854
:104380006C21E5E70A2283F8C62093F80431002B5C
:104390003CD140F27521E6E7002320462B700BF05C
:1043A00081FE3946204603B0BDE8F0430BF09EBEC7
:1043B000304601AA39460AF0F3FE666880BB96F8DB
:1043C0006C31012B29D1B6F8C03006F5737296F81E
:1043D0007C10B6F870010AF04AFF0646C0B90146E3
:1043E0002046FFF71DFF2E70636803F1C702954258
:1043F00002D1002283F8C720636803F1C702954207
:104400004FF0000539D120460BF04CFE002038E07B
:104410006368282283F8C620E6E786F86C01E3E7A4
:1044200038460BF07FFCA6F8CC036068B0F8CC33BC
:10443000B0F8C020013B9B1A47F6FD729BB2934235
:1044400007D9282380F8E930E0300F490BF0C2FC8F
:10445000D2E790F8C7300E2B02D00B3B012B01D8CE
:104460002A23EFE79DF8043080F8CE339DF805301D
:1044700080F8CF3326232B70BEE783F80451C5E7BD
:10448000022003B0BDE8F08371590000044B002204
:1044900083F832204FF6FF729A86DA861A877047C1
:1044A00078110020054B9A8E824201BF002283F8CA
:1044B00032204FF6FF729A86704700BF78110020B5
:1044C000014BD886704700BF78110020094A034687
:1044D0004FF6FF71908E884206D192F83210012972
:1044E00005D001201A607047002018607047002036
:1044F000704700BF78110020064B93F83220012A44
:104500001BBF0120DA8E002083F8320018BF9A8684
:10451000704700BF78110020014B1887704700BF1B
:1045200078110020064B0246198F988E884205D1DB
:1045300093F8320018B101201360704700207047D3
:1045400078110020094B998E1A8F914201D00020DA
:1045500070474FF6FF729A8693F83220002AF6D001
:104560000022012083F83220704700BF781100201C
:10457000054B998E1A8F914203BF93F83200B0FA1F
:1045800080F04009012070477811002050B90A4A94
:104590000120134603F8010B0868C2F801008A885D
:1045A0009A807047012805D1034B0A68D8719A6038
:1045B0008A889A81704700BFB211002048B90A4B1F
:1045C000187880B1D3F80120B3F805300A608B80E9
:1045D0007047012806D1044BD87920B19A689B898D
:1045E0000A60F4E700207047B211002020B9054BA3
:1045F000187800F00100704701280ABF014B002025
:10460000D879F6E7B2110020F7B58B8800228DF833
:104610000600ADF8043008680B4B8DF80720014602
:104620001C7803F5AC73019DD0B2844201D80820F8
:1046300007E0D3E9007601320833AE4208BF8F426B
:10464000F2D103B0F0BD00BFC0110020084B0146FD
:10465000002230B55C7803F58173D0B2844201D872
:10466000082004E013F8015B01328D42F5D130BD22
:10467000C0110020F8B52D4C63782218013B92F848
:104680000251DBB28342637030D01A010101961CE3
:104690008F1C2644274406F1100C56F804EB66459F
:1046A00047F804EBF9D1823282312244214402F1ED
:1046B000100652F8047BB24241F8047BF9D1E118AC
:1046C000221891F8026182F8026106267343704352
:1046D00003F5857300F58570E618E3582718235015
:1046E000B388BB8091F83A3182F83A312846FFF717
:1046F000ADFF082818D12378013BDBB29D4223701F
:1047000012D02B3305F12B0204EBC30304EBC202DE
:1047100093E8030082E803002078FFF797FF08285A
:104720001CBF241884F80251F8BD00BFC01100203E
:10473000F0B5254D89B095F8984105F29911684674
:1047400022460DF0C8FA214668460AF041FE0446AA
:10475000B8B300EB400102A8C9B2FCF7A3FD601E8C
:1047600095F8A1610124C0B295F8982105E0731C69
:10477000B3FBF2F102FB1133DEB206F120030DEBC5
:10478000030111F8203C002BF1D100EB400201F8AD
:10479000204C06EB460320322B446A4412F8187C66
:1047A00083F8A27112F8177C12F8162C83F8A37103
:1047B00083F8A4210138AB19C0B283F89941FF28CE
:1047C000D2D109B0F0BD00BFC011002070B50646BF
:1047D00088B00C46002A4FD02A4A92F8A131D0184E
:1047E00090F8991121B94FF480712820FCF73EFB15
:1047F00003EB43010133114491F8A251E57091F8A4
:10480000A35191F8A41125716171002180F89911CB
:1048100092F89811B3FBF1F001FB103382F8A1314B
:1048200092F8C23123B9184902F5DD700BF0D5FAC0
:1048300065790D220021684605F03F0545F04005E9
:1048400065710DF073FAE37804AA69468DF80F30AC
:10485000304623798DF80D508DF80E3004230DF07D
:1048600047F99DF81F3023709DF81E3063709DF846
:104870001D30A37008B070BD03216018FCF712FD55
:10488000D6E700BFC011002031470000044B5A7822
:10489000824286BF1B1893F84A010020704700BF70
:1048A000C0110020044B5A78824286BF1B1893F82F
:1048B00042010020704700BFC0110020064B0022BB
:1048C0004FF461711A8083F8C32183F8C421A3F8DF
:1048D000C61183F8C2217047C0110020014B83F834
:1048E000C4017047C01100202DE9F0478246894677
:1048F00017469846FFF788FE08280546064603D067
:10490000FFF7A4FE082863D1334C6378072B61D8E6
:10491000082D18D12678731C072E237003D96B211C
:104920002820FCF7A3FA06F12B03D9F80000DAB22D
:1049300004EBC30344F8320004EBC201B9F80420CD
:104940008A8083F806A0657807F110026B1C2901A4
:1049500063704B1C234412F8010DBA4203F8010F97
:10496000F9D1813108F11003214413F8012D984544
:1049700001F8012FF9D12544102140460AF07EFDAF
:10498000102185F8420138460AF078FD002385F8A9
:104990000261667885F84A0185F83A3131460F4858
:1049A0000AF016FD054631460D480AF011FD012DAD
:1049B00003D8002818BF0135EDB284F898510025BE
:1049C000284684F8A151FFF7B3FE2846BDE8F087DA
:1049D0001220FBE70720F9E7C01100200213002096
:1049E0000A130020064B10B55878013840B2002851
:1049F00000DA10BDC4B22046FFF73CFE601EF5E7AA
:104A0000C0110020014B83F8C3017047C011002082
:104A1000014B93F8C3017047C0110020431E4AF2B6
:104A2000B7129BB293429DBF024BA3F8C60101206F
:104A300000207047C0110020014BB3F8C601704739
:104A4000C01100200A4B30B55C7884420ED918445E
:104A500090F802012B3003EBC004A5790D7053F8D8
:104A6000300010600120A388938030BD0020FCE757
:104A7000C01100200246074810B590F8C34124B188
:104A8000417821B1023003F081FF204610BD0C4671
:104A9000FBE700BFC01100202DE9F74F2F4C9A46CD
:104AA000804689466378834256D9231893F8425149
:104AB00085F00105F9B193F84A31E3B945F00207F1
:104AC0000135BAF1000F18D1FA070AD5062104EB17
:104AD0000810524601FB0841823001F58571FFF74D
:104AE00075FEBB0734D504EB081052464946023028
:104AF000FFF76CFE2CE02F46E3E794F8A1614FF03E
:104B0000010B002DE0D0A31993F89911019399B9E5
:104B10000092DAB100F058FC019B06EB4601009AC6
:104B20004FEA102C83F899B1214481F8A201000CBE
:104B300081F8A3C181F8A401013694F89831013DB0
:104B4000B6FBF3F103FB1166F6B2DAE747F00407B0
:104B5000384603B0BDE8F08F0027F9E7C011002008
:104B6000074B5A78824209D91A1892F842212AB979
:104B7000062202FB003000F5857070470020704768
:104B8000C0110020064B5A78824281BF1B1893F84F
:104B90003A01B0FA80F0400998BF0020704700BF8A
:104BA000C0110020F8B50E460746062115463046CE
:104BB0000AF064FC044640B10A482946427800F5F0
:104BC0009D700DF0B3F82046F8BD314638460AF026
:104BD0001BFC08281FBF034B0124C01880F83A5162
:104BE000F1E700BFC011002030B5002442F210757B
:104BF000A0F85240B0F856404C43B4FBF2F4A0F891
:104C00005640541E05FB0343B3FBF2F3A0F85430A7
:104C1000094BB3FBF2F30133A0F85A30B0F84C3033
:104C200005FB0344436C5943B4FBF2F4B1FBF2F2CD
:104C30008464426430BD00BF005A620270B504460D
:104C40000D4659BB4FF480620DF070F8012384F8D3
:104C5000205184F8CE30492384F8215184F81B3147
:104C6000042384F81C316FF03B0384F81D316F235B
:104C700084F81E316FF03F0384F81F312B2384F832
:104C80001A31FE2384F856317F2384F8C530144B43
:104C9000C4F8B030202384F8843370BD012917D1C3
:104CA0000023C269A0F80E33114680F803330D4B80
:104CB0001344B3FBF2F3C0F8F03040F6B833A0F879
:104CC000F430C38C04F1A800BDE87040FFF78CBF3E
:104CD0000229E2D1B0F8DA33D0F8D423C169F1E780
:104CE00000E0FCFF7FC3C90170B504460D4659BB07
:104CF0004FF462720DF01AF8012384F8205184F801
:104D0000CE30492384F8215184F81B31042384F8E0
:104D10001C316FF03B0384F81D316F2384F81E3182
:104D20006FF03F0384F81F312B2384F81A31FE23E0
:104D300084F856317F2384F8C530124BC4F8B03064
:104D4000202384F8193370BD012912D1C2690E4B9A
:104D500011461344B3FBF2F3C0F8F03040F6B83319
:104D6000A0F8F430C38C04F1A800BDE87040FFF750
:104D70003BBF0229E7D1B0F84633D0F84023C169E0
:104D8000F1E700BF00E0FCFF7FC3C901034B80F8DF
:104D900080101B680BB1008818477047E80000209E
:104DA000074B93F900301844142804DC10F17F0FEE
:104DB00003DB40B27047142070476FF07E007047ED
:104DC000881300207F2307B50DF107008DF8073009
:104DD00004F0B8FE9DF9073068B10A4A50784042A5
:104DE00040B21844142808DC10F17F0F07DB40B2F2
:104DF00003B05DF804FB1846FAE71420F8E76FF0FB
:104E00007E00F5E788130020024B00221A705A70CA
:104E1000704700BF88130020054B1B7833B9054B42
:104E20001A681B79026003710120704700207047E7
:104E30008A13002020000020054BFF221A70054A2B
:104E4000016811600179117100221A70704700BF6A
:104E50008A13002020000020064B07B518681B7934
:104E6000009068468DF80430FFF7E6FF03B05DF868
:104E700004FB00BFBD1403000346407848B1DB7853
:104E80003A2B05D8034AD35C1B1A58425841704745
:104E900001207047A0B502003A2908B5C17003D8B7
:104EA000064B5B5C437008BDFF2904D04FF4896159
:104EB0002A20FBF7DBFF0123F4E700BFA0B50200C7
:104EC0002DE9F04385B089461446984602A90AF0B8
:104ED000BDFA0546002840D1039E34B9012486F866
:104EE000CD40204605B0BDE8F083776921463846BD
:104EF00007F09FFF014690B31B4B5B88A34230D362
:104F000001AA384608F0E9F8019B1D809D7096F8CB
:104F1000CD300198002B0CBF494602210AF010FE4B
:104F200001982246414603300CF0D5FE2146384612
:104F300007F0B3FF044618B97B212B20FBF796FF3F
:104F40009DF808302BB102A80AF00FFF039BA3F8CD
:104F5000FA52002386F8CD30C3E70124C1E70446A6
:104F6000BFE72C46BDE700BF8C130020024B987FA3
:104F7000C04300F0010070478C130020034B987F62
:104F800080F00200C0F34000704700BF8C13002087
:104F900010B5094C1422002120460CF0C7FE122245
:104FA000002104F114000CF0C1FE01232373231D22
:104FB000C4E9003310BD00BFB01300207FB5054623
:104FC0000C4619B9F1211020FBF750FF03888B80A4
:104FD00000234B728669304608F071F8014608B923
:104FE000FA21F0E701AA304608F077F8E08008B926
:104FF000FF21E8E7FB2802D940F20111E3E701981D
:105000000AF0A6FD012801D0022805D120722068EF
:1050100028B94FF48C71D6E740F21111D3E701990A
:10502000E28803310CF057FE304608F05EF810B904
:1050300040F21D11C7E70021304607F091FF10B97B
:105040004FF49171BFE70B4BDA7F82B11A8C02A942
:105050002888013A1A840AF0F9F910B140F22B11AC
:10506000B1E7039AB2F8DE300133A2F8DE3004B0C3
:1050700070BD00BF8C13002010B520B940F21B2179
:105080001020FBF7F3FE41600272EFF3108472B65A
:10509000094B1A1D0260596819B1097A012908BF24
:1050A0001A601A681060186004B962B693F8260096
:1050B000BDE8104006F0D4BFB0130020024B83F8C7
:1050C0002600FFF765BF00BFB0130020014B024A66
:1050D0001A607047EC000020BD4F00002DE9F3413D
:1050E0000646584D584F6B681B7A0C2B07D1FB7F37
:1050F0002BB13B8C1BB9002002B0BDE8F0812B69BD
:10510000BBB11B7AABB12C69002CF4D094F80880A9
:105110005FFA88F805232372A8F102030A2B00F234
:105120008280DFE803F017233880505F50505050E2
:1051300073006C68237A012BDDD0EFF3108372B615
:105140006A6812686A6003B962B6237A002BD6D007
:105150002C61DBE7636823B940F2A1111020FBF753
:1051600085FE31462046984704201CE0636813B949
:105170004FF4D571F2E73146204698470346ADF823
:105180000400C0B2C3F30723012B4FD0022B0AD176
:1051900000232B614CE0636813B94FF4DA71DDE74B
:1051A000204698470020EFF3108372B6227A052A32
:1051B000D1B201D000293FD1002222722A61002BF6
:1051C00036D162B634E0214B1B68002BEAD0424650
:1051D000314660689847B8F10A0FC5D100232B61AA
:1051E000042089E763680BB9C621B7E70D220024C4
:1051F0003270012219885869A6F803102146B2704E
:105200007271B47107F0ACFE2C61E9E7606810B907
:1052100040F2DF11A2E70E4B31461B68984700238E
:1052200002202B6168E74FF4F47197E703232372A0
:1052300000283FF458AF5FE7002B7FF454AF62B60D
:1052400051E700BFB01300208C130020F0000020B5
:10525000EC0000200448037F23B9022203491430E4
:105260000AF0ACBD704700BFB0130020AFFD0000D6
:105270001B234FF01B128384038482618382C260EC
:10528000038541B94FF4A473094AC3844384C261BE
:10529000C382026170474FF429634FF4A472C38440
:1052A000438403F12963C282C3610361704700BF75
:1052B0004801480103460846B3F86820B3F85C107B
:1052C000B3F852C08A42F0B528BF0A46B3F86A6004
:1052D000B3F8601093F87D40B142B3F8565004F033
:1052E0000C04A3F8522028BF3146002CB3F85840D4
:1052F00007BFB3F85A700E464FF429674FF429667A
:105300009442A3F8566038BF1446B94238BF3946B4
:105310009445A3F85840A3F85A1033D1AD1B18BFD9
:105320000125B3F86410B3F85E40B3F850C08C4266
:10533000B3F8547028BF0C4693F87C1011F00C0F92
:1053400022D1B3F86210B3F866E0714528BF714608
:10535000A445A3F85040A3F8541002D18F4200D1C5
:10536000ADB11B88A0F80B40A0F80D10A0F80F20DD
:105370000222A0F811600649A0F80930BDE8F0400B
:105380000AF02EBD0125CCE74FF42961E0E7F0BD1E
:10539000F3FD00000B8BA2F809001046A2F80B30B9
:1053A0004B8BA2F80D308B8BA2F80F30CB8B0249C0
:1053B000A2F811300AF00EBD41FE0000014B187832
:1053C000704700BFD7130020094AD2E900034340C9
:1053D00083EAB01181EA43214FEAF343116053603D
:1053E000044B58434FEAF06000EB8000704700BF69
:1053F000D8130020BB79379E094AD2E90203434003
:1054000083EAB01181EA43214FEAF3439160D3600C
:10541000044B58434FEAF06000EB8000704700BF38
:10542000D8130020BB79379E38B50A4C04F1080523
:1054300008212846FBF736FFD4E902231343F7D0AF
:10544000FFF7DAFF2060FFF7D7FF236860600343B0
:10545000F6D038BDD8130020174B184A9A60184A66
:105460005A60184A1A60184A9A62184ADA62184A48
:10547000DA60184A9A61184A1A63184A1A62184A76
:10548000DA64184A9A64184A5A62184B184A9A60A1
:10549000184A5A62184ADA62184A1A61184A5A6156
:1054A000184A9A61184A1A63184A9A64184ADA64C0
:1054B000184A9A63704700BFF400002045010100BC
:1054C000255A00008D5A0000230301000F0401003B
:1054D0007F03010025040100BD5D00001D5C00008C
:1054E000330501005B050100A55C0000E001002020
:1054F00071010100D104010047040100815B00003B
:105500006B040100B95B000015060100C505010030
:10551000A9050100AB040100044B054A5A65054B7F
:10552000054A1A65054A5A65704700BFF400002015
:10553000DF010100E0010020B90101006F0201005C
:10554000054B064A9A65064A1A66064B064A9A654C
:10555000064ADA65704700BFF4000020A7F2000099
:1055600081420000E001002061F100004FF30000E3
:10557000392A73B505460C463DD8392A3ED8DFE8AE
:1055800012F0420083008D009900B100970097004F
:10559000C000C200C80097009700CD00D800C2002C
:1055A0003D003D00DC0097009700F800F800FF0088
:1055B000060112013D003D0031014E0157015D0120
:1055C00063016E017001720174017F018701B401F2
:1055D000B6013D003D008F013D003D00AC019A0148
:1055E000A401A601A801AE01B201B0013D009700DF
:1055F0003D003D00AA01FF2A00F07B8140F2D63138
:105600005120FBF733FC416841F64B50D1F8403351
:10561000B1F83823834294BF642040F2E240B2FBE9
:10562000F0F241F64B50D2B283422271D1F83C23C2
:1056300094BF642040F2E240B2FBF0F292B2A3F5D4
:105640007A706271120AA27141F270729042204621
:1056500095BF4FF47A7240F2E242B3FBF2F3B3FB30
:10566000F2F398BF03F550639BB2E3711B0A2372F8
:10567000B1F8443363721B0AA372B1F8461302B047
:10568000BDE870400AF088BA43682046D3F8281372
:10569000013102B0BDE870400AF0B2BA0278436846
:1056A000012A02D193F8583101E093F86131237156
:1056B00002B070BD4568204605F55B710AF0AFFA8F
:1056C00005F55D7120460AF0B4FA05F553712046E0
:1056D0000AF0B5FA05F5A471204602B0BDE87040A5
:1056E0000AF0BBBA4168204601F546710AF0BDFADE
:1056F0006968204601F5487102B0BDE870400AF0C3
:10570000B6BA4368CEE7084602B0BDE8704000F084
:1057100027BB02B0BDE8704000F034BB0D230B7115
:1057200059234B7100238B71FB23CB7131230B72F7
:10573000BEE7436893F85231B9E7037846687BB90E
:1057400096F8583163B196F8551120460AF0FBFAE5
:1057500096F85411204602B0BDE870400AF0F7BA3E
:1057600096F853112046A8360AF0EDFA96F8AA10DA
:10577000F0E70146204602B0BDE870400AF0CABC1E
:10578000436893F86E21227193F86F3109E0436802
:1057900093F86C21012AF4D093F878200A7193F8D9
:1057A0007930637184E7456895F8330309F072FD39
:1057B000014620460AF0B2FA95F8320310F00C0FB9
:1057C00007D095F87C3013F00C0F02D0984218BF28
:1057D000002009F05FFD0146204602B0BDE87040A0
:1057E0000AF098BA45680023204601218DF804305C
:1057F0000AF0B2F92A7C01A96B7C2046032A03F047
:105800001F0308BF002243EA82139DF8042002F020
:10581000200213438DF804300AF0A7F948E74168E5
:10582000204601F2791102B0BDE870400AF04FBA8B
:10583000084602B0BDE870400BF08DBD084602B0CE
:10584000BDE870400BF08FBD2F4B1B68002B3FF461
:105850002FAF2946204602B0BDE8704018472B4BB9
:10586000F3E72B4BF1E72B4BEFE72B4B1B68002BA0
:105870003FF41EAF0246232002B0BDE87040184737
:10588000254B1B68002B3FF413AF02462420F3E79F
:10589000214B1B68002B3FF40BAF02462520EBE7A2
:1058A0004168204601F29B1201F2791102B0BDE875
:1058B00070400AF018BA194B1B68002B3FF4F8AE81
:1058C000204602B0BDE870401847154BF4E7154B71
:1058D000BBE7154BB9E7154BB7E7154BB5E7154BCC
:1058E000B3E7154BB1E7154BAFE7154BADE7154BDC
:1058F000ABE74368204693F8C723D3F8C81302B038
:10590000BDE870400AF034B9D0020020D402002073
:10591000CC020020D8020020000300200403002055
:1059200008030020DC020020E0020020F00200203A
:10593000F4020020E8020020E4020020EC02002033
:10594000FC020020F80200203A289ABF024B53F8CC
:1059500020000020704700BFF40000203A289ABFC2
:10596000024B53F820000020704700BFE0010020E8
:1059700030F8023CF7B504460E467BB100238DF8A3
:1059800004308DF8053000209DF8043063F30700E3
:105990009DF8053063F30F2003B0F0BD1E4B30F8C7
:1059A000E05C1B680BB1383898471C4B1B680BB187
:1059B00028469847FEF700FC4B0408D50D212846E1
:1059C000FBF7BAFF18B179216320FBF74FFA0A23DE
:1059D0000027A6F803503370B770637A54F8C80CE8
:1059E000737107F0D9FA08B98321EDE72846FEF76D
:1059F00059FD39462846FBF79FFF02212846FBF751
:105A00009BFF18B9064B1B6803B1984704238DF818
:105A100004300023B5E700BF0C030020140300206E
:105A20001003002070B5044640680D46012390F82D
:105A3000C7200021A83009F02DFD18B3666828465C
:105A40000AF0E8F8A6F8CC036068B0F8CC33B0F8F8
:105A5000C020013B9B1A47F6FD729BB2934207D9C7
:105A600028230949E03043720AF0B4F9002070BDE0
:105A700000F2CE3128460AF0C8F863680B2283F89A
:105A8000C720F3E70120F2E77159000070B5054621
:105A900040680C46012390F8C7200021A83009F087
:105AA000F9FC002867D06B68204693F881100AF053
:105AB0007AF828B921462846BDE870400AF016BB9E
:105AC0006868B4F80D30B0F8C020A0F8CC33D243E9
:105AD000134447F6FD729BB2934207D92823274906
:105AE000E03043720AF076F9002070BD20460AF0DB
:105AF0004DF86FF450636E6841F64B52C3189BB279
:105B0000062B96BF4FF47A7340F2E243A0F5506043
:105B100058439042C6F8D40323798ABFC3EB43129B
:105B200003EB830303EB820341F64B5295BF03EB78
:105B3000830303EB83039B005B0088BF9BB290420F
:105B4000204694BF642240F2E242A6F8CE33B4F875
:105B500005305343C6F8D0330AF01BF8A6F8D80333
:105B600020466E680AF01CF86B680E22A6F8DA036D
:105B700083F8C720B8E70120B7E700BF71590000DC
:105B8000406808B590F8C730162B04D04FF49271D6
:105B90001F20FBF76BF901230222064980F8093127
:105BA000172380F8C73000F57770BDE808400AF089
:105BB00005B900BFD302010038B54368044693F825
:105BC000C7201D2A04D040F271111F20FBF74EF9A7
:105BD000002293F80A111D8803F5347083F8092117
:105BE00071B183F80A2183F8D92202220949A3F866
:105BF000DA520AF0E3F86368002283F8C72038BD60
:105C0000012283F8D912A3F8DA5283F8DC220222A7
:105C10000149EEE7BD020100A502010070B544682C
:105C20000E46057804F1A8005DBB2B4694F8C7200A
:105C3000294609F02FFC40B37168B368184A23F471
:105C40001E530A4023F01003C4F81A21C2F307625E
:105C50001B0442F008021B0C84F81D210022C4F82A
:105C60001E31A4F806219DB194F808311546013380
:105C700084F80831D4F8B83043F00103C4F8B830E0
:105C800004E0D4F8B830DB07D6D50125284670BD2E
:105C9000012384F80831042384F8C730F6E700BFF5
:105CA0002F4904F7F8B54468064607780D4694F87E
