:020000040000FA
:10000000487C0020C9320100F3AE0200B532010085
:10001000B5320100B5320100B5320100B532010040
:100020000000000000000000000000002D3401006E
:10003000B532010000000000C5330100B5320100F7
:10004000E5350100E5350100E5350100E535010044
:10005000E5350100E5350100E5350100E535010034
:10006000E5350100E5350100E5350100E535010024
:10007000E5350100E5350100E5350100E535010014
:10025000E5350100B5DA0200E5350100E5350100BC
:10026000E5350100E53501009FDA0200E5350100C2
:10027000E5350100E5350100E5350100E535010012
:10028000E5350100E5350100E5350100E535010002
:10029000E5350100E5350100E5350100E5350100F2
:1002A000E5350100E5350100E5350100E5350100E2
:1002B000E5350100E5350100E5350100E5350100D2
:1002C000E5350100E5350100E5350100E5350100C2
:1002D000E5350100E5350100E5350100E5350100B2
:1002E000E5350100E5350100E5350100E5350100A2
:1002F000E5350100E5350100E5350100E535010092
:10030000E5350100E5350100E5350100E535010081
:10031000E5350100E5350100E5350100E535010071
:10032000E5350100E5350100E5350100E535010061
:10033000E5350100E5350100E5350100E535010051
:10034000E5350100E5350100E5350100E535010041
:10035000E5350100E5350100E5350100E535010031
:10036000E5350100E5350100E5350100E535010021
:10037000E5350100E5350100E5350100E535010011
:10038000E5350100E5350100E5350100E535010001
:10039000E5350100E5350100E5350100E5350100F1
:1003A000E5350100E5350100E5350100E5350100E1
:1003B000E5350100E5350100E5350100E5350100D1
:1003C000E5350100E5350100E5350100E5350100C1
:1003D000E535010089DA0200E5350100E535010067
:1003E000E5350100E5350100E5350100E5350100A1
:1003F000E5350100E5350100E5350100E535010091
:10040000E5350100E5350100E5350100E535010080
:10041000E5350100E5350100E5350100E535010070
:10042000E5350100E5350100E5350100E535010060
:10043000E5350100E5350100E5350100E535010050
:10044000E5350100E5350100E5350100E535010040
:10045000E5350100E5350100E5350100E535010030
:10046000E5350100E5350100E5350100E535010020
:10047000E5350100E5350100E5350100E535010010
:10048000E5350100E5350100E5350100E535010000
:10049000E5350100E5350100E5350100E5350100F0
:1004A000E5350100E5350100E5350100E5350100E0
:1004B000E5350100E5350100E5350100E5350100D0
:1004C000E5350100E535010080EA101404F0F01470
:1004D00080EA0410604081EA111404F0F01481EA0B
:1004E0000411614082EA121404F0F01482EA04124A
:1004F000624083EA131404F0F01483EA04136340A7
:1005000080EA102404F47F4480EA0420604081EAF9
:10051000112404F47F4481EA0421614082EA122418
:1005200004F47F4482EA0422624083EA132404F440
:100530007F4483EA0423634081EA500404F0553485
:1005400080EA4400614083EA520404F0553482EAB0
:100550004402634082EA900404F0333480EA840069
:10056000624083EA910404F0333481EA84016340F9
:10057000704700BF82EA900404F0333480EA8400BC
:10058000624083EA910404F0333481EA84016340D9
:1005900081EA500404F0553480EA4400614083EA63
:1005A000520404F0553482EA4402634080EA102485
:1005B00004F47F4480EA0420604081EA112404F4BA
:1005C0007F4481EA0421614082EA122404F47F44DA
:1005D00082EA0422624083EA132404F47F4483EA1B
:1005E0000423634080EA101404F0F01480EA04103D
:1005F000604081EA111404F0F01481EA04116140B2
:1006000082EA121404F0F01482EA0412624083EACF
:10061000131404F0F01483EA04136340704700BF1E
:100620002DE9F14F94464FEA930B8A68CB6808682E
:100630004968FFF749FF0BF1060E33E083EA1344E4
:1006400080EA134582EA134746BA96EA344460408A
:1006500000F00F1684EA063420F00F1684EA161014
:1006600054BA94EA0106724002F00F1486EA043686
:1006700022F00F1486EA14124CBA6540694001F06A
:100680000F1485EA043521F00F1485EA14115CBAC1
:1006900067407B4003F00F1487EA043723F00F1400
:1006A00087EA1413BCE8F0006040694072407B4068
:1006B00000F0E03400F0103500F00F3040EA540054
:1006C00040EAC50080EA900404F0332480EA840004
:1006D000604001F0E03401F0103501F00F3141EAE3
:1006E000540141EAC50181EA910404F0332481EA0E
:1006F0008401614002F0E03402F0103502F00F3264
:1007000042EA540242EAC50282EA920404F0332427
:1007100082EA8402624003F0E03403F0103503F013
:100720000F3343EA540343EAC50383EA930404F016
:10073000332483EA8403634081EA324787EA13451E
:1007400081EA354690EA060484EA034B82EA1B42BA
:1007500080EA044484EA054483EA144A85EA14449E
:100760008BEA044B84EA374481EA0B4181EA164163
:1007700004EA0A00454082EA04082BEA08004140E6
:100780008AEA0B0602EA060084EA34438AEA3A4619
:1007900003EA060778404540414088EA38478BEA3B
:1007A0003B4007EA000985EA090583EA0709464054
:1007B00006EA0906714085EA010005EA3546464029
:1007C00006EA314181EA304181EA364606EA30469E
:1007D00086EA3546344008EA010886EA01052A40DF
:1007E00086EA364003405A4081EA31431F407C404C
:1007F00080EA030709EA070988EA0908544088EAF9
:10080000020806EA0A0601EA0B018AEA0B02154011
:100810008AEA3A42104045408BEA3B4003405E4042
:100820004240174079404D404E40E443F64386EA4B
:1008300018435D4085EA054083EA134386EA034195
:1008400083EA384284EA114383EA04435FEA33438C
:10085000BEF1010E3FF6F2AE1ED4BCE8F0006040DF
:10086000694072407B4020BCFFF784FE28606960CD
:10087000AA60EB60BDE8F08F2DE9E0414FF2F00295
:1008800080EA1031114080EA013048404108820876
:10089000C3084FF0000E4FE700F0113001F01131A6
:1008A00002F0113203F0113340EA410040EA8200C5
:1008B00040EAC3004FF2F00280EA1031114080EAB2
:1008C00001304840BDE8E0812DE9F04F02F11C0500
:1008D0000646074600EB850851F8040B043A46F833
:1008E000040BF9D14FF0010CFFF7C6FF5FEA30208F
:1008F00080EA0C001ECF41404A4053405C401EC677
:100900002000464517D04FEA4C0C1CF4807F18BFDE
:10091000ACF1E50C2C2DE7D03C2D06D1FFF7ACFF58
:1009200006CF41404A4006C6100006CF41404A402B
:1009300006C61000D8E736E90F00FFF7C5FD043DF5
:1009400086E80F00F7D1BDE8F08F00BF2DE9F14F29
:1009500003F11C0402EB840C4FEA930B8A68CB680A
:1009600008684968FFF7B0FD3CE9F0006040694065
:1009700072407B400BF1060E4EE083EA134480EA9E
:10098000134582EA134746BA96EA3444604000F0C1
:100990000F1684EA063420F00F1684EA161054BAB3
:1009A00094EA0106724002F00F1486EA043622F03F
:1009B0000F1486EA14124CBA6540694001F00F1416
:1009C00085EA043521F00F1485EA14115CBA6740FA
:1009D0007B4003F00F1487EA043723F00F1487EAF3
:1009E000141344BA44404DBA4D4056BA56405FBA0B
:1009F0005F4087EA174886EA174B84EA17464FEAB2
:100A000038488BEA1B4485EA1B4788EA1B4580EA85
:100A10003440694072407B4000F0703400F0803513
:100A200000F00F3040EA440040EAD50080EA90042C
:100A300004F0332480EA8400604001F0703401F057
:100A4000803501F00F3141EA440141EAD50181EAE4
:100A5000910404F0332481EA8401614002F070348F
:100A600002F0803502F00F3242EA440242EAD50237
:100A700082EA920404F0332482EA8402624003F0A2
:100A8000703403F0803503F00F3343EA440343EA44
:100A9000D50383EA930404F0332483EA8403634098
:100AA000C943DB4381EA000483EA044686EA020183
:100AB00083EA014382EA334583EA14435C4084EAD3
:100AC00000077FEA040A8AEA024A8AEA010B87EAF7
:100AD00011488AEA374A80EA060181EA1A418AEA1D
:100AE000030A04EA0A00454088EA040707EA0B0003
:100AF00041408AEA0B0608EA060084EA34428AEAA0
:100B00003A4602EA060358404540414087EA3743E7
:100B10008BEA3B4003EA000985EA090582EA0309FA
:100B2000464006EA0906714085EA010005EA3546B5
:100B3000464006EA314181EA304181EA364606EA1A
:100B4000304686EA354634400F4086EA010508EA19
:100B5000050886EA3640024088EA020881EA314206
:100B600013405C4080EA020309EA030987EA0907A7
:100B7000674088EA040806EA0A0601EA0B018AEAE5
:100B80000B0425408AEA3A44204045408BEA3B4B1F
:100B900002EA0B02564084EA0B04234059406E409F
:100BA000694087EA364080EA384080EA060380EAF6
:100BB000104481EA134585EA344585EA17427D40B1
:100BC00082EA354180EA05403CE9F0006040694036
:100BD00072407B40BEF1010E3FF6CFAE20BCFFF766
:100BE000C9FC28606960AA60EB60BDE8F08F00BFB7
:100BF000FFF76ABE2DE9F00791E8F807B2E80210A6
:100C00005B1854EB0C04B2E802104D4156EB0C0695
:100C1000B2E802104F4158EB0C08B2E8021059EB51
:100C200001095AEB0C0A80E8F80780410130BDE861
:100C3000F00770472DE9F00791E8F807B2E80210D5
:100C40005B1A74EB0C04B2E802108D4176EB0C06D3
:100C5000B2E802108F4178EB0C08B2E8021079EB91
:100C600001097AEB0C0A80E8F80780414042BDE8B0
:100C7000F00770472DE9F007524290E87800B1E89C
:100C800080071740DB1918EA020854EB080419EA38
:100C9000020955EB09051AEA020A56EB0A0678C062
:100CA00090E87800B1E8800717407B4118EA020815
:100CB00054EB080419EA020955EB09051AEA020A7D
:100CC00056EB0A0678C080410130BDE8F007704756
:100CD0002DE9F007524290E87800B1E8800717400C
:100CE000DB1B18EA020874EB080419EA020975EB29
:100CF00009051AEA020A76EB0A0678C090E878003D
:100D0000B1E880071740BB4118EA020874EB0804F9
:100D100019EA020975EB09051AEA020A76EB0A06D6
:100D200078C080414042BDE8F00770472DE9F001EE
:100D300052424FF0040890E8300091E8C000A31B35
:100D40001340E41AF618EB1B1340ED1AFF1830C0DD
:100D5000C0C1B8F10108EED1BDE8F001704700BF95
:100D600000B592E8DC072DE9DC07B1E8805702B452
:100D7000A7FB02510A95A8FB020BE7FB6310E9FBF6
:100D800062B00B91A8FB0351EAFB6201E7FB64B57B
:100D9000E7FB6605E8FB6615CDF830B0A9FB03B6A6
:100DA000EAFB6316ECFB6356E8FB640BE9FB641B90
:100DB000EAFB645BECFB646B0D90ACFB0230059CC2
:100DC000EEFB6250E9FB6460EAFB64B0E7FB643170
:100DD000E8FB6451069CE8FB6461E9FB64B1EAFB53
:100DE00064010E93A7FB0432079CE7FB6462E8FBF7
:100DF00064B2E9FB6402EAFB6412049CE9FB6453FD
:100E0000EAFB6463089CE7FB64B3E8FB6403E9FB6B
:100E10006413EAFB64230F955DF8049B99E80006D0
:100E2000DDF80080A9FB0854EAFB68B4DDF8108007
:100E3000ECFB6804EEFB6814E9FB6824EAFB683409
:100E4000DDF80480EEFB6865E9FB68B5EAFB680540
:100E5000DDF81480ECFB6815EEFB6825E9FB6835CE
:100E6000EAFB68450F96DDF80880AEFB0876E9FBE3
:100E70006806EAFB6816DDF81880ECFB6826EEFBD6
:100E80006836E9FB6846EAFB6856DDF80C80ECFB47
:100E900068B7EEFB6807E9FB6817EAFB6827DDF82F
:100EA0001C80ECFB6837EEFB6847E9FB6857EAFB00
:100EB000686708B000BD00BF2DE9F14F87B0FFF7AC
:100EC0004FFFDDF81C8008F1200888E8FF00FFBC18
:100ED00087E87F08BDE8F08F00B591E89857A3FB3D
:100EE00003520195A3FB0401E3FB6420E3FB6710BD
:100EF0000292A3FB0752E3FB6802E4FB6415E3FBE9
:100F00006805E3FB69250391A4FB07B6E3FB6926AB
:100F1000E3FB6A56E4FB670BE4FB682BE3FB6A5BCD
:100F2000E3FB6C6B0490A4FB0810E4FB6950E3FB4B
:100F30006C60E3FB6EB0E7FB6721E4FB6951E4FB07
:100F40006A61E3FB6EB1E4FB6E010592A7FB083218
:100F5000E4FB6A62E4FB6CB2E4FB6E02E7FB6E1238
:100F6000E7FB6853E7FB6963E4FB6CB3E7FB6C03E7
:100F7000E7FB6E13E8FB6E230695A7FB0954E7FB1E
:100F80006AB4E7FB6C04E8FB6C14E8FB6E24E9FB35
:100F90006E34E8FB6865E7FB6AB5E8FB6A05E8FBC9
:100FA0006C15E9FB6C25E9FB6E35EAFB6E4507968F
:100FB000A8FB0976E8FB6A06E9FB6A16E9FB6C26E2
:100FC000EAFB6C36EAFB6E46ECFB6E56E8FB69B753
:100FD000E9FB6907E9FB6A17EAFB6A27EAFB6C375A
:100FE000ECFB6C47ECFB6E57EEFB6E6700BD00BF81
:100FF0002DE9F14F87B0FFF76FFFDDF81C8008F196
:10100000200888E8FF00FFBC87E87F08BDE8F08F74
:1010100030B44FF0000310F8014B11F8015B013AB6
:1010200084EA050443EA0403F5D1A3F101034FEA7E
:10103000D37030BC704700BF4FF0000310F8012B95
:10104000013943EA0203F9D1A3F101034FEAD37056
:10105000704700BF30B411F8014B12F8015B6C40CF
:1010600000F8014B013BF6D130BC70472DE9F04F41
:1010700090E8F00F00F140004FF0040E59E0F0B49A
:10108000826BC36B04680525242687593C444FEACC
:10109000724787EAF24787EA92273C4442684FEA60
:1010A000F21787EAB24787EAD2073C4440F8044B7C
:1010B000032D08BF6FF01B0687593A444FEA734768
:1010C00087EAF34787EA93273A4443684FEAF317DE
:1010D00087EAB34787EAD3073A4440F8042B875995
:1010E0003B444FEA744787EAF44787EA94273B4436
:1010F00044684FEAF41787EAB44787EAD4073B44C9
:1011000040F8043B013DC0D1A0F13C00076A3C44DB
:101110004FEA724787EAF24787EA92273C4402681F
:101120004FEAF21787EAB24787EAD2073C44C46322
:10113000F0BC4FF0020288EA781C8CEAF84C0BEB0A
:10114000BC1C8AEA090303EA080383EA0A039C44F5
:1011500050F8043B9C4451F8043B9C44674444EAE7
:10116000050B0BEA060B04EA05034BEA030BE34409
:1011700084EAF42383EA34530BEBB30B87EA771C3E
:101180008CEAF74C0AEBBC1C89EA080303EA070364
:1011900083EA09039C4450F8043B9C4451F8043B07
:1011A0009C4466444BEA040A0AEA050A0BEA040373
:1011B0004AEA030AE2448BEAFB2383EA3B530AEB45
:1011C000B30A86EA761C8CEAF64C09EBBC1C88EA6A
:1011D000070303EA060383EA08039C4450F8043B30
:1011E0009C4451F8043B9C4465444AEA0B0909EAD3
:1011F00004090AEA0B0349EA0309E1448AEAFA23EB
:1012000083EA3A5309EBB30985EA751C8CEAF54C7D
:1012100008EBBC1C87EA060303EA050383EA07031D
:101220009C4450F8043B9C4451F8043B9C44644467
:1012300049EA0A0808EA0B0809EA0A0348EA030827
:10124000E04489EAF92383EA395308EBB30884EAD6
:10125000741C8CEAF44C07EBBC1C86EA050303EA19
:10126000040383EA06039C4450F8043B9C4451F871
:10127000043B9C44E34448EA090707EA0A0708EAF2
:10128000090347EA0307674488EAF82383EA3853E7
:1012900007EBB3078BEA7B1C8CEAFB4C06EBBC1C10
:1012A00085EA040303EA0B0383EA05039C4450F830
:1012B000043B9C4451F8043B9C44E24447EA080642
:1012C00006EA090607EA080346EA0306664487EACF
:1012D000F72383EA375306EBB3068AEA7A1C8CEAD3
:1012E000FA4C05EBBC1C84EA0B0303EA0A0383EA0D
:1012F00004039C4450F8043B9C4451F8043B9C4438
:10130000E14446EA070505EA080506EA070345EA57
:101310000305654486EAF62383EA365305EBB305F5
:1013200089EA791C8CEAF94C04EBBC1C8BEA0A03B1
:1013300003EA090383EA0B039C4450F8043B9C44F2
:1013400051F8043B9C44E04445EA060404EA0704DF
:1013500005EA060344EA0304644485EAF52383EAC4
:10136000355304EBB304013A7FF4E5AEA0F140003D
:10137000BEF1010E7FF483AEA0F1400C9CE80F009B
:10138000001949199219DB19ACE80F009CE80F000D
:101390004044494452445B44ACE80F00BDE8F08F40
:1013A0002DE9F00791E8F807B2E802105B1854EB5A
:1013B0000C04B2E802104D4156EB0C06B2E80210E4
:1013C0004F4158EB0C08B2E8021059EB01095AEBF7
:1013D0000C0A8941B3F1FF3374F1FF3475F1FF3525
:1013E00076F1000677F1000778F1000879F101093C
:1013F0007AF1FF3A51F100015B184C414D4156F131
:10140000000657F1000758F1000859EBD1795AEB63
:10141000010A80E8F807BDE8F00770472DE9F007FA
:1014200091E8F807B2E802105B1A74EB0C04B2E81A
:1014300002108D4176EB0C06B2E802108F4178EB7A
:101440000C08B2E8021079EB01097AEB0C0A894129
:101450005B184C414D4156F1000657F1000758F119
:10146000000859EBD1795AEB010A80E8F807BDE88A
:10147000F007704718EB040859EB05095AEB060A08
:101480005BEB070B5FF0000C4CF1000C18EB050850
:1014900059EB06095AEB070A5BEB070B50EB0C0004
:1014A0005FF0000C51EB0C0152EB0C0263414CF16C
:1014B000000CB8EB070879F100097AF1000A7BEB20
:1014C000040BA841B141A241B3416CF1000CBBEB4C
:1014D000050BB041B941AA41BB416CF1000C4CF085
:1014E00001068CF0020718EB060859EB6C095AEB61
:1014F0006C0A7BEB6C0B70EB6C0471EB6C0572EBA4
:10150000670653EB6C076CEB6C0C18EB0C0059EB9B
:101510000C015AEB0C025BF1000354F1000455F18D
:10152000000556EBDC7657EB0C0770472DE9F14FC1
:1015300087B0FFF715FCDDF81080DDF81490DDF8BA
:1015400018A0FFF797FFBDE8000FFFF793FF03B068
:101550005DF8048B88E8FF00BDE8F08F2DE9F14FBE
:1015600087B0FFF7B9FCDDF81080DDF81490DDF8E6
:1015700018A0FFF77FFFBDE8000FFFF77BFF03B068
:101580005DF8048B88E8FF00BDE8F08F064A074B42
:101590005B7802604FF41A72C371002382800822C4
:1015A00003728271704700BFD9E100004010002033
:1015B000064A074B9B7802604FF49072C371FF2379
:1015C0008280082203728271704700BF71DD0000C3
:1015D00040100020F8B5C41D0028054624F007047B
:1015E0000CBF0020204600F035FB071E02DA6FF02A
:1015F0000B00F8BD0DB9FC42F9D4294E3189F088B1
:101600000331F37A0330B27A89B280B20AF076F904
:101610000028ECDB3C4431787378002D04F103049E
:10162000194424F0030400FB01F10CBF0020204604
:1016300000F09AFC20440DB90028D8DBB2780346AC
:10164000B2B1F17CF37811441944FF29CFDC0330A7
:10165000002DF289C9B220F003040CBF00202046FF
:1016600000F0F2FC031EC2DB23440DB9002BBEDBED
:10167000317C81B1B27872B10733002D23F00704B9
:101680000CBF0020204604F08BF8031EAFDB234480
:101690000DB9002BABDB002D0CBF18460020A8E7CE
:1016A000401000201FB572B6194BDD6AE5B9BFF3D3
:1016B0004F8F1849184BCA6802F4E0621343CB609D
:1016C000BFF34F8F00BFFDE7B4FBF6F4D3B2013296
:1016D000002CF9D103F110026A4402F80C4C0A22E2
:1016E00033B901A8A847E2E7044600220A26EDE73D
:1016F000013BDBB203F110040DEB0406B0FBF2F486
:1017000002FB1400303006F80C0C2046E8E700BF5E
:101710004010002000ED00E00400FA050C4B07B576
:10172000DA7A68468DF801209A7A8DF800201A89B5
:10173000DB88ADF80420ADF8023002F0C7FA18B12A
:10174000E8219C20FFF7AEFF03B05DF804FB00BF6B
:101750004010002038B5054668B309F0CFF910B93C
:101760004FF0FF3038BD07F0FBFDB0F5FA7FF7D83A
:10177000134C1448E562002500F0E8F92A222946B6
:10178000204684F830500DF006FA01236370A370F0
:101790001B23E380238140F2032363811F23E38122
:1017A00008232374EFF3108472B600F023FD2CB9E4
:1017B00062B62046D6E76FF01500D3E72846D1E79A
:1017C000401000201D17000010B5002842D1244C05
:1017D00094F83030032B3AD059B1002A3DD0023969
:1017E000052937D8DFE801F0031428362B2E1378AB
:1017F00063700020FFF7EEFE0028B7BF012302232D
:101800006FF00B0084F83030A8BF84F8303010BD82
:10181000137913B3537903B31188FB291DD81A29FF
:1018200053881AD91B3BE02B17D813689288C4F849
:1018300006300C4B9A80DCE71378A370D9E7138845
:10184000E381D6E71388FF2B07D82374D1E74FF045
:10185000FF30DCE76FF02C00D9E76FF01500D6E71A
:101860004010002046100020F8B50D46064630B363
:1018700029B311F0070422D1124F97F83030012B11
:1018800002D16FF00B00F8BD032B02D14FF0FF30F7
:10189000F9E700F09DF80028F8D02846FFF79AFEF7
:1018A0000028EEDB0CF0FDFC3046214602F0A2FAE7
:1018B000FFF734FF0323204687F83030E3E76FF06B
:1018C0001500E0E74010002010B5074C94F83030C8
:1018D000032B03D102F0A6FA03F066FA0AF004F92A
:1018E000002084F8300010BD4010002050B1074B9C
:1018F00003F1140253F8041B934240F8041BF9D17E
:10190000002070476FF01500704700BFF002030021
:10191000074B10B593F830403CB902F035FA01207E
:10192000044900F08FF9204610BD4FF0FF30FBE76F
:1019300040100020B1150000074B10B593F830405F
:101940003CB902F035FA2046044900F07BF9204604
:1019500010BD4FF0FF30FBE7401000208D15000058
:10196000054B10B593F830401CB902F0D9F9204668
:1019700010BD4FF0FF30FBE740100020054B10B5C5
:1019800093F830401CB90BF0BEF9204610BD4FF063
:10199000FF30FBE740100020054B10B593F83040B6
:1019A0001CB90BF0B3F9204610BD4FF0FF30FBE738
:1019B0004010002002680020014B1A60704700BFF1
:1019C00074100020014B1B68184700BF74100020E2
:1019D000024B1868003818BF0120704774100020AF
:1019E0002DE9F7430446264E071D2548376003F0CE
:1019F000F3F90228054607D12149204609F011FBD9
:101A0000284603B0BDE8F0830428F9D13378072BCA
:101A100018D13E2000F04AF878B9F37801A932795C
:101A2000684643EA0223ADF8003009F047FD00287C
:101A3000DBD053210820FFF735FE052000F076F8B3
:101A40000028EAD03146204609F023FBB0F5817F1B
:101A500001D37221EEE70028C7D094F8008094F8F3
:101A60000290404600F022F80028BED0B8F13E0FA8
:101A7000C6D1484600F05AF80028C1D1B5E700BFEA
:101A800078100020074B4FF0FF3141F6FF72C3E999
:101A9000001205490022C1E900221F21C3E90212F8
:101AA000704700BF00050020BC1000203F280CD864
:101AB00001380B4BC0F3421200F01F0053F82230E4
:101AC00023FA00F000F001007047FF2806D04038EC
:101AD000044BC0F3421200F01F00EFE701207047F3
:101AE00000050020BC100020074B01460068496833
:101AF0001A4603C240F48C221A6041F0107242F47C
:101B0000FF625A60704700BF000500200246024B8A
:101B10000068516803C37047BC1000200246024BA6
:101B20000068516803C37047080500200138064B60
:101B3000C0F3421200F01F0003EB82039B6823FAFC
:101B400000F000F00100704700050020014B186014
:101B5000704700BFC410002010B5FFF793FF0AF0D4
:101B60009CFC034B04461B6803B19847204610BDFC
:101B7000C410002070B50C88C27CA6B2C4F30E0459
:101B8000931C058804F118021D44825AADB21A4410
:101B900043882A44013AB2FBF5F202FB054292B2B5
:101BA0009342044B8BBF3340B34313439BB20B8030
:101BB00070BD00BF0080FFFF4A1E062A08B503461D
:101BC000084604D84FF4D1711520FFF76BFD094A80
:101BD000914202D940F2A311F6E711B903B119609D
:101BE00008BD2BB11B680022C3E901211A1D1A6030
:101BF0000430F5E7FAFFFF7F10B5114B00EB41040D
:101C00001A786389B3FBF2F303FB0223013A1A4407
:101C1000B2F5706F027928BF00231A448378B2FBB3
:101C2000F3F0194403FB1020091AB1FBF3F003FB96
:101C3000101313446FEA43436FEA5343638110BDAB
:101C4000C8100020024B03EB80035960704700BFAF
:101C5000C81000202DE9F04F10F0070A85B00546A6
:101C600004D040F261111720FFF71CFD544F0446C9
:101C70004FF0010B07F10C06B146B04657F8043B94
:101C80008DF80BA03BB101A898479DF80A30082BAE
:101C900001D9E821E7E79DF80B1081BB05B1316060
:101CA000B94506F10406E9D12DB30023DFF814E1AC
:101CB00002221E468EF8003058F82200013A60B128
:101CC00090F804A08178BAF1FF0F64D14FF00007BB
:101CD0008E4207713CBFCEB20123511CECD10BB137
:101CE0008EF80060022640F6FF6A58F82670002F32
:101CF00063D1013EF9D2601B05B0BDE8F08F9DF8BD
:101D00000AC04A1DBCF1020FE64604EB420438BF8C
:101D10004FF0020E53000EF1FF300444CEF10000EC
:101D20002040BDF808406444CCF1000C013C04EABA
:101D30000C04B4F5803F01D3F82194E775B1C31AC0
:101D4000336099701C8083F803B09DF80C201A71E1
:101D5000019A4FEA124C1A81A3F806C004FB010451
:101D60009EE758F82C90B9F1000F06D099F804B00E
:101D7000D34504BF99F802904F440CF1FF3CBCF1ED
:101D8000000FEEDA3944FF29A2D90BB18EF80060BA
:101D900040F2271167E794460027F0E707EB41037D
:101DA00009F101093846A3F80AA0FFF725FF5FFAF9
:101DB00089F1BB788B42F1D89BE74FF00009F6E739
:101DC000CC100020C8100020F8B54FF6FF73054670
:101DD0000380184B03EB81031869B8B18678037947
:101DE000B3FBF6F206FB1233DBB219460A1D00EB19
:101DF0004202B2F902705488002F09DB0131B1FBB5
:101E0000F6F206FB1211C9B28B42EFD10020F8BDE9
:101E1000FF29FBD0C4F30E03C4782B8024B94FF400
:101E2000D5711720FFF73EFC5380BDE8F84009F05C
:101E300044BD00BFC81000201D4B03EB810370B5EB
:101E40001C69054644B3030404D54FF4DC71172024
:101E5000FFF728FC0146204609F012FDFF28014645
:101E600004D02046BDE8704009F027BDA078B5FB3E
:101E7000F0F300FB1353DBB219460A1D04EB4206D4
:101E8000B6F90260002E09DB0131B1FBF0F200FB74
:101E90001211C9B28B42F0D1002070BDFF29FBD0D6
:101EA0008B4204EB42021CBF0023E3705580D8E74D
:101EB000C8100020094B03EB8103014610B51C69D3
:101EC000204609F0DDFCFF28014604D02046BDE88D
:101ED000104009F0F2BC002010BD00BFC810002067
:101EE000F8B5104B074603EB810301461C692046F9
:101EF00009F0C6FCFF28054611D0E688238953EA7D
:101F0000064606D00146204609F0D7FC0146384671
:101F1000B04720462946FFF76FFE0020F8BD052098
:101F2000FCE700BFC810002038B50E4B044682798C
:101F300003EB8203186908B9052038BD8278E1797E
:101F40009142F9D24B1CE37100EB41035D89B3F977
:101F50000A30002BF3DBA58009F0AFFC20600020E5
:101F6000EBE700BFC810002070B5044610F0030076
:101F70000E4603D04E211820FFF794FBFFF71CFEFE
:101F8000054624B1034831460460FFF715FE284694
:101F900070BD00BFE41000202DE9F14FDFF870B0F4
:101FA0001E4607460D46DBF8003090469DF828A0F7
:101FB0009DF82C901BB960211820FFF773FB524647
:101FC0000921404609F0DEFA4A4684B2092130462A
:101FD00009F0D8FA81B2DBF80000214409F025FCB1
:101FE000386018B9286001B0BDE8F08F044453464A
:101FF000414609222C60386809F088FA4B460922CC
:102000003146286801B0BDE8F04F09F07FBA00BF43
:10201000E410002070B50E46044609F0C6FA0546E5
:10202000304609F0C2FA044B2A1821461868BDE868
:10203000704009F01EBC00BFE4100020014B18687E
:1020400009F0E7BBE41000201F2AF8B50446134648
:102050000ED89200033222F00303B3F5803F2DD255
:10206000184DACB1A00710D05F210920FFF71AFB73
:10207000FF2B4FEA420204D9FF339A42A8BF1A4607
:10208000E8E77C2AB8BF7C22E4E729706C602B81EA
:1020900022F0030228230127120403FB01F06B68DE
:1020A0000025120CEEB28E4200D3F8BD14B12618F2
:1020B0001F705E60104401352833F3E74FF0FF30A6
:1020C000F3E700BFE8100020144A002138B5536838
:1020D0001478C8B2844203D8AB210920FFF7E2FA92
:1020E0001846013128330578002DF2D00021817087
:1020F000012412898161051D44709208C16100F1BB
:102100002001446821F8022B994245F8044B1444FD
:10211000F8D100234361037038BD00BFE8100020F0
:102120002DE9F8434B7880460C4602F0040602F095
:10213000FB07D3B1DFB12E4BD4F804901D89B7BB98
:102140000123AD084A46211D637004F1280004F103
:102150002003A761E76123F8025B984241F8042B52
:102160002A44F8D10023636101E0002FE3D0FF236C
:10217000A370002E18BF0226A3191B7D032B03D1C9
:10218000022F1CBF0136F6B2A31901221A7506F1FF
:102190000C02002304EB860624F812307268A37048
:1021A0004046C8F80020A8F80430BDE8F8830021B4
:1021B00014226170A0180CF0EEFCB5F5FF7F0FD271
:1021C0006B08ED1AADB209EB0502C4F80490258442
:1021D000A2606384C4F80C90A5842261E384C6E7FE
:1021E000B5F5EE6F4FF0FF03EBD940F27265EAE709
:1021F000E81000201E4B01224FF0FF3000211B6829
:102200005A60C3F80803C3F80015C3F80425194B36
:102210001B685A60C3F80803C3F8001540F6FE7146
:10222000154B1648C3F8081501680BB2002B0BDBE1
:1022300001F01F015B098A402033114941F8232036
:10224000BFF34F8FBFF36F8F026813B2002B09DB10
:1022500001215B0902F01F02603301FA02F2084912
:1022600041F82320044B40F6FE72C3F8082570475E
:10227000841C0020801C002000200850981C002096
:1022800000E100E00A460648192302F8033BC36850
:10229000C1F803300369536043699360704700BF1E
:1022A000F8100020024B5A8C02435A845B6A18478C
:1022B000F8100020014B00215B6A1847F81000203D
:1022C00010B5154C05F024FF05F016FB208DFFF727
:1022D000F1FF237E63B12246104904F1190052F840
:1022E0000C3BE36063685360A36893600BF01DF9D7
:1022F0000B4B228D93E8030003F0DCFA236B188864
:1023000003F002FAA36B94F8341094F83500984760
:10231000002384F83C3010BDF81000208522000016
:1023200024110020034B93F83C300BB1FFF7C8BFDA
:10233000704700BFF810002070B51D4C0646636C56
:10234000256B236495F88C3094F848000BB1043069
:10235000C0B295F869102EB9FF2803D195F86830FE
:102360008B4201D005F096FD95F88C30D3B1E06C2E
:1023700005F086FF0123E16C84F87030206CD5E90C
:102380003A23C4E9182305F0CFF916B9304605F011
:10239000B9FF95F86810002005F0FEFF022384F8CD
:1023A0003C3070BD206C05F06BFF05F0A5FAECE742
:1023B000F810002008B5094B93F83C20022A04D0FD
:1023C00040F231212720FFF76DF9DA7A42F001025D
:1023D000DA72BDE80840FFF773BF00BFF8100020B5
:1023E00003280B4B10B5044605D19A6FD278022A08
:1023F00001D1002010BDD86F09F056F90028F9D19D
:10240000032CF6D001F0E6FE80F00100C0B2F1E747
:10241000F81000202DE9F043454C85B006460F46E4
:1024200094F83C30012B5FFA83F904D040F2DC4190
:102430002720FFF737F9256B02A8A16F09F056FB9B
:1024400095F87C309DF808803BB10021042085F888
:102450007C10FFF727FF85F87E90B8F1030F61D15C
:1024600095F882301BB9A16F0220FFF71BFF0323F1
:1024700000E0012385F8823095F88C30ABB1236BF6
:10248000012294F8488084F87020D5E93A01C4E923
:10249000180193F8690009F03AFB00220346254928
:1024A00000920220424605F0E9F826B105B0BDE8E9
:1024B000F043FFF705BF002FF8D0D4F88030304646
:1024C00098470028F2D094F83430002BEED194F8DD
:1024D0008430DD06C3F3001005D5A36F187800F033
:1024E0000300FFF77DFF636CD4F888201B78C3F3EB
:1024F00000132AB9B4F88C2013B1B2FA82F35B0945
:10250000628C910709D5A36FDB78022BCED1002016
:1025100005B0BDE8F043FFF70FBF002AC6D1034363
:10252000F5D1C3E79DF80C30002BA2D00223A1E720
:10253000F81000204811002010B5094CD4F888305C
:1025400023B940F2CE412720FFF7ACF8B4F88C2035
:102550001846216C033208F0A5FC206410BD00BFB2
:10256000F8100020064B10B593F83C2002F0FF0451
:1025700022B91C7603F096F9204610BD0C24FBE727
:10258000F81000200A4B0B4A70B506460D461A603B
:10259000FFF7E8FF18B1ED212720FFF783F8064C7D
:1025A000012104F18E000AF030FF6664E56470BD1D
:1025B00048050020C82D0000F8100020024B012221
:1025C00083F8B020704700BFF81000202DE9FF41CC
:1025D0007A4C02AE0A9F86E8030094F83C1001F0A2
:1025E000FF0511B90AB103B127B94FF4BE71272015
:1025F000FFF758F896E8030004F12C0C84F8B0506B
:1026000084F8345004F1500684F8B15084F8355001
:1026100084F8B25084F8B35065842585C4F88030BE
:102620006262A7638CE80300256B05F065FC05F08A
:1026300063F995F9700005F5807705F0B7FC686AD5
:1026400005F010FEE86905F0B7FC95F89C0005F070
:10265000BDFC95F86920C421012005F045FD584BCB
:10266000186805F005FE2B69E3676B69C4F8B430A0
:1026700005F1F0031868083353F8041C3246BB42D6
:1026800003C21646F6D159684E4A236BD5F80001AD
:1026900003C293F88620A2F12501012993F868105E
:1026A0000E4603D993F8870025285FD193F83E3270
:1026B0002BB1012E03D0012B14BF0226012605F1F8
:1026C0003007314638460AF0C0FF31460AF008FDAF
:1026D000AB8F95F86910834228BF0346384684F8CB
:1026E000B8300AF09BFF95F8691095F88C600429C2
:1026F000B5F8448008BF03210AF0F2FC0EB904309B
:1027000080B2404595F88C3028BF40465FFA80F88B
:1027100084F8B98084F8488093B1012395F8690062
:10272000D5E93A6784F87030C4E9186709F0EFF921
:1027300000220346244900920220424604F09EFFF4
:102740000120FFF7F9FD002323606360A360B5F863
:10275000803063802B88238095F89C302371EB6E4A
:102760000BB101221A6004B0BDE8F081203A012AC1
:102770000CD8232893F826210AD012F0010319D18E
:1027800092079CD5012918BF022698E723280DD16E
:1027900093F8262193F86130134013F001020BD116
:1027A0009B078CD5012908BF0E46ECE7032908BF1B
:1027B000042684E71E4682E7164680E7F8100020CC
:1027C00048050020601100204811002008B50C4B7E
:1027D00093F83C201AB9BDE80840FFF771BD93F8A3
:1027E0003C20022A04D040F213212720FEF75AFF92
:1027F0001B6BD3F8B001BDE8084005F05BBD00BF1E
:10280000F8100020014B1876704700BFF810002028
:10281000014B93F8B2007047F8100020024B188D5E
:10282000C0F3C020704700BFF8100020014B93F8A0
:10283000B1007047F81000202DE9FF41324C0346EB
:102840000E4602A8216C256B09F050F913F001081F
:102850009DF80C7003F002002BD0002384F8BA30EE
:1028600090B1FFF769FE0DF1020201A9D4F8B4009E
:1028700008F0C5FF019808F0A8FF01223060394632
:10288000D4F8B40008F050FFB8F1000F0ED0D5E92D
:102890003A32013342F10002C5E93A3295F8843008
:1028A000012B0CBF0023012385F8843004B0BDE860
:1028B000F08194F8BA30032B20D801A252F823F00B
:1028C00061280000D1280000EB280000EB28000060
:1028D0000028EBD0FFF730FE00223946D4F8B400D0
:1028E00004B0BDE8F04108F01FBF0028DED0D4F8E6
:1028F000B40004B0BDE8F04108F07DBF40F27A4179
:102900002720FEF7CFFE00BFF81000202DE9F04F82
:102910000023A84C89B080468A46276BCDE9043352
:1029200094F83C30022B04D040F25F512720FEF790
:10293000B9FE238D590606D44020FFF7BBFC238D3A
:1029400043F040032385216C06A809F0CFF897F8DF
:102950008C30B8F1000F00F0C9809DF819B09DF8D7
:102960001C507BB104F0D6FF60B95DB197F884309C
:102970005B4507D1012384F83530FFF7A1FC09B08E
:10298000BDE8F08FA9B2A4F88C10F1B1D4F8B4006E
:1029900008F0ABFEC4F88800238D9DF81A2043F49C
:1029A0000073238597F883309A4277D0266B96F888
:1029B0008230002B3ED0022B11D104A9E06F08F029
:1029C0003DFE28B940F21441B0E7C4F88810E3E7AF
:1029D000D6E93832013342F10002C6E9383200212B
:1029E00096F87E3086F8821023B1102086F87E108B
:1029F000FFF758FC96F87D30A3B14FF0000986F838
:102A00007D9001F0D1FB10B940F22B418EE7494691
:102A10000820FFF747FCD6E93832013342F10002C3
:102A2000C6E9383296F88330012B0CBF002301230E
:102A300086F88330238D4FF0000943F4006323852B
:102A400097F884305B4527D19DF81830266B022B10
:102A500026D88BB385B3238D96F88C6043F48053CE
:102A6000238505F0CDF9042894F8B93006D1002E5D
:102A700014BF1B221F22934228BF1346AB422BD305
:102A8000D4F88850002D3FD094F8B030002B00F0DF
:102A90008E802020FFF70EFC002535E0C146CFE7F1
:102AA000032B09D1238D0120216C43F4805386F838
:102AB0007C002385FFF7F6FB96F88430013B18BFB6
:102AC000012386F88430FDB1D6E93A32013342F170
:102AD0000002C6E93A32DFE794F83430012043F0CF
:102AE000100384F8343006F069FDD5E70BB104F02B
:102AF00025FF94F8B13000250133A94684F8B130A0
:102B0000238D43F48063238597F88B308BB10026A7
:102B100097F86800D7E9382384F87060C4E918236F
:102B200008F0F5FFFB22034623490420009604F039
:102B3000A5FDBAF1000F41D1628C94F8B1301207B3
:102B400003D5A26FD278022A38D0012B36D8D4F818
:102B500080300120984788B394F834A0BAF1000F70
:102B60002CD11DB105A90120FFF766FE266B0023BD
:102B700096F88C208DF80D3094F848300AB1043363
:102B8000DBB2FF2B96F8681003D196F869308B42C0
:102B900002D0FF2005F07EF996F88230032B00F278
:102BA000F780DFE813F055008500DC00ED004546B6
:102BB000AAE700BFF81000204811002005F00CFC27
:102BC000002D00F0F18005A90320FFF735FEB9F1D3
:102BD000000F0DD0B4F80720B4F805301343B7F850
:102BE000802013431EBFB4F809300133A4F8093024
:102BF000B8F1000F00F0DA80B4F805300133A4F822
:102C00000530002384F8B1306B4802F06BFD049866
:102C100030B108F0DAFD216B0022027202F020F9D7
:102C2000059B33B1216B00221A720C22059802F029
:102C3000E5F8002D7FF4A1AE238D1B063FF59FAE76
:102C40008020FFF737FB238D43F08003238596E632
:102C500094F8B8305948ADF80E30A6F8583001F065
:102C600093FA50B1A16F4FF48070FFF71BFB012363
:102C700086F87D3084F8B3301CE00DF10D020DF1C3
:102C80000E01E06F08F0B8FCA06788B196F8C73075
:102C900073B99DF80D302BB9038001218370A06FAB
:102CA0000AF0B3FBA36FBDF80E205A700123E1E7D1
:102CB000434BA367A16F96F883300878DB0003F0DD
:102CC000080200F0F30300F00300134396F8842099
:102CD000920002F00402134323F010030B70FFF77D
:102CE0007FFB0028A06F18BF4FF0100A03784AEA54
:102CF000030A80F800A096F88B30002B4BD0437865
:102D0000002B48D0E06C05F0BBFA0022D6E9380170
:102D100084F87020C4E91801E16CA06F05F092FC02
:102D200018B9A16FE06C04F0FFFC96F8691001205F
:102D300005F032FBA26F0123118884F8B230A4F8A9
:102D4000841091781F4A84F83C309170002D3FF434
:102D50003EAF05A902200025FFF76EFD37E7B6F864
:102D600058300DF10D020DF10E01E06FADF80E308F
:102D700008F042FCA067002898D140F2D121D5E5A7
:102D80000E4801F001FA002890D140F2DB21CDE598
:102D900040F2E921CAE505F073FA04F0ADFD002127
:102DA000A06F0BF0A5FAC0E7012510E7B4F80730D3
:102DB0000133A4F8073027E7241100207011002008
:102DC000861100207C110020B52300000D29000091
:102DD00015240000252300002DE9F04F04468BB098
:102DE0001F460E46904690F8699009F0D6FF94F879
:102DF0009F310B2B04D940F2FB310620FEF752FC29
:102E0000BA4A32F8135094F887300544039388F097
:102E10000103ADB20493B8F1000F30D194F8DC3166
:102E2000032B2CD1039B0D2B29D1B4F83C32B34298
:102E300025D1D4F8E4312046B4F8B421C4F8D03117
:102E4000A369C4F8D431B4F82A321344C4F8D83191
:102E500004F0DCFAD4E99023A262B4F83E22A36124
:102E6000A285D4F84822226241F64B5293428CBF8D
:102E70000023012384F87230022384F8DC31B4F893
:102E8000280204F5FC7AB4F880B0301AA6EB0B0BDC
:102E900000B20FFA8BFB002812DA5846D4E98423DB
:102EA000C4E98823012294F8DC31DFF84482032B43
:102EB00000F27281DFE813F00600FB0052001E01F1
:102EC0003A46F0E7012100200AF031F98146A06A74
:102ED0002946484406F0F8F92946C4F8E001A069FB
:102EE00006F0F2F907A9C4F8E40108A805F07CFA95
:102EF000079BD4E988010093DDE908230BF02BFD43
:102F00000590204608F027FEA16AD4F82C2294F8F8
:102F100069008D1805F090FBD4F8E01100F522400F
:102F2000BB3D059BB1306D1A30314D44ED1A4FF465
:102F30007A73B0FBF3F0A38D2D1A94F8690003EBBC
:102F4000410108F0F4FDD4F82C32C8F80000EB1A67
:102F5000CC2B5AD840F2DE4130204FE7A36A2946F5
:102F6000D4F8D401184406F0AFF92946C4F8E001BA
:102F7000A06906F0A9F9C4F8E401204608F0EBFDC9
:102F8000B4F8B431A56AD4F8D491002B40F08A800B
:102F9000002F00F08780A94494F8690005F04CFBED
:102FA000D4F8E051A9F1BB09834694F86900A9EB74
:102FB0000509D4F81852D4E98423A944A9EB0209DD
:102FC00005F03AFB4FF47A7300F2E7350BF5224037
:102FD000B5FBF3F5B130A944B0FBF3F0A9EB000564
:102FE000D4F8E011D4F8D031D4F8D821303194F8A5
:102FF000690002FB0311A38D03EB410108F097FD6B
:103000000123C8F8000084F8DC31A3694FF00009FF
:10301000D4F8E42104F13000A3F5A27384F8F89108
:103020009B1AD8F80020934228BF13469846C4F84C
:10303000B031D4E988325B1942F10002C4E982322E
:103040000AF0EAFAB4F8A011A4F8286240448E1BF2
:1030500084F80092C4F8FC0136B2D4E982234E45CC
:10306000C4E98823C4BF022384F80032039B0D2BDC
:1030700000F09580002F40F0938094F8DC31002B15
:1030800000F0AB80A1695046D4F8E431C91A09F0C8
:10309000F6FF80B2002800F0A080149B03B11880D6
:1030A0000120A9E04D44D4F8E0012D1A98E7D4F8A6
:1030B000D811B4F8B431D4F8E421A5699B44CB43CA
:1030C000AD1A9B44D4F8E0314543D4F8D0013033F5
:1030D00000FB0133A18D94F8690002FB0B3301EB77
:1030E000430108F024FDC8F800008EE70403030044
:1030F000B4110020D4F8E431A569ED1A94F88630B3
:10310000252B00FB05F503D094F88730252B09D13A
:10311000B4F83C32F31A1B0404D494F83F32002B69
:1031200018BF994652B3B4F8B4313BBBD4E98423F9
:10313000D4E9860182428B4102D340F232510BE73F
:1031400094F8690005F078FAD4F818220590BB3A93
:10315000D4E98401101A054494F8690005F06CFA6A
:103160004FF47A7200F2E730059BB0FBF2F00544B1
:1031700003F52240B130B0FBF2F02D1AB4F8B411CF
:103180004846D4F8E431594459433031490008F0F5
:10319000CEFC1B4B186038E740F24A51DCE6E7B141
:1031A000B4F8C81111B3B4F8CA2194F8CC31501C4A
:1031B000A4F8CA2102FB033399420EDD94F80032D1
:1031C0005BB10023A4F8CA0184F8003201F0DEFEEE
:1031D00000F00700013084F8CC01514694F8F30167
:1031E00007F076F820B940F29351B5E60A46DCE7DD
:1031F000049B84F8F03100200BB0BDE8F08F00BFD5
:10320000B41100202DE9F04104460D46164690F811
:10321000F03003F0FF071BB10C273846BDE8F08102
:103220000146454806F0B4FF20288046F4D05822D5
:10323000394604F1C8000BF0AEFC84F8C880C4F82D
:10324000CC50FF2384F8F03035B101F0B7FE00F028
:103250000700013085F8CC0102234FF00008A4F8E4
:10326000003184F8F88006F085F800F14905204621
:103270000AF065FE0146ADB270B309F08EFD00F5AF
:10328000CD61304689B206F01FF83044AE3EC4F836
:10329000FC000BF0F0FA2818A4F8268041F1000198
:1032A000C4E94201012084F8D0000AF0FEFE361A7B
:1032B000C4F8D4604FF0FF326FF00043C4E94423F8
:1032C00004F1F80194F8C80007F002F848BB40F296
:1032D000CD113020FEF7E6F92046DFF860800AF0D5
:1032E00051FDAE30C4F8FC00B8F8040048B1E08CE1
:1032F00038B101F063FEB8F80430B0FBF3F202FB22
:10330000130005440BF0B7FA2D1841F10001C4E990
:103310004251002ECED0751941F10001C4E944514B
:10332000CEE7D4E9422300212046C4E93823C4E98A
:103330003A230AF021FE70E7FDBD0000B411002021
:10334000F0B5002385B0CDE9003301238DF80630B8
:103350006846FEF7E9FD70B11D4E01230027B371E9
:10336000CDE9027702A8FEF7DFFD0546C8B10023CC
:10337000B37105B0F0BD009808F0FAFDE8E790F8E9
:10338000F30107F099F894F8F30107F087FA94F83D
:10339000F30184F8DC5106F021FF202384F8F33197
:1033A000DEE7029B002BDDD093F8F321202AD9D051
:1033B00018884FF6FF739842D9D02946FEF77AFD58
:1033C00004460028DBD14FF49B713020FEF76AF9E8
:1033D000B4110020044B0022DA719A7142F210728B
:1033E0009A80FFF7ADBF00BFB4110020014BD87128
:1033F000704700BFB411002008B504F007FD044B6E
:103400009A6882422ABF9879002080F0010008BDA6
:10341000B41100202DE9B7410446062972D8DFE82F
:1034200001F0042815252C316C00384B9B7903F0F2
:10343000FF025BB900920123B0F8A411FFF7CCFCA6
:1034400038B140F2DC613020FEF72CF9042384F817
:10345000DC3104F0B3FE06F0B3FD0023B4F88020A5
:10346000A4F82A32A4F8EE2184F8F13103B0BDE8C3
:10347000B081032380F8DC31F8E70AF02FFFC4E9BC
:103480008601F3E78569D0F8E431DFF880809D425A
:1034900088BFED1A98F8073098BF00251BB9036B59
:1034A0009D4228BF1D46D4F8B07104F130000AF0E7
:1034B000B3F80744022007F04DF90221ED1B25EA7D
:1034C000E575854228BF0546284607F089F900B909
:1034D0002F4401234FF48072394620460AF0F3F856
:1034E000D4F8B031C8F80800A069184407F004F90E
:1034F0000028BBD140F28A31A5E703B0BDE8B04156
:1035000008F029BB4FF4F3619DE700BFB411002020
:103510002DE9F84306460C4615467ABB04F076FCC6
:1035200084F8D0500746D4E9428984F8F05001214C
:10353000D4F8CC0001F0B0F9D4F8CC00C0E984890B
:1035400094F8C830C0F82C7280F8F331C0E988894B
:1035500008F006FC20B140F21C713020FEF7A2F802
:1035600004F02CFE06F02CFD3246074994F8C80002
:1035700006F014F828B940F2AB71EEE740F2C271E0
:10358000EBE7BDE8F88300BF7FBB0000014B9880EC
:10359000704700BFB4110020304BF0B55A8885B099
:1035A000B0F85C700C46B0F85A6097429D8828BF0E
:1035B0001746964228BF16461B2E2ED0B5F5A47F7F
:1035C0002DD040F6480301A99D4228BF1D4608F0B2
:1035D00032FEBDF80A309F4228BF1F46BDF80C30AE
:1035E000AB42E78028BF2B462381BDF806309E42C0
:1035F00028BF1E46BDF808309D42668028BF1D4684
:10360000A580FF232370E3881B3B9BB2E02B08D9E6
:1036100040F277613920FEF745F81B2FCED105B077
:10362000F0BD63881B3B9BB2E02B02D940F279616D
:10363000F0E72389A3F5A4739BB2B3F5E06F02D939
:1036400040F27B61E6E7A388A3F5A4739BB2B3F5D0
:10365000E06FE4D940F27D61DCE700BFC0110020DB
:1036600010B501210020FEF725FC044670B90121A8
:10367000FEF7E2FB044620B940F291313920FEF713
:1036800011F8034B93F906100AF044FB204610BDD5
:10369000C011002008B509F08AFC00F03FFF00F0DF
:1036A000F1FB09F01AFF01F089F902F08BF8002212
:1036B000084B1B214FF4A4701A60074B98801A80A6
:1036C00059800648064B186099805A745A829A822B
:1036D0009A7508BD4C050020C011002003021B0094
:1036E000EC150020044B41F64C52C3E902221B2288
:1036F0001A74FFF7CFBF00BFEC1500202DE9FF4182
:10370000344D0446AB680363334B836108F067FCB8
:10371000064600F0A7FB2B7C10F0200F668784F88C
:1037200038302E4B0EBF1B22AA8869881B6814BF35
:10373000A4F85A10A4F85A20A4F85C201BB194F9FC
:10374000701020889847AE7CEF7CB5F8148016B9CD
:1037500000F08EFB064687BB00F08AFB074676B377
:1037600068B303A920468DF80C608DF80D70ADF894
:103770000E8009F0D8FC012369786A8804F11000F2
:10378000E385AB88033201910333297892B29BB26F
:10379000009104F11401FEF7FFFB236913B940F215
:1037A0004E6114E0636913B940F24F610FE00020ED
:1037B00004B0BDE8F0810920FAE7002ED1D1002144
:1037C0002088FEF78DFB0028F5D040F224613920D7
:1037D000FDF768FFEC15002000093D0050050020B2
:1037E000F7B505460E460AF0C8FA002874D02846F8
:1037F0000AF0A5FB40B1B6F80130013B7F2B03D99D
:103800001224204603B0F0BD28460AF09CFB08B9FC
:103810000C24F6E7284608F097FC0028F8D1284643
:103820000AF069FA04460028F2D1284602F096FC14
:103830000028E5D042F21073B6F80170F1782846FE
:103840005F430AF068FB28460AF071FB014658B94D
:103850003A462846FFF7D6FC04460028D1D041F668
:103860009F313920FDF71EFF21460DF10600FEF7BE
:10387000ABFA064670B3214601F00EF8BDF80630EB
:103880002846314633800AF068FB28460AF061FB7F
:10389000A0B9296A28460AF05EFB01463046FFF7C8
:1038A0002DFF04460028ACD13A4631462846FFF7A2
:1038B000A9FC044620B141F6C231D2E70121EDE76F
:1038C000064B9B68002B9CD0024606F58D71304656
:1038D000984796E70D2494E7422492E7C011002010
:1038E000024B1B6803B118470C2070474C050020A1
:1038F000034B5A8802801B7883700020704700BFFA
:10390000EC15002037B5837805461A2B09D8042B0F
:1039100005D9012202FA03F3134A134205D11224F6
:103920001AE0292B01D03B2BF9D12888B0F5706F14
:10393000F5D2694609F08AFB88B9019B93F81821F2
:1039400002F0FF046AB9AA7883F81921FF2283F8EC
:103950001821684609F09CFD204603B030BD0224C2
:10396000FAE70C24F8E700BF200038040188A1F131
:103970001B039BB2E02B0CD8428844F24810A2F5FE
:10398000A4739BB2834204D8034B002059809A80D1
:1039900070471220704700BFC0110020034B5A88A7
:1039A0009B88028043800020704700BFC011002028
:1039B00038B50478427804F00103857804F00204F5
:1039C00052EA030101D1112038BDBCB9002DFAD053
:1039D000002B08BF144601E000242546204608F0CD
:1039E000F5FB0028EFD0284608F0F0FB0028EAD0CD
:1039F000054B00209C74DD749882E5E7002BEBD129
:103A000014461D46EAE700BFEC15002013B50088F8
:103A1000694609F01BFB18B10224204602B010BD14
:103A2000019A92F8DC31DBB292F8A820002AF3D197
:103A300013F0FB0FF0D0019890F82A310BB13A2423
:103A4000EBE790F8D23003F0FF04002BF7D190F8A9
:103A5000C9309B0706D1FF2380F82A31684609F058
:103A600017FDDAE70249CA3009F05FFDD5E700BF6C
:103A7000F5DB0000F0B5077885B004460D46EF2F62
:103A800003D91225284605B0F0BDB0F80130ADF8D5
:103A90000C309DF90C209DF80C30002AF1DB9DF8CC
:103AA0000D209207EDD1DE063FD4980603F0030205
:103AB00038D5002AE5D11907E3D463781A0711D461
:103AC0002179E278E07942EA0122617942EA014211
:103AD000A17941EA0021207A41EA00418A42D0D806
:103AE0001F2ACED9627A013A062ACAD8A27A032AB4
:103AF000C7D813F0040102D1023A012A03D8E27AAE
:103B0000012ABED811B9A27C032ABAD813F0100139
:103B1000227D19D0012AB4D1227E012AB1D8B1B9AF
:103B20001125AFE7032AC6D1ABE713F0600FA8D188
:103B300003F00F0203F00703052BBED0931E012BE9
:103B4000BBD9002A9DD1B8E7022AE5D199E7DB0766
:103B500013D46378227D03F01803082B12D1022AB4
:103B6000DED1BFB201213846FEF7A4F9064678B18E
:103B700008F0EAFAB8B10C2584E700F035F900281E
:103B8000E7D1CDE7022AECD0237F002BE9D0C7E7AD
:103B900001213846FEF750F9064650B3164B93F90B
:103BA00006100AF0B7F830460AF0BEF92146287030
:103BB000E07430460AF002F9E37E0546002B3FF43C
:103BC00061AF00287FF45EAF0246316B6846FEF7B6
:103BD000A7FA2A46306B012107F0D8FE316B684600
:103BE0000422FEF79DFA2A462946306B07F0CEFEE6
:103BF00048E7072546E700BFC011002070B50579EA
:103C00008AB00346042D5CD84488B4F5804F58D858
:103C10002D480021465D2844ADF800104279857A90
:103C200042F01002C07B8DF8081042EA46028DF87F
:103C30001D1042EA850242EAC00202F01F028DF81E
:103C40000020BDF80020ADF809201A888DF80E403C
:103C5000240A8DF80B20120A8DF80D108DF8101023
:103C60008DF80C208DF80F405A7BD3F807008DF8A3
:103C700011205A79059002A88DF812209A798DF8B2
:103C80001320B3F80B209B7BADF818208DF81A3069
:103C90007F238DF81B3001238DF81C308DF81E30EA
:103CA0008DF81F108DF820108DF823108DF824103A
:103CB0008DF821108DF822106946FFF7DBFE0AB05F
:103CC00070BD1220FBE700BF1C030300027803460F
:103CD00072B1427862B142881A2A09D982881A2AB6
:103CE00006D90068034A106000209B8893807047C3
:103CF00012207047EC15002002680020014B9A60EA
:103D0000704700BFEC1500200378A3F10A02112AC6
:103D10009BBF024A0020122013747047EC1500204C
:103D200008B5052000F090F803F0A0FB014B024A13
:103D30009A6008BDC01100209935000008B502F056
:103D4000F5F9FFF747FB0248BDE8084002F0D8B993
:103D5000CC11002010B501230A4C84F8023102F086
:103D6000EDF90AF05CFA09F020F904F2031120469B
:103D7000FEF708FC002007F0A8FDBDE8104001F0A8
:103D800023B800BFCC11002010B5064C064904F53D
:103D9000027008F0C7FF04F503700449BDE8104045
:103DA00008F0C0BFCC110020540500205C050020A5
:103DB00010B5094C094904F5027008F0B3FF04F589
:103DC0000370074908F0AEFF04F504700549BDE82B
:103DD000104008F0A7BF00BFCC11002064050020F0
:103DE0006C05002074050020014B93F80201704718
:103DF000CC11002010B5074C00F0C2FFD4F8080227
:103E000008F088FFFFF76EFC01F0F0F8012384F85A
:103E1000143210BDCC110020014B93F814027047EE
:103E2000CC11002010B5074CD4F80C0208F072FF3A
:103E3000D4F8100208F06EFFFFF72CFC002384F882
:103E4000143210BDCC110020C2080549012300F036
:103E5000070003FA00F08B5C18438854704700BFDA
:103E600010050020014BD3E9000170471005002028
:103E7000034B1868C0F30020400040F00100704779
:103E80001005002008B505F06BFA0023074A32F848
:103E90002310814205D302EB83039B78044A1370FD
:103EA00008BD01330C2BF2D10023F7E730030300E8
:103EB000E113002010B54468238884F86711A4F842
:103EC000683194F86830012B06D0022B04D040F200
:103ED00049310620FDF7E6FB84F86A3194F8693031
:103EE000012B01D0022BF2D184F86B3104F5AF70B5
:103EF000034909F01AFB002384F8243110BD00BFE8
:103F00009FCD000040680749038800F25110A0F8D7
:103F1000093010F8F13CC37210F8F03C037309F05B
:103F2000FEBA00BFB5CD00002DE9F04389460979FE
:103F3000446885B099F8058001F00701054694F8BA
:103F4000867008F007084B1E08F1FF320B4002EAAA
:103F50000802134394F88720232A2CD104F1870602
:103F6000002B43D1404608F074FF68B394F86830E2
:103F7000984229D094F82421012A0CBF94F82621D4
:103F800094F8642018EA020F30D0212F1CD094F846
:103F9000612018EA020F17D10138C0B2032805D8F2
:103FA000013B524ADBB2105C032B0AD940F21F21BD
:103FB0000620FDF777FB212F40F0948004F1860660
:103FC000CEE7D35C834211D8084608F042FFA8B37D
:103FD00094F86930834231D094F82431012B0CBF1E
:103FE00094F8273194F86530194227D194F8243198
:103FF000012B13D11E212846FFF75CFF212F11D181
:104000006B68182283F80921092283F8862093F827
:10401000C230CBBB40F2B321AE20CAE7002384F804
:104020002431EBE700232846337009F095FB182173
:10403000284605B0BDE8F04309F0B6BBB9F80670F4
:1040400003AB4246204600933B4608F00DFF6A68EA
:104050000446F0B992F82431012B17D101462846C5
:10406000FFF728FF34706B6803F18702964202D194
:10407000002283F887206B68002403F187029642B0
:104080002DD1284609F068FB00202CE082F824019D
:10409000E9E7B2F88030A2F83C72DB431F4447F6F0
:1040A000FD73BFB29F4206D92823284682F8A93063
:1040B00001F020F9DFE792F887300D2B02D00A3BA0
:1040C000012B01D82A23F0E79DF80C3082F83E320C
:1040D0009DF80D3082F83F3225233370CBE783F80B
:1040E000C240D1E7022005B0BDE8F08360030300C1
:1040F000044B002283F822204FF6FF729A84DA8460
:104100001A857047E2130020054B9A8C824201BF4A
:10411000002283F822204FF6FF729A84704700BF76
:10412000E2130020014BD884704700BFE213002047
:10413000094A03464FF6FF71908C884206D192F8E7
:104140002210012905D001201A6070470020186054
:1041500070470020704700BFE2130020064B93F821
:104160002220012A1BBF0120DA8C002083F82200C4
:1041700018BF9A84704700BFE2130020014B1885D6
:10418000704700BFE2130020064B0246198D988C41
:10419000884205D193F8220018B1012013607047BE
:1041A00000207047E2130020094B998C1A8D914230
:1041B00001D0002070474FF6FF729A8493F82220B6
:1041C000002AF6D00022012083F82220704700BF89
:1041D000E2130020054B998C1A8D914203BF93F88E
:1041E0002200B0FA80F0400901207047E21300205D
:1041F00050B90A4A0120134603F8010B0868C2F8B7
:1042000001008A889A807047012805D1034B0A680B
:10421000D8719A608A889A81704700BF0C14002078
:1042200048B90A4B187880B1D3F80120B3F80530AB
:104230000A608B807047012806D1044BD87920B1E1
:104240009A689B890A60F4E7002070470C140020EC
:1042500020B9054B187800F00100704701280ABF0B
:10426000014B0020D879F6E70C140020F7B58B88B5
:1042700000228DF80600ADF8043008680B4B8DF86D
:10428000072001461C7803F5AC73019DD0B284422F
:1042900001D8082007E0D3E9007601320833AE42A6
:1042A00008BF8F42F2D103B0F0BD00BF2014002040
:1042B000084B0146002230B55C7803F58173D0B21B
:1042C000844201D8082004E013F8015B01328D42DA
:1042D000F5D130BD20140020F8B52D4C637822189C
:1042E000013B92F80251DBB28342637030D01A0175
:1042F0000101961C8F1C2644274406F1100C56F829
:1043000004EB664547F804EBF9D18232823122444E
:10431000214402F1100652F8047BB24241F8047BBA
:10432000F9D1E118221891F8026182F8026106269B
:104330007343704303F5857300F58570E618E35801
:1043400027182350B388BB8091F83A3182F83A316C
:104350002846FFF7ADFF082818D12378013BDBB2D0
:104360009D42237012D02B3305F12B0204EBC303C3
:1043700004EBC20293E8030082E803002078FFF711
:1043800097FF08281CBF241884F80251F8BD00BF0D
:1043900020140020F0B5254D89B095F8984105F21C
:1043A00099116846224606F07DFD2146684608F0D0
:1043B0001DFE0446B8B300EB400102A8C9B2FDF7E8
:1043C00001FB601E95F8A1610124C0B295F8982107
:1043D00005E0731CB3FBF2F102FB1133DEB206F110
:1043E00020030DEB030111F8203C002BF1D100EB71
:1043F000400201F8204C06EB460320322B446A446D
:1044000012F8187C83F8A27112F8177C12F8162C97
:1044100083F8A37183F8A4210138AB19C0B283F8E3
:104420009941FF28D2D109B0F0BD00BF201400206F
:1044300070B5064688B00C46002A4ED0294A92F83C
:10444000A131D01890F8991119B9FF212820FDF752
:1044500029F903EB43010133114491F8A251E570AE
:1044600091F8A35191F8A41125716171002180F890
:10447000991192F89811B3FBF1F001FB103382F817
:10448000A13192F8C23123B9174902F5DD7009F064
:1044900049F865790D220021684605F03F0545F091
:1044A000400565710AF077FBE37804AA69468DF848
:1044B0000F30304623798DF80D508DF80E300423DF
:1044C0000AF0B5FA9DF81F3023709DF81E30637016
:1044D0009DF81D30A37008B070BD03216018FDF772
:1044E00071FAD6E72014002095430000044B5A7857
:1044F000824286BF1B1893F84A010020704700BF14
:1045000020140020044B5A78824286BF1B1893F86F
:1045100042010020704700BF20140020064B0022FB
:104520004FF461711A8083F8C32183F8C421A3F882
:10453000C61183F8C221704720140020014B83F874
:10454000C4017047201400202DE9F04782468946B7
:1045500017469846FFF78AFE08280546064603D008
:10456000FFF7A6FE082863D1334C6378072B61D888
:10457000082D18D12678731C072E237003D96C21BF
:104580002820FDF78FF806F12B03D9F80000DAB2E6
:1045900004EBC30344F8320004EBC201B9F8042071
:1045A0008A8083F806A0657807F110026B1C290148
:1045B00063704B1C234412F8010DBA4203F8010F3B
:1045C000F9D1813108F11003214413F8012D9845E8
:1045D00001F8012FF9D125441021404608F043FD90
:1045E000102185F84201384608F03DFD002385F88A
:1045F0000261667885F84A0185F83A3131460F48FC
:1046000008F0F4FC054631460D4808F0EFFC012D9A
:1046100003D8002818BF0135EDB284F89851002561
:10462000284684F8A151FFF7B5FE2846BDE8F0877B
:104630001220FBE70720F9E7201400206215002074
:104640006A150020064B10B55878013840B2002892
:1046500000DA10BDC4B22046FFF73EFE601EF5E74B
:1046600020140020014B83F8C30170472014002060
:10467000014B93F8C301704720140020431E4AF2F7
:10468000B7129BB293429DBF024BA3F8C601012013
:104690000020704720140020014BB3F8C60170477A
:1046A000201400200A4B30B55C7884420ED918449F
:1046B00090F802012B3003EBC004A5790D7053F87C
:1046C000300010600120A388938030BD0020FCE7FB
:1046D000201400200246074810B590F8C34124B1C9
:1046E000417821B1023002F0E7FE204610BD0C46B1
:1046F000FBE700BF201400202DE9F74F2F4C9A460E
:10470000804689466378834256D9231893F84251EC
:1047100085F00105F9B193F84A31E3B945F0020794
:104720000135BAF1000F18D1FA070AD5062104EBBA
:104730000810524601FB0841823001F58571FFF7F0
:1047400077FEBB0734D504EB0810524649460230C9
:10475000FFF76EFE2CE02F46E3E794F8A1614FF0DF
:10476000010B002DE0D0A31993F89911019399B989
:104770000092DAB100F00AFC019B06EB4601009AB8
:104780004FEA102C83F899B1214481F8A201000C62
:1047900081F8A3C181F8A401013694F89831013D54
:1047A000B6FBF3F103FB1166F6B2DAE747F0040754
:1047B000384603B0BDE8F08F0027F9E72014002049
:1047C000074B5A78824209D91A1892F842212AB91D
:1047D000062202FB003000F585707047002070470C
:1047E00020140020064B5A78824281BF1B1893F890
:1047F0003A01B0FA80F0400998BF0020704700BF2E
:1048000020140020F8B50E4607460621154630460E
:1048100008F029FC044640B10A482946427800F5D0
:104820009D700AF0B8F92046F8BD3146384608F0C8
:10483000F9FB08281FBF034B0124C01880F83A5128
:10484000F1E700BF2014002030B5002442F21075BB
:10485000A0F84040B0F844404C43B4FBF2F4A0F858
:104860004440541E05FB0343B3FBF2F3A0F842306F
:10487000084BB3FBF2F30133A0F84830838F05FBFC
:104880000344436B5943B4FBF2F4B1FBF2F284638B
:10489000426330BD005A620270B504460D4659BBF2
:1048A0004FF41A720AF077F9012384F8DE5084F885
:1048B0008E306FF0360384F8D930042384F8DA3070
:1048C0006FF03B0384F8DB306F2384F8DC306FF04B
:1048D0003C0384F8DD306FF07F0384F8DF302B2356
:1048E00084F8D830FE2384F80E317F2384F8853095
:1048F000202384F8F33170BD012917D10023A0F8DB
:10490000B43180F8AB310D4B826913441146B3FBCF
:10491000F2F3C0F8B03040F6B833A0F8B430438CAE
:1049200004F17800BDE87040FFF78EBF0229E2D1A4
:10493000B0F84A32D0F844228169F1E77FC3C90157
:10494000034B80F870101B680BB100881847704744
:104950007C050020074B93F900301844142804DC30
:1049600010F17F0F03DB40B27047142070476FF0E7
:104970007E007047E81500207F2307B50DF1070082
:104980008DF8073003F0FCFC9DF9073068B10A4A46
:104990005078404240B21844142808DC10F17F0FD0
:1049A00007DB40B203B05DF804FB1846FAE71420B9
:1049B000F8E76FF07E00F5E7E8150020024B0022D3
:1049C0001A705A70704700BFE815002003464078FF
:1049D00098B1DB783F2B05D8084AD35C1B1A5842A4
:1049E0005841704703F11402D2B2022A04D8034A94
:1049F000134413F8AC3CF1E7012070476403030053
:104A00003F2908B5C17003D80B4B5B5C437008BDF0
:104A100001F11403DBB2022B04D8074B194411F83F
:104A2000AC3CF3E7FF2904D04FF48A612A20FCF75D
:104A300039FE0123EAE700BF640303002DE9F347D1
:104A4000894669461446984608F000FB054600284A
:104A50003AD1019E34B9012486F88D40204602B037
:104A6000BDE8F087D6F810A02146504606F06FFD4D
:104A7000014658B3174B5B88A34229D3504606F032
:104A8000A0FE96F88D3007460580002B85700CBF80
:104A90004946022108F0B9FC22464146F81C06F0BE
:104AA00001FA2146504606F08CFD044618B97E21D5
:104AB0002B20FCF7F7FD684608F0EAFC019BA3F801
:104AC000A25186F88D50C9E70124C7E70446C5E71F
:104AD0002C46C3E7EC150020024B987DC04300F044
:104AE00001007047EC150020034B987D80F0020018
:104AF000C0F34000704700BFEC15002083230B700B
:104B0000014B1B78CB707047041600202DE9F84F3D
:104B1000D0F804800D46D8F81460304606F043FE05
:104B2000044618B9FF211020FCF7BCFD01463046B1
:104B300006F047FEB4F800B082461FFA8BF717B9AB
:104B400040F20311EFE71E4B00F103091B688BB91C
:104B5000B8F80030A5F806B0AB8000236B729AF865
:104B6000003003F00303012B0FD0022B0DD040F2D5
:104B70001D11D8E73A464946B8F800009847044660
:104B80000028E5D12046BDE8F88F30462B7206F0AC
:104B90001EFE044610B94FF49371C4E7FB2F02D9EF
:104BA00040F23511BFE7286810B94FF49B71BAE79E
:104BB0003A46494606F076F9304606F064FDE1E7EC
:104BC000800500202DE9F347824689460527002508
:104BD000DFF84C81D9F8103053B11B7A1BB9802112
:104BE0001020FCF75FFDD9F81040B4B9002070E048
:104BF000D9F80440237A012BF8D0EFF3108372B672
:104C0000D9F804201268C9F8042003B962B6C9F8BB
:104C10001040237A0BB9A621E2E7267AF6B2277272
:104C2000731E0B2B69D8DFE803F065061C3362683E
:104C30003C6868686857636813B94FF4D771CFE769
:104C40002046514698470420EFF3108372B6227A2B
:104C5000052AD1B25BD12572C9F81050ABB962B642
:104C600013E0636813B940F2B711B9E75146204623
:104C700098470346ADF80400C0B2C3F30723012BE5
:104C80003ED0022BE0D1C9F810500028A2D020E07D
:104C9000636813B940F2BF11A2E72046984700208D
:104CA000D2E763680BB9B5219AE70B2200248AF892
:104CB00000200122198818698AF80220AAF8031036
:104CC0008AF805208AF8064006F0DDFC0420C9F8C1
:104CD000104002B0BDE8F087D8F8003051462046B9
:104CE0009847034660B10220C9F81050F1E74FF42D
:104CF000FB7175E740F2F91172E74FF4FE716FE74F
:104D000026720028E5D1002B7FF464AF6EE711B95D
:104D100040F21D2164E7002B7FF45CAF62B659E7D7
:104D20008405002070B5144C14260021231D324642
:104D3000184609F030FF0346012525740433324636
:104D4000002104F11800C4E9013309F024FF84F8BC
:104D5000245004F11C03094AC4E906330023E3622A
:104D6000236384F83430C4F83530C4F8393084F81B
:104D70003D30136070BD00BF041600208005002088
:104D800010B5084C2378FF2B04D04FF4A0711020ED
:104D9000FCF788FC05F08EFF2070BDE81040FFF79F
:104DA000C1BF00BF1D05002010B5034C207805F0E1
:104DB0009DFFFF23237010BD1D050020014B1878B7
:104DC00005F0A4BF1D050020014B024A1A60704780
:104DD000840500200D4B000010B506490446FFF77E
:104DE000F1FE28B920460449BDE81040FFF7EABEAD
:104DF00010BD00BF1C16002008160020134610B579
:104E0000027A22B140F299211020FCF74BFC0A46AD
:104E100001460248BDE8104008F061BB08160020BA
:104E2000044890F834301BB903492C3008F074BBA7
:104E3000704700BF04160020D1D400000346064886
:104E400090F83E203AB190F83D2022B9034900F88D
:104E5000353B08F061BB704704160020FD4A000096
:104E60000A4610B5037A23B140F2A1211020FCF7C5
:104E700019FC014607230248BDE8104008F02FBB8B
:104E80001C1600201346027A0AB1037270470A46C4
:104E90000146014808F023BB081600201B234FF0F1
:104EA0001B128384038482618382C260038539B9C3
:104EB0004FF4A473034AC3844384C261C382026172
:104EC000704700BF4801480103460846F0B4B3F8F4
:104ED0005420B3F84840B3F856109442B3F84460F5
:104EE000DF8F28BF1446B3F84C20B3F842508A42F3
:104EF000DC8728BF0A46B3F846109142A3F8422047
:104F000038BF1146A64238BF2646A742A3F846102E
:104F1000A3F844601FD1AA1A18BF0122B3F84A505F
:104F2000B3F85040B3F85270A5429E8FB3F84010CA
:104F300028BF2546B3F84E40BC429D8728BF3C465B
:104F4000AE42A3F8404002D1A14200D12AB10449A7
:104F5000F0BC08F0EABA0122E0E7F0BC704700BFFD
:104F600031D500000B8BA2F809001046A2F80B30D7
:104F70004B8BA2F80D308B8BA2F80F30CB8B0249F4
:104F8000A2F8113008F0CBBA81D50000094AD2E965
:104F90000003434083EAB01181EA43214FEAF3431F
:104FA00011605360044B58434FEAF06000EB8000FF
:104FB000704700BF44160020BB79379E094AD2E9EA
:104FC0000003434083EAB01181EA43214FEAF343EF
:104FD00011605360044B58434FEAF06000EB8000CF
:104FE000704700BF20050020BB79379E10B50A4CE2
:104FF00008210948FCF7E6FCD4E900231343F7D065
:10500000064CFFF7DBFF2060FFF7D8FF23686060E6
:105010000343F6D010BD00BF200500204416002039
:10502000174B184A9A60184A5A60184A1A60184A68
:105030009A62184ADA62184ADA60184A9A61184A7B
:105040001A63184A1A62184ADA64184A9A64184AA3
:105050005A62184B184A9A60184A5A62184ADA6219
:10506000184A1A61184A5A61184A9A61184A1A630A
:10507000184A9A64184ADA64184A9A63704700BF5B
:105080008805002037D8000067D80000D3D800007A
:1050900039DA00008DDA00001D540000A3DA0000A8
:1050A000555600000155000071DB00008DDB00004B
:1050B000495500009406002053D8000043DB00004F
:1050C000C5DA000069DA0000E9DA0000A154000046
:1050D00013DC0000BBDB0000ADDB000029DB0000BF
:1050E000044B054A5A65054B054A1A65054A5A6537
:1050F000704700BF8805002087D900009406002073
:105100006DD90000E5D90000054B064A9A65064AAC
:105110001A66064B064A9A65064ADA65704700BF6A
:1051200088050020E9CE0000293F000094060020F9
:1051300039CE00008BCF0000252A0346084610B563
:1051400018D8012A19D9023A232A16D8DFE802F022
:105150001A1524232330153415233A454915154DC6
:1051600023236060767D1515151515151515151574
:105170001588939BFF2A00F08E8040F2D441512085
:10518000FCF790FA5A681B78012B0CBF92F810318B
:1051900092F81931037110BD5968D1F8BE214260EF
:1051A000D1F8C22182605B68D3F80431C360F2E7B2
:1051B0005B6893F81031EDE701461846BDE81040F2
:1051C00000F012BA0F230371592343710023837136
:1051D0006923C37130230372DDE75B6893F80A31FA
:1051E000D8E7BDE8104000F0EFB95A681B784BB91A
:1051F00092F8103133B192F80D31037192F80C31FD
:105200004371C8E792F80B31037192F80A31F7E75E
:105210005B68B3F854200271120A4271B3F812218C
:105220008271120AC271B3F850200272120A4272DD
:10523000B3F8103183721B0AC372ACE75B6893F852
:105240002621027193F82731DAE75B6893F824216D
:10525000012AF4D093F86420027193F86530CFE707
:10526000114A1468002C96D001461A462320234682
:10527000BDE8104018470C4A1468002C8BD001463A
:105280001A462420F3E7084A1468002C83D001460C
:105290001A462520EBE75B68BDE8104093F83722FB
:1052A000D3F8381208F0B9B8A00700203F2803D877
:1052B000064B53F82000704700F11403DBB2022BB9
:1052C00001D8AC38F4E70020704700BF8805002003
:1052D0003F2803D8064B53F82000704700F1140311
:1052E000DBB2022B01D8AC38F4E70020704700BFD6
:1052F00094060020F7B5456804464FF6FF772E69FF
:105300000DF102010DF101023046ADF8027006F018
:1053100073F901A9304606F091F940B1019806F001
:1053200054FA616800220272FFF79AFDE8E7044927
:1053300005F1A00003B0BDE8F04008F0F0B800BFF0
:10534000CBD70000F0B5044685B00D46FF2600F827
:10535000896C10F88A3CF3B1184F3B781BB1482197
:105360001F20FCF79FF90C21381DFCF72BFB3E702A
:10537000002304F8893C07232A4602F8033BD4F8AB
:105380000930C5F80330D4F80D305360D4F811302B
:10539000936005B0F0BD01A80C21FCF713FBA4F548
:1053A0001473039AC3F8042101AB03CB44F8920CA5
:1053B00044F88E1C04F88A6CDAE700BF4C16002013
:1053C00010B5054C23782BB90C21201DFCF7FAFAF7
:1053D000FF23237010BD00BF4C160020024690F83A
:1053E000C631BBB990F8C73103F0FF010BB1002003
:1053F0007047094B18780028F9D01970D968043320
:10540000C2F8041103CBC2F8BE01C2F8C211FF23D7
:1054100082F8C631012070474C160020426838B52A
:1054200092F8873004460D463BB1132B05D0113B53
:105430000B2B94BF0820012038BD92F8C83013B957
:10544000204608F07FF96268D5F80E30C2F8B63110
:10545000D5F81230C2F8BA316368D5F81620C3F80F
:1054600000211A88A3F859226A68C3F85B22AA6847
:10547000C3F85F226368AA89A3F8632263680025E2
:1054800083F8C6516068054900F5147008F044F8C7
:1054900063681522284683F88720CDE7455300002E
:1054A00038B54368044693F887201C2A04D04FF48B
:1054B000DE711F20FCF7F6F8002293F8C8101D8853
:1054C00003F5C97083F8C72069B10B4983F8C82078
:1054D000A3F89C5183F89B2108F01EF86368002212
:1054E00083F8872038BD012283F89B11A3F89C51D3
:1054F000024983F89E21EFE725DA000017DA000061
:1055000038B54568AB6F13F0010417D14A680C4BEE
:10551000896813400B4AC5F8D830C3F307630A40C3
:1055200043F00803C5F8DC2085F8DB3008F00AF901
:10553000AB6F204643F00103AB6738BD0120FCE7A9
:105540002FC904F76FDB0080406810B590F88630F3
:10555000042B23D14B688A68C0F8D830C3F30763A3
:10556000C0F8DC2043F0080380F8DB30002380F82B
:10557000C23080F8863090F8742102F0FF047AB9C6
:10558000038800F5B670447243814B68C3608B6832
:105590000449036107F0C0FF204610BD0124FBE76A
:1055A0001C46F9E707DB0000406890F8743143B906
:1055B000038800F5B670034943811A23437207F04C
:1055C000ABBF704707DB000010B50446FEF74AFC8E
:1055D000034A044B02400B406260A36010BD00BF51
:1055E0002FC904F76FDB008037B50C464568FEF71E
:1055F00039FC084B084A03400A4095F8D81000933C
:105600000B4001928DF800306B4603CB6060A160C7
:1056100003B030BD2FC904F76FDB0080DB0410B589
:10562000144604D5037D13B10023436310BD436BBF
:105630000133436308F0CEFAD0E90D239A42F5D343
:105640000023034943632046BDE8104007F06DBFC7
:1056500063DB000038B54468054694F88630012BBA
:1056600002D0A36F980739D494F8C9309A0715D49B
:105670000A79D80784F8D320B1F80520A4F8D420FB
:10568000B1F80720A4F8D62043F0020284F8C9201C
:105690000FD5134904F1CA0007F047FF94F8C93049
:1056A000D90711D4A36F9A0708D555214020FBF7DD
:1056B000F9FF94F82A31002BEBD1EFE743F0020316
:1056C0002846A36708F03EF894F886300020012BA6
:1056D00003D184F8860084F8C20038BD0120FCE7BD
:1056E000F5DB000070B545680446FFF745F9054B4A
:1056F000014685F885001B681BB12046BDE8704057
:10570000184770BDA8070020024B1B6803B118475B
:10571000704700BFA4070020F0B5204E05460024C6
:105720003078147080B1431E7768DBB2181B0128F3
:105730000BDC07EBC40057F834604068884208BFB0
:10574000AE4212D114700120F0BD18194610C0F3FA
:10575000470057F836C007EBC60EAC45DEF80460CC
:105760008E412CBF03460446E0E7B54271EB0000D2
:1057700002D214700020E7E707EBC30057F833406C
:105780004068884208BFAC4201D11370DBE7A542F4
:10579000814128BF01331370ECE700BF6C16002075
:1057A00010F0070208B503D063214820FBF77AFF09
:1057B00018B1034B197258601A70C80008BD00BFB9
:1057C0006C160020014B00221A7070476C160020E6
:1057D000014B187A704700BF6C1600202DE9D343A7
:1057E00008F039FA0DF1070207460E46FFF794FF5D
:1057F00098B9114C2278237A93420ED061681346EF
:105800006FF0604E9DF80700984209D301EBC0038A
:10581000013201202270C3E9007602B0BDE8D083D6
:1058200003EB0E00013B01EBC000DBB2D0E90089C5
:10583000C0E90289E6E700BF6C16002037B508F022
:105840000AFA0DF10702FFF767FF0446A0B10C4A00
:105850009DF8070013785568411C013B05EBC10119
:10586000DBB213701A1AD2B2D200834238BF0022C0
:1058700005EBC00009F077F9204603B030BD00BF4A
:105880006C1600200A460648822302F8033B036890
:10589000C1F803304368536083689360704700BF6A
:1058A0007516002016220021014809F074B900BFC6
:1058B0007516002082B002AB03E903000D48437D5A
:1058C000B3B1530614D50A880C30B1F8803020F8F3
:1058D0000C2CD1F8182220F80A3C40F8082CD1F8FA
:1058E0001C22054940F8042C022202B0FFF7CABA74
:1058F00002B0704775160020855800000346074A1D
:105900001068D3F85120C0F80320B3F85520A0F850
:10591000072093F8501007F0FCBC00BF941600203D
:1059200070B504460E461346407F6588324615F032
:10593000040118BF04F15F01FEF7DEFE42070546D1
:1059400023D4C3070BD50123607F84F85030FEF7C2
:1059500037FF0368C4F851308388A4F8553015F038
:10596000020F4FF001050ED0094B294684F85E5016
:105970001868D4F85F30C0F80930B4F86330A0F884
:105980000D3007F0CFFC284600E0002070BD00BFBE
:105990009416002038B5C38D04460F4D0133C3F370
:1059A0000E03C385AB7C2BB102F0DCFC01F0E2FD01
:1059B0000023AB7400232B7194F871302BB10121BB
:1059C0002046BDE8384006F07FBB637C13B1E28D12
:1059D0009A42F4D20021F3E79416002010B5094C46
:1059E0002379012B02D02379022B05D1A37C1BB193
:1059F00002F0B8FC01F0BEFDE069BDE81040FFF721
:105A0000C9BF00BF9416002070B5294C2379012B23
:105A100007D02379022B04D040F657412D20FBF705
:105A200041FEA0B90125A37C1BB102F09BFC01F053
:105A3000A1FD002D3AD0E06906F0BFFA002830D071
:105A400002F066FB236ABDE870409B681847216836
:105A5000E26911F8095B02F1510392F85020E8095C
:105A600007F0A6FA0028DDD00021206807F07FFCAF
:105A70000028D7D02379E069012B05D02379022BA8
:105A800002D04FF44361C9E7237905F00F01226A80
:105A900003F180435269013B52F823309847054691
:105AA000C1E7E069BDE87040FFF774BF70BD00BF9B
:105AB000941600200346074AD06903B909B9FFF7D5
:105AC00069BF1379126A03F180431269033B52F8EC
:105AD000233018479416002003292DE9F04305468A
:105AE00085B090467BD090F870300529DBB202D1AA
:105AF0004288D60760D5002B5ED10127DFF8E890F9
:105B000099F81260B6B107F097FA082888F80000F3
:105B100014D002AA0DF10701FEF7C4FD20B940F62A
:105B2000CF612D20FBF7BEFD02A99DF8070008F00C
:105B30009EF8064698F80030082B08D1D9F80010D6
:105B400011F8030BC0F3801008F091F80646D9F85D
:105B5000001005F1580395F8572011F8030BC0F316
:105B6000801007F025FAD9F80010044611F8030B4D
:105B7000C0F3801007F056FA8146FEF733FE014667
:105B800040B1B9F1080F1BD04846FEF7AFFC80F0DA
:105B90000101C9B298F80000082815D094B96B7FAC
:105BA0001C1A604260416B885A0706D421B996B925
:105BB000EB7C93B1BB4210D0002005B0BDE8F08370
:105BC0000021E7E70120EEE714B181F00104E4B21F
:105BD00004F00100E7E73046EFE70120EDE74388F6
:105BE0009B07E9D5022789E7941600202DE9F04F9D
:105BF00085B00823052104460DF107028DF8073012
:105C0000FFF76AFF064620B90026304605B0BDE81A
:105C1000F08F744F396807F11403FA7C11F8030B05
:105C2000C0F3801007F0C4F980460028ECD13B682F
:105C300040F2E249216A184691F88E2010F8035B81
:105C400002EA551202F0010281F88E20D3F80320F7
:105C5000C1F803208288A1F807201946226A11F8AA
:105C60001F0BC0F3801090700979D3F81F008DF8D6
:105C70000C10D3F80F100290D161597D187D0904E2
:105C800041EA0021D87C01435162B3F8191082F82F
:105C9000728009FB01F191619D7DC5EB451105EB1A
:105CA000810505EB85056D009585B3F8171009FB97
