:020000040000FA
:10000000F80B002059070000FD070000793A0000B6
:10001000933A0000AD3A0000E13A0000C73A000010
:100020000000000000000000000000008D1D000026
:10003000FD07000000000000391D0000FD07000062
:10004000000000000000000000000000B9220000D5
:1000500000000000FD07000000000000000000009C
:10006000FD070000FD070000FD070000FD07000080
:1000700000000000FD070000FD070000FD07000074
:10008000FD070000FD070000000000000000000068
:10009000FD070000FD070000000000000000000058
:1000A000FD0700000000000000000000FD07000048
:1000B000FD070000FD070000FD070000FD07000030
:1000C000FD070000FD070000FD070000FD07000020
:1000D000FD07000000000000FD0700000000000018
:1000E000FD07000000000000FD0700000000000008
:1000F000FD070000000000000000000000000000FC
:1001000000000000FD0700000000000000000000EB
:1001100000000000000000000000000000000000DF
:1001200000000000FD0700000000000000000000CB
:1001300000000000000000000000000000000000BF
:10014000FD070000407C0000201E00205000000041
:10015000E0380000400C002000000000E038000003
:10016000200C002000000000601F0020BB060000E3
:10017000400C002078040000200C00200800000043
:10018000000C00200800000000015F5F000000007C
:10019000FE0F0000ED1E0000000400000000000043
:1001A000000000000000000000000000000000004F
:1001B000802000200000000001015F5F03010000BB
:1001C0001F01000081020000000800000000000084
:1001D000010000000100000000000000000000001D
:1001E000881000200000000070000000F86C000083
:1001F00080000000000F000001000000410300002B
:100200000100000001015F5F040100001F01000008
:10021000490600000005000000000000000000008A
:10022000010000000000000000000000881800200D
:1002300000000000036D0000400000000507000002
:0C02400001000000350500000100000076
:1002600038B50025054C29462046D4F80024C4F8AA
:10027000045403F065FCC4F8005438BD400C002061
:1002800008B500F015F940B900F03CF900F048F964
:1002900018B9BDE8084003F07BBE08BD13B5114690
:1002A0000022CDE9002242680346302A04683ED18C
:1002B00094F82C20022A18D01AB900F01BF902B0C9
:1002C00010BD1E482468D0F80404013ACDE900406E
:1002D000072A2FD8DFE802F004090D12171C212687
:1002E0006A46184600F003F9E9E7184600F0EDF811
:1002F000E5E76A46184600F0EBF8E0E76A4618467C
:1003000000F0E0F8DBE76A46184600F0E4F8D6E7CC
:100310006A46184600F0E2F8D1E76A46184600F04F
:10032000E0F8CCE76A46184600F0DEF8C7E76FF061
:100330008000C4E76FF08500C1E700BF400C0020DB
:100340002DE9F04F056804469FB0002D40F0AA80CB
:100350002022294602A803F0F3FB12AF20222946EF
:100360000AA803F0EDFB30222946384603F0E8FBEB
:10037000A26904F118039846B2B10426A26A04F1F6
:100380002803EAB10425EEB96FF0830630461FB0AA
:10039000BDE8F08F002EF1D053F8041D3246013E27
:1003A0000029F7D01646E9E70326F5E7002DEAD045
:1003B00053F8041D2A46013D0029F7D01546E2E70F
:1003C0000325F5E730233A460021606803F004FC7A
:1003D0003028D9D14FF00109CDE90270334F0DF12A
:1003E000080A04F10C0B4E45D7F800141CD10DF18E
:1003F00028094B46002008EB850EC64533D108B1CD
:10040000C7F80014A3683146C7F804340AAA2B467B
:1004100002A8FFF743FF00270646BD4209F108097D
:1004200038D1FFF71DFFB1E75BF8043FC1F58062EB
:10043000D81C20F00300904204D9FFF711FF6FF0A1
:100440008C06A3E70844CA19C7F800044946606847
:10045000019203F0C1FB019ACAF80C0009F10109ED
:100460004AF8082FBFE758F804CFC1F5806A0CF1AD
:10047000030222F00302524503F1080305D878185D
:1004800043E9020C11440120B7E70028D5D0C7F892
:100490000014D2E7394659E90223606803F0A8FB4B
:1004A0000137BAE76FF0850670E700BF400C002007
:1004B00008B528220021024803F042FB002008BDB5
:1004C000481000206FF0850070476FF0850070477E
:1004D0006FF0850070476FF0850070476FF0850002
:1004E00070476FF0850070476FF0850070476FF0C0
:1004F00085007047D1E9000103F02ABDC0E9002161
:100500007047000010B5044C0F222046034903F049
:10051000F2FA204610BD00BF711000202C07000029
:1005200008B50121024803F0ADFC002008BD00BF62
:1005300070100020F0B503680546B3F57D7FA7B0C5
:1005400007D040F2F532934207D06FF0850027B014
:10055000F0BD01F059FA0020F9E700243C222146C1
:1005600007A8CDE90244CDE90444069403F0E8FA73
:100570003C22214617A8169403F0E2FAAA690194D6
:1005800005F1180302B30426AA6A05F128033AB359
:100590000424731E012B52D8012C50D804230021AF
:1005A00068680DEB030203F017FB04281AD06FF004
:1005B0008000CCE7002EE7D053F8041D3246013E00
:1005C0000029F7D01646DFE70326F5E7002CE0D038
:1005D00053F8041D2246013C0029F7D01446D8E701
:1005E0000324F5E7022E16D12E69402E29D806AF36
:1005F00033463A460121686803F0EEFA8642D6D1C6
:10060000CDE9027602A944B92246019801F05AFACE
:10061000044620469BE70021F5E7EB69402BC6D84E
:1006200016AACDE90423019804AA01F04BFADDE9EA
:10063000042304460021686803F0DAFAE9E70120A0
:1006400085E76FF0890082E7002070472DE9F04FC1
:1006500000259BB004A8049503F0E6FA4FF01808B3
:100660000646DFF8C4902F4FB54201D1002024E0A8
:1006700008FB05FA049B03EB0A02116949454FD1B7
:100680000021946808A853F80A20FFF737FF2022BA
:10069000002112A803F054FA0DF10E02049B0192FE
:1006A00007AA53440092D3F814B0202106AB05AA40
:1006B0000AA8D84720B16FF092001BB0BDE8F08FB8
:1006C0004FF6F8714FF6FF72099B1593069B8B420C
:1006D00088BF1346ADF84A30079B089A1793BDF8B8
:1006E0000E30ADF84830049B53441B69139313F04C
:1006F000FF0308BF1A4648235C4304F124000DEBB6
:1007000003013C4414923844202203F0F4F92046BB
:10071000059A0AA903F0EFF9059B2362012363649C
:100720000135A1E7881D0020010100806D6265642C
:1007300020544C5320332E332E3000000000000094
:08074000B032000001000000CE
:1007500001F00ABA0000000008B572B61E4A1F4B2D
:100760009A601F4B83F309881E4B83F30A8883F337
:100770000B881D4B16A1D1E90001C3E9000100F06F
:10078000A7F81A4B1A498B4212D30020194B1A4969
:100790008B4218D303F030F9186850F8224058689B
:1007A00040F82240013298688242F5D30C33EAE7E0
:1007B0000022F8E71C6844F8220001325C68A2427B
:1007C000F8D30833E4E70022F8E700BFAFF3008076
:1007D000A5EDF5FEA5EDF5FE0000000000ED00E042
:1007E000F80B002000040020F80B0020440100005A
:1007F0006801000068010000880100007046EFF306
:100800000881EFF30982052300F052F9FFF7A0FFFA
:10081000FEE74FF47F03D3F83001D3F83431BFF350
:100820004F8FC0F30B00A0F10903584258417047A5
:100830004FF47F02D2F83031D2F83401BFF34F8F3A
:10084000C3F30B03092B03D1431E58425841704791
:100850000020704708B5EFF31083012B0C4A07D135
:10086000126ABFF34F8F511C4A424A41104608BDDD
:10087000FFF7CFFF00B172B6126ABFF34F8F531C60
:100880005A425A41FFF7C5FF0028EFD062B6EDE7A4
:100890000080FF0008B5EFF31083012B0B4A06D14F
:1008A000D269BFF34F8F02F00102104608BDFFF777
:1008B000B0FF00B172B6D269BFF34F8F02F00102F0
:1008C000FFF7A7FF0028F0D062B6EEE70080FF0038
:1008D0006F4A10B5D2F8D03043F00203C2F8D030DE
:1008E000FFF797FF30B14FF050230022C3F81421D7
:1008F000C3F81821FFF79CFF28B10122654BC3F80C
:10090000382AC3F878254FF47F02D2F83031D2F874
:100910003421BFF34F8FC3F30B03092B05D1012AF9
:100920001EBF01225B4BC3F87825FFF781FF18B18A
:100930000E22594BC3F8E42EFFF76BFF30B10022B3
:10094000544BC3F80C270122C3F810270022D30010
:1009500003F57F03D3F80013BFF34F8F013108D0A5
:10096000D3F800130132D3F80433B2F5807F0B6063
:10097000EDD1EFF31084FFF78DFF00284DD0BFF3CA
:100980004F8F464BD3F80024012AFBD1C3F804252E
:10099000D3F80024012AFBD1012C03D0FFF739FF43
:1009A00000B172B6FFF776FF58B13D4AD36923F024
:1009B0000103D361BFF34F8F384AD2F80034012BC3
:1009C000FBD1FFF747FF68B1354A136A23F0FF03F5
:1009D00043F020031362BFF34F8F304AD2F8003444
:1009E000012BFBD1012C03D0FFF713FF00B162B63E
:1009F00000222A4BC3F80425D3F80024012AFBD196
:100A0000BFF34F8F2249274BCA6802F4E0621343B9
:100A1000CB60BFF34F8F00BFFDE7FFF71BFF002840
:100A2000ADD11B4AD2F88C3043F44063C2F88C300D
:100A30004FF47F03D3F83021D3F83431BFF34F8F15
:100A4000C2F30B02092A16D1013B022B02D8164A27
:100A5000D35C83B1124815490368104A8B420CBF1E
:100A60005A230023C2F8103EC36A8B420CBF5A239C
:100A70000023C2F8003E064AD2F8883043F47003DF
:100A8000C2F88830BFF34F8FBFF36F8F10BD00BF28
:100A900000ED00E00040005000A003500090035023
:100AA0000080FF000400FA0540340000FA50FA50BC
:100AB00070B50E461D461146EFF303838A4CC4E918
:100AC00000062363C0F3801300F00C000C28A26022
:100AD00034D10BB9EFF3898120228448E16003F01F
:100AE0000AF8834A936A6363D16AA163906BE063F7
:100AF00003F400402064506B606403F08000A06445
:100B00009362D162D2F8E430E364D2F8E810216550
:100B100003F040016165C2F8E43000F053F90E21A2
:100B2000744800F071F9052D00F2CA80DFE815F075
:100B30000C00B600B900BF00C200C50013B9EFF346
:100B40008881C9E73146C7E70E216B4800F05CF9A0
:100B500000252A21694800F057F9226816216848C3
:100B600001F004F81821674800F04EF923685A068E
:100B70004BBF0E2112216448644800F045F92368F8
:100B80001B074BBF102111216148624800F03CF95E
:100B9000226B0E21604800F0E9FF62680E215F4879
:100BA00000F0E4FF0E21A2685D4800F0DFFFEFF3E4
:100BB00088820E215B4800F0D9FFEFF389820E2175
:100BC000594800F0D3FF1921E268584800F0CEFFE1
:100BD0001DB15221564800F017F90F2122695548DE
:100BE00000F0C4FF0F216269534800F0BFFF0F21DE
:100BF000A269524800F0BAFF0F21E269504800F0A4
:100C0000B5FF0F21226A4F4800F0B0FF0F21626A42
:100C10004D4800F0ABFF0F21A26A4C4800F0A6FF40
:100C20000F21E26A4A4800F0A1FF0C21626B49489B
:100C300000F09CFF0C2194F83520474800F096FF07
:100C4000236C002B3FD00B21E26B444800F08EFF59
:100C50000C2194F83420424800F088FFA36C002B4C
:100C600036D00C21626C3F4800F080FF0C21E28EF0
:100C70003D4800F07BFF0C21A26B3C4800F076FF62
:100C80000C21E26C3A4800F071FF636D2BB3226DCA
:100C90000B21BDE87040374800F068BF0C21364892
:100CA00054E71221354800F0AFF8012551E70B2138
:100CB0003348F8E70D213348F5E715213248F2E7CC
:100CC0000A21324842E71721314800F09DF8BFE77A
:100CD0001721304800F098F8C8E71621BDE87040A9
:100CE0002D4800F091B800BF8024002090240020FF
:100CF00000ED00E04334000051340000B434000043
:100D0000DE340000F43400000C3500001A35000019
:100D10002C3500003C3500004D3500005B350000EF
:100D200069350000773500008535000093350000F7
:100D3000AC350000FE3500000D3600001C3600000A
:100D40002B3600003A3600004936000058360000C5
:100D50006736000076360000823600008E360000CE
:100D6000B0360000BC360000DF360000EB36000075
:100D7000F7360000033700005F3400006B340000DA
:100D80007D3400008834000095340000AA3400004F
:100D900099360000C83600000E37000037B5084C01
:100DA0006369984748B9E56AA847C307FCD4236A32
:100DB000019303B0BDE830401847002003B030BDB8
:100DC0002437000010B5094C0020A3689847236918
:100DD00002209847A46A4FF4E1310120A04723463E
:100DE000BDE8104001211520184700BF243700003E
:100DF00010B5044C002023699847E368BDE8104013
:100E0000184700BF24370000FFF7C8BF064B82B069
:100E10001868002382B262F30F03000C60F31F43D3
:100E2000184602B0704700BF5C37000001207047D1
:100E30006FF003007047002382B00193019802B065
:100E400070476FF003007047002382B00193019850
:100E500002B07047022814BF6FF0030000207047F3
:100E6000014BD868704700BF241E0020014B186951
:100E7000704700BF241E002038B50C4D0C462B7F58
:100E800013B94FF0FF3038BD0A460146284600F03E
:100E9000EFFB074B984205D00B3B9842F1D1002065
:100EA0002C61F0E76FF00100EDE700BF241E002089
:100EB0000B00AD0BF0B51B4E0546337F0C4691B0D1
:100EC0001BB94FF0FF3011B0F0BD00F06043B3F13B
:100ED000005F21D100230A460146304600F072FB34
:100EE000114B98421AD00B3B9842EAD1F46011E0C2
:100EF000A71B402F28BF4027A9193A46684602F091
:100F0000FAFD39466846FFF7D5FF0028DBD14036A9
:100F1000B442EDD80020D6E70026F9E76FF00100D3
:100F2000D1E700BF241E00200B00AD0BFFF7C2BFAE
:100F3000C3B2012B10B540F096804DF6C023994204
:100F400070D028D8B1F5615F6FD011D8B1F5965F38
:100F50006DD008D8B1F5966F6BD0B1F5166F6BD028
:100F60006FF007005DE0B1F5165FF9D1454B33E056
:100F700047F61223994262D007D8B1F5964F61D057
:100F8000B1F5E14FECD1404B26E0B1F5164FE7D17A
:100F90004FF41D0320E03D4B994255D011D8B1F5D7
:100FA000E13F54D007D8B1F5614F53D0B1F5963F2A
:100FB000D6D1374B10E0B1F5613FD1D14FF06C7312
:100FC0000AE0B1F5612F48D0324B994248D0B1F5D3
:100FD000E12FC5D14FF0E86310F4E06F46D110F473
:100FE000404103D0B1F5804F43D1102110F440525D
:100FF00003D0B2F5805F3FD10E2210F4403003D011
:10100000B0F5403F3BD10120234C20756275A361B0
:10101000A1750A4324681043C4F82435C4F86C054C
:10102000002010BD4FF46503D6E71C4BD4E71C4BE2
:10103000D2E74FF49E23CFE74FF41D23CCE74FF4C4
:101040000003C9E7174BC7E74FF08063C4E74FF0D1
:10105000EB73C1E74FF46B03BEE74FF07063BBE780
:101060004FF08053B8E76FF00300DAE76FF0080045
:10107000D7E76FF00A00D4E76FF00900D1E76FF00F
:101080000B00CEE70050270000C0750090D0030091
:1010900000903A0140420F00241E002000F03A0068
:1010A00000B0130000A04E0010B51B4C00212068BA
:1010B00000F006FC226842F30732002A12DB01200E
:1010C00053099B0003F1604303F56143D3F8801299
:1010D00002F01F0200FA02F221EA0202C3F88022A3
:1010E000D3F880320022A1680B4800F099F90B4B2D
:1010F00098420ED1A3680020B3F81920D97E5B690D
:10110000A282A3610123064AC4E9030091702377F8
:1011100010BD6FF00100FBE7241E00200000AD0BA6
:10112000381E002010B5114C204600F0B5F9002102
:101130002068217700F0D2FB226842F30732002AB0
:1011400011DB012153099B0003F1604303F5614367
:10115000D3F8800202F01F0201FA02F20243C3F840
:101160008022D3F88032002010BD00BF241E002052
:1011700000F01F03400909D1074A02EB8303D3F8AB
:101180000012064A0A40C3F800227047002280334A
:1011900052F82330FFDE00BF00258450F0F8FCFF3A
:1011A00030B50124A2F58075AD08AC400C4207D0E3
:1011B000815829B10021815082581A6822431A604F
:1011C00030BD002337B50C464FF48072019301AB5C
:1011D000FFF7E6FF4FF482722146FFF7E1FF4FF47D
:1011E00084722146FFF7DCFF4FF488722146FFF737
:1011F000D7FF4FF48E722146FFF7D2FF4FF4907263
:101200002146FFF7CDFF4FF492722146FFF7C8FF4A
:101210004FF4A2722146FFF7C3FF4FF4A672214696
:10122000FFF7BEFF4FF4A8722146FFF7B9FF4FF456
:10123000AC722146FFF7B4FFE20603D4A30348BF14
:10124000D0F83C35019803B030BD0000430904D10B
:101250000123034A83409360704700239B60FFDEB5
:101260000025845000F01F0340090BD1084A02EB0F
:101270008302D2F80012074B0B4043F00303C2F87D
:10128000003270470022803352F82330FFDE00BF67
:1012900000258450F0F8FCFF2DE9F8430B7F05464C
:1012A0000C460E68D3B9701C04D03046FFF7CEFF51
:1012B000FFF7D8FF6068411C01D0FFF759FF637E3C
:1012C000012B0BD1E068421C01D0FFF751FFA06851
:1012D000431C03D0FFF7BAFFFFF7C4FFD4E9018E28
:1012E000607EA17E94F81BC062692B6894F81D9003
:1012F0000143E768C3F824254CEA0102C3F86C25D2
:10130000B9F1000F09D10128C3F80C65C3F81485A1
:1013100004BFC3F808E5C3F81075D3F8682503F2D5
:101320006458012A08BFDA60D3F86425012A14D171
:10133000082149F64046284FC3F8001547F0010739
:101340005A60D8F80030002B3CD12B68D3F88024A9
:10135000C3F880240022C3F8002524212A791F4BDA
:1013600001FB02335B685BB300222B68217EC3F86C
:101370001021D3F81001C3F82021D3F82001C3F8BD
:101380002421D3F82401C3F84421D3F84401C3F83D
:101390005821D3F8582143F307324901002AC9B232
:1013A00015DB0F48841884F800130121540902F05A
:1013B0001F0201FA02F240F824200A4AC3F804236B
:1013C000BDE8F8834020B847013EBAD1BDE70648E2
:1013D00002F00F028154F0E760370000D8240020AB
:1013E00000E100E01003420014ED00E000F01F03F4
:1013F00040090BD1084A02EB8302D2F80012074BD6
:101400000B4043F00203C2F80032704700228033E1
:1014100052F82330FFDE00BF00258450F0F8FCFFB7
:101420004FF0240CF8B50779184C0CFB07FC04EBC3
:101430000C0696F820E00546BEF1000F23D172603D
:1014400089B10A690B7F44F80C204A7F43EA4203C2
:1014500096F8222003F0030322F00302134386F8D8
:101460002230FFF719FF08222B680948C3F800252E
:101470002423002203FB0743C3E906225A61012209
:1014800083F82020F8BD0348FCE700BFD8240020E3
:101490000000AD0B0500AD0B24222DE9F843404DB3
:1014A0000779064602FB075252680368A2B13D4A1B
:1014B000C3F8082343F30733002B0DDB01215A093E
:1014C00003F01F03994002F12003374A42F823102A
:1014D000BFF34F8FBFF36F8F3468D4F8003223F01F
:1014E0002003C4F80032242303FB0753D3F81880E9
:1014F0000123E3604FF480012046FFF762FE0028DD
:10150000F8D0B8F1000F41D100232422C4F80035EF
:101510003379D4F80C0502FB035292F82220D4F858
:1015200014959207D4F80865D4F8108509D44FF0C3
:10153000FF32C4F80C25C4F81425C4F80825C4F8F3
:101540001025242202FB035393F82230D90714D428
:10155000421C01D0FFF74AFFB9F1FF3F02D04846D5
:10156000FFF744FFB8F1FF3F02D04046FFF73EFFD0
:10157000731C02D03046FFF739FF242303FB0755C5
:10158000002385F820306B60BDE8F8830123636099
:101590004FF400312046FFF714FE0028F8D0B3E7DF
:1015A000D82400201003420000E100E02421027949
:1015B000034B01FB02335869003818BF0120704704
:1015C000D82400202DE9F041904601F06042B2F1AC
:1015D000005F0D4639D106790468FFF7E7FF002860
:1015E00035D124231C4F03FB0673C3F81480C4F8C1
:1015F0002001D4F82021C4F85801D4F858215A69A0
:10160000C4F84455C4F8482501229D605B68A26077
:10161000FBB9124D29462046FFF7D3FD0028F9D02B
:10162000430210D40123E3604FF480012046FFF70A
:10163000C8FD0028F8D00A48242303FB06770023BE
:101640007B61BDE8F0810748F6E70748F9E70748FE
:10165000F7E70348F5E700BFD82400200001400069
:101660000000AD0B0800AD0B0A00AD0B0B00AD0B7D
:10167000F8B501F06043B3F1005F76D12423067919
:101680003B4D046803FB06535868D3F818C038B9BB
:10169000BCF1000F10D0DB69002B3ED03548F8BDFF
:1016A0004FF40477C4F80873BCF1000F04D0DB6971
:1016B0009BB3C4F80473F1E72423002703FB06530C
:1016C000C4F810719A61D960DF61D4F81031C4F8A0
:1016D0004471D4F84431C4F834150123C4F83825D2
:1016E000002836D1244F236039462046FFF769FD94
:1016F00002460028F8D02423002103FB06539961F9
:101700001E4B10F4007F1E4808BF184612F4003F1D
:1017100003F1080318BF1846C1E72423002703FB81
:101720000653C4F81071D4F810C1C4F84471D4F849
:101730004471C4F83415C4F83825DA61D4F80022AD
:10174000196142F02002C4F8002218B998610B48D0
:10175000A5E72360242303FB0655002385F82130E9
:101760004FF40473C4F80433F1E7064897E700BF69
:10177000D82400200B00AD0B100202000000AD0BBE
:101780000100AD0B0A00AD0B0722024BC3F8042386
:10179000704700BF003000500022074BC3F8002103
:1017A000D3F80011C3F80421D3F80411C3F80821B9
:1017B000D3F80831704700BF0030005000231720D5
:1017C000094A03F5C0710133202B42F82100F8D1FA
:1017D00000231720044A03F5E0710133202B42F85F
:1017E0002100F8D1704700BF0030005010B59DF8BF
:1017F0000840C00B43EA0423064CC90B43EA02131A
:10180000884200D910BDC2B202F5C07244F822303D
:101810000130F5E70030005010B59DF8084000F1A8
:10182000604043EA042301F16041074C400B490B3F
:1018300043EA0213884200D910BDC2B202F5E07239
:1018400044F822300130F5E700300050C0F30E03B9
:10185000C3F50043B3FA83F3C3F11B03064AC0F395
:10186000C730DBB240F4807043F48073C2F80005E7
:10187000C2F80435704700BF00300050C003704705
:10188000C00300F5FF407F307047002070471F20E5
:1018900070474FF40040704700F57F40C030400370
:1018A000704700004303014818447047FF1FF81FAA
:1018B000402070475F2070474FF400507047000091
:1018C000054BC0F30730090241F0300100F500700C
:1018D00043F82010704700BF00300050044BC0F3A5
:1018E0000730090200F5007043F82010704700BF70
:1018F00000300050003A18BF0122003918BF012102
:1019000003688900074841EA4201186359605A6830
:1019100042F001025A60BFF34F8FBFF36F8F002078
:10192000704700BF04AAFF004B6830B513F01F05D5
:101930002DD102680C681068C0F30720844226D2BB
:101940005068556094600C7C23F01F0304F0010480
:101950001C438B7CDB0003F018031C434B7C5B00B7
:1019600003F006032343D3608B68013B23F01F047D
:10197000CB685B0003F00E03234343F001031361C4
:101980005060BFF34F8FBFF36F8F284630BD0120EB
:10199000FCE7036800205A68C9B258609960D860B3
:1019A00018615A60704770B50546002403681E68C8
:1019B000C6F30726B44201D1002070BD2146284657
:1019C000FFF7E7FF0134F5E708B501F053FB68B90D
:1019D00002F08AFB58B9074AD36823F008031B04B6
:1019E0001B0C43F0BF6343F40033D36008BD45F2E2
:1019F0002350FBE700ED00E0002070470020704717
:101A00000020704770470000BFF34F8F0549064B19
:101A1000CA6802F4E0621343CB60BFF34F8F00BF8C
:101A2000FDE700BF00ED00E00400FA052DE9F04FEE
:101A3000436887B0082B03D0022007B0BDE8F08FC1
:101A40004B68042BF8D14FF0FF33D0F80080D1F869
:101A500000A0D8F80410CAF800300029ECD02623E2
:101A60003C22012000F0B2FA05460028E4D1D8F863
:101A70000030DFF848B0DFF8489003AF5BF8046B44
:101A800099E807001E4487E807000C2239463046D3
:101A9000019302F0D5FA019B044600B91EB9013545
:101AA000052DEBD1C8E73C223146D8F8040002F0FE
:101AB00022F82046CAF80040BFE700BF68370000A0
:101AC0007C3700000346084611461BB1022B03D0A9
:101AD0000320704700F006B8FFF7A8BF72B620BF1A
:101AE000FDE7000038B543680C2B30D14B68042B60
:101AF0002DD14FF0FF3304680D6821682B6031B39E
:101B0000A26822B30623012000F060FAF8B96168E8
:101B1000104B99420DD9A2680F485318834202D93D
:101B2000F438834210D8206801F0E5FF00202860D7
:101B300038BD0A4B99420AD9A26809488B188342DA
:101B4000F1D90730814202D906488342EBD90220FD
:101B5000EEE700BFFF01FF002C02FF002F01FF0096
:101B60003801FF004C01FF00FFF7B8BF30B50C464D
:101B7000154685B038B139B1FFF746F9041E03DACE
:101B8000204605B030BD044640F60D23ADF80E30BA
:101B900009230B4901A805F00F028A5C2D091A548C
:101BA000013B012BF7D147F630030C21ADF804308F
:101BB000FFF72AF90028B4BF04462418E0E700BF65
:101BC0008837000008B51B4B83F30A881A4800F0D9
:101BD0001FFB58B9FFF7F8FE40B9FFF70DFF28B912
:101BE000FFF70CFF28B1FFF70BFF20B1FFF7BCFF99
:101BF00016E0FFF707FF00F011F935210F48FFF756
:101C000003F901221A210E48FFF7B0FF17210D48F2
:101C1000FFF7FAF818210C48FFF7F6F800F096FCE9
:101C200021210A48FFF7F0F800F0E4F800F050F83E
:101C3000002008BD00040020FC240020983700008C
:101C4000CD370000E7370000FE37000016380000EF
:101C5000F8B501F00C030C2B0CBF154605464A06DF
:101C60000C4601F008061CD58B0658BF2835AB6919
:101C700013F8027CB6FA86F35B09B3EBD71F01D0E9
:101C8000FFF772FF402F1BD0412F0FD100F0DEFD78
:101C90000446FFF7ADF821460B4800F077FC2046DC
:101CA000F8BDFFF761FF0EB9FFF75EFF202107487F
:101CB000FFF7AAF86FF08300286000F02AFFEEE734
:101CC000284600F049FCEAE7F80B0020373800000E
:101CD00041DF704770B572B6BFF36F8F1446EFF3F4
:101CE0000B855FF0000C002A1FBF8CF30B886C463D
:101CF000954683F30B880F4A0123136062B6BFF346
:101D00006F8F0E4600F0EEFD72B6BFF36F8F314657
:101D100000F0FEFD5FF0000C002C1EBF8CF30B8862
:101D2000A54685F30B88034C0025256062B6BFF3FA
:101D30006F8F70BD00250020402010EA0E0023D0D8
:101D400001B501F087F8BDE8044088421CD072B6A6
:101D5000BFF36F8FEFF309821EF020031CBF22E94F
:101D6000F00F083A80E80440B1E804401EF0200378
:101D70001CBF0832B2E8F00F0B6882F3098883F3C6
:101D80000B8862B6BFF36F8F70470000EFF30880D7
:101D90007146EFF30982EFF30B830CB406B4FFF73F
:101DA00057FF864606BC0CBC00F0080001F0080195
:101DB000401A01DC12DB70470CB41EF020031CBF7C
:101DC0002DE9F00FBDF1080D094C254626462746A2
:101DD000A046A146A246A34630B4704730BC1EF0D0
:101DE00020031CBF1DF1080DBDE8F00F06BC7047B5
:101DF000A5EDF5FE084BDA6882F07F4282F47F029F
:101E000042F48042DA6000221A765A76DA76DA777D
:101E1000602283F82220704700ED00E00F4BD3F8DA
:101E2000882042F47002C3F88820D3F88C2042F452
:101E30004062C3F88C20D3F8342242F08042C3F8C9
:101E40003422D3F8342242F03C42C3F834224FF01B
:101E5000E022D36843F42003D360704700ED00E034
:101E600080EA0000E1EE100A00EE100A00EE900A8F
:101E700001EE100A01EE900A02EE100A02EE900A3C
:101E800003EE100A03EE900A04EE100A04EE900A24
:101E900005EE100A05EE900A06EE100A06EE900A0C
:101EA00007EE100A07EE900A08EE100A08EE900AF4
:101EB00009EE100A09EE900A0AEE100A0AEE900ADC
:101EC0000BEE100A0BEE900A0CEE100A0CEE900AC4
:101ED0000DEE100A0DEE900A0EEE100A0EEE900AAC
:101EE0000FEE100A0FEE900A70470000009A164B92
:101EF0009A4227D101229043014641EC100B41EC5C
:101F0000110B41EC120B41EC130B41EC140B41ECA7
:101F1000150B41EC160B41EC170BEFF3148222F07A
:101F2000040282F31488BFF36F8F0246034604460F
:101F300005460646074680468146824683468446D5
:101F400086460447FEE70000A5EDF5FE2DE9F041C9
:101F5000044618B943F6DA30BDE8F0810029F9D01B
:101F600000254FF018088368104EC3F3802343F018
:101F700002030B6000F13007236AAB4201D8002056
:101F8000EAE7A369E26907EB830308FB02330C224B
:101F90006A4399188968090706D59B58B342D9D175
:101FA000306808B100F0CEFA0135E5E7681E002080
:101FB000EFF3148381F00201C1F3400161F30003E8
:101FC00083F31488BFF36F8F002070472DE9F04131
:101FD0000E461546002A4AD0C4074BD480F00204AE
:101FE000C4F34004A40003F00602062A4AD144F0D8
:101FF000010422462946304604F00CFEB8BB46E8F0
:1020000000F205EB0608100E120208F1FF3747E850
:1020100000F34FEA136166D51B0264D5884262D093
:1020200046E800F547E800F7FFF72FFC2D0E854244
:102030004FEA176734D3FFF72AFC874230D8284687
:10204000FFF71EFC2246C6F101010144304604F0B0
:10205000E1FD002847D00135AF4218D83846FFF7D8
:102060000DFC2246A8EB000104F0D4FDD8B30020FB
:10207000BDE8F081EFF39484A40004F0040444F07C
:102080001204B0E7990731D544F00804B1E72846B7
:10209000FFF7F4FB0646FFF7FCFB22460146D5E7B7
:1020A000FFF706FC85421ED3FFF704FC87421AD8CF
:1020B0002846FFF7F7FB2246C6F1010101443046EE
:1020C00004F0A8FD78B10135AF4203D83846FFF7D8
:1020D000E3FBC6E72846FFF7DFFB0646FFF7ECFB0E
:1020E00022460146EBE76FF07F00C1E74CF2DA20B1
:1020F000BEE70000F0B53B4C87B03B48FFF753FC10
:10210000236801255A1C0193384B2260DA681B6949
:102110004FF4407603930023334801A902920495BB
:10212000ADF814608DF81630FFF7FEFB18B143F6DA
:10213000DA3007B0F0BD23688DF816005A1C019301
:102140002B4B294802932B4B01A9CDE90335226083
:10215000ADF81460FFF7E8FB0028E8D123688DF89C
:1021600016005A1C0193244B1F480293234B01A9CC
:10217000CDE903352260ADF81460FFF7D5FB0028E8
:10218000D5D1022740F2011623688DF816005A1C9B
:1021900001931B4B144802931A4B01A9226003932D
:1021A0000497ADF81460FFF7BFFB0028BFD1236888
:1021B0008DF816005A1C0193134B0B480293134BD6
:1021C00001A92260CDE90337ADF81460FFF7ACFB3D
:1021D00004460028ABD12A4629460348FFF78AFB6C
:1021E0002046A6E704250020641E0020A838000031
:1021F000E0380000E06E00004007000040070000EB
:10220000200C0020400C0020000C0020200C00209E
:1022100010B5044600F0A0F800F0AEF810B143F697
:10222000DA3010BD00F0D4F80028F8D1FFF762FFD3
:102230000028F4D102232360F3E7884206D0830705
:1022400006D581F00200C0F34000704700207047BF
:102250000120704710B5124C20211248FEF7D4FD22
:10226000D4F800311BB10E210F48FEF7CDFDD4F894
:1022700008311BB111210D48FEF7C6FDD4F8043119
:102280001BB110210A48FEF7BFFDFFF785FABDE834
:1022900010400822074BC3F88021FFF765BC00BF40
:1022A00000300050573800007738000085380000B3
:1022B0009638000000E100E07046EFF30881EFF38C
:1022C00009820523FEF7F4FBFFF7C4FFFEE70000D9
:1022D0000020034BD8765A6A42F470225A62704743
:1022E00000ED00E00349044BCA68002092B213439A
:1022F000CB60704700ED00E00800FA050020704751
:1023000000224FF0FF300D4B02F1A0010132102AE4
:1023100043F82100F8D1D3F88022002022F00802EF
:10232000C3F88022D3F88022D3F8802222F480726E
:10233000C3F88022D3F88032704700BF00E100E08C
:1023400008B5FFF721FA0822024BC3F880211A6072
:10235000002008BD00E100E0064BD3F8D02022F0B9
:102360000102C3F8D020D3F8D02042F00202C3F813
:10237000D020704700ED00E037B50125104CFFF785
:102380001DFAD4E90101072300220095FFF72EFA78
:10239000072300220B490C480095FFF73DFA2169FD
:1023A000E0680139FFF752FA072300224FF4782042
:1023B00006490095FFF71AFA002003B030BD00BFB0
:1023C000A8380000FFFF032000800020FF9F0F00BF
:1023D00010B500214048FFF781FA00214FF050204E
:1023E000FFF77CFA00213D48FFF778FA00213C48CE
:1023F000FFF774FA00213B48FFF770FA00213A48D2
:10240000FFF76CFA00213948FFF768FA00213848D5
:10241000FFF764FA00213748FFF760FA00213648D9
:10242000FFF75CFA00213548FFF758FA00213448DD
:10243000FFF754FA00213348FFF750FA00213248E1
:10244000FFF74CFA00213148FFF748FA00213048E5
:10245000FFF744FA00212F48FFF740FA00212E48E9
:10246000FFF73CFA00212D48FFF738FA00212C48ED
:10247000FFF734FA00212B48FFF730FA00212A48F1
:10248000FFF72CFA294C00212948FFF727FA0021F1
:102490002848FFF723FA20460021FFF71FFA002102
:1024A0002548FFF71BFA00212448FFF717FA002000
:1024B0000122234BC3F88004C3F88424C3F8C0046A
:1024C000C3F8C42440F20112C4F840254FF48072CE
:1024D000C3F8402410BD00BF0040005000900050E1
:1024E00000A0005000B0005000E0005000F000508C
:1024F00000000150001001500040015000500150F8
:10250000007001500080015000B0015000C0015027
:1025100000D0015000E0015000F0015000000250D6
:102520000010025000200250003002500090035072
:102530000040025000A002500025845000A003502B
:10254000003000500121FFF7BBB900000122014B10
:102550001A6070470825002010B50446094B2289EF
:102560001B6861685868062350F8140CFFF72EFDAD
:1025700028B9054B1B68012B01D100F023F9032377
:10258000236010BDE02900200825002004460D46E8
:10259000FFF766FCA5462847036923B119604FF091
:1025A000EE334361704703689962704704484FF007
:1025B00080510160BFF34F8FBFF36F8F70470000F2
:1025C00004ED00E02DE9F84304461E460068114B77
:1025D0009046A268A0F1080540E9023350389042C5
:1025E0000F4601D2FFF7C0FAA5F1480948220021A1
:1025F000484601F0A5FA4FF0807345F8043C6FF0AF
:10260000020345E9036745F8208CC4E90093BDE85F
:10261000F88300BFA5EDF5FE836883F30B8803689C
:10262000283383F30988406870470000054A13681F
:10263000013303F007031360034A0133801A03EBED
:10264000C00070470C2500201025002018B1024B57
:10265000013803EBD00070471025002010B5064864
:1026600000F068FC044628B18022002101F068FADD
:1026700000232360204610BD10250020014608B528
:10268000044800F068FC00280CBF6FF0FC0000203C
:1026900008BD00BF10250020014610B5EFF31084DF
:1026A00072B6034800F051FC84F3108810BD00BFDF
:1026B00010250020F0B50346EFF3108672B6002413
:1026C000426C00F14405204662B940B10568012C16
:1026D000EA6F0260284602BF5A698A435A6186F34C
:1026E0001088F0BD97683F687F698F4204BF284615
:1026F000013402F17C05D26FE6E7000030B5094CE9
:10270000024661680023084640B105686D6895423D
:1027100005D11BB1826860609A60816030BD03465C
:102720008068F1E7BC29002003689A68DB6812F42E
:10273000806F05D18B422CBF00206FF0FA007047EC
:102740008B420CBF00206FF0FA00704738B504468A
:102750002AB10B689B68DB0515D5002038BD0C4BF2
:102760001B685D681C2D01D1FFF7FEF9002255F8AA
:102770001C3C99692C338A4203D053F8040FA042C1
:1027800004D19142E9D16FF0FC00E7E70132F2E7B2
:10279000E0290020F8B504461E460F4615460021E4
:1027A0002C220C3001F0CCF9054BA7601B685B684C
:1027B000C4E903651C3B6360069B6361F8BD00BF11
:1027C000E0290020064B1B685B681C2B04D053F8E3
:1027D0001C3C0BB1586870474FF0FF30704700BF8A
:1027E000E029002010B5FFF731FF0446FFF746FF50
:1027F00050B9FFF7E7FFA3685B681B685B6883421B
:1028000018BF0024204610BD0024FBE7064B10B57E
:102810001B685C681C2C01D1FFF7A6F954F81C3C1E
:102820009868C0F3802010BDE029002038B5054627
:1028300048B100F00FFCB5EBD07F044601D0FFF7A4
:1028400093F9204638BDFFF7BDFFF4E72DE9F041CD
:102850000823802240F22C41154800F03DFB002364
:10286000144E154F73607B6000F0F8FBDFF84C806E
:10287000304600F083F80446A8B13946802342462A
:1028800000F0E4F80546204600F042F9206804F123
:102890000801FFF75BFB08B1FFF766F92946204600
:1028A00000F004FAE4E7BDE8F04100F06FBA00BFC1
:1028B00010250020CC290020BC2900203C29002024
:1028C000002330B500F12802C0F1040452F8041BC3
:1028D00021B1816F54F8125019444D600833202BF8
:1028E000F4D130BD084B094A1B6810B55B6804463B
:1028F00019615A61D1E90223D1E90001A0470446D8
:1029000000F007F9204610BDE0290020EDEEEEEEC4
:1029100010B5094C23685B685A69084B9A4208BF96
:10292000086000F033FB2368834203D0BDE8104009
:10293000FFF73CBE10BD00BFE0290020EDEEEEEE3B
:1029400070B505460C46EFF30583C3F308030BB1DE
:10295000FFF70AF9084B1A689368A34202D2D168BC
:10296000A14206D2126821462846BDE87040FFF712
:10297000B1B900231A46F6E7C8290020F8B5054684
:1029800008B9FFF7F1F82C4E346814F1290F50D82C
:102990002A4B196804F128038B424AD2D4E9063243
:1029A00006200C3300FB0233226A02EB420213447E
:1029B000626A02EB820213449B00E31801D299423F
:1029C00001D2FFF7D1F823681D4A1B0C1B04934268
:1029D00001D0FFF7C9F82388B3F5817F01D3FFF752
:1029E000C3F86368002B01DAFFF7BEF8154A1768D1
:1029F00007F14C031360144A1268934201D9FFF7A0
:102A0000B3F8D4E9063206210C3301FB0233226A03
:102A10003C6002EB42021344626A02EB82021344FE
:102A2000326802EB83026B683260BB646F603846C9
:102A3000F8BD0027FBE700BF781E0020CC3800005F
:102A400000005F5F741E0020C83800002DE9F04FC1
:102A500085B0884691460746029300B109B9FFF751
:102A600083F8D7F800A0DAF818100AF1300303EB66
:102A700081030193DAF81C40234B1D6854B10C21EB
:102A800001FB04541C60214B1B689C4201D9FFF7D9
:102A90006BF82C4600262546B346DAF81C305B4519
:102AA00000D91CB9304605B0BDE8F08F1822019B53
:102AB00002FB0B310023AB604B69C5E900171E43D5
:102AC0008B689A0516D5B9F1000F02D0029A802AB8
:102AD00003D00393FFF748F8039B13F0E00FD9B23C
:102AE00002D159F821301BB10391FFF73DF803994A
:102AF00049F82150D8F804300BF1010BAB60C8F84D
:102B000004500C35C9E700BF701E0020C438000017
:102B100070478230012808B506D8FFF777FE18B94C
:102B2000BDE80840FFF720B808BD0020704700004E
:102B30000C4B70B51B6804465D680E4655F8103C9A
:102B40001C3D1BB1034201D1FFF70EF8002E05DA40
:102B500021462846BDE8704000F03AB96869204037
:102B600070BD00BFE029002070B50E46044610B1CC
:102B7000431E034201D0FEF7F7FF134B2C221B68C4
:102B800031465D68062355F8140C1C3DFFF71EFA0C
:102B900008B1FEF7E9FF6B690BB9FEF7E5FF6B695A
:102BA000234201D1FEF7E0FF21462846FFF782FDD0
:102BB00038B100F10C012C22304600F09CFF0020BF
:102BC00070BD6FF08B00FBE7E0290020F8B50646EA
:102BD0000D46FFF707FE044608B9FEF7C5FFA768D4
:102BE0000FB9FEF7C1FFE368991C20D05A1C21D110
:102BF000A5B315F1820F13D102232360EFF31086E2
:102C000072B62946204600F01CF9054686F3108866
:102C10002368022B24D12046FFF73EFD2846F8BD4D
:102C200015F1830FEAD0FEF79FFF0025E6E70223A8
:102C30002360FAE7002BF6DB2046FFF741FE3B68F6
:102C40009B689B0501D50223236015F1810FD5D127
:102C50006369002BD2DBFEF787FFCFE73546F4E749
:102C600000232360DAE7FEF739BF30B543684478C4
:102C70001C3BEFF3108572B618695A6902400FD0F9
:102C8000022A08BF5A694FF0050002BF22F0020273
:102C90005A611A6C0A6000221A6185F3108830BDEF
:102CA00000280CBF20460220F7E70000C368026836
:102CB0000B432DE9F041C36004460020936A11697B
:102CC0006064194407332062E06221F007019068D4
:102CD00023F00703C4E90931284B10F4007623637D
:102CE00014BF0C23D369264D04BF9B000C3307335C
:102CF00023F00703CB1A9769D168E3615D60002573
:102D000019609D6066B902F1300505EB87054FF04B
:102D1000180ED769324603F10C0C97421CD19F6004
:102D2000A361002384F8340000F4406004F11C0225
:102D3000B0F5406F84F83530E386A26314D0114DAE
:102D40009E4218BF0D46294604F134006FF001027F
:102D5000BDE8F04100F04EB90EFB0258D8F81080E3
:102D600001324CF8048BD8E7074B064D1A60002E51
:102D700018BF0D4600F0A6F90346E4E7EDEEEEEECF
:102D8000186D000061400000C829002038B50C48CB
:102D90000C4D00F0F5F80C4B0C4A28461A6000F078
:102DA0004BF92B6804465B6853F8141C53F81C0C51
:102DB000FFF7FEF808B1FEF7D7FE204638BD00BF8A
:102DC0006B2C0000E0290020C4290020000C00200A
:102DD00038B50D46044608B9FEF7C6FEEFF310837A
:102DE00072B66069284008BF256183F3108838BD3A
:102DF00038B50D46044608B9FEF7B6FEEFF310826B
:102E000072B663692B43636182F31088002038BD7A
:102E100010B50C4691B188B103687BB1406868B1C8
:102E20005969436CE3674464FFF7E2FF022160687D
:102E3000FFF7CEFF01230020236010BD6FF080005C
:102E4000FBE708B5406801640221FFF7D1FF0020CD
:102E500008BD00002DE9F84300F098F81B4F044628
:102E60003B68A0F134065D68194B29461B68012BAD
:102E700023D010B3A5F11C08B0451ED0EFF3098292
:102E8000AB682833934201D9FEF76EFEEFF3108949
:102E900072B6B168D8F80800FFF7CFF938B1B16859
:102EA00054F8340CFFF784F808B1FEF75DFEB0EE7D
:102EB000400A61683C6089F31088064B1B6813B1B7
:102EC000B26902B11A602846BDE8F883E029002003
:102ED00000250020C42900202DE9F8430D4617469F
:102EE0001E46044618B313B302F1040903FB09F8A4
:102EF00008F10C038B421AD10A46002100F020FE93
:102F0000002004F10C031A46014601318E42106084
:102F100002EB090C104608D10020A8EB0908434435
:102F2000C4E90037A560BDE8F8836246EDE76FF0BD
:102F3000F800F8E7034638B1006828B102681A6063
:102F4000002340F8043B7047704702680B1F41F8AC
:102F5000042C0360704700F10C0399420DD3C91A89
:102F600083688B4209D943680433B1FBF3F203FB56
:102F70001210031F5842584170470020704700004C
:102F8000014B1860704700BFD42900200D4B37B5A6
:102F90001C6800230C4D01936CB120462B6801A9DD
:102FA0009847C0B20528607008D101996068FFF7A2
:102FB000F3FA01236370204603B030BD0128FAD034
:102FC000A468E9E7D8290020D4290020C9B2012942
:102FD000064B417005D11A682AB1017812789142E6
:102FE00001D3034A10681860704700BFD829002039
:102FF000DC290020F8B50F4E0446306815461A4605
:1030000018B1237807789F420BD3A06034606068C2
:103010002B46FFF7D7FA2046BDE8F8400121FFF71D
:10302000D5BF0646806810B107789F42F9D3A060EB
:10303000B460ECE7DC29002038B50546FFF7A6FFB1
:103040000446FFF7B3FA05B12C606068BDE838406C
:10305000FFF7E2BA4FF0FF307047000008B500F00C
:1030600025F8034B986000F027F880F3888808BDA6
:1030700000ED02E008B5FFF72BF910B143F6DA30A6
:1030800008BDFFF72FF90028F8D1FFF737F900281E
:10309000F4D162B6FDF796FEFFF732F90028EDD1C4
:1030A000FFF74EF90028EBD0E8E70000014B186865
:1030B000704700BFA8380000014B1B6818687047B4
:1030C000A8380000014B1B6858687047A8380000FA
:1030D0002DE9F04F0E4699B0049304469146FFF750
:1030E00095FB794B07461B68C6F307255B68A3F180
:1030F0001C08F3B203933314059304D56FF08000DA
:1031000019B0BDE8F08F039BEB18042BF6D8002C08
:10311000F4D0FFF78BFB63000690EFD56B4B04F008
:103120001F0253F82260002EE8D033683A46314639
:103130005868FFF70BFB002840F0BF803046C4F30F
:103140000721FFF7F1FA0028D8D1EFF3108772B604
:10315000FFF784FA044687F31088002800F0B08057
:10316000FFF764FA4FEAC50A079002235246494620
:10317000D8F80800FEF72AFF0028BFD1039B049966
:10318000DB000293029A0623D8F80800FEF71EFF20
:1031900007460028B2D1202200210DEB020000F0EA
:1031A000CFFC2022002110A800F0CAFC524649465C
:1031B00008A800F0A0FC0DF1200A029A049910A8BA
:1031C00000F099FCD3464FF00009A9452ED100220A
:1031D00008AB013295424CD80DF14009CB46039B18
:1031E0009F4249D1069B2046079A00933146059B92
:1031F000FFF7D0FA224604EB850504F114031435D9
:10320000C4F10800AB420AF1080A43D10025029B31
:1032100004F1240123449A4209F1080943D1049B93
:1032200021463046A367FFF7F3FD69E7DBF804208A
:1032300002235BF8081BD8F80800FEF7C7FE002839
:103240007FF45CAF09F10109BFE7D1F80890C868C5
:10325000D3F800C04844844504D258688444E1450A
:10326000FFF44CAF0EF1010E0831AE45EDD108333D
:10327000AFE719469646F8E7DBF8042006235BF82B
:10328000081BD8F80800FEF7A1FE00287FF436AF2F
:103290000137A4E75AF8041C43F8041F5AF8081C25
:1032A00040F81310AEE759F8040C41F8040F59F830
:1032B000080CC2E916050832ADE76FF081001FE780
:1032C0006FF082001CE700BFE02900203C290020AD
:1032D00040F20110704770B50546FFF797FA0646B1
:1032E0002846FFF70BFA044608B9002070BD0146D6
:1032F00032462846FFF72AFA0028F6D12368D86814
:10330000F4E700002DE9F04799461C4B0E461B6878
:103310009046D3F804A0FFF765FA044608B9FEF713
:1033200023FCE368002B01DAFEF71EFC032E01D913
:10333000FEF71AFC04EB8607BD69DDB106234A4699
:1033400041465AF8140CFEF741FE08B1FEF70CFC9A
:10335000BB694D46994528BF1D4604EBC6042A4665
:103360004046A16B00F0C7FBA36B2B44A363BB6972
:103370005B1BBB612846BDE8F08700BFE029002049
:1033800070B50E461546FFF72DFA044608B9FEF74C
:10339000EBFBE368002B01DAFEF7E6FB032E01D915
:1033A000FEF7E2FB04EB8601886958B185422A46A4
:1033B00028BF024604EBC604A36B801A1344A36320
:1033C0008861104670BD00002DE9F8431D461B4B77
:1033D0000F461B6890465B68A3F11C09FFF702FAD1
:1033E000044608B9FEF7C0FBE368002B01DAFEF7DC
:1033F000BBFB032F01D9FEF7B7FB04EBC70604EBB9
:103400008704A36AF26D9B1AAB4201D2FEF7ACFBB4
:1034100002232A464146D9F80800FEF7D7FD08B135
:10342000FEF7A2FBD6E916032A461844414600F0EF
:1034300062FBF36D2B44F365BDE8F883E0290020BF
:10344000000001464154414C204552524F523A200F
:10345000005365637572654661756C740D0A0048AA
:103460006172644661756C740D0A004D656D4D6145
:103470006E616765206661756C740D0A0042757334
:103480004661756C740D0A00557361676546617518
:103490006C740D0A00506C6174666F726D20457813
:1034A00063657074696F6E0D0A00556E6B6E6F7791
:1034B0006E0D0A004865726520697320736F6D6533
:1034C00020636F6E7465787420666F72207468650F
:1034D00020657863657074696F6E3A0D0A0020206C
:1034E00020204558435F52455455524E20284C5297
:1034F000293A200020202020457863657074696F88
:103500006E2063616D652066726F6D002073656368
:1035100075726520465720696E00206E6F6E2D73A0
:10352000656375726520465720696E002074687265
:10353000656164206D6F64652E0D0A002068616E00
:10354000646C6572206D6F64652E0D0A002020206A
:1035500020785053523A2020202000202020204D57
:1035600053503A202020202000202020205053506B
:103570003A202020202000202020204D53505F4E54
:10358000533A202000202020205053505F4E533AC1
:1035900020200020202020457863657074696F6EBC
:1035A000206672616D652061743A20002020202021
:1035B000202020284E6F7465207468617420746820
:1035C0006520657863657074696F6E206672616DE1
:1035D00065206D617920626520636F727275707409
:1035E000656420666F7220746869732074797065F1
:1035F000206F66206572726F722E290D0A002020DE
:1036000020202020202052303A202020002020207E
:10361000202020202052313A20202000202020206D
:103620002020202052323A2020200020202020205C
:1036300020202052333A202020002020202020204B
:1036400020205231323A202000202020202020202B
:10365000204C523A20202000202020202020202012
:1036600050433A20202000202020202020202078B5
:103670005053523A200020202020434653523A20F3
:10368000200020202020424653523A2020002020B3
:103690002020424641523A2000202020204246412C
:1036A000523A20204E6F742056616C69640D0A00F6
:1036B000202020204D4D4653523A2000202020202B
:1036C0004D4D4641523A2000202020204D4D46418C
:1036D000523A204E6F742056616C69640D0A0020C6
:1036E000202020554653523A2020002020202048F8
:1036F0004653523A20200020202020534653523A6D
:1037000020200020202020534641523A2000202033
:103710002020534641523A204E6F742056616C6906
:10372000640D0A000D0E00002D0E0000A91000000F
:1037300025110000550E00002D0F0000790E00002D
:10374000310E0000610E00006D0E0000310F000010
:10375000370E0000430E0000490E00000302020273
:103760000338FDD870470000000000000002000090
:10377000000400000008000000100000DEE61E2823
:103780004CBBCE8F025B00003031323334353637DC
:1037900038394142434445461B5B313B33346D5B12
:1037A000536563205468726561645D205365637579
:1037B000726520696D61676520696E697469616C05
:1037C000697A696E67211B5B306D0D0A0054462DC6
:1037D0004D2069736F6C6174696F6E206C657665DE
:1037E0006C2069733A200054462D4D20466C6F6161
:1037F00074204142493A20486172640D0A004C61CC
:103800007A7920737461636B696E6720656E61629B
:103810006C65640D0A001B5B313B33346D426F6F86
:1038200074696E672054462D4D2076312E382E3027
:103830001B5B306D0D0A00556E6B6E6F776E2053FB
:103840005643206E756D6265722072657175657381
:10385000746564210D0A00506C6174666F726D208E
:10386000457863657074696F6E3A205350552046F1
:1038700061756C740D0A00202052414D414343454F
:1038800052520D0A002020504552495048414343AE
:103890004552520D0A002020464C415348414343B3
:1038A0004552520D0A000000008000000080000018
:1038B000FF7F0F00007C00000080000000800F00F0
:1038C000FF9F0F005C200020442000204C020000DD
:1038E000009A1F4B9A4208D110B500F049F900F038
:1038F000BDF806BC96460C4674470FDFFEE7009AFB
:10390000174B9A4208D110B500F042F900F0AEF81A
:1039100006BC96460C4674470FDFFEE70CB4029ACD
:103920000F4B9A4209D10CBC10B500F039F900F0E8
:103930009DF806BC96460C4674470FDFFEE7009ADA
:10394000074B9A4202D10749086874470FDFFEE728
:10395000009A034B9A4200D174470FDFFEE7000044
:10396000A5EDF5FE201E00200348044B834202D043
:10397000034B03B118477047601F0020601F0020F1
:10398000000000000548064B1B1AD90F01EBA301EC
:10399000491002D0034B03B118477047601F002045
:1039A000601F00200000000010B5064C237843B9CA
:1039B000FFF7DAFF044B13B10448AFF30080012393
:1039C000237010BD5C20002000000000D06E0000BD
:1039D00008B5044B1BB104490448AFF30080BDE8AF
:1039E0000840CFE70000000060200020D06E0000FB
:1039F000A3F5803A704700BF174B002B08BF134B4D
:103A00009D46FFF7F5FF00218B460F461348144AE9
:103A1000121A00F095F80E4B002B00D098470D4B72
:103A2000002B00D098470020002104000D000D4815
:103A3000002802D00C48AFF3008003F0ADF820005E
:103A40002900FEF7BFF803F093F800BF000008005C
:103A50000000000000000000F80B0020601F0020A4
:103A60004C3A00200000000000000000002383F317
:103A700000887047FEF778B87046EFF30881EFF3DF
:103A800009820123FDF714F8FFF7F4FFFEE7FEF7C4
:103A90006BB87046EFF30881EFF309820223FDF75C
:103AA00007F8FFF7F4FFFEE7FEF75EB87046EFF3A6
:103AB0000881EFF309820323FCF7FAFFFFF7F4FF15
:103AC000FEE7FEF751B87046EFF30881EFF3098285
:103AD0000023FCF7EDFFFFF7F4FFFEE7FEF744B825
:103AE0007046EFF30881EFF309820423FCF7E0FF4F
:103AF000FFF7F4FFFEE770B504463AB141EA04036C
:103B000013F003030CD1D518032D0FD822F00303B3
:103B10001C441944002302F0030293420CD170BDEF
:103B200011F8013B013A04F8013BE6E7CD1A2E6893
:103B3000E51A2E60043BE6E75D5CE5540133ECE7F3
:103B40000346F0B5C9B252B9940803EB8404134498
:103B5000A34211D1F0BD03F8011B013AF3E79C0722
:103B6000F9D14FF0013514464D43D618032CEBD94B
:103B7000371B3D60043CF9E704F8011BE8E700004F
:103B8000024B1B685B689B68184700BF000C002055
:103B9000024B1B685B685B68184700BF000C002085
:103BA00010B4044C246864682468A4465DF8044B8F
:103BB000604700BF000C0020024B1B685B68DB689D
:103BC000184700BF000C0020024B1B685B681B6994
:103BD000184700BF000C002010B4044C246864682F
:103BE0006469A4465DF8044B604700BF000C0020E8
:103BF00010B4044C24686468E469A4465DF8044B7E
:103C0000604700BF000C0020024B1B685B681B6A0A
:103C1000184700BF000C0020024B1B685B685B6A02
:103C2000184700BF000C00200020704701680E4AB2
:103C30000346914215D1C169A2F11022A2F1EF12FF
:103C400091420ED18268012A0BD8C26812B1016973
:103C50008A4206D0586928B19B691B1A58425841BC
:103C600070470120704700BF55AA00FF0D4B70B58B
:103C70009E68A6B13046FFF7D9FF044678B9F368CD
:103C80006BB935690DB9204670BD2846FFF7CEFFE8
:103C900028B9EB68B34202D12E462D69F2E7012420
:103CA000F1E700BFE42900202DE9F041394E3468E6
:103CB000F368D4B1B468C4B1002861D000295FD0E2
:103CC00001FB00F5B5FBF0F0884259D1291D57D80A
:103CD000AA070DD025F0030204321C4603E06168F8
:103CE00091424FD2A469002CF9D12046BDE8F08161
:103CF0002A46F2E7891A232904F12007D4E9050CA2
:103D00001AD80123A360A0B1C0F818C0A36903B1F9
:103D100058610023C4E905333369DB0702D5FFF797
:103D2000A5FFA0BB2A46002138463C46FFF708FF06
:103D3000DBE7C6F80CC0E9E702F1200804EB080352
:103D40002039C3E9011E2169DFF84CE0DC6019610C
:103D500044F808E0AEF1102EAEF1EF1EC3F81CE0FF
:103D600001B1CB60C3E9050C40B18361996901B130
:103D70004B6101212361C4E90121CAE7F360F5E742
:103D80000024B2E7D4F808E0BEF1000FB2D0012061
:103D900002F0EEFEE429002055AA00FFF8B5054622
:103DA00000283AD0364E3368002B36D0B268002A4D
:103DB00033D0834203D872681344984202D301205F
:103DC00002F0D6FEA0F120042046FFF72FFF0028C6
:103DD000F5D155F8183C012BF1D145F8180C55E9EF
:103DE0000570DFB1BB68CBB955F81C2C7B6820325D
:103DF00013447B60386100B1C76020220021204657
:103E0000FFF79EFE386908B183682BB333699B07BF
:103E100003D5FFF72BFF0028D1D1F8BD40B383684D
:103E200033BB426863681344203363600369D4E999
:103E30000521236192B9B9B9426981696261A161C1
:103E4000A2B19461A26902B1546103B1DC60202285
:103E50000021FFF775FED9E73C46E2E79161A169D1
:103E60000029E9D04A61E7E7F160F8E7F460E9E7A3
:103E7000F36845F8083C03B15C61F460C6E700BF35
:103E8000E429002038B50D461422002104461248CA
:103E9000FFF756FE1149124800F030F8232D1AD9C9
:103EA00014F003031FBF043DED18C3F10403E4182D
:103EB0002A4600212046FFF743FE074B094AC3E983
:103EC00000459C602260A2F11022203DA2F1EF1279
:103ED0006560E261DC6038BDE42900209D3D0000A2
:103EE000A93C000055AA00FF002070477047000061
:103EF000014B1B68184700BF7C1E0020024B186056
:103F0000024B002019607047801E00207C1E00209C
:103F100010B50446406A10B1A16A00F063F9606A06
:103F2000FFF7E6FF0020C4E9090010BD38B50446DC
:103F3000FFF7EEFF236A2C22012B0CBF05466FF022
:103F4000960500212046FFF7FBFD284638BD0000FE
:103F5000054B0A461978C90703D50146181D00F01C
:103F60005CB86FF088007047F829002010B5074C46
:103F700000F038F8204600F061F8201F082100F01A
:103F800031F9BDE8104000F045B800BFFC29002021
:103F900038B50D4D2B78DB0710D4281D00F03BF809
:103FA000044670B900F012F8044650B900F030F839
:103FB000044630B92B7843F001032B7000242046CF
:103FC00038BDFFF7D3FFFAE7F8290020044A0020A4
:103FD00092F8803543F0010382F88035704700BFC6
:103FE000002A0020F8B5094C202526460127204646
:103FF0002762FFF79BFF013D04F12C04F7D196F8EF
:10400000803565F3000386F88035F8BD002A00206E
:10401000FCF71CBB70470020704713B5002001ABB4
:10402000144600F0B3F830B9019BA34218BF6FF0FB
:10403000930002B010BD6FF09200FAE700207047C5
:104040000346002030B5013A00D230BD1D780C780F
:10405000A54202D008B9281BF5E701330131F2E788
:104060002DE9F04F01251F4B8DB0D3F80090D9F802
:104070000820D9F800309540013D1BB1984708B1A0
:10408000FFF7CAFD4FF0010A4FF000412846FFF745
:1040900093FD0026044609F10C07002CF4D0D9F852
:1040A0000830B34202D8FFF7B7FDEDE70AFA06F889
:1040B00014EA080F12D03B680BB9FFF7ADFD01A958
:1040C0004046FFF781FD3B6801A8DDF808B098473E
:1040D00001465846FFF798FD24EA080401360437E4
:1040E000DBE700BF000C002010B50C4C236813B1B7
:1040F0000B4B1B682BB900F059FD30B90122084B5E
:104100001A6001232360002010BD0138062801D960
:10411000044810BD044B53F8200010BD882F002028
:10412000842F0020FE8FFFFF446D0000144B2DE90B
:10413000F043002814BF04461C46124F236883B086
:10414000BB4219D016460D4620464FF4E07104F1EB
:10415000040900F047F804F58E78484600F010FC9A
:10416000404600F035FA2B464A464046064900963E
:1041700000F044FA08B92760002003B0BDE8F083DE
:104180008C2F0020A5BCC95A054A000070B50D4C03
:104190001D46002814BF064626460B4B306882B0E9
:1041A00098420DD106F58E700026334600961446CF
:1041B00000F072FA002818BF34462C6002B070BDBF
:1041C0000248FBE78C2F0020A5BCC95AE88FFFFFEF
:1041D00038B131B1002201440346013081421A70E6
:1041E000FAD1704738B131B10022014403460130A1
:1041F00088421A70FAD170472DE9F04FB2F5C07FAE
:10420000B5B000F2D680DFF8B49114460D464FF4F5
:10421000D07200210DF15C0807464846FFF790FC7C
:10422000404601F0EFF90023A9F810302023294679
:1042300009F11805224689F81730284663BAA9F80B
:104240001230FFF758FC80225B4B4046079303F186
:104250000433089303F1043309932A5503F104331B
:1042600007A90A9301F0E4F9824600287ED10FAD38
:1042700004F119032C460BAE0293039701960495A3
:10428000102200210198FFF75BFCDFF834B1DDF864
:1042900008A005940E9B5BF8044C5BF80C7C0B9912
:1042A0005BF8100C5BF8085C5C40019BDDE90C627C
:1042B0007E40554081EA00071A4601214046CDE97B
:1042C0000B76CDE90D5401F0CDF9BAF1100F94BF82
:1042D000AAEB0A0AAAF1100A0BF1100B002863D10D
:1042E000BAF1000FD6D1059C102220460199FFF7A4
:1042F00002FC99F8033010340133A04589F80330EB
:10430000BED1049D802229464046039F019E01F0B4
:104310008FF9824660BB3C4607F1200913AB1A4671
:104320000121404601F09EF9824608BB102220463A
:1043300013A91444FFF7DFFB4C45EFD1404601F0D1
:1043400071F94FF4D0711D48FFF74CFF284620212A
:10435000FFF748FF07A81021FFF744FF3046102160
:10436000FFF740FF504635B0BDE8F08F0FAD0BAE04
:10437000404601F057F94FF4D0711048FFF732FF73
:1043800028462021FFF72EFF102107A8FFF72AFF5C
:1043900010213046FFF726FF20213846FFF722FF85
:1043A000504635B0BDE8F08F8246039F019E049DC4
:1043B000DEE76FF0370AF3E7000102034C3100201B
:1043C0005C3100202DE9F04188B004460D462022E2
:1043D000002168466F46FFF7B3FB04F12006E27B3D
:1043E0000132D2B2E273002A4DD1A27B0132D2B2A5
:1043F000A273002A47D1637B0133DBB26373002BC6
:1044000041D1237B0133DBB22373002B3BD1E37A11
:104410000133DBB2E372002B35D1A37A0133DBB277
:10442000A372002B2FD1637A0133DBB2637253BBCB
:10443000237A0133DBB223722BBBE3790133DBB286
:10444000E37103BBA3790133DBB2A371DBB96379F9
:104450000133DBB26371B3B923790133DBB223716A
:104460008BB9E3780133DBB2E37063B9A37801332E
:10447000DBB2A3703BB963780133DBB2637013B96D
:104480002378013323703B4622460121304601F058
:10449000E9F8804650BB103708AB9F429FD1029A83
:1044A000AB68039F534002933046EE6807997E4005
:1044B0000396049F2E69009B7E4004966E69059FBB
:1044C00080227E400596069FAE697E400696EE6984
:1044D0007140079129684B40009301996B684B40EC
:1044E0006946019301F0A4F8804638B1684620215E
:1044F000FFF778FE404608B0BDE8F0811022204664
:104500000DEB0201FFF7F7FAF0E700BF2DE9F843E2
:104510001D468369B3F5C07F52D81646C3F5C072F5
:10452000AA424DD3C5F5C072D31AB34248D304464C
:10453000DFF898904FF4C0720F4648460021FFF70D
:10454000FFFA4946D4F89430A269D4F89800984705
:10455000002838D1D4F818803DB1D4E925302A4656
:1045600009EB0801984770BBA84407B1C6B91749C1
:1045700042460846FFF740FE054638B14FF4C07189
:104580001248FFF72FFE2846BDE8F88320460F4962
:10459000FFF718FF05460028F0D101232361EDE75E
:1045A0003946324609EB0800FFF7A5FA0749B0443F
:1045B00042460846FFF720FE05460028DED1E5E723
:1045C0006FF03705DFE76FF03305DCE7EC320020F2
:1045D00010B5A42200210446FFF7B2FA4FF0FF31D4
:1045E0004FF6F072044B2161E26104F19C001B68FC
:1045F000BDE81040184700BFA41E00202DE9F0437D
:10460000054685B00F461646002110226846994699
:10461000FFF796FA1E4B05F19C0840461B68984729
:1046200020B10446204605B0BDE8F08305F1200422
:10463000204600F0E7FFAA69C5E92576EAB92023FC
:104640002E69AB61002E20DB20466946802200F0F7
:10465000EFFF044630B93346494628460C9AFFF727
:1046600055FF04460B4B40461B689847002818BF6F
:104670000446204605B0BDE8F0832E69002EE3DA3B
:10468000172A02D801325608DEE70026DCE700BF11
:10469000A01E00209C1E00202DE9F04FB2F5806F77
:1046A0008DB0169F00F2E380B7F5807F00F2DC80CA
:1046B000044615460E462022002104A89846FFF71E
:1046C0003FFA6C4B04F19C0948461B6898478346A7
:1046D000002840F092802269E3699A4200F39180B9
:1046E0006369002B40F08D80002F40F0A980DFF837
:1046F00088A16F46002D00F098806F4604F12008D5
:104700000EE0102DAB4628BF4FF0100B3046394657
:104710005A46FFF7F0F9B5EB0B055E4400F08580D3
:10472000E37B0133DBB2E373002B4DD1A37B013379
:10473000DBB2A373002B47D1637B0133DBB263731E
:10474000002B41D1237B0133DBB22373002B3BD100
:10475000E37A0133DBB2E372002B35D1A37A013364
:10476000DBB2A372002B2FD1637A0133DBB2637209
:1047700053BB237A0133DBB223722BBBE3790133C2
:10478000DBB2E37103BBA3790133DBB2A371DBB905
:1047900063790133DBB26371B3B923790133DBB2DF
:1047A00023718BB9E3780133DBB2E37063B9A3788B
:1047B0000133DBB2A3703BB963780133DBB26370C2
:1047C00013B92378013323703B462246012140462A
:1047D00000F048FF8346002893D0DAF800304846BE
:1047E00098470346202104A8002B18BF9B46FFF7DB
:1047F000F9FC10213846FFF7F5FC58460DB0BDE82E
:10480000F08F3A46414600232046FFF77FFEDFF84F
:1048100068A000283FF46DAF4846DAF800309847AA
:10482000834600283FF465AFE7E7204604A9FFF779
:10483000C9FD83460028D0D1236901332361CCE729
:104840003A46414604A8FFF7D7FC834618B16F46A5
:10485000DFF824A0C1E7204604A9FFF7B3FD834693
:1048600000283FF444AFF2E76FF0370BC5E76FF075
:10487000350BC2E7A01E00209C1E00202DE9F0434E
:10488000202B1D460646884691468BB026D8DBB2C3
:1048900002AF8DF80480B04658F8041B8DF805303F
:1048A00021B9404600F020FF044640B9012302220E
:1048B0004046336001A900F02BFF044638B138466A
:1048C0002021FFF78FFC20460BB0BDE8F0832A467D
:1048D0004946404600F01CFF0446F0E702AF194687
:1048E000104600233A4601F099F804460028E6D124
:1048F0002023B9461D46CCE72DE9F041D0F8F83029
:10490000A6B0002BD8BF02AE31DD05460027D0F897
:104910000C4102AEA4F101089022D5F8FC403146CA
:10492000D0F8000101AB0197B8FA88F8A0474FEA28
:104930005818044620B9019B53B9B8F1000F16D09E
:1049400030469021FFF74EFC204626B0BDE8F081AE
:10495000014632462846FFF791FF58B9D5F8043191
:10496000019A1344C5F80431B8F1000FE8D16FF093
:104970003C04E5E70446204626B0BDE8F08100BFD0
:1049800070B500250446142204F588762946C0F83F
:10499000F850FC30FFF7D4F8082229463046FFF7DC
:1049A000CFF8144B30461B689847204640F8045B0C
:1049B00000F080FE104B30461B689847C8B9D4F809
:1049C000F830AB420FDC03EB830204EB82022021C0
:1049D000C2F800010120C2E9421008490133C2F8BF
:1049E000FC10C4F8F830064B3046BDE870401B6838
:1049F000184770BDA41E0020A01E0020095500000D
:104A00009C1E00202DE9F047202A88B07AD83F4B21
:104A100000F5887904461B6848461746884698473B
:104A20000546F8B940F20116D4F8F830002B65D0ED
:104A30002046FFF761FF054638B9D4F8F830002B5F
:104A400014DC013EF2D16FF03B056E46202130466A
:104A5000FFF7C8FB2E4B48461B689847002818BF35
:104A60006FF01D05284608B0BDE8F087D4E9413253
:104A7000934203D3D4F80C21012A02D0013ED7D1AE
:104A8000E1E71F2BFAD96E4601462022304604F199
:104A9000040AFFF755F83146504600F063FE05461C
:104AA0000028D3D1504600F019FE504600F002FE17
:104AB0002946504600F018FE05460028C6D150464B
:104AC0002022314600F024FE05460028BED10346D0
:104AD00032462021304600F0A1FF05460028B5D11E
:104AE000D4F8F8303A46002BC8BF00234046314680
:104AF000C8BFC4F80431FEF7FEFFA7E76FF03F051B
:104B00006E46A3E76FF03B05ACE700BFA01E002098
:104B10009C1E0020002130B58DB0282202A80191F2
:104B2000FFF70EF802A800F0A1FF044610B12046DE
:104B30000DB030BD174D4FF0FF31286800F044F93B
:104B4000044620B1144800F0D5F9012C18D00020FB
:104B500000F06AF9D0B9114A02A901A800F0C6FC18
:104B60000446012000F060F960B9286800F034F9CB
:104B70000028DCD00A4800F0BDF920460DB030BD59
:104B80000524F2E7074800F0B5F9EEE7064800F023
:104B9000B1F9E0E7881E0020606D00006C34002051
:104BA000B86D0000986D0000786D000030B583B0DE
:104BB00000F05CF828B100F0ABF80324204603B005
:104BC00030BD00F077F8D8B900F02EF9E0B9224CEA
:104BD000D4F828391B0EF02B0AD1D4F8242A1F4B05
:104BE0009A4231D000F044F8072400F091F8E5E74C
:104BF000062400F03DF800F08BF8204603B030BDED
:104C00000424204603B030BD00F032F800F080F8F4
:104C1000FFF780FF044698B9114D2B68002BCDD1CA
:104C200002460146FFF782FA50B968220D4901ABEE
:104C3000FFF7ACFA20B920460B4B2B6003B030BD18
:104C40000524204603B030BD012000F0EDF8002817
:104C5000DAD1C4F80C0ADBE7001084500000E02031
:104C60008C360020903600205AEA5A5A00207047AD
:104C700000207047430504D54FF0FF32034BC3F8C3
:104C80000821024BC3F8080A704700BF0010845087
:104C9000014BC3F8040A70470010845008B100F0BB
:104CA0006BB84FF47500704708B100F04FB84FF47F
:104CB0007500704710B5114800F072F800B110BDD2
:104CC0000F4800F06DF80028F9D10E4C204600F096
:104CD00067F80028F3D10C4B0C481C6000F060F81A
:104CE00001460028EBD100F02DF8044608B120461B
:104CF00010BD00F07BF82046FAE700BF981E0020A8
:104D0000941E0020901E0020881E00208C1E002073
:104D100008B5084800F04EF8074800F04BF807487F
:104D200000F048F8064800F045F8BDE8084000F0FB
:104D30000BB800BF981E0020941E0020901E00207B
:104D40008C1E002000207047704700BF024610B440
:104D5000084CD4F8003A1342FBD021B1D4F8043106
:104D60000B60C4F80831034B0020C3F8082A5DF833
:104D7000044B704700108450044AD2F8003A18429D
:104D8000FBD0C2F8080A0020704700BF0010845012
:104D900001F026BFFEF7D4BE0A460021FEF7D0BEC2
:104DA00008B5034B02681B6810689847002008BDCF
:104DB000C41E002008B5034B02685B681068984762
:104DC000002008BDC41E0020024B02689B681068CA
:104DD000184700BFC41E002008B5034B0268DB68FB
:104DE00010689847002008BDC41E002070B5094C0B
:104DF000094D2069AB68984718B1084B08485B68B3
:104E000098470021074AEB6811602069BDE87040AF
:104E1000184700BFB01E0020C41E0020A81E00209E
:104E2000D06D0000F8360020F8B51A4D1A4E044631
:104E3000B26828699047E8B9184F3B684CB1A3B1F4
:104E4000012B19D0013B3B602869F368984700208B
:104E5000F8BD43B90121124AC2F800151149D1F831
:104E60001029002AFBD101333B60F3682869984779
:104E70000020F8BD0C48F8BD0A4AD2F81039002BC2
:104E8000FBD1074A6FF07E40C2F80035FFF700FF04
:104E90003B68D7E7B01E0020C41E0020F836002073
:104EA0000000845000108450E98FFFFF014B1B6805
:104EB000184700BFC41E0020014B9B68184700BF65
:104EC000C41E0020014BDB68184700BFC41E002031
:104ED000BFF34F8F0549064BCA6802F4E0621343E3
:104EE000CB60BFF34F8F00BFFDE700BF00ED00E0D8
:104EF0000400FA0530B44FF0FE320025074B084C91
:104F000008494968C3F80024C3F80424C3F80824F6
:104F1000C3F80C24C4F8005530BC08470010845076
:104F200000008450A81E002010B5044650B16368EC
:104F300013F0685F05D0064A934202D000236260F6
:104F4000236010BD034B04485B689847EFE700BF40
:104F50002C5F5CA9A81E0020F06D0000C8B143685A
:104F60000D4A934213D013F0685F0ED0012350E82E
:104F7000002F194640E8001C9CF0000FF7D1012AD1
:104F8000F5D0BFF35F8F0020704704487047044896
:104F900070476FF4E04070472C5F5CA9E98FFFFF1A
:104FA000EA8FFFFF034680B1426809498A420AD06E
:104FB00012F0685F05D0BFF35F8F002210461A60C1
:104FC000704704487047044870476FF4E0407047EA
:104FD0002C5F5CA9E98FFFFFEA8FFFFF10B5044645
:104FE00020B10023034A2360626010BD0248FFF72E
:104FF00081FFF6E73A00003A186E00002DE9F0470D
:10500000002878D00C46002975D01D46002B72D0A0
:1050100007461AB1012200232A6003602B68002B87
:1050200064D02946204600F00FFE804600285FD15C
:105030002146286800F0EEFD8046002858D12B68F4
:10504000082B6CD0042B6DD0A3F10209B9FA89F9B1
:105050004FEA59190121354EC6F8C411C6F840115E
:10506000C6F8C411636AC6F83031D6F830219342CD
:10507000F6D14FF0000A4FF0FF30C6F82CA1FFF731
:10508000F9FD6FF01B035046C6F80031FFF700FE34
:10509000C6F80C91D6F8040A40F48060FFF7F8FDDA
:1050A0000A23C6F83831089B012B29D02369204AEE
:1050B000A2FB03231B09626A404602FB03F303EBD6
:1050C00043031A4ADB039B09C2F8D8310123C2F813
:1050D0002C313B682A6823F07F4343EA02633B603C
:1050E0002A6843EA02233B60BDE8F087DFF844808A
:1050F0004046BDE8F087DFF840804046BDE8F087D5
:105100004FF47F03D3F80C2C013206D0D3F80C3CBB
:10511000074AA2FB03231B09CDE71623CBE74FF079
:10512000030997E74FF0020994E700BF001084508D
:10513000ABAAAAAA310CF100350CF10058B34B1EF2
:10514000B3F5047F27D230B54FF0000ECD00744682
:1051500071464B0901F01F0C50F82330BCF11F0FB2
:1051600023FA0CF306D003F0010319B901211C4600
:105170008E46EEE79C4201F1010106D01C464FF03D
:10518000010EA942E5D1002030BD0EF1010E964579
:10519000F7D1024830BD0148704700BF360CF1001E
:1051A000C0B32DE9F0434C1EB4F5047F1DD2E3B12A
:1051B000DAB100252E46A8462C46CF0003F1FF3970
:1051C0004FEA541C04F01F0E50F82C10BEF11F0FB4
:1051D00021FA0EFC0CD00CF0010C4CB90126E04673
:1051E00034463546ECE7964216D90C48BDE8F083C4
:1051F000AB420BD0C44508BF0136A945F3D00135F9
:105200000134BC42DCD10020BDE8F0830125E0463A
:105210002E46F5E7014870471D46F1E7370CF100CF
:105220002DE9F04F91B08346DDE91B460D46002E77
:105230006ED10F691C6000231A990B60002A00F0E0
:105240002F819D4B6A6AD3F83811D3F830319A42D6
:1052500069D10A2967D19BF80330089304F1080348
:10526000079304230593954B934CA3FB07239B08BB
:1052700003EB4303A7EB4303039306971A9B069E96
:105280001E60002E00F0EA8000F0EEFC002309937F
:10529000BBF1000F00F0D58098464FF0010ADDF811
:1052A0001C90002D00F0CD80089B002B3DD028469F
:1052B00008A900F0C9FC002839D0814B984220D0C1
:1052C000089B082B00F0E48000225B00089329462D
:1052D00008AB58460092FFF791FE7A4B984200F0D7
:1052E000D38070B9DBF80020130A03F47F03134363
:1052F00023F07F43CBF80030059B013B0593BDD1E4
:105300000020039000F0B0FC039811B0BDE8F08FCE
:105310004FF47F01D1F80C0C01300CBF4FF404772F
:10532000D1F80C7C86E76848EBE76648C5E7294674
:10533000089800F06FFC0028BFD1089B082B00F0F4
:10534000A980042B00F0A980A3F10203B3FA83F330
:105350005B090493C4F8C4A1C4F840A1C4F8C4A173
:105360006B6AC4F83031D4F830219342F6D100236F
:105370004FF0FF30C4F82C31FFF77CFC00231846B7
:105380006FF01B03C4F80031FFF782FC049B4B4F06
:10539000C4F80C31D4F8040A40F48060FFF778FCBC
:1053A0000A23C4F838312B6909A8A7FB03236A6ACA
:1053B0001B0902FB03F303EB4303DB039B09C4F864
:1053C000D831C4F82CA1DBF80030089923F07F42D3
:1053D0000B0243EA01631343CBF8003000F00AFCF0
:1053E000099B03F01A0303437FF46AAFA7FB063758
:1053F000D4F81431B8EB970F0A93D4F818310B9303
:10540000D4F81C310C93D4F820310D93D4F8243106
:105410000E93D4F828310F9301D1039B9BB94846D2
:1054200018220AA9183EFFF7B3FC09F1180908F180
:1054300001089EB100F018FC00230993002D7FF4B1
:1054400033AF224839E748461A46F61A0AA9994462
:1054500008F10108FFF79CFC002EEBD1069F079E88
:105460006A6939463046FFF769FEAA6940B94FF4C8
:10547000806339463046FFF793FE00283FF440AF83
:1054800000231A9A136018E72B6A002B3FF439AFF8
:105490000F4836E7032304935CE70223049359E79C
:1054A000012229465846009608ABFFF7A7FD0028C1
:1054B0003FF4D4AE25E700BF00108450ABAAAAAADF
:1054C000020CF100310CF100300CF100350CF10050
:1054D000320CF10030B4DDE9023402940024049D62
:1054E000CDE9035430BCFFF79BBE00BF30B5154675
:1054F000012487B005AB00930022CDE9015404AB31
:10550000FFF78EFE07B030BDF0B587B0002966D03A
:105510001E46002B63D01446002A60D0314F0D4642
:1055200038684FF0FF31FFF74FFC00284DD10020C5
:10553000FFF77AFC002844D12B4800F097FAD8B145
:1055400001204FF0FF35FFF76FFC002835D14FF4F5
:1055500008712648FEF73CFE04212548FEF738FE78
:1055600021482821FEF734FE3868FFF735FC002873
:105570002FD1284607B0F0BD1C4A0346029205AA67
:10558000019204AA03900092174902461848FFF7B7
:10559000A1FF03460028D3D128461D46059B22467D
:1055A0009C4228BF1A46049932600831FFF7F0FB8D
:1055B0000120FFF739FC0028C9D00E48FFF79AFCFC
:1055C000C5E70D48FFF796FCB6E70C48FFF792FCDD
:1055D000ADE70B48FFF78EFC284607B0F0BD4FF053
:1055E000FF35C6E7881E002010370020383700201E
:1055F0000C370020986D0000786D0000606D000091
:105600003C6E000010B5044630B1002201236265F3
:10561000A265E365236610BD0148FFF76BFCF4E764
:10562000546E000018B174220021FFF7B3BB70471D
:1056300088B199B110B50024802A846380F83C4079
:1056400006D1102204631044FFF7A2FB204610BDD0
:105650006FF01F0010BD6FF0210070476FF01F004A
:10566000704700BF70B5044686B0F8B11046EAB185
:10567000E3B101291AD8A26B16D0012A16D1102540
:1056800000210DEB0506019602AA616329460095EB
:1056900000F0F6FA50B92B463246204602A900F037
:1056A00099FD18B906B070BD002AE8D06FF021004E
:1056B000F8E700BF10B5044628B12046BDE8104009
:1056C000F421FFF769BB0448FFF714FC2046BDE84E
:1056D0001040F421FFF760BB686E000010B1F421A8
:1056E000FEF776BD704700BF08B521B1012908D08B
:1056F0006FF0360008BD012100F058F80028F7D1FE
:1057000008BD022100F052F80028F9D0F0E700BFF0
:1057100030B505468818B0F5801F0B461446A1B079
:1057200001D8802A0CD9B3F5801F17D92246194613
:10573000284600F07DF8044684B9204621B030BDEB
:105740006846FFF725FB22466946284600F070F8B8
:10575000802104466846FFF71FFBEDE76FF0360433
:10576000EBE700BF70B5E8B10E46D9B1044600F0D2
:1057700031F80546B0B92368012B0BD0022B01D0BC
:10578000284670BD1C22304604F10801FFF700FBDB
:10579000284670BD2022304604F10801FFF7F8FAD0
:1057A000284670BD6FF03605EAE700BF78B138B51E
:1057B0000D46F0210446FFF7EFFA4023204625600E
:1057C000E36500F091FA003818BF012038BD0120D0
:1057D000704700BFF0B5056EA5B0044604AEE5B94C
:1057E00000230127019330466760294602AA0093EF
:1057F00000F046FA10B1012025B0F0BD2A4620463F
:1058000002A900F099FA0028F5D1204600F0AAFB81
:105810000028F0D1206625B0F0BD802D2A46304604
:1058200028BF802204F16401FFF7B2FA256ED7E7A2
:10583000002800F0AE802DE9F04F1446A5B0002AF4
:105840003DD00F46002949D0B2F5803F0546006E95
:1058500020D34FF6FF7805F1640AEB6D1A1AB2FBFC
:10586000F3F103FB1122002A65D18342B9464FF6BA
:10587000FF7672D0B6FBF3FB03FB0BFBBBF1000F13
:1058800030D1002E45D1A4F57F44FF3CB4F5803FD4
:105890004744E2D2EA6D161AB6FBF2F302FB136636
:1058A000A64228BF2646002E75D1824200F08D8088
:1058B000B4FBF2F602FB06F62EB9002C79D10020DB
:1058C00025B0BDE8F08F002331463846CDE90033DE
:1058D00002AA00F0D5F9002800F09580012025B03B
:1058E000BDE8F08F002359464846CDE9003302AAAF
:1058F00000F0C6F90028F1D15A46284602A900F066
:105900001BFA0028EAD1A6EB0B06286ED944002E1C
:10591000B9D019304946324605EB8000FFF738FA16
:10592000A4F57F44286EFF3C3044B4F5803F4744E3
:10593000286692D2AEE7424528BF4246164639460F
:105940005044FFF725FA286EEB6D3044834207EB95
:1059500006092866A8EB06068CD1802B28BF802379
:1059600051461A4604A8FFF713FA0023E96D02AA6C
:10597000CDE9003304A800F083F90028AED1284611
:10598000EA6D02A900F0D8F90028A7D1EB6D2866CE
:1059900070E70120704705F1640339463246184428
:1059A000FFF7F6F9286EEA6D3044A41B37442866E9
:1059B0007BE72B6E2246193305EB83003946FFF750
:1059C000E7F92B6E23442B6679E7802A28BF8022D3
:1059D00005F1640104A8FFF7DBF90023E96D04A8D1
:1059E000CDE9003302AA00F04BF900287FF476AF2E
:1059F0002846EA6D02A900F09FF900287FF46EAFF7
:105A0000EA6D286654E73246284602A900F094F968
:105A100000287FF463AF3744A41B4EE7F8B51C465B
:105A20000546114816460F46FFF744FE21460E482C
:105A3000FFF75AFE044620B10B48FFF74FFE204601
:105A4000F8BD3A4629460848FFF762FE044600289A
:105A5000F2D131460448FFF785FE04460248FFF7BD
:105A60003DFE2046F8BD00BF583900201C2370B50C
:105A700082B001A90546019300F032F8044638B916
:105A8000019B1C2B07D0144C1C212846FFF784F9DE
:105A9000204602B070BDD5E90112131E18BF0123C4
:105AA000003918BF0121012628689B00EA6843EAF3
:105AB0004103002818BF43F00103EE612AB9C5E98C
:105AC0000834002BE4D1054CDEE7204643F0080300
:105AD000C5E9083402B070BD370CF0000E0CF000C0
:105AE0000346002866D0002964D00A681C2A61D1C8
:105AF0004FF47F023B49D2F8100C88425CD0D2F8B8
