:020000040000FA
:10000000D86A0020D52600007B850000C1260000AC
:10001000C1260000C1260000C1260000C126000044
:100020000000000000000000000000008D2800001B
:10003000C126000000000000F9270000C1260000D2
:10004000BD2A0000BD2A0000BD2A0000BD2A000014
:10005000BD2A0000BD2A0000BD2A0000BD2A000004
:10006000BD2A0000BD2A0000BD2A0000BD2A0000F4
:10007000BD2A0000BD2A0000BD2A0000BD2A0000E4
:10008000BD2A0000BD2A0000BD2A0000BD2A0000D4
:10009000BD2A0000BD2A0000BD2A0000BD2A0000C4
:1000A000BD2A0000BD2A0000BD2A0000BD2A0000B4
:1000B000BD2A0000BD2A0000BD2A0000BD2A0000A4
:1000C000BD2A0000BD2A0000BD2A0000BD2A000094
:1000D000BD2A0000BD2A0000BD2A0000BD2A000084
:1000E000BD2A0000BD2A0000BD2A0000BD2A000074
:1000F000BD2A0000BD2A0000BD2A0000BD2A000064
:10010000BD2A0000BD2A0000BD2A0000BD2A000053
:10011000BD2A0000BD2A0000BD2A0000BD2A000043
:10012000BD2A0000BD2A0000BD2A0000BD2A000033
:10013000BD2A0000BD2A0000BD2A0000BD2A000023
:10014000BD2A0000FFFFFFFF53B94AB9002908BFCD
:1001500000281CBF4FF0FF314FF0FF3000F00CB80B
:10016000ADF1080C6DE904CE00F008F8DDF804E00C
:10017000DDE9022304B07047704700BF2DE9F04766
:1001800086468C460846089E154674461946002B3E
:1001900040F0C1808542B2FA82F245D94AB1C2F13B
:1001A000200300FA02FC954094402EFA03F343EA40
:1001B0000C0C4FEA154EA8B2230CBCFBFEF80EFB4C
:1001C00018CC08FB00F943EA0C43994528D9EB18F1
:1001D00008F1FF3704D2994502D9A8F102072B4450
:1001E000A3EB0903A4B2B3FBFEFC0EFB1C330CFB18
:1001F00000F044EA0344A04214D92C190CF1FF3357
:1002000004D2A04202D9ACF102032C44241A43EADE
:1002100007401EB1D440002334607360BDE8F0870E
:100220004746DDE76346F1E792BB431B01214FEAF6
:10023000154EAFB2200CB3FBFEFC0EFB1C330CFBC7
:1002400007F840EA0343984561D9EB180CF1FF30F9
:1002500004D2984502D9ACF102002B44A3EB080369
:10026000A4B2B3FBFEFC0EFB1C330CFB07F744EA05
:100270000344A7424DD92C190CF1FF3304D2A742F5
:1002800002D9ACF102032C44E41B43EA0040C0E76E
:10029000C2F120039540944020FA03F12EFA03F3B3
:1002A0004FEA154E9040AFB20343B1FBFEFC0EFB8C
:1002B0001C10190C0CFB07F841EA0041884522D9B3
:1002C00069180CF1FF3004D2884502D9ACF1020064
:1002D0002944A1EB08019BB2B1FBFEFC0EFB1C11F3
:1002E0000CFB07F743EA01439F420ED9EB180CF1D0
:1002F000FF3104D29F4202D9ACF102012B44DB1B37
:1003000041EA004193E76046E3E76146F7E760466C
:10031000A4E76346B8E7834206D916B90021084628
:100320007CE7C6E900E0F9E7B3FA83F78FB98342C7
:1003300001D3724508D8BEEB020460EB0303012031
:100340009C461EB9002169E73846FAE7C6E9004C29
:10035000F8E7C7F1200CBB400EFA07F522FA0CF4BF
:100360002EFA0CF1BA401C4320FA0CF3B8404FEAC5
:10037000144901431FFA84FEB3FBF9F809FB183056
:100380000B0C08FB0EFA43EA00439A4540D9E318E8
:1003900008F1FF3004D29A4502D9A8F102002344A3
:1003A000A3EB0A0389B2B3FBF9F809FB183308FB86
:1003B0000EFE41EA03418E452CD9611808F1FF3346
:1003C00004D28E4502D9A8F10203214443EA004039
:1003D000A1EB0E01A0FB02984145CE46434602D355
:1003E00006D14D4504D20138B9EB020E68EB040387
:1003F000002EA7D0B5EB0E0261EB030101FA0CFC55
:1004000022FA07F3F9404CEA0303C6E9003199E701
:100410004046C5E74346D9E72DE9F04F82461646E8
:100420001C4600259FB00391307810B9284600F093
:1004300083BD731C2528069306D00399D047002856
:10044000C0F27A85013527E21822002110A808F0B1
:10045000C5F87378252B7DD0002398469E469C4690
:100460001F46701C014610F8012B2B2A00F0A180BA
:1004700000F29880202A00F09F80232A00F09F80BD
:100480002BB19DF8483043F040038DF84830B8F167
:10049000000F05D09DF8483043F020038DF8483018
:1004A000BEF1000F05D09DF8483043F010038DF8E1
:1004B0004830BCF1000F05D09DF8483043F00803E8
:1004C0008DF848302FB19DF8483043F004038DF883
:1004D00048309DF8483003F04400442803D16FF3BE
:1004E00086138DF848309DF848302A2A43F080035F
:1004F0008DF848307FD19DF849204B1C42F0010215
:100500008DF849201A782E2A0CBF012100219DF870
:10051000492061F341028DF8492078D15A782A2A7E
:100520006ED000224FF00A0C0133194611F8010B6E
:10053000A0F13007092F40F2AD809DF848101492C9
:10054000C1F3400040EAD2700A4660F341028DF8E0
:1005500048205CE0B21C06928DF84B309DF8493083
:10056000D90740F1508154F8042B002A049208DA8C
:100570009DF8482042F004028DF84820049A524227
:1005800004925A0740F1478154F8047B002F80F20F
:1005900046819DF849306FF341038DF849304FF0A3
:1005A000FF373CE12D2A0DD0302A7FF469AF0123BB
:1005B00058E74FF0010C55E74FF0010E52E74FF0AE
:1005C00001084FE701274DE703460EFB0272303A60
:1005D000184610F8017BA7F1300CBCF1090FF3D9D4
:1005E00099428FD09DF848101392D20F62F34101C7
:1005F0008DF8481086E70B4600224FF00A0EE7E719
:100600009DF84920023342F004028DF849201A78FF
:100610006C2A5FD043D8682A49D06A2A63D04C2A12
:1006200069D013F8012B782A06938DF84B2000F23D
:10063000A9806D2A6CD8692A00F2A480572A00F29A
:100640008480412A04D0A2F14503022B00F29A8053
:1006500004219DF84A3002F0DF02A2F1410761F364
:1006600002037A429DF849107A4162F3C7110A06E3
:100670008DF84A308DF84910CBB200F1C28003F0FA
:100680007802182A40F0AC806FF3C6038DF8493029
:1006900000239BE00CFB02020B46303A45E7742A2C
:1006A00025D07A2ABDD106219DF849200CE05A7840
:1006B000682A9DF8492006D1012161F3C6028DF810
:1006C00049200233ADE7022161F3C6028DF84920CB
:1006D0000133A6E75A786C2A9DF8492001D10421FC
:1006E000EBE70321F0E705219DF84920ECE707211E
:1006F0009DF84920E8E7BDF8482022F4F04222F0B6
:10070000020242F4804242F00202ADF84820DFE7E4
:100710006E3AD3B201229A4040F282431A429DF8C7
:10072000493036D112F0240F5ED1D1072AD50321EA
:100730009DF84A2003F07803A3F1400061F3020220
:1007400043428DF84A20434140E00120A2F1580184
:10075000C9B200FA01F111F4624F7FF479AF40F6AB
:10076000010319429DF8493019D111F4043F09D011
:100770009DF84A2060F3020203F07803402B8DF8C5
:100780004A2085D19DF8483043F001038DF8483068
:100790007EE702219DF84A2061F30202ECE7022085
:1007A0009DF84A1003F0780360F30201402B8DF8A6
:1007B0004A1002BF9DF8481041F001018DF8481021
:1007C000632A7FF465AF003B18BF01239DF84820E2
:1007D000C2F340010B4363F341028DF84820BDE6AC
:1007E00013F0380FCED153E703219DF84A2013F0C0
:1007F000780F61F3020214BF012300238DF84A2011
:10080000E4E70123E2E79DF94820002AACBF4FF05E
:10081000FF32139AB4E69F077FF5C1AE149F002301
:10082000CDE913339DF84A3003F00702042A9DF8FE
:10083000492007D1900705D49DF949100029ACBF84
:1008400006270D2703F00703012BC2F3C30233D1A0
:10085000D31E042B04D8DFE803F0214646212100F3
:100860002368012A4FEAE371CDE910311CD19DF9CB
:100870004030D917CDE9103104349DF8483099073C
:10088000079350D032465046069B039907F0E2FD8D
:100890000028C0F251830544069EC5E554F8043B88
:1008A000D917CDE91031E8E7022AE5D119B243F3AF
:1008B000C033CDE91013DFE7022B24D1D31E042B64
:1008C00004D8DFE803F0181010181800012A4FF0C0
:1008D000000154F8043B14D0022ACDE91031CCD1E8
:1008E0009BB21093C9E7073424F00704F4E802012F
:1008F000CDE91001C1E754F8043B10930023119394
:10090000BBE7DBB2CDE7042B08D1073424F00704A2
:10091000D4E900010834CDE91001AEE7032BACD1D6
:1009200054F8043BDDE79DF84BB0BBF1780FB3D82A
:10093000BBF1570F49D8BBF1250F00F09180BBF1F7
:10094000240FA9D9BBF1410F03D0ABF14502022A14
:10095000A2D8DDE91012002AC0F23681079B1E07DB
:1009600000F13581C3F300194FEA4919C2F30A5067
:10097000C2F31302002840F02D8151EA020614BF91
:1009800001260026D20242EA5152C902BBF1460FAB
:1009900040EA010E42EAE07C08BF4FF0660B5EEAD7
:1009A0000C0CCDE90C1200F09681002E40F0448131
:1009B0000D9AA0F2FE3842F000420D920020DDE9CF
:1009C0000C1206464FF0050C50E1ABF158012029FE
:1009D0003FF662AF01A050F821F000BF670B0000A6
:1009E0009908000099080000990800009908000083
:1009F0009908000099080000990800009908000073
:100A00005309000099080000EB0A0000FF0A0000EB
:100A10005309000053090000530900009908000021
:100A2000FF0A0000990800009908000099080000DA
:100A300099080000A10B0000670B00006D0B00007F
:100A40009908000099080000670A00009908000052
:100A5000670B00009908000099080000670B000070
:100A600058460399EAE4002F109E3ADB3946304697
:100A700007F0C0FD3718002E3FF40EAF4FF000090D
:100A80009DF84A3013F01002059200F04A820230BD
:100A900013F04003DDF84C80089318BF149B4044CA
:100AA00018BFC018049BCDF81C80002B40F3548263
:100AB0009DF848201B1A04935307C2F3800B00F1E2
:100AC0004B82500640F13B82B9F1000F07D04846F7
:100AD0000399D0470028C0F22F82D9460135302231
:100AE0002EE2304607F058FDC4E7109B4FF0000996
:100AF00001208DF85C300DF15D0717AEC0E7079B54
:100B00001A0754BFC3F300194FF02B09DDE9102376
:100B100058BF4FEA4919002B06DA4FF02D0952420F
:100B200063EB4303CDE91023DDE910010DF17503FB
:100B3000009312AA17AB07F047FC0646002F0CDB08
:100B40009DF848200DF175039B1B6FF386129F42A1
:100B50008DF8482001D9FB1A1393002E3FF49CAE68
:100B60000DF1750756E04FF00009DDE710980028F9
:100B700000F0D2810DF175030093002117AB12AA8A
:100B800007F022FCBDF84A30064603F0EF0343F4B9
:100B9000F04343F010034FF00009ADF84A30CDE7C1
:100BA000109B072A3FF678AEDFE802F00C04060C33
:100BB00008080C0C1D706FE61D806DE6EA17C3E98E
:100BC000005269E61D6067E64FF02D09CEE64FF052
:100BD0002B09CBE640F2FF76B0422AD10A43ABF1B3
:100BE00041031ED11A2B35BF492369234E216E21A3
:100BF00034BF462266228DF85C309DF848308DF86F
:100C00005D106FF386138DF85E208DF848300DF17E
:100C10005F0717AEB81BB9F1000F3FF431AF0130D9
:100C20002EE7192B8BBF6E234E23612141211A46DB
:100C3000E1E70026A6E6013849185241002AFADA0F
:100C4000CDE90C12B4E6490841EAC2715208B2F18A
:100C5000333F404608F10108F5D200F102080120B7
:100C60000CFB02FEA1FB0C12013E724418F1020FB4
:100C7000E9DB08B1CDE90C12DDE90C21B8F1000F78
:100C80002CDCC8F10400A0F1200C08F11C08C240C3
:100C900001FA08F821FA0CFCC1400BF0DF0042EA2F
:100CA0000802472842EA0C0238D1F01C01DBB742A7
:100CB0002ADAABF10203002F5FFA83FB7BDD9DF89C
:100CC0004800013F830676D43B1E18BF01230593DD
:100CD00007F101082CE04FF000086FE6023241F105
:100CE00000010CA808F1FF380136CDE90C2107F00E
:100CF0003CFBDDE90C2192184941002908F1FF383D
:100D0000F9DACDE90C21B7E79DF84830BF1B98060A
:100D10004FD43B1E18BF0123059304E00023BBF111
:100D2000660F0593D4D117EB06084FF0660B44D439
:100D3000B8F1100FA8BF4FF010089FEDB37B102043
:100D40008DED0E7B0B90DDE90E03B8F1000F37D16E
:100D5000121841EB0301B1F1805F41D2CDE90C21C2
:100D6000079BBBF1660F03F0200240F0B480002E19
:100D700041DC30218DF85C10002A65D1002F40F352
:100D8000B4812E228DF85D2086B17242BA42A8BF8E
:100D90003A46002A1392A7EB0207D4BF0022012291
:100DA0009DF84A1062F345118DF84A100DF15E0866
:100DB00039E00023B0E7002389E74FF00008BCE7E3
:100DC000400840EAC3705B08CDE90E030EA8CDE9E8
:100DD000082108F1FF3807F0C8FADDE90821B2E779
:100DE000520842EAC1720CA84908CDE90C2101362B
:100DF00007F0BBFAB4E70DF15C080B99002909DD97
:100E00000BA90CA8079207F0C8FA013E079A08F848
:100E1000010BF2D113969AB9002F40F364812E2171
:100E200008F8011B0026002F17DD0B9A002A14DD9D
:100E30000BA90CA807F0B1FA013F08F8010BF2E783
:100E40002E2208F8012BEDE72E228DF85D20002ED2
:100E5000ACD0002F99DC0DF15E08059B002B4ED124
:100E6000149747460BF0DF02452A23D1002EBABF64
:100E700076422D232B23632EC8BF64217B70C4BF11
:100E8000B6FBF1F301FB13664FF00A01C8BF03F193
:100E90003000B6FBF1F3D2BFBA1CFA1CB87087F869
:100EA00000B0174603F1300001FB1363303307F83D
:100EB000020B5370139B002B2CDC149B002BD4BF14
:100EC000002301239DF84A2063F3861200238DF846
:100ED0004A203B709DE60BA90CA8079207F05DFA2B
:100EE000079A30288DF85C0018BF06F1FF3612B95A
:100EF000002F40F3FA802E228DF85D2056E74746FA
:100F000017F8012C08F1FF38302AF8D02E2A08BF34
:100F10004746A7E70123D5E73D4F81467E1F0520C1
:100F2000AEE51A0748BF0130B2E5104609920399B1
:100F3000D0470028099A05DA1FB0BDE8F08F2022BB
:100F4000DDF810B0594600290BF1FF3BEDDC049BA6
:100F5000CDF810B02B445D1AB9F1000F05D048460A
:100F60000399D0470028E7DB0135089B002B7FD091
:100F70009DF94930002B28DBB3469BF80000D94689
:100F8000A0F13003092B0BF1010B48D99DF84A3031
:100F9000AE1B99064E4407D44246002A08F1FF389A
:100FA00042DC079B33449E1A99F800002E280AD190
:100FB0000399D0470028BFDBB8F1000F06F1010606
:100FC00038DC09F101094D463FE0B14699F80000CF
:100FD000C846702809F101091CD1AE1B149D464476
:100FE0003544AB1B002B3BDC3B4642465046039945
:100FF00007F030FA00289FDB3044049E0546064483
:101000006CE000BFAFF300800000000000000008AB
:1010100029A200000399D0470028D7DA8CE703996A
:10102000D0470028A9DA87E730200399D047002865
:10103000B2DA81E730200399D04708F1FF38B9E7E9
:101040000399D0470028FFF677AF2878A846A0F18B
:101050003003092B05F10105F2D9A6EB0906BDE71E
:1010600030200399D0470028FFF666AF0136B8E775
:101070009DF84A30DA0601D41B0706D530200399C3
:10108000D0470028FFF658AF0135059B3BB10399C7
:101090009DF84B00D0470028FFF64EAF0135A8441D
:1010A00006E030200399D0470028FFF645AF013510
:1010B000A8EB0503002BF4DC3B463246504603996F
:1010C00007F0C8F90028FFF637AF284495E720203D
:1010D0000399D0470028FFF62FAF0135731B002B73
:1010E000F5DCFFF7D9BB1646B7E60DF15D08B4E6AF
:1010F000F0B5284B284A85B0C3F80026C3F804266B
:10110000C3F80826C3F80C26C3F81026C3F8142623
:10111000C3F81826C3F81C2606F040FC00F040FA7D
:10112000054601A800F08EFC0446284600F048FA67
:101130001A4B1B68A34201D006F033FD4FF4C031B7
:10114000002002F08FFF044600B1FEE769469DF8DB
:10115000080006F002FC009B039D1D44019B1E89B4
:1011600002F068FFAF1900F09DFE00F06DFE00F088
:1011700087FE84F30B8884F30A88AB5983F30888CD
:1011800084F31488BFF36F8FBFF36F8F7B6898472A
:10119000FEE700BF008001503546526E0800002077
:1011A00021B1012906D06FF015007047044B53F8A8
:1011B00030007047024B03EBC0035868704700BF14
:1011C000B89C00002DE9F04F864FDDB01446DDE9F4
:1011D00068891D46DDF8A8B13E6800F0FFFD0122D8
:1011E000814B3CA8C3F8002505F0F0FAB8F1000FD8
:1011F00007D0B9F1000F04DD4A4641463CA806F08D
:10120000A6FF4FF0000823896289D4F80CA013448C
:101210009A44C24558D80FA93CA805F049FB0022C2
:10122000714BC3F80025C3F80025BBF1000F04D0B3
:10123000202258460FA907F0C6F900232A4600933A
:1012400021464FF6FF7309A806F0A9FB039000287A
:101250004BD128460E9C06F095FC844245D84FF0B1
:10126000FF34DFF88CB1DFF880910DF11E0307AA7F
:1012700008A909A806F0E1FB002836DB40F0A880A9
:10128000BDF81EA0BAF1100F38D1BDF81C80B8F11E
:10129000200F2AD14346284608993CAA07F0F3F8C4
:1012A00018BB00F07DF9424682463CA90FA800F029
:1012B00025F98046504600F083F94C4B1B684345A6
:1012C00013D101230393D0E7679BAAEB0809994543
:1012D00028BF994641464B462846669A07F0D3F800
:1012E00028B10022404BC3F800253E6873E04A460F
:1012F00066993CA806F02BFFC8448AE7BAF1010FB3
:101300003FD1BDF81C30202BEFD8284608993CAAC5
:1013100007F0B9F804460028E7D19DF81C30202BCF
:1013200004930AD8DBF80030DFF8C8800593059BEA
:101330009C4205DB0023C9F800354FF0FF3494E7E9
:1013400000F04CFDC9F800A51FA805F03FFAD8F839
:1013500004201FA8126858F8081B06F0F8FE17A909
:101360001FA805F0A5FA0022C9F80025049A3CA997
:1013700017A807F018F910B9C9F8000575E7013486
:10138000D5E7BAF1220F7FF470AF631C3FF46DAF65
:10139000DBF80030A342D0DDBDF81C30802BA4D890
:1013A000284608993CAA07F06EF800289DD100F065
:1013B000F7F8E4B280462021BDF81C303CAA009426
:1013C0000FA800F019F80646404600F0F9F8B4E717
:1013D000039B002B89D000F0EBF830465DB0BDE8F0
:1013E000F08F00BF0400002000008450080000209F
:1013F000C09C0000C49C00002DE9F04796B0164642
:101400001D469DF87820384B074653F8321003EB01
:10141000C2035B6801911868DFF8DC800144302367
:1014200002AA01A8D8F8009006F01FFE002851D1AA
:10143000DDE901431C44214606AB03AA01A806F0DE
:101440003CFE002846D1049A072A43D12749059833
:1014500007F0A9F800283DD1079A082A3AD1244973
:10146000089807F0A0F8A8BB214602AA01A806F038
:1014700010FE78BBDDE901A30AEB0302944229D1F7
:10148000412B27D135443023294603AA02A80296CE
:1014900006F0EBFDE0B9DDE9023213449D4217D3BB
:1014A0002A4602A906A806F014FB88B92A4602A912
:1014B0000EA806F00EFB58B99AF80030042B07D19D
:1014C0002023384606AA0AF1010100F09FFC38B13A
:1014D000D8F8009000F06CF8484616B0BDE8F087E8
:1014E000044BD3F80090F5E7C49C0000C1A10000B4
:1014F000B8A10000080000200400002070B5094BCE
:1015000004461D680023934205D1074B1D6800F077
:101510004FF8284670BDE65CC85C8642F7D10133BF
:10152000F1E700BF0400002008000020094A400045
:101530000B7852F820108B4209D0013052F820006D
:10154000834214BF4FF0FF304FF4407070474FF4A8
:1015500040707047CC9C00001FB50F4B0C4613F831
:10156000300000F027FE50B92068102381686A46D9
:10157000103906F088FF28B1206806F083FF4FF08D
:10158000FF3006E010226846044907F00CF80028F6
:10159000F2D104B010BD00BFCC9C0000A8A1000097
:1015A000024B1868421C1A60704700BFD00300202D
:1015B000024A1368013B1360704700BFD00300204C
:1015C000034B1B68834201D006F0EBBA704700BFA3
:1015D000D00300202DE9F04F3D4B8BB00646002094
:1015E0000D461C68FFF7DCFD08A9C0B200F0E2FD63
:1015F00028B1FFF7DDFF20460BB0BDE8F08F29468C
:10160000FFF7CEFD4FF02C0B09A9C0B20BFB056B09
:1016100000F0D0FD00283FD02C276F4306EB0708D1
:10162000D8F8104014F0100447D1FFF7B9FF089B19
:1016300081460793FFF7B4FF4FF480720192254A69
:1016400021468246CDE90344079B0294009220463E
:101650005A46FFF7B7FD04465046FFF7B1FFFFF7C4
:10166000A7FF4846FFF7ACFF1B4BF25908989A4278
:101670000CD1D8F80C20B8F808309B1806D2826834
:10168000934203D2154B1B68A3421DD0D5B1002154
:10169000826806F022FF15E0099806F03BFF044639
:1016A000099806F0EFFE0BF1FF330BF1030213F87C
:1016B000011FA142B0D19342F9D11DB13046089922
:1016C00006F045FB064B1C68089806F0DBFE90E729
:1016D000040000204C2000203DB8F39608000020B4
:1016E000000000207FB50D46002104462846CDE9C4
:1016F000021106F0EBFAE8B12368154EB34203D1AC
:10170000204603AA06F076FAE36AB34204D1012127
:10171000204602AA06F06EFADDE90232934288BF43
:101720000393039BAB6029462046039A00F06AFAB4
:1017300004B070BD01A9FFF70FFF019805F1080182
:1017400006F003FAAB680198039306F09BFEEAE704
:101750003DB8F3962DE9F84F884691469A46002603
:10176000DFF870B0194C1A4D0B9B9E4201D300203C
:101770000FE00B9B40469F1BB7F5806F28BF4FF4CF
:101780008067144A3B4606EB0A0106F07CFE10B166
:101790000120BDE8F88F0A993B465A464846711821
:1017A00006F086FE0028F3D1C4F800563E44C4F883
:1017B0000456C4F80856C4F80C56C4F81056C4F8B9
:1017C0001456C4F81856C4F81C56CDE700800150D2
:1017D0003546526ED41300202DE9F0410E4600210B
:1017E000934B04464362934B86B003650846FFF76C
:1017F000D7FC04F12001C0B200F0DCFC08B106F017
:10180000D0F901210020FFF7CBFC04F14C01C0B25C
:1018100000F0D0FC08B106F0C4F9204606F02BFA1F
:10182000002849D100222046114606F0CDF90028B3
:1018300059D1204606F088FB002854D002A806F0B3
:101840003CFA0146204606F0D7FA00284BD102A800
:1018500006F03CFA80F0010102AA2046C9B206F067
:10186000B3F9024600283ED102A806F02FFA054639
:10187000E8BB204602A9FFF735FF9DF80F3084F83A
:101880005830033B012B06D8284600F00BF910B165
:10189000FF2384F858309DF80F30023B022B06D806
:1018A000002000F0E9F810B1FF2384F8583094F8D4
:1018B0005830FF2B12D1FEE70123984284F85830AC
:1018C000B0D194F85830042B8DF80F3045D8012B47
:1018D00049D85BD0FF2384F8583057E000212046D8
:1018E00002AA06F071F9012384F85830E9E79DF85F
:1018F0000F70012F1ED1104602F048FC831E022BF0
:10190000054614D8FFF74CFE394680462046FFF7BF
:1019100061FE07464046FFF753FE474B1B689F4258
:1019200005D0464B1D68AF4214BF0525012584F83C
:101930005850C6E7FFF734FE012107462046FFF75F
:1019400049FE05463846FFF73BFE3B4B1B689D4270
:1019500014BF05239DF80F30C6E7052BBAD1002030
:1019600000F0A0F810E0204602A9FFF7BBFE94F8B3
:101970005830DA1E012A2DD8002000F093F80028F4
:10198000A8D1002000F078F80028A3D194F85830AE
:10199000FF2B01D106F005F9002294F85830284FAA
:1019A000012B019219D01146204606F00DF9A0B185
:1019B0003D681022002102A806F010FEE06C06F03F
:1019C00061FD206A06F05EFDFFF7F2FD284606B0D5
:1019D000BDE8F081022BD9D1D3E7FFF7E1FD00216B
:1019E00080462046FFF7F6FD05464046FFF7E8FD36
:1019F000DFF84480D8F800309D42D9D13B689D4241
:101A0000D6D00E4B1B689D42D2D0019B013301936F
:101A1000019B012B01D006F0C4F8206A05F0A3FF5A
:101A20003071236A5B683460D8F80050B360C0E757
:101A3000D40B0020D4030020080000200000002068
:101A40000400002070B50B4E044660220021304691
:101A500006F0C4FDFFF7A4FD214605463046FFF71A
:101A6000BBFE04462846FFF7ABFDFFF7A1FD20466D
:101A700070BD00BFD417002013B5094B01A913F89E
:101A8000300000F097FB48B9019807F075FC044658
:101A9000019806F0F7FC204602B010BD0124FAE7D9
:101AA000D49C00001FB50F4B01A913F8300000F0C3
:101AB00081FBA8B9019802A902F012FB044668B99B
:101AC0009DF80B30032B03D1019807F023FC04464B
:101AD000019806F0D7FC204604B010BD0124F7E7BA
:101AE0000124F8E7D49C00002DE9F34106460C469A
:101AF00017461D460BB9002628E0184606F0E6F802
:101B00000028F8D16946FFF727FD009838B901246D
:101B1000009806F0B7FC204602B0BDE8F08101A9AC
:101B200006F013F80028F2D1009806F0ABFC30461E
:101B3000019906F09EF9736A5E686B79012B21D1D9
:101B4000002CD8D12B68834298BF00262146002064
:101B5000FFF726FB6946C0B200F02CFB0028D6D167
:101B600020233A463146009806F08DFC04460028B2
:101B7000CDD1002DCCD03C680D4BE41A18BF4FF0EE
:101B8000FF34C5E7022BB6D12B68012B05D9834260
:101B9000B1D8B4FA84F46409ADE7ACD1002CD5D047
:101BA000012CA8D12C79023C18BF0124A3E700BF67
:101BB0003DB8F39673B54B681446114A03F0FF2302
:101BC000934206460D4618D10B68012B15D1694684
:101BD000204602F085FA9DF80030032B0DD12146F6
:101BE000304606F0B4F8204607F094FB2046A9687A
:101BF00005F0B9FF204602F053FA02B070BD00BFF5
:101C0000000100042DE9F04F054689B00C4611464D
:101C100006F02FF96B6A039020465E6806F056F8CE
:101C200090B1E86D05F081FF0022AB6A013B3244C0
:101C3000904201D9013BFAE7039A9A4204D3012367
:101C4000E37109B0BDE8F08F06A9042000F0B2FAF4
:101C500007A90A2000F0AEFA21462846079AFFF7A6
:101C6000A9FF6379012B4BD1039FDFF858B141E005
:101C700022680399C2F101030B449F4239D86B6A71
:101C8000012A196853F8370003EBC70353F8083CDF
:101C9000A0EB0109A3EB010A11D1079B0493E368B0
:101CA000022B08D04146284606F051F8224641460C
:101CB000284606F082F82846049906F048F832468D
:101CC0004946404606F041F85346424641462846BA
:101CD000CDE90096FFF73EFD2146284606F003F8C1
:101CE00023680133236020B1DBF800300133CBF8E7
:101CF0000030013FDDF81880002FB9D101232360A7
:101D0000022301276371039BDDF81890BB4206D2C2
:101D1000484606F0B7FB079806F0B4FB91E7236846
:101D20009F424DD36A6AFB0052F83710083BD2F845
:101D300000B00491D1582A6DDDF81CA0D05813686A
:101D4000A0EB03082379012B38D1A1EB0B0132461C
:101D50004846059105F0F9FF059943464A4600912A
:101D6000284651460196FFF7F5FC2146284605F026
:101D7000BAFF0223237118B1124A136801331360AA
:101D800032464146504605F0E0FF049B5246A3EB25
:101D90000B0349462846CDE90086FFF7DBFC2146C8
:101DA000284605F0A0FF2368013323600123237137
:101DB00030B1044A13680133136001E0022BDFD015
:101DC0000137A0E7341800200A4619B1024B002160
:101DD0001B681847704700BF0C00002070B5094D04
:101DE0002B780BB1002070BD0126074CC4F80065AC
:101DF00004F08EFD18B92E70C4F80005F2E74FF01C
:101E0000FF30F0E74C210020000084502DE9F04124
:101E1000ACB01F4606460C461546FFF7DFFF012310
:101E2000DFF820802A46C8F800352146334600975F
:101E300003A807F085FD0023C8F800352CB0BDE8E5
:101E4000F08100BF00008450BFF36F8F72B6002393
:101E50004FF0FF30094A03F120010133102B42F803
:101E60002100F8D100234FF0FF30044A03F1600154
:101E70000133102B42F82100F8D1704700E100E057
:101E8000002318460649D1F89020C2F30722934256
:101E900000DB7047C1F89830C1F8A0000133F6E7C5
:101EA00000ED00E038B501224FF0FF3400251A4B59
:101EB00029465A60C3F84843C3F8084303F58053E2
:101EC0005A60C3F84843C3F80843A3F55043C3F826
:101ED00000558022C3F80843104806F07FFB80229B
:101EE00029460F4806F07AFB0E4B8022C3F80055B6
:101EF0002946C3F808430C4806F070FB80222946A7
:101F00000A4806F06BFB0A4BC3F808454FF0502314
:101F1000C3F8084338BD00BF004001508080005026
:101F200080810050009000508090005080910050BF
:101F300000700150014B1B68184700BF10000020C3
:101F4000014B1860704700BF1000002007B50B461A
:101F50000021024600910348FEF75EFA03B05DF8E7
:101F600004FB00BF351F00002DE9F047058B044638
:101F70002807904611D4022905F0070540F0CD80CE
:101F8000204606F018F978B10138218B042811D8C1
:101F9000DFE800F0C3106D85950001290CBF45F006
:101FA000100545F02005258388F31188BFF36F8F56
:101FB000BDE8F08701F0070AAA4500F0A6800027D7
:101FC000B9463E46A368002B00F0BD8041F00801F1
:101FD000218388F31188BFF36F8FA168002900F077
:101FE000BB800D68002900F0B7803346524620467A
:101FF000D1F80480C047002D76D02B6829461D46B5
:10200000F0E701F007035A1F012A1BD8002221F034
:102010000701062B276889B2C4E9002209D13B4693
:1020200003E0628B013262831B68002BF9D141F01F
:1020300002012046218306F0BEF800287BD041F043
:10204000200177E0042B0AD121F0070189B2204654
:10205000218306F0B0F810B141F020012183218BDB
:1020600001F0070AAA4550D00027B946AAE723691C
:1020700021F0070141F00601062DD3F800902183DD
:102080002DD1B9F1000F40D041F00801218388F330
:102090001188BFF36F8F20463949C84729E021F0E6
:1020A0000701236941F0040189B2042DD3F804909B
:1020B0002183E6D000274FF0040A3E4682E721F054
:1020C0000701236941F0050189B2052DD3F8089075
:1020D0002183D6D000274FF0050A3E4672E700273D
:1020E0004FF0060A3E466DE72B4687E7B9F1000F31
:1020F000D1D14FF02003EFF3118883F31288BFF39F
:102100006F8F238B23F008032383258BEA062ED5BC
:1021100025F01003238305F007056669218B002E47
:10212000BFF66FAF00232768C4E9003321F0070131
:1021300041F001012183218B4FF0000901F0070AD2
:10214000AA457FF43FAF002F9BD041F008012183C7
:1021500088F31188BFF36F8F002FC7D03D683946D1
:1021600033465246204606F052F82F46F4E7AB06B7
:102170007FF51AAF25F02003238305F00705FFE65E
:102180003B820000044608B54FF02002EFF31183B4
:1021900082F31288BFF36F8F01F04CFF204600F0EE
:1021A000C9FA034805F0F0FF00F062FCFCE700BF4D
:1021B0002AA2000070B5114B0D461C68DCB1104B13
:1021C000196800238B4202DB6FF0010070BD2246CC
:1021D00012F8106B864202D014460133F2E7E06831
:1021E00010B96FF01200F1E707F02AFA0028F8D0D2
:1021F00000202C60EAE76FF00C00E7E714000020F5
:10220000E09C000070B588B005460C46C0B2694637
:102210001646FFF7CFFF00281BDB0098C8B14368C4
:102220002268029383680195CDE903360023CDE946
:1022300006230593C56806F025F96DB128460849BF
:1022400001AA06F098FD079808B9059B236008B01D
:1022500070BD6FF01500FAE76FF01200F7E700BFEE
:1022600023850000014803F0C9BF00BFD49D0000D2
:1022700038B5044618B90F4B0F485B68984761683A
:10228000B1F5683F10D0B1F5680F0DD00B4DA942E4
:102290000AD011F46861206807D00146084807F0A9
:1022A00002FA00232360656038BD142206F096F917
:1022B000F9E700BF4C01002053A200002C5F5CA98D
:1022C000381D002008B500B34368B3F5683F0CD152
:1022D00001220368D3E8EF1F002903D1C3E8E02FF0
:1022E0000028F7D10DD1002008BD094A93420AD039
:1022F00000684FF0FF324FF0FF3303F0EDF9002894
:10230000F1D00448F0E70448EEE76FF4E040EBE773
:102310002C5F5CA9E98FFFFFEA8FFFFF08B5B8B11A
:102320004368B3F5683F0CD100220368D3E8EF1F80
:10233000012903D1C3E8E02F0028F7D10BD10020F9
:1023400008BD074A934208D0006803F089F9F6E710
:102350006FF4E040F4E70348F2E70348F0E700BF1A
:102360002C5F5CA9E98FFFFFEA8FFFFF10B50446E1
:1023700018B91D4B1D485B6898476368B3F5683F03
:102380002FD0B3F5680F2CD0194A934219D1236886
:1023900003BB4FF0FF324FF0FF332146154803F0E7
:1023A000B5F808B923681BB90F4B13485B68984709
:1023B00014220021206806F011F94FF4686363606D
:1023C00008E0B3F5683F0DD83A2B03D040F6BA6267
:1023D0009342DED1206807F0A6F9636843F03A0320
:1023E000636010BD054AF3E74C01002053A20000D2
:1023F0002C5F5CA9381D002079A200003A00003A49
:1024000008B5064940231422054807F03EF9BDE807
:1024100008400449044803F063BF00BF3818002097
:10242000381D0020DC9D0000F09D000030BFFFF74C
:10243000FDBF00BF044B99689869884203D00349E7
:102440004FF080520A6070473C1E002004ED00E00F
:10245000154B9A6A12F0007F9A6A14BF1E201D2045
:1024600012F0807F9A6A18BF1F2012F4801F9A6AA8
:1024700018BF022012F4002F9A6A18BF212012F40C
:10248000802F9A6A18BF222012F4003F9A6A18BF60
:10249000232012F4803F9A6A18BF24206FEA024278
:1024A0006FEA12429A62704700ED00E010B5194BD6
:1024B0000246986A9C6A10F4805F14BF17201620A9
:1024C00014F4006F9C6A18BF1820A40509D5986BF6
:1024D000986A000404D51AB19A6A22F400429A62FA
:1024E00019200C4B9A6A12F4806F9A6A18BF1A204E
:1024F000D2050CD49B6A13F4005F18BF1C20054A58
:10250000936A43F47F43936200230B7010BD1B203A
:10251000F5E700BF00ED00E010B51C4B0246986ADD
:102520009C6A10F0100F14BF1120102014F0080F37
:102530009C6A18BF1220A40709D5586B986A000638
:1025400004D51AB19A6A22F080029A6213200F4BC6
:102550009A6A12F0010F9A6A18BF142012F0200F25
:102560009A6A18BF1520D40658BF9B6A074B9A6A0F
:10257000920642BF5A6A22F400525A629A6A42F0A4
:10258000FF029A6200230B7010BD00BF00ED00E057
:1025900070B5444B06465B6800259CB0C3F3080346
:1025A00085F31188BFF36F8F02F07F40B0F17F4F4A
:1025B00011D102F00C0008280DD010074CBF0E46B8
:1025C00001250022033B8DF80720032B05D8DFE807
:1025D00003F01E5C60592E46F3E700249DF8073097
:1025E0009BB96822314602A805F0EDFF099B002D3A
:1025F00053D0C3F3080222B96FEA53236FEA43238F
:102600000993204602A905F0B2FF1CB070BD254B0E
:10261000DA6A9107E1D4DA6A002ADEDBDA6A52006C
:10262000DBD55A69B16942F480725A61BFF34F8FAA
:10263000BFF36F8F5A6931F8021C22F480725A611D
:10264000BFF34F8FBFF36F8F4DF60272914209D0E7
:102650009A6AD2B242B101200DF10701FFF75CFF87
:102660000446BBE73468B9E79A6A12F47F4F05D095
:1026700001200DF10701FFF719FFF1E79B6AB3F5A0
:10268000803FAAD3FFF7E4FEEAE700200DF107013F
:10269000E4E700200DF10701EDE723F4FF7323F0D9
:1026A0000103ADE700ED00E0044B5A6942F010026F
:1026B0005A615A6942F480625A61704700ED00E045
:1026C000EFF30880EFF3098101B57246FFF760FF71
:1026D00001BD00BF002080F31488BFF36F8F00207E
:1026E00080F30A8880F30B8800F014FA00200E496A
:1026F0000860BFF34F8F0D4880F3088800F02CF876
:10270000202080F311880A484FF40061401880F3BC
:102710000988EFF314800221084380F31488BFF383
:102720006F8F00F009F9000094ED00E0D86A0020F6
:1027300098210020BFF34F8F0549064BCA6802F469
:10274000E0621343CB60BFF34F8F00BFFDE700BFD4
:1027500000ED00E00400FA0572B6002383F313884D
:102760004FF0FF300C4A03F120010133102B42F8E7
:102770002100F8D100234FF0FF30074A03F1600138
:102780000133102B42F82100F8D162B6BFF34F8F0E
:10279000BFF36F8F704700BF00E100E0084B9B68FC
:1027A00083420BD1EFF3058343B1064B5A6842F0E5
:1027B00080525A605A6A22F400425A6207F083B883
:1027C0003C1E002000ED00E06FF00A01084A93680B
:1027D0009967084958674B6843F080534B60002362
:1027E00083F31188BFF36F8F9368986F704700BFB2
:1027F0003C1E002000ED00E022498A6882F8BDE01E
:102800004FF030001044EFF3098C80E8F01F1EF009
:10281000100F03D102F17C0080EC108A202080F39D
:102820001288BFF36F8F184F4FF000668A698A6075
:102830003E6092F9BDE0506F0023536780F311882A
:102840001EF0100F03D00023E1EE103A03E002F176
:102850007C0090EC108AEFF3148323F0040383F3DD
:102860001488BFF36F8F02F1300090E8F01F8CF3F3
:10287000098802F1000004B505F08AFEBDE80440B5
:10288000704700003C1E002004ED00E01EF0040F25
:102890000CBFEFF30880EFF30980816911F8021C87
:1028A0000229FFD001B505F064FE01BD40B2002849
:1028B00007DB01234109034A00F01F00834042F86F
:1028C0002130704700E100E040B200280CDB01221B
:1028D0000649430900F01F008240203341F82320BD
:1028E000BFF34F8FBFF36F8F704700BF00E100E071
:1028F000054B420953F82220012300F01F0003FA80
:1029000000F01040704700BF00E100E040B2002836
:1029100001F10101ACBF00F16040064B4FEA4111EB
:10292000C9B2ABBF00F5614000F00F0080F80013A2
:102930001954704714ED00E0144A08B5144B22F006
:102940007F029A60BFF34F8FBFF36F8FD3F8882059
:1029500022F47002C3F88820D3F8882042F4A00241
:10296000C3F888204FF04042C3F83422BFF34F8FA2
:10297000BFF36F8F0023E1EE103A02F001FD03F088
:1029800095FA00F08FF802F045FD00BF000000004E
:1029900000ED00E042F8203C009B0D4942F81C3C51
:1029A000019B21F0010142F8183C029B42F8081CEF
:1029B00042F8143C4FF0807342F8043C0023436714
:1029C0004FF47D43203A0265C0F8BC30704700BF29
:1029D000A3810000114B9B6883421BD1EFF305805C
:1029E000C0B94FF02002EFF3118182F31288BFF3D8
:1029F0006F8F1A7B22F002021A73EFF3148323F015
:102A0000040383F31488BFF36F8F81F31188BFF33E
:102A10006F8F70476FF01500704700BF3C1E00209D
:102A20000023E1EE103AEFF3148323F0040383F361
:102A30001488BFF36F8FBFF36F8F094B9860436E9D
:102A400083F30B88104681F30988002163B681F374
:102A50001188BFF36F8F0022002305F0A2FB00BF97
:102A60003C1E0020014910220A60704710ED00E072
:102A700072B6404080F31188BFF36F8FBFF34F8F62
:102A800030BF62B6BFF36F8F704700BF72B6494068
:102A900081F31188BFF34F8F20BF80F3118862B696
:102AA000704700BF002320210348C2180133412B87
:102AB00082F80013F9D1704700E100E001B5EFF3AF
:102AC0000580A0F110004FEAC0000449014409C983
:102AD0009847BDE80140024908470000949A000069
:102AE00035240000014B1860704700BF38000020FB
:102AF0000122024B0020C3F840257047009003508C
:102B000020B1034B800143F001031847704700BF19
:102B1000B09C000001F0CABB084B70B5C31A0D464B
:102B200007499B10044659434022064805F087FD9B
:102B30002B4601462046BDE870401847681D00201E
:102B4000B76DDBB6089A0000402373B50B4C0093B9
:102B5000041B0B460D460A49A41061430646094A68
:102B6000094805F098FD011E05DA30462B4602B0F3
:102B7000BDE87040184702B070BD00BF681D00205E
:102B8000B76DDBB601870000089A000070B500221F
:102B9000012104460520FFF7B9FE0F4801F0B0FC03
:102BA0000E4B984215D101F0BBFC26690C4930460A
:102BB00005F052FB00280BDB012535642469084928
:102BC00004F11C0005F048FB002801DB0020E5644F
:102BD00070BD6FF00400FBE7192C00000000AD0B86
:102BE000009E000001460C2300224B4370B50848AC
:102BF000C41840331844D4E90E56A26305F00CFD06
:102C00002DB132462B46BDE870400248184770BDD2
:102C1000681D0020089A000010B1012804D07047F8
:102C2000034B1B6C5B0701D1FFF7DCBF704700BF94
:102C3000681D002008B54FF02003EFF3118183F3E6
:102C40001288BFF36F8F124A136843F002001060BE
:102C5000DA0708D481F31188BFF36F8FBDE808400D
:102C6000012001F071BC4FF05023D3F80C24D3F8AD
:102C70000C34DB07EED5074805F0CEFC81F3118854
:102C8000BFF36F8FBDE808400020FFF7ABBF00BF68
:102C9000B81D0020A81D00201FB500220123CDE98A
:102CA00002236B46084ACDF800D0CDF804D005F0D9
:102CB00020FD002805DB4FF480420023684602F027
:102CC000A9FD05B05DF804FB2187000010B54FF0A9
:102CD0002003EFF3118483F31288BFF36F8F074A49
:102CE000136823F00201DB07116002D4012006F013
:102CF000CFFB84F31188BFF36F8F10BDB81D002088
:102D00002DE9F041012207463749D1E8EF3FC1E8FC
:102D1000E02F0028F9D133B9344935484B60CB60F6
:102D20008A6005F0ACFA7B1E012B2BD8012F07D14E
:102D30004FF05023D3F81C3403F00303022B21D0AF
:102D400006F0D7FC0546F8B92A4B1B78E3B14FF0E3
:102D5000502302220646C3F808234FF05024DFF820
:102D60009880D4F81824D4F81834D20316D503F078
:102D70000303022B01D0012F10D175B386F3118804
:102D8000BFF36F8FBDE8F0814FF02003EFF31186A2
:102D900083F31288BFF36F8F0125DEE7C5B130469C
:102DA000FFF774FED4F81835DBB2012BD9D1D4F873
:102DB0000421002AD5D00022C4F80421D4F804212B
:102DC0000222C4F818252022C8F88021A360C8E791
:102DD0000021212003F04AF8E4E74FF050230222BB
:102DE000C3F80423CEE700BF641D0020541D00205B
:102DF000841D00209121002000E100E008B5074873
:102E000006F01EFC38B10648FFF76CFE0448FFF7D9
:102E100097F8002008BD6FF01200FBE7449A00000D
:102E2000252E00000A2838B50446074D04D1AB68AA
:102E30000D2128465B689847AB6803485B68E1B2A0
:102E40009847204638BD00BF449A000000487047AC
:102E5000C49E0000024B0B6001231360704700BF4B
:102E6000DC1D002000487047E09E000010B50122E4
:102E70000648114606F05EFC06F071FB044C20602B
:102E800006F06AFB6060002010BD00BFE41D00205A
:102E9000DC1D002070B50C46154606F05DFB29468A
:102EA0000646204605F00BFF08B3B4FBF6F306FB1D
:102EB0001343E3B9B5FBF6F306FB1353BBB9AE42BC
:102EC00001D9002070BD4FF0FF324FF0FF330948A9
:102ED00002F0A0FC06F040FB0646204601F050FF41
:102EE000AD1B3444F9D1034802F070FCE9E76FF000
:102EF0001500E7E7E41D0020F8B50E4619463046F8
:102F000017461C4605F0DBFE08B344EA060515F03B
:102F100003051CD1A4B14FF0FF324FF0FF330D4831
:102F200002F078FC24F00304A54206EB050009D169
:102F3000094AD2F80034DB07FBD5064802F046FC0C
:102F40000020F8BD795901F039FF0435ECE76FF046
:102F50001500F6E7E41D002000900350C3780F2B06
:102F600014D9C96B0B480B0E13708B0200EA911039
:102F700003F47C030906034301F0FE4110680B4390
:102F8000054901400B430020136070476FF0850036
:102F9000704700BF00FF0300FF00008038B54568A0
:102FA0002B69B3B11035284601F0D0FD044680B935
:102FB0000146284601F094FD084B98420BD1224669
:102FC0002846074901F074FD224605210D20FFF730
:102FD0009DFC002038BD6FF00400FBE70000AD0B46
:102FE000E52F0000430970B507D10B4B596821B19B
:102FF00001250C68094E854001B970BD8A682A40D8
:1030000002D030464B6898471CB1236821461C46C5
:10301000F2E72346FAE700BFF41D00201C9A0000E7
:103020002DE9F04340F206354668D00648BF03203C
:10303000337B02EA050558BFC2F3401087B001F0A8
:103040001F07B5F5837F144647EA43178DF8030041
:1030500041D00FD8062D18D007D8B5B1022D3CD0DD
:103060006FF0150007B0BDE8F083B5F5807FF7D1AC
:1030700001250AE040F20222954230D0B5F5407FAA
:103080002FD0B5F5007FEBD1022522032BD50123EC
:1030900072688B409360326962BB07F01F037F093F
:1030A00075D13D4A84F4803102EB8302D2F80032BC
:1030B000C1F30041C4F3404423F4E16344EA410412
:1030C00023F007031C4344EA800444EA0524C2F8C1
:1030D00000420020C6E70725D7E70425D5E70525E8
:1030E000D3E70325D1E7630341BF012372688B4017
:1030F000D360D0E71036394630460DF1020201F0B8
:10310000DDFC14F4403F80460CD13946304606F0D1
:1031100019FA224B9845DCD130469DF8021001F097
:103120001FFDD6E74FF0000901AB3946304603AA30
:10313000CDE90439CDE90199CDF80C9001F092FB6D
:10314000164B98428CD114F4003315D09DF80330FF
:1031500084F48034C4F300448DF80E3039464B4675
:10316000304603AA8DF80C508DF80D4001F028FC74
:103170000A4B9842CDD073E7CDE9043339460DF1BF
:103180000303304603AA039301F06CFBF0E780339E
:1031900052F82330FFDE00BF002584500000AD0B45
:1031A000F0B5406801F01F04057B87B044EA451480
:1031B0000569002D5FD0B2F5001F00F1100506D1A2
:1031C0002146284606F0C0F9002007B0F0BD0027D0
:1031D000B2F5800F01AE0197776037D1B3F1007F70
:1031E00014BF052304238DF804300023CDE90463C4
:1031F0000393836823FA01F111F0010118D1B2F1B0
:10320000A07F15D104F01F03620903F1800338D1B8
:103210001D4A52F82330DB070AD40DF1030632466B
:103220002146284601F04AFC184B984219D00296D4
:103230002146284603AA01F015FB154B98421DD1E3
:1032400001222146284601F097FCBDE7B3F1C06F8B
:1032500005D0B3F1007F14BF01230223C3E703238A
:10326000C1E73146284601F081FC094B9842DED087
:103270006FF00B00A9E76FF08500A6E76FF015006F
:10328000A3E751F82330FFDE002584500400AD0B86
:103290000000AD0B2DE9F043594D5A4E5A4F00EB4B
:1032A0008101814202D10020BDE8F083046814F45A
:1032B000805FC4F3432C04F07F0340F08F807F2BAA
:1032C0004FEA144408BF4FF0FF3315F80CC0192C17
:1032D00000F28780DFE804F00D13191C1F251C8500
:1032E000858585366185858585858585858564792E
:1032F0007C7FC2F80C355C1C5CD10430D1E7C2F88D
:1033000014355C1CF9D000245DE0C2F80835F2E702
:10331000C2F81035F5E75C1CC2F80835EDD0002482
:1033200004E05C1CC2F80C35E7D001245FEA531EB0
:103330005AD14FF00108DFF8CCE008FA03F9CEF8D3
:103340000C900AE0C2F80835BCF1000FD9D15C1C22
:10335000D3D000244FF0060CA046D0F8009009F41A
:10336000005EBEF1000F1CBF4FF00008012403F007
:103370001F0E5B093ED106EB8E0EDEF80032C9F35C
:10338000C1193B4043EA890343EA0C2343EA08039B
:1033900043EA4403CEF80032AFE7C2F80C35D3E776
:1033A000C2F86035B3F1FF3F0468A6D0C4F380349F
:1033B000002CBAD05C091AD10124DFF848E004FAE5
:1033C00003F8CEF80880A046C7E7C2F86435E9E7FD
:1033D000C2F86835E6E7C2F86C35E3E76FF0150030
:1033E00062E76FF085005FE70023DB60FFDE00230C
:1033F0009B60FBE700230EF1800E53F82E30F5E7BB
:10340000F0A2000000258450F0F8FCFF2DE9F743FE
:103410004FF00008476805693C680646C4F8008517
:103420002860D7F80C904146484601AA05F02FFDC8
:1034300000283CDB019BD9F8002019791868FFF7B8
:1034400029FF002833DB6B7A3169012B03D0032B72
:103450002BD14FF01008AB7A032B26D195F80BC077
:10346000BCF1000F02D0BCF1010F1ED12A7A12B1BB
:10347000022A1AD10E226B687068B3F5164F0068E5
:1034800000F0B28034D8B3F5165F00F0B0801AD8DF
:10349000B3F5966F00F0AD800CD8B3F5967F00F0D1
:1034A000AB80B3F5167F00F0AA806FF0850003B003
:1034B000BDE8F083B3F5166F00F0A480B3F5965F16
:1034C000F3D15C4B43E0B3F5E14F00F09E8008D8A8
:1034D000B3F5615F00F09B80B3F5964FE5D1564B95
:1034E00035E047F6122E7345DFD14FF400032EE08E
:1034F000B3F5613F00F08D8015D8B3F5963F00F02D
:103500008B800AD84DF6C02E734500F08780B3F546
:10351000614FCAD14FF46B0319E0B3F5E13FC4D159
:103520004FF0EB7313E0B3F5612F7AD009D8DFF8D1
:1035300020E1734578D0B3F5E12FB6D14FF0E863C1
:1035400005E0DFF810E17345AFD14FF08053C0F8CC
:103550002435736848EA0C081B6842EA0802C3F87D
:103560006C250B1DD5E9010183E803007B689907F1
:1035700012D505F1180001F071F8304B984256D180
:10358000287E04F10C0204F5907105F021FF012062
:103590002B7E984000F0AEFF0823C4F800353B7A3C
:1035A00053B9C4F81031D4F810316B69C4F834350C
:1035B0000123C4F8383523607B6800209A075CBF7C
:1035C0004FF48073C4F804337B68DB0644BF4FF4C8
:1035D0008003C4F804332B69C4F844350123C4F8CC
:1035E0004805A360E36062E74FF41D03AFE7144BA7
:1035F000ADE74FF49E23AAE74FF4A033A7E74FF4BB
:103600001C33A4E74FF41D23A1E70E4B9FE70E4B9D
:103610009DE74FF06C739AE70C4B98E74FF4650306
:1036200095E74FF0706392E74FF080638FE76FF09C
:1036300004003CE700B0130000A04E000000AD0BFA
:103640000050270000C0750000F03A0000903A01D9
:1036500090D0030040420F00F8B504460D460769BC
:1036600006F047F8B0B92E4B1B789BB16426606812
:1036700005F03BFC00BB012005F0A8FE013EF6D1A1
:103680000021212002F0F2FBF0E786F31188BFF35E
:103690006F8FF5E74FF02003EFF3118683F3128865
:1036A000BFF36F8F6068314605F01FFC90B986F359
:1036B0001188BFF36F8FEDE74FF02003EFF3118612
:1036C00083F31288BFF36F8F6068314605F00DFCFD
:1036D0000028DAD03B691D70626838691368C3F846
:1036E00044050120C3F848050020C3F82001D3F8A1
:1036F0002051C3F858015268D3F85801D20608D5B2
:10370000082062681268C2F800054FF48002C3F80E
:10371000042301229A6081F31188BFF36F8FF8BDF3
:10372000912100202DE9FF4105690746AA6CD0F8D8
:1037300004802B6D002A3AD16BB3B8F83040686C26
:103740009C4228BF1C46EE6CEB6C53B12A6D42B113
:1037500006F06042B2F1005F03D0202C28BF202485
:103760006E6E6A6CAC6500901AB1AA6C002A18BF24
:103770002246CDE901261BB12B6D002B18BF234635
:10378000002269464046039301F0C8FC164B98425C
:103790000AD06FF004033C69236304F1200002F0B7
:1037A00015F8002384F85C3004B0BDE8F081696C42
:1037B000EE6C0846B8F8304013B19A4228BF1A465A
:1037C000944228BF14460029BED001F06043B3F1F3
:1037D000005FB9D0202C28BF2024286E224604F098
:1037E000F2FE286EB0E700BF0000AD0B2DE9F04FF0
:1037F000994643688DB001938B880E46990407461D
:103800009246046900F127814FF0FF324FF0FF33F9
:1038100004F1100001F0FEFF6660D7F804B0D7F89D
:103820001080DBF80830039398F85D301BB1D8F8AE
:1038300000309E427AD0B6F804E01EF4006F40F0EB
:1038400037811EF0090F40F03081CEF34513082B6D
:1038500040F02B8133680293029AA94B9A4240F2BE
:10386000248104AD0BF10C0CBCE80F000FC59CE8E3
:103870000F0085E80F00DDE902329A4228BF1A46A0
:10388000A04B9A4215D2A04B9A4200F2ED809F4B7A
:103890009A4200F2EB809E4B9A4200F2E9809D4BE7
:1038A0009A4200F2E7809C489C4B9D49824288BF27
:1038B0000B461EF0020F09930EF0040300F0DC80AB
:1038C000002B14BF032302238DF82830CEF30013FE
:1038D0008DF82930DBF800301EF0020FD3F80825F0
:1038E00090484FF00103CEF340014FEA521540F0EB
:1038F000C780002D40F0FF809340C36098F85D3092
:103900002BB1584601F0CEFB002388F85D304346CA
:103910005846854A04A901F091FB844B984240F037
:10392000B4800123C8F8006088F85D30012384F872
:103930005C30019B996B4A1C03D003F13C0000F002
:103940002FF9BAF1000F40F0B680C4F834A000237C
:10395000A36304F1480204F1380104F1340005F0D6
:1039600030FB6064B9F1000F40F0AE80C4F83C90C9
:103970000023236404F1500204F1400104F13C00EF
:1039800005F01FFB0023E0642068236348B18368CF
:103990003BB10121083005F027FB2368186905F0C9
:1039A0004AFE3846FFF7BEFE00221346A06B834254
:1039B00040F0938000231946256CA94240F0948082
:1039C000934238BF134626464FF4FA524FF0000890
:1039D00002FB03F556F8203B4FF4004C1B684146B0
:1039E000B5FBF3F540F2E730C8354FF47A720023A7
:1039F000E5FB0C01FCF7A8FB02460B46304601F044
:103A000009FF18B9256B15F1740F13D16FF0730509
:103A10000198C4F8588001F045FB84F85D803F6947
:103A20003D6307F1200001F0D1FE87F85C8030464D
:103A300001F018FF236853B39A6842B3998811F4D0
:103A4000805624D1186905F0F6FD2068314608300B
:103A500005F0CAFA1BE0A369002B7FF4D5AE6368BA
:103A60009E427FF4D1AED8E6314B22E7314B20E7BE
:103A7000314B1EE7314B1CE7003B18BF012323E706
:103A8000002D3AD19340836038E76FF00405236836
:103A90009B8813F4005304D1636004F1100001F01B
:103AA00095FE28460DB0BDE8F08F6FF01505EEE7E6
:103AB0006FF08505EBE7DAF800306363002B3FF425
:103AC00046AFDAF8043043E7D9F80030E363002B5F
:103AD0003FF44EAFD9F804304BE7616B01EBC30103
:103AE000496801330A4462E7E06B00EBC1004068BB
:103AF0000131034461E7C960FFDE00239B60FBE7FF
:103B000047E8010000127A00FF083D007F841E0094
:103B10003F420F001FA107008FD0030048E80100BB
:103B200090D00300002584502B9100000000AD0BC5
:103B300000093D0080841E0040420F0020A10700C4
:103B40000123F0B587B08DF80230022300248DF8F0
:103B500004306B4403930F4601AB0DF10301049352
:103B600005460291059401F001F80C4B0646984277
:103B70000FD13946284603AA00F074FEB0420BD09C
:103B800028469DF8031000F0EBFF6FF0040007B02B
:103B9000F0BD6FF01200FAE72046F8E70000AD0B29
:103BA0002DE9F0410D46064605F0D0FC00220746FF
:103BB0002946304600F0E0FF6B0905F01F0429D1CB
:103BC000174B03EB8404D4F80022164B134043F048
:103BD0000C03C4F8003205F011FB80463368DB5952
:103BE0007BB100273046294605F0AEFCD4F8002210
:103BF0000C4B3846134043F00403C4F80032BDE8D0
:103C0000F08105F0FBFAA0EB08000628E6D96FF07A
:103C10007307E7E70023803453F82430FFDE00BF4A
:103C200000258450F0F8FCFF0123834070B5DC438D
:103C30000B4AD2E8EF1F01EA0405C2E8E65F002E56
:103C4000F7D14FF4803282400648C0F80823BFF312
:103C50005F8FBFF36F8F0B4214BF0120002070BD38
:103C6000041E00200050015070B40E4922F07F461F
:103C7000D1E90034D01AC31844F10004C1E900347A
:103C8000A6F50013B3F5400F09D2074B1B681A0ABB
:103C90001B069C19054B42F10005C3E9004570BCA9
:103CA00002F0DAB920020020081E002028020020BD
:103CB000D9B101230D4A8340D2E8EFCF4CEA030C7F
:103CC000C2E8E1CF0029F7D14FF48033084A83409E
:103CD000C2F80433074BD3E8AF3FC340DB0742BF12
:103CE0004FF40012044BC3F800217047041E00205B
:103CF00000500150001E002000E100E00D4B18684C
:103D0000010A0006BFF35F8F0B4BD3F80435181878
:103D100041F10001B3F5801F0AD2084BD3E900231B
:103D2000904271EB030303D210F1807041F1000166
:103D3000704700BF081E00200050015028020020DC
:103D40002DE9F04F85B016461F4604469DF840A069
:103D5000FFF76AFF0190FFF7D1FFB04271EB070355
:103D600052D23B4B301A67EB0101984271F10001CE
:103D70004DD2384B03EB0413D3E902239F4208BF13
:103D8000964258D04FF48038334908FA04F8204658
:103D900026F07F4BC1F8488305F024FA4FF0030961
:103DA000584604F15005AD00ADB205F1502504F5BB
:103DB000A87305F580350293029A20F07F4341F8FD
:103DC0002230C1F84483D1F80435244AC01A03389C
:103DD00020F07F4090422ED9286868B1D1F8043590
:103DE000A3EB0B0020F07F40B0F5000F039322D926
:103DF000204605F0F7F9039BBAF1000F07D109EB54
:103E0000030009F10109D7E7BAF1000F09D06FF0FB
:103E1000150520460199FFF74BFF284605B0BDE880
:103E2000F08F01230E4AA340D2E8EF0F1843C2E8F7
:103E3000E10F0029F8D107490E982301C8500F9BC4
:103E400001EB04120025C2E902675360E1E700BFFD
:103E5000010080001002002000500150FDFF7F0093
:103E6000001E00207FB500254FF0FF304FF0FF31DE
:103E7000194C1A4B0226C4F80833C4F84833184BBF
:103E8000C4F80855C3E902014FF480334FF400121F
:103E9000C4F80433134B0121C4F804631520C3F89C
:103EA00080212A46FEF732FD1520FEF7FFFC012394
:103EB0000D4AA360236013600C4B0D4A0093284603
:103EC0000023CDE90155FFF73BFF3046FEF718FF11
:103ED000284604B070BD00BF0050015003000F0021
:103EE0001002002000E100E0041E0020693C0000F8
:103EF000FFFF7F002DE9F7432E4BD3F804239007F3
:103F00000BD5D3F8042142B10022C3F804212A4A78
:103F1000D3F80431136801331360264AD2F804330E
:103F2000D90327D5254BD3E8EF1F21F00100C3E8C3
:103F3000E40F002CF7D1CB0702D4D2F84031CBB13B
:103F400000251C4CC4F84051D4F84031FFF7D6FE90
:103F50004FF02003EFF3118283F31288BFF36F8FCA
:103F6000174BD3E90267B042B94106D282F31188F8
:103F7000BFF36F8F03B0BDE8F0834FF0FF38D3E994
:103F800000104FF0FF391D60C3E902894FF4803300
:103F9000C4F84833C4F84051D4F8403182F3118852
:103FA000BFF36F8F0029E5D0009032463B4628468C
:103FB0008847DFE700500150081E0020001E002047
:103FC0001002002030B5431C124C85B005D084424D
:103FD000A8BF0446012CB8BF0124FFF78FFE0E4B8B
:103FE0000C4DD3E90013401AB0F5000F0FD2221880
:103FF000AA4228BF2A46002052180849CDE90100EC
:10400000009143F10003FFF79BFE05B030BD2A4647
:10401000F1E700BFFFFF7F0020020020693C0000A5
:1040200008B5FFF76BFE024B1B68C01A08BD00BF46
:1040300020020020012310B5074C15206360FEF715
:1040400043FC4FF40012054BC4F80833C4F848335E
:10405000034BC3F8802110BD0050015003000F0036
:1040600000E100E040EA0103C3F30E0330B58BB971
:1040700040F21515094CC90BC0F3C730994201D164
:10408000002030BDC218D2B202F5C07244F82250EE
:104090000133F3E76FF01500F3E700BF0030005085
:1040A00030B5816885B0103921F00704054604F069
:1040B00031FA10220146684604F090FA1022684650
:1040C000064904F080FA10236A462146284604F087
:1040D000EFF9003818BF012005B030BDA8A10000DD
:1040E00030B50D46816887B0102302AA1039044606
:1040F00004F0C9F9002802DA012007B030BD10220F
:10410000204602A905F0A1F800283AD110221E4944
:1041100002A804F048FA00280CBF012302232B70E8
:10412000204605F07EF8012301460DF107022046E6
:1041300004F0A9F90028DFDB9DF80730204603F0E2
:104140000F021B096A702B7101220DF1070105F0A6
:104150007CF810B96B78042B03D901236B70002312
:104160002B71A2682046183A22F00702083AA91CCF
:1041700005F07EF80028BFD12046E91C05F0D1F8F3
:10418000BBE70323CBE700BFA8A100007FB5264D06
:104190004400694655F8240005F0C9F8002835D1D7
:1041A000013455F8240002A905F0C1F801282BD1EB
:1041B00003238DF808308DF80B3000249DF8005053
:1041C0009DF80860194A2946107805F030F818B3B0
:1041D0003146507805F02BF8F0B19378042B03D0DA
:1041E0009DF80310994217D1D378042B03D09DF882
:1041F0000B10994210D11379042B09D15079831EE9
:10420000022B03D804B070BD0028D6D0FF20F9E7F8
:104210009DF802109942F1D00134032C02F10602FC
:10422000D1D10120EEE700BF14A0000015A30000CB
:1042300008B5EFF31083012B0C4A07D1126ABFF3C4
:104240004F8F511C4A424A41104608BD05F09CF868
:1042500000B172B6126ABFF34F8F531C5A425A41D3
:1042600005F092F80028EFD062B6EDE70080FF007D
:1042700008B5EFF31083012B0B4A06D1D269BFF3C7
:104280004F8F02F00102104608BD05F07DF800B125
:1042900072B6D269BFF34F8F02F0010205F074F8D5
:1042A0000028F0D062B6EEE70080FF0010B505F000
:1042B0006BF830B14FF050230022C3F81421C3F83B
:1042C000182105F070F828B10122644BC3F8382A90
:1042D000C3F878254FF47F02D2F83031D2F8342178
:1042E000BFF34F8FC3F30B03092B05D1012A1EBF68
:1042F00001225A4BC3F8782505F055F818B10E2263
:10430000574BC3F8E42E05F03FF830B10022534B71
:10431000C3F80C270122C3F810270022D30003F5AD
:104320007F03D3F80013BFF34F8F013108D0D3F8C8
:1043300000130132D3F80433B2F5807F0B60EDD166
:10434000EFF31084FFF794FF00284DD0BFF34F8F99
:10435000444BD3F80024012AFBD1C3F80425D3F839
:104360000024012AFBD1012C03D005F00DF800B187
:1043700072B6FFF77DFF58B13B4AD36923F00103C2
:10438000D361BFF34F8F374AD2F80034012BFBD1F2
:10439000FFF74EFF68B1344A136A23F0FF0343F07E
:1043A00020031362BFF34F8F2E4AD2F80034012B43
:1043B000FBD1012C03D004F0E7FF00B162B600226C
:1043C000284BC3F80425D3F80024012AFBD1BFF3FE
:1043D0004F8F2649264BCA6802F4E0621343CB6034
:1043E000BFF34F8F00BFFDE7FFF722FF0028ADD1DD
:1043F0001E4AD2F88C3043F44063C2F88C304FF43C
:104400007F03D3F83021D3F83431BFF34F8FC2F399
:104410000B02092A16D1013B022B02D8154AD35CA4
:1044200083B11148144903680E4A8B420CBF5A23CA
:104430000023C2F8103EC36A8B420CBF5A230023EC
:10444000C2F8003E094AD2F8883043F47003C2F83B
:104450008830BFF34F8FBFF36F8F10BD0040005007
:1044600000A00350009003500080FF0000ED00E02A
:104470000400FA0527A30000FA50FA5030B504688A
:10448000ACB1B4FA84F30122C3F11F03DBB29A404A
:1044900024EA0202D0E8EF5FA54204D1C0E8EC2F85
:1044A000BCF1000FF6D1EAD102480B7030BD0248D2
:1044B000FCE700BF0000AD0B0200AD0B10B50368B8
:1044C000CB40DB0710D401238B40026843EA020192
:1044D000D0E8EF4F944204D1C0E8EC1FBCF1000FCC
:1044E000F6D1F2D1014810BD0148FCE70000AD0B48
:1044F0000400AD0B014BC3F8040570470070015078
:10450000044B1A7922B9012218601A7102487047C7
:10451000024870470C1E00200000AD0B0C00AD0BD4
:1045200008B5084B1B6833B10520FEF7E1F910B957
:104530000520FEF7BBF94FF050230122C3F81825E0
:1045400008BD00BF0C1E002010B510B1012847D0D7
:1045500010BD4FF05023D3F81814D3F81824C90312
:1045600022D502F00303022B05D0012B02D000203C
:1045700004F035FF01234FF050220220C2F8183515
:1045800008224FF48273002103F1502319601C6844
:10459000012402F150221460164A126822B34FF02F
:1045A0005023C3F80403D3E7D3F81424D207E1D58A
:1045B000D3F81C2402F00302013A012AD7D80D4A8D
:1045C00012681AB10222C3F80423C1E7D3F8042108
:1045D000002AFBD00022C3F80421D3F80431B7E746
:1045E00000224FF48073CEE71A68002AFCD01960CD
:1045F0001B68ADE70C1E00204FF0502310B5D3F818
:10460000002152B10020C3F80001D3F8002101229B
:10461000C3F80823104B1B6898474FF05023D3F87A
:10462000042182B10022C3F80421D3F80421D3F875
:104630001824D3F81824022102F00302012A03D11E
:10464000C3F818159A6010BDC3F80813024B012077
:10465000BDE810401B6818470C1E002001460148A9
:10466000FFF70CBFDC000020036803F01F025B09AA
:104670000260024818BF0020704700BF0025845028
:1046800070B50D4C00F1080334F813300546DA0517
:104690000E4607D5C3F3432304EBC302526854F814
:1046A00033309847A3682BB131462846E268BDE80D
:1046B0007040184770BD00BFE0000020024611F0B6
:1046C000010004D003490B6A13600B6203B9002098
:1046D000704700BF0025845010B4134AC0B20830A0
:1046E00032F81030D9051CD5C3F3432123F4F85315
:1046F00022F81030002002F10E0434F8023F13F4C7
:10470000807F03D0C3F3432399420AD0013020288D
:10471000F3D1002342F8313004485DF8044BFFF731
:10472000CDBE5DF8044B7047E0000020380100204A
:10473000F0B5054600200126044607468C420BD101
:10474000114BD3F87C2132B10022C3F87C21D3F87D
:104750007C3140F00040F0BDE3B29B0003F5807275
:104760009B0806FA03F31D420BD002F1A04202F5AA
:104770005042D2F800C0BCF1000F02D0176012689E
:1047800018430134DAE700BF00D00050064BC0B236
:10479000083033F81000830643BF400B800000F55B
:1047A00080704FF4BE707047E0000020CBB202462C
:1047B00008460D49083331F81330990611D5990789
:1047C0000FD4012110685B0B9940C0F808131268E0
:1047D00002EB8303D3F8102522F00302C3F810255F
:1047E0007047002104F09FBEE0000020F7B5194E8D
:1047F000CDB2083536F815300746DB070C4626D50E
:10480000FFF7D4FF36F815309A0608D55A0B3B68E7
:1048100003EB82030022C3F81025C3F810252046BD
:10482000FFF75AFF002301A826F815300194FFF77F
:104830001BFF019B00EB8300D0F80022064B1340C6
:1048400043F00203C0F80032044803B0F0BD04484E
:10485000FBE700BFE0000020F0F8FCFF0000AD0B1C
:104860000400AD0B2DE9FF41136807460C461646C0
:10487000FBB1DFF84481CDB2083538F8152002F0DD
:104880002202222A22D000222046CDE900228DF8E1
:104890000E208DF80F200DF10E010DF10F0204F026
:1048A000F9FD38F8153023F0020343F0010328F82E
:1048B000153073684BB31A785868DFF8FCC0E3B260
:1048C00008333CF813108D0702D5B0B138481FE00B
:1048D00021F02001C904C90C2CF8131068B1032A77
:1048E000F4D870683D68406890F800E005EB8E05EC
:1048F0008AB9C5F81025C5F810253CF8131021F029
:104900001C0141EA82022CF81320B3682BBB294812
:1049100004B0BDE8F081D5F8108541EA4E3128F0A9
:104920000308C5F810853D6841F0200105EB8E05B0
:10493000D5F810052CF8131020F4473020F44070FF
:10494000C5F810052002D5F8107500F4F85040EABB
:1049500002403843C5F81005CFE72046D3E9006789
:10496000FFF7BAFE002ED2D0134DD5E900239642B0
:1049700003D19F4201D1002209E010480DF10F013F
:10498000FFF77CFD0B4B9842C2D19DF80F20E4B29B
:1049900005EBC20308345F6035F8143045F8326027
:1049A00043EA422343F4807325F81430AFE700BF95
:1049B0000400AD0B0000AD0BE0000020380100202A
:1049C0002DE9FF4107460C461E4612B3DFF8D4809E
:1049D000CDB2083538F81530980701D4990621D49E
:1049E00013F01C0F02D05378012B1BD001238DF83C
:1049F0000F3000232046CDE900230DF10F01931C59
:104A0000013204F047FD38F8153043F0030328F86D
:104A10001530002E44D0234DE1B2083135F8112075
:104A2000930703D4204804B0BDE8F081002096F835
:104A300000E03B6822F02002D20403EB8E03D20C8C
:104A4000C3F8100525F81120C3F8100596F801C029
:104A50004FEA8E08BCF1000F22D03868B678404487
:104A6000D0F810354FEA0C4C23F4981323F4F85384
:104A7000C0F81035230203F4F8530CF4403C36051B
:104A8000D0F8107543EA0C0306F48016334342EA6B
:104A90004E323B4342F02002C0F8103525F8112079
:104AA0000248C0E7E00000200400AD0B0000AD0BA1
:104AB000014BC3E902127047E0000020054BC9B268
:104AC000083133F81130990643BF5B0B024813706D
:104AD00002487047E00000200000AD0B0400AD0B61
:104AE00070B5174E054696F860403CBB2146402203
:104AF00006F1100003F072FD21462D68306D8842EA
:104B000012D1002345F30730C5F87C31D5F87C314C
:104B1000FDF7CCFE4FF00043C5F8043301230948EC
:104B200086F86030B36570BDCBB29B0003F5807230
:104B30007C2B04BFAC50AB580131E0E70248F2E7F0
:104B4000E00000200000AD0B0C00AD0B034B93F810
:104B50006000003818BF0120704700BFE00000204F
:104B60000148FFF7ABBC00BF340100200148FFF74C
:104B700085BC00BF3401002073B5CBB20C461D4983
:104B8000083331F8133099061AD513F0020617D1FD
:104B90005B0B05689C0004F580716E5069580168D4
:104BA0002144D1F8104544F00104C1F810452AB160
:104BB0000122016802FA03F3C1F8043302B070BDA8
:104BC000C3F38203042B11D0052B11D001A801944B
:104BD000FFF74AFD019A0369D34003F00103991CD2
:104BE000204602B0BDE8704004F09DBC0321F7E709
:104BF0000221F5E7E00000202DE9F347534B544F25
:104C0000D3F80403396DC0B240F00040FFF790FDC7
:104C1000051E18DA00236846F96D00934FF001086D
:104C2000FFF74CFD97F85C30DA0757D4396D4FF039
:104C30000040FFF77DFD6846F96DFFF73FFD002856
:104C4000F0D125F000450124002D66D102B0BDE869
:104C5000F08794FAA4F4B4FA84F4E00804F10803A9
:104C600037F8139004F007021DF8003008FA02F23A
:104C700023EA02030DF8003001A80194FFF7F4FCC9
:104C8000019B4FEA9901803350F82360C9F3820AEF
:104C90004B07D146C6F3014624D520465146FFF7BF
:104CA000EFFC01A80194FFF7DFFC019BF6B2803313
:104CB00050F82330C3F301439E4207D10021204620
:104CC00004F031FC3146204604F02DFC01A801948B
:104CD000FFF7CAFC019B08FA03F30362009C002C57
:104CE000B7D1A3E7022E0CD10321204604F01BFC10
:104CF0000AF00503012BE9D149462046FFF7C0FC25
:104D0000E4E70221204604F00EFCBAF1030FF3D0D1
:104D1000032EDBD1BAF1020FEDE795FAA5F3B3FA52
:104D200083F304FA03F29B0003F1A04303F550431D
:104D3000D3F81005D3F81015C0F30420C1F30141D6
:104D400025EA0205FFF79CFC7EE700BF00D000507B
:104D5000E00000200022034BC3F88425C3F804259B
:104D6000704700BF00900350044AD2F80834DB07B4
:104D7000FBD50160BFF35F8F704700BF0090035009
:104D800008B5C0F30B0383B90222094BC3F884258D
:104D9000C3F804254FF0FF320260D3F80024D20795
:104DA000FBD5FFF7D7FF034808BD0348FCE700BF6A
:104DB000009003500000AD0B0A00AD0B012208B5B6
:104DC000054BC3F88425C3F80425FFF7CDFFBDE8E4
:104DD0000840FFF7BFBF00BF00900350430904D154
:104DE0000123034A83409360704700239B60FFDEEA
:104DF000002584500C4B984213D00AD80B4B984294
:104E00000FD00B4B98420CD00A4BC31A5842584152
:104E10007047094B984204D0084B984201D0084B88
:104E2000F3E70120704700BF40420F0090D003001D
:104E300020A1070048E8010000093D0000127A00A7
:104E400080841E00431C14D000F01F0340090BD1C6
:104E5000084A02EB8302D2F80012074B0B4043F0E2
:104E60000203C2F8003270470022803352F8233028
:104E7000FFDE704700258450F0F8FCFF430904D1A1
:104E80000123034A8340D36070470023DB60FFDEC9
:104E90000025845038B51446421C054616D0012919
:104EA00002D1A3B1FFF79AFF05F01F036D0911D1DD
:104EB0000B4A41EA840402EB8303D3F80002094A57
:104EC0000240144344EA4101C3F8001238BDFFF721
:104ED000D5FFE9E70022803352F82330FFDE00BF20
:104EE00000258450F0F8FCFF2DE9F8434C4B4D6948
:104EF00007469D420C4690F804907DD071D8494BEE
:104F00009D427CD0484B9D427CD0484B9D420CBF7B
:104F10004FF000754FF080452422DFF81C81E07EC1
:104F200002FB0983997F60F3000199773B79217C2B
:104F300002FB0383D977E67EEEB9237E3246012B4E
:104F400094BF0023012301212068FFF7A3FF33460C
:104F5000324601216068FFF79DFF33463146A27E4D
:104F6000A068FFF797FF237C32460121E06883F0B9
:104F70000103FFF78FFF242202FB0989E368C9F8C8
:104F80002030237C89F81F30267FA07C217E637E21
:104F90003A6846B9D4E900C6A468C2F808C5C2F8A0
:104FA0000C65C2F81045003B18BF01230229C2F866
:104FB000C005C2F824552BD003292CD0012901D1DA
:104FC00043F00203C2F8543524223B79534358F886
:104FD00003301BB33868BDE8F84340F30730FDF7F2
:104FE00065BC134B9D4210D0124B9D420CBF4FF03D
:104FF00000454FF080458FE74FF080558CE74FF02C
:10500000806589E74FF0006586E74FF0005583E73C
:1050100043F00403D6E743F00603D3E7BDE8F88383
:1050200040420F0090D0030020A1070048E8010093
:1050300080841E0000127A00141E00202DE9F8431F
:105040000746242597F80480124C05FB08F504EB6D
:1050500005091E4699F81C30C3B999B14869FFF794
:10506000C9FEA8B138466251C9F80460FFF73CFF99
:10507000242303FB08440023637701230648237796
:10508000BDE8F8836251C9F80460F1E70348F7E727
:105090000348F5E7141E00200000AD0B0C00AD0B1B
:1050A0000400AD0B2DE9F041044606790068194D66
:1050B00040F30730FDF708FC24237343EB5853B14A
:1050C0002368154A06EBC601C3F80823206805EBE0
:1050D000810104F09AFA2368242404FB0654D3F8CF
:1050E0000805D3F80C75D3F81085A37FDB070AD425
:1050F000FFF7A8FE4046FFF7A5FE3846FFF7A2FEE1
:10510000206AFFF79FFE242303FB065500232B771D
:10511000BDE8F081141E00205201080024232DE96F
:10512000F0430779524D7B439046EA180E46517F73
:10513000814685B0002940F09880EB5823B118F0E3
:10514000140F04BF01235377242496E80F0004FBB7
:10515000075404F10C0C8CE80F00206A431C03D0A8
:10516000E37FD3B1FFF73AFE3368D9F8004023B1AB
:1051700003F06043B3F1005F06D1B36883B103F07D
:105180006043B3F1005F0BD02423002203FB0753DD
:1051900038485A7705B0BDE8F083FFF76FFEE3E7C4
:1051A00018F0010318BF0123C4F8503518F00203AA
:1051B00018BF0123EC46C4F8403596E80F008CE890
:1051C0000F00039BC4F84405C4F84815C4F83425FF
:1051D000C4F838350023C4F81831D4F8183107233F
:1051E000C4F8003524237B4318F0080F05EB0302B5
:1051F0001DD10121E858216158B9D4F81831002B8C
:10520000FBD062464021204604F0C1F924237B43B1
:10521000EA18EB5803BB106A411C12D107EBC70711
:10522000204605EB870104F0F0F91348B2E7EB588C
:1052300093B9106A431CF8D0D37F53B1FFF71EFE19
:10524000F3E7D37F13B1FFF719FEE7E7FFF7C6FDDA
:10525000E4E7FFF7C3FDE8E7402318F0040F14BFAD
:10526000C4F80833C4F80433DFE7044892E700BF0A
:10527000141E00200A00AD0B0000AD0B0B00AD0B9F
:1052800010B540210F4A104804F081F9C0B10F4C0D
:10529000206A431C03D0E37F7BB1FFF7EFFD637F00
:1052A0001BB10A49084804F0B0F9002323720848EA
:1052B000D4E90031BDE810401847FFF78FFDEEE755
:1052C00010BD00BF201E002000B00050141E0020A2
:1052D0001C1E002038B54FF02003EFF3118583F337
:1052E0001288BFF36F8F064B9C6803F08BFF85F32A
:1052F0001188BFF36F8F2046BDE83840FDF74EBAE6
:105300003C1E0020104B70B553F82040013053F87C
:105310002060A64200D870BDD4E9003595B153B1E4
:105320002846984738B10028B8BF4042FF28A8BF98
:10533000FF20EB681870EA68537843F0010353705C
:105340000834E6E79847FBE71CA00000012208B5F7
:10535000094B03201A70FFF7D5FF00F001FF04206E
:10536000FFF7D0FF00F030F9FBF7C2FE034A137BD2
:1053700023F00103137308BD91210020F0020020E7
:1053800008B50348034A0021121A04F064F908BD65
:105390001002002094210020C02370B5174E012276
:1053A00003FB0066002386B0CDE904230F2201939E
:1053B000CDE9023218234FF4A0720446104D114972
:1053C00003FB005502FB00110F4B3046009500F027
:1053D000CBF8737B2C7423F0040373730B4B0134F1
:1053E00003EBC4236B600A4BEE60D3E8EF1F01317F
:1053F000C3E8E21F002AF8D106B070BD30020020D9
:105400003C1E002098290020FF96000098210020D3
:10541000381E002080B50020B6B0FFF773FF2B4B7D
:1054200003F5006282F3088883F30A880024E023EE
:10543000274D284E85F82230EC772C766C76AC76AA
:1054400085F820406B6A244F43F4E0236B6285F8B3
:105450002340FDF729F9FDF705FB4FF0FF33AB6261
:10546000EB6240F20113ADF8243006ABB360CDE936
:105470001F44229404F0E3F80120FFF743FF0220C9
:10548000164DFFF73FFF00F067FC154BB561059324
:10549000012314494FF48042CDE9034328463B469B
:1054A000CDE90144009400F05FF806466A7B284687
:1054B00022F004026A7304F083F92046FFF76CFFC0
:1054C0003A4631462846FDF7ABFA00BF9821002046
:1054D00000ED00E03C1E00204D530000F0020020D3
:1054E0002AA30000D82A0020002038B5054C064D1C
:1054F000AC4200D338BD204604F0B1F80028F9DBF7
:105500001C34F5E7BA010020BA01002073B50C463F
:105510004FF02005EFF3118185F31288BFF36F8FF1
:10552000C5685DB125602B68C36083690133836101
:10553000002081F31188BFF36F8F11E052EA030658
:1055400003D16FF00B002560F3E7CDE9002302469D
:10555000083000F03DFB18B9024B9B685B69236083
:1055600002B070BD3C1E00202DE9FF410E9E00F1EF
:10557000580506730426C0E91655002504464673EF
:105580000D9EC0E906558673D61D0C9A26F00706B7
:10559000C0E919168560C573C56602920B9A01EBC6
:1055A000060801920A9A00924246FDF7F3F9054B6C
:1055B00065659B6803B11B6F4046236704B0BDE877
:1055C000F08100BF3C1E002070B5224C224D86B0F9
:1055D0002646AE4204F130040AD300F08DFB1D4C88
:1055E0001E4EAC4220D306B0BDE8704000F098BB20
:1055F00054F80C3C059354F8103C049354F8143CB4
:10560000039354F8183C029354F81C3C019354F84B
:10561000203C009354E90A2354E90C01FFF7A4FF4E
:1056200054F8303C5E65D3E7D4E90A23B3F1FF3F79
:1056300008BFB2F1FF3F05D052EA0301206803D151
:1056400000F03CFB3034CCE73146183000F08EFCE3
:10565000F8E700BF9C9C00009C9C00005B98000049
:1056600038B5836804466BB3194A926893422CD1CB
:10567000C368012B03D9013BC360002038BD4FF044
:105680002003EFF3118583F31288BFF36F8F016955
:10569000806804F040F8204604F0E3F8A06058B1B8
:1056A00090F90E2022610022826704F089F82946D1
:1056B000084800F0F1FAE0E7E06085F31188BFF3F5
:1056C0006F8FDAE76FF01500D8E74FF0FF30D5E7BE
:1056D0003C1E0020922100202DE9F341044617468C
:1056E0001E464FF02003EFF3118883F31288BFF3B7
:1056F0006F8FC368334A7BB180689168884219D044
:1057000057EA060318D188F31188BFF36F8F6FF043
:105710000F0002B0BDE8F081916891F90E100133DD
:10572000E36093682161A36088F31188BFF36F8FF2
:105730000020EEE72169F2E791F90E1090F90E30A2
:105740006FF07E029942A8BF19469142B8BF114638
:105750008B422EDD03F0DFFF054622464146CDE9B0
:105760000076194800F034FA0028E1D04FF0200309
:10577000EFF3118683F31288BFF36F8FA068D0B167
:10578000236821699C420AD04BB193F90E309942AB
:10579000A8BF19466FF07E039942B8BF194603F0BF
:1057A000BAFF40B13146084800F076FA6FF00A00BF
:1057B000AFE70025D1E7002DF4D186F31188BFF3C0
:1057C0006F8FF3E73C1E00209221002038B504467D
:1057D0004FF02003EFF3118583F31288BFF36F8F2F
:1057E00004F03FF848B10022826703F0E9FF294640
:1057F000BDE83840064800F04FBAD4E902329A4278
:1058000018BF0133A36085F31188BFF36F8F38BDD4
:105810009221002013B54FF02004EFF3118184F39F
:105820001288BFF36F8F846844B1013C846081F3B8
:105830001188BFF36F8F002002B010BD52EA03043D
:1058400006D181F31188BFF36F8F6FF00F00F3E77C
:10585000CDE900230246024800F0BAF9ECE700BFA8
:105860009221002070B504464FF02003EFF311851C
:1058700083F31288BFF36F8F6FF00A06204603F0A0
:10588000F0FF18B1866703F09BFFF7E7A060294699
:10589000BDE87040014800F0FFB900BF9221002030
:1058A000C3897F2B12D80A4B1B6863B1094B90F94F
:1058B0000E201B689A4209DB437BDB0606D1064BB0
:1058C000C31A18BF012303F0010070470023FAE751
:1058D0006C1E0020681E0020300200200122044BB4
:1058E000C01A044BC0105843034B1A54704700BFF2
:1058F000B0030020ABAAAAAA9221002070B50E4BDB
:105900000E4C1E7C054606EB460304EBC304204602
:1059100003F0FAFF00220A4B28469A55FFF7C0FF12
:1059200048B1084B2046BDE870401A680649013A64
:10593000D31700F01BBB70BD3C1E0020B00300203D
:10594000922100206C1E0020DD58000038B50D4D5E
:105950002B4653F81C4F9C4200D004B9EC68AB684E
:1059600038B95A7BD20604D1A26912B9DA897F2AE2
:1059700005D89C4202D02046FFF7C0FF2346AB610A
:1059800038BD00BF3C1E002070B590F90D200146C7
:10599000002A437B04DA03F07F03437303F0D6FE4F
:1059A000154A4B7B104663F07F034B7350F81C3F46
:1059B000146A834208BF002323B9C1E900042160AF
:1059C00011620CE091F90E5093F90E60B5420ED0C1
:1059D000AE420CDD5868C1E9003001605960906842
:1059E000BDE87040431A58425841FFF7AFBF9C4290
:1059F000E3D01B68E0E700BF3C1E002070B490F9C4
:105A00000D30427B002B29DBD30627D183692BBBCA
:105A1000134962F07F0242730A4652F81C4F9442C7
:105A200018BF23460C6A23B9C0E90024206008622D
:105A30000CE090F90E5093F90E60B5420AD0AE42D8
:105A400008DD5A68C0E9003210605860002070BC60
:105A5000FFF77CBFA342E7D01B68E4E770BC704748
:105A60003C1E002008B590F90D200146002A437B1A
:105A700004DA03F07F03437303F068FE044B986875
:105A8000431A58425841BDE80840FFF75FBF00BFC6
:105A90003C1E002070B515461C46064603F068FE05
:105AA000B4F1FF3F08BFB5F1FF3F08D02A462346B7
:105AB00006F118000249BDE8704000F057BA70BD09
:105AC0005B980000002A2DE9F0410E460CBF102122
:105AD0000821437B044619420AD10B43DD0903F038
