:020000040000FA
:10000000E83F0020D52000000D610000A92000007D
:10001000A9200000A9200000A9200000A9200000BC
:10002000000000000000000000000000AD1D000006
:10003000A920000000000000A9200000A920000065
:100040000D1E00000D1E00000D1E00000D1E000004
:100050000D1E00000D1E00000D1E00000D1E0000F4
:100060000D1E00000D1E00000D1E00000D1E0000E4
:100070000D1E00000D1E00000D1E00000D1E0000D4
:100080000D1E00000D1E00000D1E00000D1E0000C4
:100090000D1E00000D1E00000D1E00000D1E0000B4
:1000A0000D1E00000D1E00000D1E00000D1E0000A4
:1000B0000D1E00000D1E00000D1E00000D1E000094
:1000C0000D1E00000D1E00000D1E00000D1E000084
:1000D0000D1E00000D1E00000D1E00000D1E000074
:1000E0000D1E00000D1E00000D1E00000D1E000064
:1000F0000D1E00000D1E00000D1E00000D1E000054
:100100000D1E00000D1E00000D1E00000D1E000043
:100110000D1E00000D1E00000D1E00000D1E000033
:100120000D1E00000D1E00000D1E00000D1E000023
:100130000D1E00000D1E00000D1E00000D1E000013
:100140000D1E000053B94AB9002908BF00281CBF82
:100150004FF0FF314FF0FF3000F00CB8ADF1080C5C
:100160006DE904CE00F008F8DDF804E0DDE90223D3
:1001700004B07047704700BF2DE9F04786468C46B3
:100180000846089E154674461946002B40F0C1806B
:100190008542B2FA82F245D94AB1C2F1200300FA8F
:1001A00002FC954094402EFA03F343EA0C0C4FEA0C
:1001B000154EA8B2230CBCFBFEF80EFB18CC08FBB6
:1001C00000F943EA0C43994528D9EB1808F1FF37A9
:1001D00004D2994502D9A8F102072B44A3EB0903E5
:1001E000A4B2B3FBFEFC0EFB1C330CFB00F044EA94
:1001F0000344A04214D92C190CF1FF3304D2A042BD
:1002000002D9ACF102032C44241A43EA07401EB180
:10021000D440002334607360BDE8F0874746DDE7D3
:100220006346F1E792BB431B01214FEA154EAFB283
:10023000200CB3FBFEFC0EFB1C330CFB07F840EA62
:100240000343984561D9EB180CF1FF3004D298456F
:1002500002D9ACF102002B44A3EB0803A4B2B3FB18
:10026000FEFC0EFB1C330CFB07F744EA0344A742D9
:100270004DD92C190CF1FF3304D2A74202D9ACF1AD
:1002800002032C44E41B43EA0040C0E7C2F1200310
:100290009540944020FA03F12EFA03F34FEA154EED
:1002A0009040AFB20343B1FBFEFC0EFB1C10190CD7
:1002B0000CFB07F841EA0041884522D969180CF186
:1002C000FF3004D2884502D9ACF102002944A1EBE9
:1002D00008019BB2B1FBFEFC0EFB1C110CFB07F7E7
:1002E00043EA01439F420ED9EB180CF1FF3104D2CF
:1002F0009F4202D9ACF102012B44DB1B41EA0041D1
:1003000093E76046E3E76146F7E76046A4E76346A4
:10031000B8E7834206D916B9002108467CE7C6E94A
:1003200000E0F9E7B3FA83F78FB9834201D372454E
:1003300008D8BEEB020460EB030301209C461EB903
:10034000002169E73846FAE7C6E9004CF8E7C7F14B
:10035000200CBB400EFA07F522FA0CF42EFA0CF131
:10036000BA401C4320FA0CF3B8404FEA1449014349
:100370001FFA84FEB3FBF9F809FB18300B0C08FBDD
:100380000EFA43EA00439A4540D9E31808F1FF30DA
:1003900004D29A4502D9A8F102002344A3EB0A0330
:1003A00089B2B3FBF9F809FB183308FB0EFE41EAEA
:1003B00003418E452CD9611808F1FF3304D28E45D4
:1003C00002D9A8F10203214443EA0040A1EB0E0147
:1003D000A0FB02984145CE46434602D306D14D4587
:1003E00004D20138B9EB020E68EB0403002EA7D04B
:1003F000B5EB0E0261EB030101FA0CFC22FA07F3E4
:10040000F9404CEA0303C6E9003199E74046C5E7E5
:100410004346D9E7F0B5344B344A4921C3F80026A6
:100420003348C3F8042685B0C3F80826C3F80C2661
:10043000C3F81026C3F81426C3F81826C3F81C26E0
:1004400005F0D7FD05F055F900F056FA054601A86C
:1004500000F0DCFC0446284600F05EFA254B1B68E1
:10046000A34205D04521244805F0C3FD05F04AFA12
:10047000039A4921214805F0BCFD4921204805F097
:10048000B8FD4FF48031002002F0B4FD044620B1E5
:1004900045211C4805F0ADFDFEE769469DF80800C2
:1004A00000F034F8009B039D1D44019B1E8902F05F
:1004B00089FDAF1900F0C0FF00F0A2FF01F04CFE73
:1004C00084F30B8884F30A88AB5983F3088884F398
:1004D0001488BFF36F8FBFF36F8F7B6898474521F8
:1004E000094805F086FDFEE7008001503546526E52
:1004F0005C71000008000020757100009871000018
:10050000C7710000EC7100001F720000024608B5C0
:1005100038B105480023452105F06BFD6FF015004B
:1005200008BD0860FCE700BF427200002DE9F04FF3
:100530001D46844BDBB01446DDE966781E68DDF8A5
:1005400090B1DDF8A0A100F025FF01227E4B3AA872
:10055000C3F8002503F0E2FF3FB1B8F1000F04DD5E
:10056000424639463AA805F03FFC4FF0000863893F
:1005700027891F44E3681F44474557D80DA93AA867
:1005800004F03EF80022704BC3F80025C3F80025A4
:10059000BAF1000F04D0202250460DA905F0D4FD79
:1005A00000232A46009321464FF6FF7307A805F063
:1005B000A1F8804600284AD128460C9C00F086F914
:1005C000844244D84FF0FF34DFF884B1DFF87891EB
:1005D0000DF1160305AA06A907A805F0D9F8002809
:1005E00035DB40F0A680BDF81670102F39D1BDF86C
:1005F0001480B8F1200F2AD14346284606993AAA1A
:1006000005F005FD18BB00F077F9424607463AA908
:100610000DA800F023F98046384600F07DF94B4BD9
:100620001B68434513D14FF00108D1E7659BA7EB49
:100630000809994528BF99465A464B4641462846DF
:1006400005F0E5FC30B100223F4BC3F800253D4BDF
:100650001E6871E04A4659463AA805F0C5FBC844F1
:100660008AE7012F3FD1BDF81430202BEFD8284660
:1006700006993AAA05F0CBFC04460028E7D19DF87C
:100680001430202B02930AD8DBF80030DFF8C4A026
:100690000393039B9C4205DB0023C9F800354FF010
:1006A000FF3495E700F076FEC9F800751DA803F049
:1006B00035FFDAF804201DA812685AF8081B05F067
:1006C00093FB15A91DA803F09BFF0022C9F8002584
:1006D000029A3AA915A805F027FD10B9C9F8000536
:1006E00076E70134D5E7222F7FF472AF631C3FF425
:1006F0006FAFDBF80030A342D1DDBDF81430802BA2
:10070000A5D8284606993AAA05F081FC00289ED172
:1007100000F0F2F8E4B207462021BDF814303AAAFE
:1007200000940DA800F018F80646384600F0F4F8DA
:10073000B5E7B8F1000F8AD000F0E6F830465BB0BC
:10074000BDE8F08F04000020000084500800002065
:10075000B86D0000BC6D00002DE9F04796B016465C
:100760001D469DF87820384B074653F8321003EBAE
:10077000C2035B6801911868DFF8DC800144302314
:1007800002AA01A8D8F8009005F0BCFA002851D1BF
:10079000DDE901431C44214606AB03AA01A805F08C
:1007A000D9FA002846D1049A072A43D12749059847
:1007B00005F0BAFC00283DD1079A082A3AD124490D
:1007C000089805F0B1FCA8BB214602AA01A805F0D3
:1007D000ADFA78BBDDE901A30AEB0302944229D10B
:1007E000412B27D135443023294603AA02A802967B
:1007F00005F088FAE0B9DDE9023213449D4217D3CF
:100800002A4602A906A805F00FF888B92A4602A9C7
:100810000EA805F009F858B99AF80030042B07D152
:100820002023384606AA0AF1010100F0CBFD38B1B9
:10083000D8F8009000F068F8484616B0BDE8F08798
:10084000044BD3F80090F5E7BC6D00007172000016
:1008500068720000080000200400002070B5094BF9
:1008600004461D680023934205D1074B1D6800F024
:100870004BF8284670BDE65CC85C8642F7D1013370
:10088000F1E700BF04000020080000201FB503208E
:100890000C4601F095F950B92068102381686A462A
:1008A000103905F0B4FB28B1206805F0AFFB4FF01C
:1008B000FF3006E010226846034905F035FC0028A9
:1008C000F2D104B010BD00BF4C71000013B5044656
:1008D00004F0E8FF6A460146204604F0F1FE30B11C
:1008E0000448452105F085FB002002B010BD0098AA
:1008F000FBE700BF79720000024B1868421C1A60C7
:10090000704700BFC8010020024A1368013B136012
:10091000704700BFC8010020034B1B68834201D011
:1009200004F0F0BF704700BFC80100202DE9F04F70
:10093000414B8BB0064600200D461C6804F0B5FE06
:1009400008A9C0B201F03CF928B1FFF7DDFF20464D
:100950000BB0BDE8F08F294604F0A7FE4FF02C0B3A
:1009600009A9C0B20BFB056B01F02AF9002844D09D
:100970002C276F4306EB0708D8F8104014F010043A
:100980004CD1FFF7B9FF089B81460793FFF7B4FFEF
:100990004FF480720192294A21468246CDE90344F0
:1009A000079B0294009220465A46FFF7BFFD04467B
:1009B0005046FFF7B1FFFFF7A7FF4846FFF7ACFF30
:1009C0001F4BF25908989A420CD1D8F80C20B8F86D
:1009D00008309B1806D28268934203D2194B1B68D9
:1009E000A34222D02DB38268002105F03AFB164ABB
:1009F0004521164805F0FDFA15E0099805F04EFB73
:100A00000446099805F002FB0BF1FF330BF10302DA
:100A100013F8011FA142ABD19342F9D11DB1304669
:100A2000089905F044F80A4B1C68089805F0EEFA9E
:100A30008BE7084ADCE700BF04000020DC0E002042
:100A40003DB8F39608000020BC720000C67200009A
:100A500000000020B47200007FB50D46002104465E
:100A60002846CDE9021104F0E1FF28B3194E2368AE
:100A7000B34203D1204603AA04F06DFFE36AB342F8
:100A800004D10121204602AA04F065FFDDE902320B
:100A9000934288BF0393039BAB60039A2946204689
:100AA00000F080FB0C4B1A68002A03DD57210B482D
:100AB00005F09FFA04B070BD01A9FFF7E7FE0198A9
:100AC00005F1080104F0F9FEAB680198039305F005
:100AD0009DFAE2E73DB8F3962C0E0020EE7200007E
:100AE0002DE9F84F884691469A460026DFF870B007
:100AF000194C1A4D0B9B9E4201D300200FE00B9B1B
:100B000040469F1BB7F5806F28BF4FF48067144A9B
:100B10003B4606EB0A0105F07AFA10B10120BDE868
:100B2000F88F0A993B465A464846711805F084FAF0
:100B30000028F3D1C4F800563E44C4F80456C4F863
:100B40000856C4F80C56C4F81056C4F81456C4F825
:100B50001856C4F81C56CDE7008001503546526E39
:100B6000CC0900202DE9F0410E4600219E4B86B0B5
:100B700043629E4B04460365084604F096FD04F16B
:100B80002001C0B201F01CF80121002004F08DFD0D
:100B900004F14C01C0B201F013F8204604F01CFF30
:100BA000054668B900222046114604F0BEFE0546FF
:100BB00000B3002257218E4805F01BFA01239EE066
:100BC000802257218B4805F014FA01239D4284F8B6
:100BD0005830E7D194F85830042B8DF80F3000F2DC
:100BE0009180012B00F2958000F0A880FF2384F80B
:100BF0005830A3E0204600F0EDF90028DED002A82E
:100C000004F00BFF0146204604F0A6FF18B12A4667
:100C100057217948D0E702A804F008FF80F00101CD
:100C200002AA2046C9B204F080FE02460028C0D1C4
:100C300002A804F0FBFE054660BB204602A9FFF7B0
:100C40000BFF9DF80F3084F85830033B012B06D87A
:100C5000284604F0D0FF10B1FF2384F858309DF8E7
:100C60000F30023B022B0BD8002004F0B2FF38B14A
:100C7000FF2384F858304521604805F0BAF9FEE7B3
:100C800094F85830FF2BF6D00021204602AA04F039
:100C90004CFE93E79DF80F70012F1ED1104602F015
:100CA0003DFA831E022B054614D8FFF725FE394670
:100CB00080462046FFF73AFE07464046FFF72CFEE7
:100CC0004F4B1B689F4205D04E4B1D68AF4214BF6F
:100CD0000525012584F858507CE7FFF70DFE01211A
:100CE00007462046FFF722FE05463846FFF714FE6A
:100CF000434B1B689D4214BF05239DF80F3084F8B9
:100D0000583067E7052B7FF471AF002004F073FFC4
:100D100011E0204602A9FFF79FFE94F85830DA1E32
:100D2000012A33D8002004F066FF00287FF45EAF6C
:100D3000002004F04EFF00287FF458AF94F858309C
:100D4000FF2B05D145212D4805F053F904F0DAFDBC
:100D5000002194F858302C4F012B019119D02046D6
:100D600002AA04F0E2FDA0B13D681022002102A811
:100D700005F0F5F9E06C05F049F9206A05F046F94F
:100D8000FFF7C2FD284606B0BDE8F081022BD5D1A1
:100D9000CEE7FFF7B1FD002180462046FFF7C6FDF4
:100DA00005464046FFF7B8FDDFF85480D8F800301C
:100DB0009D42D9D13B689D42D6D0124B1B689D42C3
:100DC000D2D0019B01330193019B012B01D004F090
:100DD00099FD206A04F072FC3071236A5B6834600C
:100DE000D8F80050B360C0E7CC050020CC0100204B
:100DF0005F7300001D7300008B730000B57300006B
:100E000008000020000000200400002070B50B4EF8
:100E1000044660220021304605F0A1F9FFF76CFD81
:100E2000214605463046FFF79DFE04462846FFF75B
:100E300073FDFFF769FD204670BD00BFCC0D00209B
:100E40002DE9F34106460C4617461D460BB9002610
:100E500028E0184604F0EAFD0028F8D16946FFF7BB
:100E600015FD009838B90124009805F0CFF8204608
:100E700002B0BDE8F08101A904F01FFD0028F2D105
:100E8000009805F0C3F83046019904F0D2FE736A69
:100E90005E686B79012B21D1002CD8D12B6883425D
:100EA00098BF00262146002004F0FFFB6946C0B22F
:100EB00000F086FE0028D6D120233A46314600981D
:100EC00005F0A5F804460028CDD1002DCCD03C6813
:100ED0000D4BE41A18BF4FF0FF34C5E7022BB6D113
:100EE0002B68012B05D98342B1D8B4FA84F4640984
:100EF000ADE7ACD1002CD5D0012CA8D12C79023C87
:100F000018BF0124A3E700BF3DB8F3962DE9F04FC9
:100F100007460C4685B001460020164604F0B5FC95
:100F2000051E50DB3846E46D04F0BCFC5FFA84F922
:100F30004FF0000A4FF0010B4FF0FF346B1E09FB1E
:100F400003089DB9BAF1010F03DD4521204805F0E2
:100F500050F8631C06D07F2C2ADC40F201130134C8
:100F60003460B380284605B0BDE8F08F6B1E009357
:100F70004146012338460DF10F0205F048F8031EE3
:100F8000019322DB012238460DF10F0105F047FBEA
:100F9000019B40B15B4501D00AF1010A9B46009DCF
:100FA000A8EB0908CDE7B4F1FF3F08BF2C46F5E7F1
:100FB0000223803C7371631004F001040133013497
:100FC00033603471CEE70725CCE70125CAE700BFBF
:100FD000C173000038B5816A426D914208D0531C3C
:100FE0008B4205D05721134805F003F8002038BD87
:100FF00080291CD957211048F6E7446A056D04EB97
:10100000C30405EBC30564686D68AC4202D0572188
:101010000A48E9E701339A42EFD1914205D9436A80
:1010200003EBC2035B68A342F1D10120DFE7002399
:101030001C46F0E7E47300001C7400004B740000D1
:1010400000B589B0032004A905F05BFB9DF81020D2
:10105000012A41D0254B2649032A08BF0B469DF89B
:101060001320492102929DF81220224801929DF8F6
:1010700011200092204A04F0BCFF092006A905F0C7
:1010800040FB9DF81820012A28D0184B1849032A44
:1010900008BF0B469DF81B20492102929DF81A209B
:1010A000144801929DF819200092144A04F0A1FFFF
:1010B0009DF81030012B13D19DF81230032B0FD166
:1010C0009DF81830012B0BD00D48492104F091FFF9
:1010D000022009B05DF804FB0A4BC0E7094BD9E7D1
:1010E0000948492104F085FF0020F2E777740000E9
:1010F000807400009474000086740000D5740000B1
:10110000E57400007B7400000475000070B54B6846
:1011100014461E4A03F0FF23934206460D4686B04E
:101120002FD10B68012B2CD1204604A901F0A0FF80
:101130009DF81020012A26D0154B1649032A08BF16
:101140000B469DF81320492102929DF81220124867
:1011500001929DF811200092104A04F04AFF9DF878
:101160001030032B0DD12146304604F0A0FC204660
:1011700005F0BAFA2046A96804F0B5FB204601F054
:1011800057FF06B070BD064BDBE700BF000100044F
:10119000777400008074000094740000D57400001F
:1011A0007B7400002DE9F04F1646054689B00C46C9
:1011B0007448492104F01DFF3146284604F039FDEA
:1011C0006B6A824620465E6804F030FCE8B1E86D48
:1011D00004F056FB0023AF6A013F3344834201D23F
:1011E000013FFAE7BA4510D35721674804F001FFE1
:1011F00007FB06F357210AFB0662644804F0F9FE78
:101200000123E37109B0BDE8F08F06A9032000F0C7
:10121000D7FC07A9092000F0D3FC21462846079AED
:10122000FFF774FF6379012B4BD15746DFF860B1AC
:1012300041E02268C2F1010353449F423AD86B6AED
:10124000012A196853F8370003EBC70353F8083C29
:10125000A0EB0109A3EB0103049311D1079B0393B6
:10126000E368022B08D04146284604F020FC2246C1
:101270004146284604F051FC2846039904F017FC27
:1012800032464946404604F010FC049B4246414623
:101290002846CDE90096FFF723FC2146284604F0B6
:1012A000D2FB23680133236020B1DBF80030013327
:1012B000CBF80030013FDDF81880002FB9D10123B1
:1012C0002360022301276371BA45DDF8189006D226
:1012D000484604F09BFE079804F098FE92E72368C6
:1012E0009F424DD36A6AFB0052F83710083B0491C5
:1012F0001168DDF81CB00391D1582A6DD0581368DD
:10130000A0EB03082379012B38D1039B3246C91A7D
:101310004846059104F0C9FB059943464A460091A9
:10132000284659460196FFF7DBFB2146284604F084
:101330008AFB0223237118B1154A13680133136025
:1013400032464146584604F0B0FBDDE903234946E6
:101350009B1A28465A46CDE90086FFF7C1FB214675
:10136000284604F070FB23680133236001232371B6
:1013700030B1074A13680133136001E0022BDFD05C
:101380000137A1E71B75000044750000737500006C
:101390002C0E002070B5094D2B780BB1002070BDCC
:1013A0000126074CC4F8006503F05AF918B92E70ED
:1013B000C4F80005F2E74FF0FF30F0E7DC0F002043
:1013C000000084502DE9F041ACB01F4606460C46A3
:1013D0001546FFF7DFFF0123DFF820802A46C8F813
:1013E000003521463346009703A805F0FFFA002395
:1013F000C8F800352CB0BDE8F08100BF0000845073
:10140000BFF36F8F72B600234FF0FF30094A03F12C
:1014100020010133102B42F82100F8D100234FF0B6
:10142000FF30044A03F160010133102B42F8210020
:10143000F8D1704700E100E038B501224FF0FF34E9
:1014400000251A4B29465A60C3F84843C3F808439D
:1014500003F580535A60C3F84843C3F80843A3F523
:101460005043C3F800558022C3F80843104804F0E5
:1014700076FE802229460F4804F071FE0E4B802232
:10148000C3F800552946C3F808430C4804F067FE2A
:10149000802229460A4804F062FE0A4BC3F8084538
:1014A0004FF05023C3F8084338BD00BF004001503F
:1014B000808000508081005000900050809000504B
:1014C0008091005000700150014B1B68184700BF0D
:1014D0000C00002007B50B4600210246009103488E
:1014E00000F014F903B05DF804FB00BFC91400005C
:1014F0002DE9F047058B04462807904611D40229B0
:1015000005F0070540F0CD80204604F097FC78B147
:101510000138218B042811D8DFE800F0C3106D8555
:10152000950001290CBF45F0100545F020052583E5
:1015300088F31188BFF36F8FBDE8F08701F0070AC9
:10154000AA4500F0A6800027B9463E46A368002BB6
:1015500000F0BD8041F00801218388F31188BFF3BA
:101560006F8FA168002900F0BB800D68002900F092
:10157000B780334652462046D1F80480C047002D3C
:1015800076D02B6829461D46F0E701F007035A1F65
:10159000012A1BD8002221F00701062B276889B2F7
:1015A000C4E9002209D13B4603E0628B0132628329
:1015B0001B68002BF9D141F002012046218304F081
:1015C0003DFC00287BD041F0200177E0042B0AD1BC
:1015D00021F0070189B22046218304F02FFC10B1CD
:1015E00041F020012183218B01F0070AAA4550D048
:1015F0000027B946AAE7236921F0070141F0060157
:10160000062DD3F8009021832DD1B9F1000F40D0E1
:1016100041F00801218388F31188BFF36F8F2046C2
:101620003949C84729E021F00701236941F0040145
:1016300089B2042DD3F804902183E6D000274FF01F
:10164000040A3E4682E721F00701236941F00501C3
:1016500089B2052DD3F808902183D6D000274FF00A
:10166000050A3E4672E700274FF0060A3E466DE740
:101670002B4687E7B9F1000FD1D14FF02003EFF3EC
:10168000118883F31288BFF36F8F238B23F0080335
:101690002383258BEA062ED525F01003238305F03E
:1016A00007056669218B002EBFF66FAF0023276800
:1016B000C4E9003321F0070141F001012183218BAE
:1016C0004FF0000901F0070AAA457FF43FAF002F51
:1016D0009BD041F00801218388F31188BFF36F8FFD
:1016E000002FC7D03D68394633465246204604F0A5
:1016F000D1FB2F46F4E7AB067FF51AAF25F02003A8
:10170000238305F00705FFE6C15E00002DE9F04FD9
:1017100082464FF000098DB01D46531E0191039380
:10172000039B58785C1C252819D100204FF0FF3806
:101730001E46444603460236029031780396392904
:1017400055D81F2914D8002900F0EF8101992520D0
:10175000D04701993078D04709F10209E0E7002825
:1017600000F0E3810199D04709F101090394D7E71B
:10177000A1F12002192AE9D801A757F822F000BFE9
:10178000E91700004D1700004D170000E917000091
:101790004D170000691800004D1700004D1700009C
:1017A0004D1700004D170000B5180000E9170000A4
:1017B0004D170000C9180000751800004D170000F3
:1017C00083180000A3180000A3180000A31800004D
:1017D000A3180000A3180000A3180000A31800001D
:1017E000A3180000A318000008460136A5E75829F1
:1017F00000F0EB80A1F16302D7B2172FA6D8172A09
:10180000A4D801A757F822F0711A0000EF180000C1
:101810004D1700004D1700004D170000CF180000B5
:10182000EF1800004D1700004D170000CF18000002
:101830004D1700004D1700004D170000A5190000BE
:101840004D1700004D170000451A00004D1700000D
:10185000EF1800004D1700004D170000A5190000FB
:101860004D170000CF18000025200199D04709F13D
:10187000010955E7029A4FF0000802F0FE020292B9
:10188000B3E7002C0DDAB8F1000F0DDA029A002A46
:1018900000F043810A2224EAE47402FB0414303C81
:1018A000A3E7B8F1000FF5DB0A2202FB0812A2F150
:1018B00030089AE7B8F1000F55F8042B80F22F8119
:1018C000002A80F22E815442022202928DE768297A
:1018D00003D1682B06D1482387E76C2902D16C2BF2
:1018E00000F02181002B7FF431AF0B467DE77A2B8E
:1018F00006D1752955F8046B14D14FF0000B0CE09C
:101900006C2BF6D04C2BF4D1073525F00703752945
:1019100003F10805D3E9006B06D120283BD1854FA0
:10192000013C09E04FEAE67BBBF1000FF5DA7642B5
:10193000814F6BEB4B0B013C0DF12D030593002305
:101940000493304659460A220023FEF7FBFB059B11
:10195000B446303203F8012D5A460593049BBCF17E
:101960000A0F8B4672F1000203F1FF310646049123
:10197000E7D2C3F1010B30330DEB0306B8F1000FD2
:10198000A6F104066DDA029BD9077DD4A8EB0B0300
:10199000A4EB0B0413E02B280ABF684F684F04F137
:1019A000FF34C9E770290FD155F8042B0023FAB989
:1019B0006FF004034FF0050B614F624E053C029A35
:1019C000920770D4A04666E078216C2B03D10023E7
:1019D00055F8042B08E04C2BF9D1073525F0070307
:1019E0001D465B6855F8082B232825D1880621D58C
:1019F000554F023C002601F06001A1F1390B0DF1B9
:101A00002D0E02F00F01092988BF594430310EF81C
:101A1000011D102A4FEA121141EA03714FEA131C0B
:101A200073F1000306F1FF3008D2C6F1010B06F195
:101A30003003A1E7454FDCE7414FDBE706460A46A6
:101A40006346DEE755F8046B304604F066FBB8F1F8
:101A5000000F834602DB4045A8BFC3464FF0000895
:101A6000374FA8EB0B03002B92DDA4EB0804A6E78D
:101A700055F8043B4FF0010B8DF81830304F4FF004
:101A8000FF33013C06AE9AE7A046EAE70293202026
:101A90000199D047029BB8F10108F7D524EAE47216
:101AA000013C9144A41AB84606E0049302920199BD
:101AB000D047029A049B9046424612F8010B002838
:101AC000F3D11A46013A15D5002BACBFC7EB03077B
:101AD0007F425B46013B15D5BBF1000FA8BF5F44B9
:101AE00026464F44013E14D5002CA8BF3F1907EBF2
:101AF000080915E60493029230200199D047049B0F
:101B0000029ADFE70293019916F8010BD047029B76
:101B1000E0E701992020D047E4E70122D5E690468E
:101B200063E6144661E64C235FE648460DB0BDE827
:101B3000F08F00BF127600001076000014760000CF
:101B4000C07300001C7600001676000019760000B5
:101B5000044608B54FF02002EFF3118382F3128898
:101B6000BFF36F8F01F02EFA204600F0E3FA03482E
:101B700004F057F900F088F8FCE700BF2276000077
:101B80004FF02002EFF3118382F31288BFF36F8FBF
:101B90000121044AC2F8401583F31188BFF36F8F07
:101BA000002070470090035020B1034B800143F0A8
:101BB00001031847704700BFB06D000001F024BB5F
:101BC00070B5114B0D461C68DCB1104B1968002331
:101BD0008B4202DB6FF0010070BD224612F8106BE1
:101BE000864202D014460133F2E7E06810B96FF084
:101BF0001200F1E704F0D1FE0028F8D000202C609C
:101C0000EAE76FF00C00E7E710000020C86D000065
:101C100070B588B005460C46C0B269461646FFF757
:101C2000CFFF00281BDB0098C8B1436822680293ED
:101C300083680195CDE903360023CDE9062305939A
:101C4000C56804F0E3F96DB12846084901AA04F01B
:101C5000A1FB079808B9059B236008B070BD6FF021
:101C60001500FAE76FF01200F7E700BFAB60000065
:101C7000014802F09BB900BFAC6E00000149102280
:101C80000A60704710ED00E072B6404080F31188A2
:101C9000BFF36F8FBFF34F8F30BF62B6BFF36F8F4D
:101CA000704700BF72B6494081F31188BFF34F8F70
:101CB00020BF80F3118862B6704700BF40B2002891
:101CC00007DB01234109034A00F01F00834042F86B
:101CD0002130704700E100E040B200280CDB012217
:101CE0000649430900F01F008240203341F82320B9
:101CF000BFF34F8FBFF36F8F704700BF00E100E06D
:101D0000054B420953F82220012300F01F0003FA7B
:101D100000F01040704700BF00E100E040B2002832
:101D200001F10101ACBF00F16040064B4FEA4111E7
:101D3000C9B2ABBF00F5614000F00F0080F800139E
:101D40001954704714ED00E030BFFFF7FDBF00BF2E
:101D5000144A08B5144B22F07F029A60BFF34F8FEC
:101D6000BFF36F8FD3F8882022F47002C3F8882065
:101D7000D3F8882042F4A002C3F888204FF04042F4
:101D8000C3F83422BFF34F8FBFF36F8F0023E1EE10
:101D9000103A01F0B1FF01F0F3FF00F08FF901F00C
:101DA000B7FF00BF0000000000ED00E01EF0040FD0
:101DB0000CBFEFF30880EFF30980816911F8021C72
:101DC0000229FFD001B504F099F901BD0446084687
:101DD00011461A460023E1EE103A83F30B880A4BB2
:101DE0002025A3F5205686F30B8883F3098863B674
:101DF0004FF0000383F31188BFF36F8FA04785F383
:101E00001188BFF36F8FFEE7E83F002001B5EFF3C5
:101E10000580A0F110004FEAC0000449014409C93F
:101E20009847BDE801400249084700000C6B0000DC
:101E3000351E0000704700BF154B9A6A12F0007FF4
:101E40009A6A14BF1E201D2012F0807F9A6A18BF64
:101E50001F2012F4801F9A6A18BF022012F4002F6C
:101E60009A6A18BF212012F4802F9A6A18BF222084
:101E700012F4003F9A6A18BF232012F4803F9A6A36
:101E800018BF24206FEA02426FEA12429A6270473A
:101E900000ED00E010B5194B0246986A9C6A10F4F8
:101EA000805F14BF1720162014F4006F9C6A18BFBF
:101EB0001820A40509D5986B986A000404D51AB1B6
:101EC0009A6A22F400429A6219200C4B9A6A12F420
:101ED000806F9A6A18BF1A20D2050CD49B6A13F43B
:101EE000005F18BF1C20054A936A43F47F43936246
:101EF00000230B7010BD1B20F5E700BF00ED00E0D4
:101F000010B51C4B0246986A9C6A10F0100F14BF63
:101F10001120102014F0080F9C6A18BF1220A4078B
:101F200009D5586B986A000604D51AB19A6A22F04E
:101F300080029A6213200F4B9A6A12F0010F9A6A7C
:101F400018BF142012F0200F9A6A18BF1520D4066B
:101F500058BF9B6A074B9A6A920642BF5A6A22F49C
:101F600000525A629A6A42F0FF029A6200230B7092
:101F700010BD00BF00ED00E070B5444B06465B6845
:101F800000258AB0C3F3080385F31188BFF36F8F70
:101F900002F07F40B0F17F4F11D102F00C00082811
:101FA0000DD010074CBF0E4601250022033B8DF8D3
:101FB0000720032B05D8DFE803F01E5C60592E468E
:101FC000F3E700249DF807309BB92022314602A890
:101FD00004F0BAF8099B002D53D0C3F3080222B9CC
:101FE0006FEA53236FEA43230993204602A904F0C2
:101FF00083F80AB070BD254BDA6A9107E1D4DA6A3A
:10200000002ADEDBDA6A5200DBD55A69B16942F494
:1020100080725A61BFF34F8FBFF36F8F5A6931F8E7
:10202000021C22F480725A61BFF34F8FBFF36F8F8F
:102030004DF60272914209D09A6AD2B242B10120A1
:102040000DF10701FFF75CFF0446BBE73468B9E711
:102050009A6A12F47F4F05D001200DF10701FFF7B6
:1020600019FFF1E79B6AB3F5803FAAD3FFF7E4FEBF
:10207000EAE700200DF10701E4E700200DF1070178
:10208000EDE723F4FF7323F00103ADE700ED00E07B
:10209000044B5A6942F010025A615A6942F4806254
:1020A0005A61704700ED00E0EFF30880EFF309811B
:1020B00001B57246FFF760FF01BD00BF002320217C
:1020C0000348C2180133412B82F80013F9D170473D
:1020D00000E100E0002080F31488BFF36F8F002040
:1020E00080F30A8880F30B88FFF768FD00200E4913
:1020F0000860BFF34F8F0D4880F3088800F03EF86A
:10210000202080F311880A484FF40061401880F3C2
:102110000988EFF314800221084380F31488BFF389
:102120006F8FFFF715FE000094ED00E0E83F002000
:10213000E80F0020BFF34F8F0549064BCA6802F431
:10214000E0621343CB60BFF34F8F00BFFDE700BFDA
:1021500000ED00E00400FA05002318460649D1F816
:102160009020C2F30722934200DB7047C1F89830F9
:10217000C1F8A0000133F6E700ED00E010B572B63B
:10218000002484F31388FFF7E7FF23464FF0FF3066
:102190000C4A03F120010133102B42F82100F8D141
:1021A00000234FF0FF30074A03F160010133102B89
:1021B00042F82100F8D162B6BFF34F8FBFF36F8FA3
:1021C00010BD00BF00E100E0084B70B5C31A0D461A
:1021D00007499B10044659434022064803F0E4FF98
:1021E0002B4601462046BDE870401847440E0020AB
:1021F000B76DDBB6946A0000402373B50B4C0093B7
:10220000041B0B460D460A49A41061430646094AC1
:10221000094803F0F5FF011E05DA30462B4602B0EF
:10222000BDE87040184702B070BD00BF440E0020EA
:10223000B76DDBB671620000946A000010B54FF014
:102240002003EFF3118483F31288BFF36F8F074AE3
:10225000136823F00201DB07116002D4012004F0AF
:1022600038FB84F31188BFF36F8F10BD940E0020EC
:1022700070B50022012104460520FFF74FFD0F48ED
:1022800001F0F8F80E4B984215D104F0D4FA266903
:102290000C49304603F023FE00280BDB0125356492
:1022A0002469084904F11C0003F019FE002801DB31
:1022B0000020E56470BD6FF00400FBE7FD22000024
:1022C0000000AD0BB46E000001460C2300224B430E
:1022D00070B50848C41840331844D4E90E56A263B8
:1022E00003F04FFF2DB132462B46BDE87040024847
:1022F000184770BD440E0020946A000010B10128F8
:1023000004D07047034B1B6C5B0701D1FFF7DCBFA8
:10231000704700BF440E002008B54FF02003EFF3D4
:10232000118183F31288BFF36F8F124A136843F051
:1023300002001060DA0708D481F31188BFF36F8FB1
:10234000BDE80840012004F084BA4FF05023D3F8D0
:102350000C24D3F80C34DB07EED5074803F011FF4B
:1023600081F31188BFF36F8FBDE808400020FFF7AD
:10237000ABBF00BF940E0020840E00202DE9F8436F
:10238000012207463449D1E8EF3FC1E8E02F002899
:10239000F9D133B9314932484B60CB608A6003F0E0
:1023A000B1FD7B1E012B2DD8012F07D14FF05023FB
:1023B000D3F81C3403F00303022B23D004F00CFBEE
:1023C000054608BB274B1B78F3B14FF05023022280
:1023D0000646C3F808234FF050244FF00008DFF8FA
:1023E0008890D4F81824D4F81834D20316D503F002
:1023F0000303022B01D0012F10D13DB386F31188C6
:10240000BFF36F8FBDE8F8834FF02003EFF3118621
:1024100083F31288BFF36F8F0125DCE73046FFF7A7
:1024200041FCD4F81835DBB2012BDAD1D4F8042101
:10243000002AD6D0C4F80481D4F804210222C4F8BA
:1024400018252022C9F88021A360CAE74FF0502345
:102450000222C3F80423D5E7400E0020300E0020EE
:10246000600E0020E10F002000E100E0024B0B6055
:1024700001231360704700BF980E0020004870478A
:10248000086F000010B504F084FA034C206004F0DB
:102490007DFA6060002010BD980E0020F8B50E4651
:1024A0001946304617461D4603F0F2FEB8B146EA1B
:1024B000050414F0030412D14DB12B19032BA6EB24
:1024C000040006D8074AD2F80034DB07FBD5002009
:1024D000F8BD3B1B196801F0C3FB043CEDE76FF04E
:1024E0001500F5E70090035030B5406801F01F0477
:1024F000057BB2F5001F85B044EA451405D120469E
:1025000001F06EFA002005B030BD0025B2F5800F55
:10251000CDE9025514D1B3F1007F0CBF042305238C
:102520008DF8083000232046194602AA01F088F8E9
:10253000204B984238D10121204601F007FAE1E70B
:10254000B3F1C06F25D0B3F1007F14BF0123022384
:102550008DF80830836823FA01F111F00101E1D10F
:10256000B2F1A07FDED104F01F03620903F1800302
:102570001DD1114A52F82330DB07D3D40DF10705E2
:102580002946204601F08EF90C4B984203D0039562
:10259000C8E70323DCE7284601F0D2F9054B98424F
:1025A000F5D06FF00B00AEE76FF01500ABE751F818
:1025B0002330FFDE0000AD0B002584500400AD0B7E
:1025C00010B501F0ADF9044668B901F081F9084B86
:1025D00098420AD12146074801F05EF922460521BA
:1025E0000D20FFF79BFB002010BD6FF00400FBE700
:1025F0000000AD0BF9250000430970B507D10B4B66
:10260000596821B101250C68094E854001B970BD9A
:102610008A682A4002D030464B6898471CB123682C
:1026200021461C46F2E72346FAE700BFA00E002031
:10263000AC6A00002DE9FF41476801F01F053B7BB4
:10264000144645EA43150E4628460DF1030101F0F4
:1026500029F914F4403F80460BD1284601F0E6F9F1
:102660003C4B984503D19DF8030001F063F900202D
:102670000CE000232846194602AACDE9023300F0F7
:10268000DFFF344B984204D06FF0150004B0BDE872
:10269000F081804503D19DF8030001F04BF9A303BD
:1026A00049D540F206332340B3F5837F19D00CD8C7
:1026B000062B17D004D8ABB1022BE5D1042311E0CF
:1026C000B3F5807FE0D101230CE040F20222934277
:1026D00026D0B3F5407F25D0B3F5007FD4D10223B7
:1026E00000E007238DF8043084F48033C3F3004303
:1026F000E0068DF805304CBF0323C4F340132103DB
:102700008DF8063010D501237A68B340936000221B
:10271000284601A901F048F80E4B9842A7D0B3E72C
:102720000523DFE70323DDE7620341BF01237A6866
:10273000B340D360EBE7E3064FF000034CBF032444
:10274000C4F340141A46284601A98DF8044000F04D
:1027500077FFE1E70000AD0B2DE9F041534D544EFA
:1027600000EB8101814202D10020BDE8F0810468C4
:1027700004F07F03C4F343277F2B4FEA144408BFC0
:102780004FF0FF33192C00F28280DFE804F00D13C4
:10279000191C1F251C80808080365F80808080808F
:1027A0008080808062777A7DC2F80C355C1C5AD1BB
:1027B0000430D7E7C2F814355C1CF9D000245BE084
:1027C000C2F80835F2E7C2F81035F5E75C1CC2F82C
:1027D0000835EDD0002404E05C1CC2F80C35E7D0CD
:1027E00001245FEA531C55D14FF0010EDFF8BCC045
:1027F0000EFA03F8CCF80C8008E0C2F80835002F78
:10280000DAD15C1CD4D000240627A646D0F800807C
:1028100008F4005CBCF1000F1CBF01244FF0000E57
:1028200003F01F0C5B093BD105EB8C0CDCF800328C
:10283000C8F3C118334043EA880343EA072343EA55
:102840000E0343EA4403CCF80032B1E7C2F80C357A
:10285000D5E7C2F86035B3F1FF3F0468A8D0C4F3F0
:102860008034002CBCD05C0917D10124DFF83CC0B7
:1028700004FA03FECCF808E0A646C7E7C2F86435C0
:10288000E9E7C2F86835E6E7C2F86C35E3E76FF0D0
:1028900085006AE70023DB60FFDE00239B60FBE727
:1028A00000230CF1800C53F82C30F5E70025845000
:1028B000F0F8FCFFF8B504460D46076904F08CF803
:1028C00090B92C4B1B787BB16426606803F011FE35
:1028D000E0B9012003F04DFF013EF6D1F4E786F3A5
:1028E0001188BFF36F8FEFE74FF02003EFF31186EE
:1028F00083F31288BFF36F8F6068314603F0F9FDF0
:1029000090B986F31188BFF36F8FEDE74FF0200386
:10291000EFF3118683F31288BFF36F8F606831463F
:1029200003F0E7FD0028DAD03B691D706268386962
:102930001368C3F844050120C3F848050020C3F814
:102940002001D3F82051C3F858015268D3F8580138
:10295000D20608D5082062681268C2F800054FF454
:102960008002C3F8042301229A6081F31188BFF327
:102970006F8FF8BDE10F0020F0B54B79012B26D009
:10298000032B21D110258B79032B1DD1CE790EB1CC
:10299000012E19D10A7912B1022A15D10E220B6823
:1029A0004468B3F5164F276867D02DD8B3F5165F86
:1029B00066D016D8B3F5966F64D00AD8B3F5967F73
:1029C00063D0B3F5167F63D06FF0850054E0002527
:1029D000D9E7B3F5166F5ED0B3F5965FF4D1384BF7
:1029E0003CE0B3F5E14F59D007D8B3F5615F57D05C
:1029F000B3F5964FE8D1334B30E047F61224A342AB
:102A0000E2D14FF4000329E0B3F5613F4AD013D877
:102A1000B3F5963F49D009D84DF6C024A34246D01D
:102A2000B3F5614FD0D14FF46B0317E0B3F5E13F3D
:102A3000CAD14FF0EB7311E0B3F5612F3AD008D84B
:102A4000214CA34239D0B3F5E12FBDD14FF0E8635B
:102A500004E01E4CA342B7D14FF080530469C7F87D
:102A60002435436835431B682A43C3F86C25231D6E
:102A700003C983E803000020F0BD4FF41D03EDE718
:102A8000134BEBE74FF49E23E8E74FF4A033E5E761
:102A90004FF41C33E2E74FF41D23DFE70D4BDDE776
:102AA0000D4BDBE74FF06C73D8E70C4BD6E74FF4D8
:102AB0006503D3E74FF07063D0E74FF08063CDE755
:102AC00000B0130000A04E0090D0030040420F0061
:102AD0000050270000C0750000F03A0000903A0155
:102AE0002DE9F7430021476806693C688146C4F830
:102AF00000153060D7F80C8001AA404603F0C3FCF3
:102B0000051E4CDB019BD8F8002019791868FFF7E7
:102B100023FE051E43DB4846311DFFF72DFF05460A
:102B200000283CD17B68990712D506F1180000F007
:102B3000E3FC1E4B984236D1307E04F10C0204F5C2
:102B4000907103F018FE0120337E984000F08CFC59
:102B50000823C4F800353B7A53B9C4F81031D4F8CF
:102B600010317369C4F834350123C4F83835236053
:102B70007B689A075CBF4FF48073C4F804337B68AA
:102B8000DB0644BF4FF48003C4F804333369C4F850
:102B900044350023C4F848350123A360E360284688
:102BA00003B0BDE8F0836FF00405F8E70000AD0B5B
:102BB0000123834070B5DC430B4AD2E8EF1F01EAE2
:102BC0000405C2E8E65F002EF7D14FF48032824060
:102BD0000648C0F80823BFF35F8FBFF36F8F0B4227
:102BE00014BF0120002070BDB00E00200050015025
:102BF00070B40E4922F07F46D1E90034D01AC318D0
:102C000044F10004C1E90034A6F50013B3F5400F08
:102C100009D2074B1B681A0A1B069C19054B42F187
:102C20000005C3E9004570BC01F00AB9300100207D
:102C3000B40E002038010020D9B101230D4A834091
:102C4000D2E8EFCF4CEA030CC2E8E1CF0029F7D17C
:102C50004FF48033084A8340C2F80433074BD3E86B
:102C6000AF3FC340DB0742BF4FF40012044BC3F831
:102C700000217047B00E002000500150AC0E002023
:102C800000E100E00D4B1868010A0006BFF35F8FFA
:102C90000B4BD3F80435181841F10001B3F5801F30
:102CA0000AD2084BD3E90023904271EB030303D20D
:102CB00010F1807041F10001704700BFB40E002098
:102CC00000500150380100202DE9F04F85B0164624
:102CD0001F4604469DF840A0FFF76AFF0190FFF7EA
:102CE000D1FFB04271EB070352D23B4B301A67EB76
:102CF0000101984271F100014DD2384B03EB0413EE
:102D0000D3E902239F4208BF964258D04FF480383F
:102D1000334908FA04F8204626F07F4BC1F848836F
:102D200003F04EFC4FF00309584604F15005AD0086
:102D3000ADB205F1502504F5A87305F58035029371
:102D4000029A20F07F4341F82230C1F84483D1F841
:102D50000435244AC01A033820F07F4090422ED90F
:102D6000286868B1D1F80435A3EB0B0020F07F4050
:102D7000B0F5000F039322D9204603F021FC039BFA
:102D8000BAF1000F07D109EB030009F10109D7E7F8
:102D9000BAF1000F09D06FF0150520460199FFF731
:102DA0004BFF284605B0BDE8F08F01230E4AA34033
:102DB000D2E8EF0F1843C2E8E10F0029F8D1074924
:102DC0000E982301C8500F9B01EB04120025C2E9A5
:102DD00002675360E1E700BF01008000200100208E
:102DE00000500150FDFF7F00AC0E00207FB5002594
:102DF0004FF0FF304FF0FF31194C1A4B0226C4F848
:102E00000833C4F84833184BC4F80855C3E9020125
:102E10004FF480334FF40012C4F80433134B0121F4
:102E2000C4F804631520C3F880212A46FEF776FF14
:102E30001520FEF743FF01230D4AA36023601360B2
:102E40000C4B0D4A009328460023CDE90155FFF7AE
:102E50003BFF3046FFF792FA284604B070BD00BF32
:102E60000050015003000F002001002000E100E0AD
:102E7000B00E0020F12B0000FFFF7F002DE9F7438B
:102E80002E4BD3F8042390070BD5D3F8042142B17D
:102E90000022C3F804212A4AD3F80431136801330D
:102EA0001360264AD2F80433D90327D5254BD3E83B
:102EB000EF1F21F00100C3E8E40F002CF7D1CB078E
:102EC00002D4D2F84031CBB100251C4CC4F840519B
:102ED000D4F84031FFF7D6FE4FF02003EFF3118214
:102EE00083F31288BFF36F8F174BD3E90267B042A9
:102EF000B94106D282F31188BFF36F8F03B0BDE8EA
:102F0000F0834FF0FF38D3E900104FF0FF391D6018
:102F1000C3E902894FF48033C4F84833C4F8405100
:102F2000D4F8403182F31188BFF36F8F0029E5D0C8
:102F3000009032463B4628468847DFE70050015064
:102F4000B40E0020AC0E0020200100201FB5431C51
:102F500022D0012822DD124A124B9042D4BF0446EF
:102F60001C46FFF78FFE104B0E49D3E90023801A51
:102F7000B0F5000F28BF002404448C4228BF0C4643
:102F800000200A49A218CDE90100009143F1000395
:102F9000FFF79AFE04B010BD024CE2E70124E0E71F
:102FA000FEFF7F00FFFF7F0030010020F12B0000BB
:102FB00008B5FFF767FE024B1B68C01A08BD00BFCB
:102FC00030010020012310B5074C15206360FEF787
:102FD00083FE4FF40012054BC4F80833C4F848339D
:102FE000034BC3F8802110BD0050015003000F00B7
:102FF00000E100E040EA0103C3F30E0330B58BB9F2
:1030000040F21515094CC90BC0F3C730994201D1E4
:10301000002030BDC218D2B202F5C07244F822506E
:103020000133F3E76FF01500F3E700BF0030005005
:1030300030B5816885B0103921F00704054603F0EA
:103040002DF810220146684603F089F810226846E0
:10305000064903F079F810236A462146284602F013
:10306000EBFF003818BF012005B030BD4C710000E7
:1030700030B50D46816887B0102302AA1039044686
:1030800002F0C5FF002802DA012007B030BD10228F
:10309000204602A903F0C3FA00283AD110221E49A3
:1030A00002A803F041F800280CBF012302232B7073
:1030B000204603F0A0FA012301460DF10702204645
:1030C00002F0A5FF0028DFDB9DF80730204603F063
:1030D0000F021B096A702B7101220DF1070103F029
:1030E0009EFA10B96B78042B03D901236B7000236F
:1030F0002B71A2682046183A22F00702083AA91C50
:1031000003F0A0FA0028BFD12046E91C03F0F3FA2F
:10311000BBE70323CBE700BF4C7100007FB505463A
:103120006946032003F0EDFA044610B1FF2004B015
:1031300070BD092002A903F0E4FA012836D12A461D
:103140004921284802F055FF274B8DF80C40029387
:1031500000229DF800509DF80860244C29462078F4
:1031600003F04FFA48B33146607803F04AFA20B3CF
:10317000A378042B03D09DF8031099421DD1E37866
:10318000042B03D09DF80B10994216D12379042B00
:103190000FD16379022B1BD1154A1648492102F041
:1031A00028FF6079831E022BC1D9BFE70028CFD04A
:1031B000BCE79DF802109942EBD00132032A04F1DA
:1031C0000604CBD10C48492102F013FF0120AEE7E1
:1031D000032B05D0094A0A49042B08BF0A46DCE73D
:1031E000084ADAE7F476000003010303677700007A
:1031F000D67600003F77000052770000DB760000B3
:10320000ED760000D17600004FF47F0210B5D2F8C1
:103210003031D2F83421BFF34F8FC3F30B03092BA6
:1032200001BF4FF050230022C3F81421C3F8182126
:1032300003F08CFA28B10122654BC3F8382AC3F891
:1032400078254FF47F02D2F83031D2F83421BFF321
:103250004F8FC3F30B03092B05D1012A1EBF012297
:103260005B4BC3F8782503F071FA18B10E22594B65
:10327000C3F8E42E4FF47F02D2F83031D2F8342173
:10328000BFF34F8FC3F30B03092B06D10022504B22
:10329000C3F80C270122C3F810270022D30003F53E
:1032A0007F03D3F80013BFF34F8F013108D0D3F859
:1032B00000130132D3F80433B2F5807F0B60EDD1F7
:1032C000454AD369BFF34F8F13F0010345D0BFF3D5
:1032D0004F8F424BD3F80024012AFBD1C3F80425B9
:1032E000D3F80024012AFBD13B4BDA69BFF34F8F9F
:1032F000D2070AD5DA6922F00102DA61BFF34F8FF3
:10330000364AD2F80034012BFBD1334A136ABFF39B
:103310004F8F01330CD1136A23F0FF0343F02003D6
:103320001362BFF34F8F2D4AD2F80034012BFBD12B
:1033300000222A4BC3F80425D3F80024012AFBD12C
:10334000BFF34F8F2649274BCA6802F4E06213434C
:10335000CB60BFF34F8F00BFFDE7126ABFF34F8F03
:103360000132B4D01E49D1F88C2042F44062C1F839
:103370008C204FF47F02D2F83011D2F83421BFF301
:103380004F8FC1F30B01092915D1013A022A02D846
:1033900015498A5C7AB1104C144822680F49824260
:1033A0000CBF5A220022C1F8102EE26A824208BFE6
:1033B0005A23C1F8003E0A4AD2F8883043F4700319
:1033C000C2F88830BFF34F8FBFF36F8F10BD00BFBF
:1033D0000040005000A003500080FF000090035008
:1033E00000ED00E00400FA0579770000FA50FA5089
:1033F00030B50468ACB1B4FA84F30122C3F11F0301
:10340000DBB29A4024EA0202D0E8EF5FA54204D181
:10341000C0E8EC2FBCF1000FF6D1EAD102480B70E6
:1034200030BD0248FCE700BF0000AD0B0200AD0B51
:1034300010B50368CB40DB0710D401238B40026832
:1034400043EA0201D0E8EF4F944204D1C0E8EC1FF8
:10345000BCF1000FF6D1F2D1014810BD0148FCE7E4
:103460000000AD0B0400AD0B014BC3F80405704721
:1034700000700150044B1A7922B9012218601A71A8
:103480000248704702487047B80E00200000AD0B9C
:103490000C00AD0B4FF0502310B5D3F8002152B102
:1034A0000020C3F80001D3F800210122C3F808234B
:1034B000104B1B6898474FF05023D3F8042182B17A
:1034C0000022C3F80421D3F80421D3F81824D3F838
:1034D0001824022102F00302012A03D1C3F81815AF
:1034E0009A6010BDC3F80813024B0120BDE81040DC
:1034F0001B681847B80E002001460148FFF778BF47
:103500004C000020036803F01F025B0902600248C0
:1035100018BF0020704700BF00258450034BC0B285
:10352000083033F81000C0F34010704750000020FE
:10353000034BC0B2083033F81000C0F340007047AE
:1035400050000020034BC0B2083033F81000400B8D
:10355000704700BF5000002070B50D4C00F108030B
:1035600034F813300546DA050E4607D5C3F3432376
:1035700004EBC302526854F833309847A3682BB168
:1035800031462846E268BDE87040184770BD00BF6C
:103590005000002010B4134AC0B2083032F8103086
:1035A000D9051CD5C3F3432123F4F85322F8103076
:1035B000002002F10E0434F8023F13F4807F03D0A0
:1035C000C3F3432399420AD001302028F3D10023CA
:1035D00042F8313004485DF8044BFFF729BF5DF82D
:1035E000044B704750000020A4000020014600203A
:1035F000F0B5012506460F4A0F4C02F13043A3F502
:1036000051439B0805FA03F3194204D0176817B118
:103610001660176818430432A242EED1074BD3F864
:103620007C2132B10022C3F87C21D3F87C3140F0F8
:103630000040F0BD00D1005020D1005000D000501B
:103640002DE9FF41044690461D4601B3FFF770FF88
:1036500018B12046FFF762FF28BB00230DF10F02CF
:10366000CDE900338DF80E308DF80F3020460B4633
:103670000DF10E0103F02FF94749E3B2083331F899
:10368000132022F0020242F0010221F81320B8F1C7
:10369000000F32D0204698F80060D8F80420FFF7D9
:1036A00047FF10B1F2B13D4829E03B4FE0B208308E
:1036B00037F8101021F02001C904C90C27F81010A8
:1036C00082B1032EEFD8D8F8043093F800C06246D8
:1036D000920002F1A04202F550429EB9C2F8106574
:1036E000C2F810652C49E3B2083331F8132022F0F8
:1036F0001C0242EA860221F813201DBB284804B0B0
:10370000BDE8F081D2F8103541EA4C3123F00303D3
:10371000C2F81035D2F8103541F0200123F44733B8
:1037200023F44073C2F81035D2F810E5230203F4F5
:10373000F85343EA0E0343EA0643C2F8103527F86C
:103740001010CFE72046D5E90067FFF723FF002ED2
:10375000D4D0114DD5E90023964201D19F4219D012
:1037600010480DF10F01FFF743FE0D4B9842C6D1F3
:103770009DF80F20E0B205EBC20308305F6035F81A
:10378000103045F8326043EA422343F4807325F851
:103790001030B3E70022EDE7500000200400AD0B2D
:1037A0000000AD0BA4000020F0B50446164685B01D
:1037B00029B3FFF7BDFE20B92046FFF7AFFE002872
:1037C00062D1324FE5B2083537F8153013F01C0FCF
:1037D00002D04B78012B57D001238DF80F300023F6
:1037E0004A1CCDE9001320468B1C0DF10F0103F09C
:1037F00072F837F8153043F0030327F8153016B97F
:10380000234805B0F0BD2046FFF792FE00283BD0CC
:1038100096F800C0002361461C4FE5B2083537F822
:103820001500890020F0200001F1A041C00401F53D
:103830005041C00CC1F8103527F81500C1F81035FB
:103840007278002ADCD0D1F81035B67823F49813BA
:1038500023F4F853C1F8103512042302D1F810E50F
:1038600002F4403203F4F8531343320543EA0E03E3
:1038700002F4801240EA4C30134340F02000C1F8BB
:10388000103527F81500BBE70248BAE750000020C2
:103890000000AD0B0400AD0B014BC3E90201704702
:1038A0005000002008B50246FFF738FE40B1054B36
:1038B000D2B2083233F8123003485B0B0B7008BDEC
:1038C0000248FCE7500000200000AD0B0400AD0BE7
:1038D00070B50F4C94F85860BEB90E4D4022314679
:1038E00004F1100002F03BFC0D20C5F87C61D5F816
:1038F0007C31FEF7E3F94FF00043C5F804330123B0
:10390000054884F85830636570BD0448FCE700BF83
:103910005000002000D000500000AD0B0500AD0BA2
:10392000034B93F85800003818BF0120704700BFC0
:103930005000002001460148FFF77ABDA00000209A
:1039400001460148FFF754BDA000002037B50446EA
:10395000FFF7E4FD08B32046FFF7EAFD0546E0B9AE
:103960002046FFF7EFFD03B29B0003F1A04202F5F2
:10397000514203F1A043156003F550431268D3F898
:10398000102542F00102C3F8102521B10123124A8B
:103990008340C2F8043303B030BD104AE3B20833A9
:1039A00032F81330C3F38203042B11D0052B11D04E
:1039B00001A80194FFF7A6FD019B0169D94001F020
:1039C00001010231204603B0BDE8304002F0CCBF17
:1039D0000321F7E70221F5E700D000505000002056
:1039E00008B50246FFF79AFDC0B11046FFF7A0FDEB
:1039F000A0B91046FFF7A6FD01230B4A8340C2F889
:103A0000083303B29B0003F1A04303F55043D3F8FE
:103A1000102522F00302C3F8102508BD0021BDE8DF
:103A20000840104602F0A0BF00D0005073B51B4EF6
:103A3000C5B2083536F815300446DB072BD5FFF73D
:103A4000CFFF2046FFF76AFD68B12046FFF77AFDF9
:103A5000002203B29B0003F1A04303F55043C3F8D7
:103A60001025C3F810252046FFF794FD002301A878
:103A700026F815300194FFF745FD019B00EB83000C
:103A8000D0F80022064B134043F00203C0F8003286
:103A9000044802B070BD0448FBE700BF500000209E
:103AA000F0F8FCFF0000AD0B0400AD0B2DE9F74F63
:103AB0004E4BD3F80403C0B240F00040FFF796FD30
:103AC000051E14DA4A4FDFF82C913B6A00933B62E3
:103AD0004FF00108009C84B94FF00040FFF786FDCD
:103AE0003B6A00933B62002BF2D125F00045012494
:103AF000002D63D103B0BDE8F08F94FAA4F4B4FABA
:103B000084F4E00804F1080339F813A004F0070274
:103B10001DF8003008FA02F223EA02030DF8003023
:103B200001A80194FFF7EEFC019B4FEA9A01803354
:103B300050F82360CAF3820B4B07DA46C6F30146FE
:103B400021D520465946FFF707FD01A80194FFF74C
:103B5000D9FC019BF6B2803350F82330C3F3014304
:103B60009E4207D10021204602F0FEFE314620464B
:103B700002F0FAFE01A80194FFF7C4FC019B08FAC9
:103B800003F30362A6E7022E0CD10321204602F0C4
:103B9000EBFE0BF00503012BECD151462046FFF75D
:103BA000DBFCE7E70221204602F0DEFEBBF1030F5B
:103BB000F3D0032EDED1BBF1020FEDE795FAA5F3AA
:103BC000B3FA83F304FA03F29B0003F1A04303F575
:103BD0005043D3F81005D3F81015C0F30420C1F3F7
:103BE000014125EA0205FFF7B7FC81E700D000504C
:103BF00000258450500000200022034BC3F8842588
:103C0000C3F80425704700BF00900350044AD2F85F
:103C10000834DB07FBD50160BFF35F8F704700BF3F
:103C20000090035008B5C0F30B0383B90222094B7F
:103C3000C3F88425C3F804254FF0FF320260D3F89F
:103C40000024D207FBD5FFF7D7FF034808BD034880
:103C5000FCE700BF009003500000AD0B0A00AD0B65
:103C6000012208B5054BC3F88425C3F80425FFF7E6
:103C7000CDFFBDE80840FFF7BFBF00BF0090035075
:103C8000104B70B553F82040013053F82060A64225
:103C900000D870BDD4E9003595B153B12846984796
:103CA00038B10028B8BF4042FF28A8BFFF20EB680A
:103CB0001870EA68537843F0010353700834E6E75C
:103CC0009847FBE7C06F0000012208B5084B0320AE
:103CD0001A70FFF7D5FF00F01BF90420FFF7D0FFA3
:103CE000FCF798FB034A137B23F00103137308BD11
:103CF000E10F00204001002008B50348034A0021DD
:103D0000121A02F065FE08BD20010020E40F002019
:103D100008B50020FFF7B4FF164B03F5006282F3ED
:103D2000088883F30A880025E023134C84F82230A6
:103D3000E57725766576A57684F82050636A43F4A6
:103D4000E023636284F82350FEF7A2F9FDF796FFA3
:103D50004FF0FF33A362E36202F01EFE0120FFF783
:103D60008FFF0220FFF78CFF2B462A462946034887
:103D7000FEF72CF8E80F002000ED00E0C93C000041
:103D800008B50648064A0749121A02F023FEBDE8A4
:103D90000840054A0549064802F01CBE0000002004
:103DA0001E010020EC77000000000000EC7700000E
:103DB00000000020034B1B680BB9FFF7F9B8002087
:103DC000704700BFC00E002010B50E4B1C689C420F
:103DD00004D1FFF7EFFF6FF0004010BDFFF7EAFFDF
:103DE000002CF8D0D4E904321B1A62EBE072B3F174
:103DF000004F72F10001EEDA002AACBF1846002035
:103E0000EBE700BFAC00002030B570B10B4B5B6836
:103E100098420AD0036843B1D3E90421D0E90445AC
:103E2000121941EB0501C3E90421D0E90032136006
:103E30005A600023C0E9003330BD00BFAC00002051
:103E40002DE9F84F4FF02003EFF3118783F3128829
:103E5000BFF36F8FDFF8B4902A4E4FF0000A306046
:103E6000D9F800004FF0000B484508BF0020264C51
:103E70003D46D4E9001E336888B3D0E904874FEA91
:103E8000E37C43457CEB070206DAB8EB030267EB01
:103E90000C07C0E9042722E018EB01014EEBE873A0
:103EA000C0E904ABC4E90013FFF7AEFF85F3118846
:103EB000BFF36F8F836898474FF02003EFF31185AE
:103EC00083F31288BFF36F8F3368D9F80000A3EB38
:103ED000080348452F463360CAD1D4E9001E59185B
:103EE0004EEBE373C4E9001300243460FFF76CFF6A
:103EF0002146FFF72BF885F31188BFF36F8FBDE8DC
:103F0000F88F00BFC00E0020C0010020AC000020D0
:103F1000014801F086BF00BFA977000010B50A4C28
:103F200023681BB101232360002010BD00F050F86E
:103F30000028F7D00138062803D8044B53F8200096
:103F400010BD034810BD00BFC40E0020D86F000094
:103F5000FE8FFFFFBFF34F8F0549064BCA6802F47F
:103F6000E0621343CB60BFF34F8F00BFFDE700BF9C
:103F700000ED00E00400FA0530B44FF0FE320025F9
:103F8000074B084C08494968C3F80024C3F80424C7
:103F9000C3F80824C3F80C24C4F8005530BC084703
:103FA0000010845000008450B4000020024BD0E97F
:103FB0000012C3E900127047B400002038B131B1DB
:103FC000002201440346013088421A70FAD170473A
:103FD00038B500F02FF820B1032400F063F8204634
:103FE00038BD00F031F898B900F0ACF898B90F4D31
:103FF000D5F828391B0EF02B08D1D5F8242A0C4B04
:104000009A420AD0072400F017F8E6E70624FAE7F8
:104010000424204638BD0024F5E7012000F092F882
:1040200004460028F7D1C5F80C0AD8E700108450E0
:104030000000E0200020704700207047014BC3F8CB
:10404000040A70470010845010B5114800F048F879
:1040500000B110BD0F4800F043F80028F9D10E4C14
:10406000204600F03DF80028F3D10C4B0C481C60B2
:1040700000F036F801460028EBD100F02DF8044698
:1040800008B1204610BD00F03FF82046FAE700BF17
:10409000CC000020C8000020C4000020BC0000208C
:1040A000C000002008B5084800F024F8074800F0D8
:1040B00021F8074800F01EF8064800F01BF8BDE89C
:1040C000084000F00BB800BFCC000020C800002062
:1040D000C4000020C000002000207047704700BFCF
:1040E00008B5034B02681B6810689847002008BD9C
:1040F000E400002008B5034B02685B68106898472D
:10410000002008BDE400002070B5094C094D20696D
:10411000AB68984718B1084B08485B68984700217E
:10412000074AEB6811602069BDE87040184700BF7E
:10413000D0000020E4000020B4000020F46F000054
:10414000C80E0020F8B51A4D1A4E0446B268286908
:104150009047E8B9184F3B684CB1A3B1012B19D077
:10416000013B3B602869F36898470020F8BD43B9DC
:104170000121124AC2F800151149D1F81029002A6C
:10418000FBD101333B60F368286998470020F8BDF4
:104190000C48F8BD0A4AD2F81039002BFBD1074A67
:1041A0006FF07E40C2F80035FFF748FF3B68D7E765
:1041B000D0000020E4000020C80E00200000845041
:1041C00000108450E98FFFFF10B5044650B16368BA
:1041D00013F0685F05D0064A934202D00023626064
:1041E000236010BD034B04485B689847EFE700BFAE
:1041F0002C5F5CA9B400002014700000C8B14368B3
:104200000D4A934213D013F0685F0ED0012350E89B
:10421000002F194640E8001C9CF0000FF7D1012A3E
:10422000F5D0BFF35F8F0020704704487047044803
:1042300070476FF4E04070472C5F5CA9E98FFFFF87
:10424000EA8FFFFF034680B1426809498A420AD0DB
:1042500012F0685F05D0BFF35F8F002210461A602E
:10426000704704487047044870476FF4E040704757
:104270002C5F5CA9E98FFFFFEA8FFFFF10B50446B2
:1042800020B10023034A2360626010BD0248FFF79B
:1042900073FEF6E73A00003A3C70000030B1026865
:1042A000034B04489A4208BF0020704702487047F9
:1042B000DD55AABB8208F0007108F00038B50D4644
:1042C0000446B0B1A0220021043002F0A8FB95B151
:1042D0000822294604F1640002F0A7FB082205F138
:1042E000200104F1840002F0A0FB0020034B2360B6
:1042F00038BD0348FCE70348FAE700BFDD55AABB19
:104300007108F0008308F0002DE9F74305460E46DA
:1043100099461146FFF7C2FF0446002840F084800A
:10432000002E00F08580002900F08480B9F1200F74
:1043300040F0828005F14404082205F1040820467B
:1043400002F073FB05F1240708223146404602F0D3
:104350006CFB06F120010822384602F066FB02A938
:1043600041F8049D4FF4807002F053FB002865D1A2
:104370004FF48073324A0121136093600823314A5D
:1043800000F034FB0121052308462F4A00F02EFBE4
:104390000823424601211C2000F028FB08233A464E
:1043A0000121032000F022FB2246082301210220E4
:1043B00000F01CFB0823254A01211A2000F016FBFF
:1043C0000523234A01211B2000F010FB0823214A6A
:1043D0000121142000F00AFB08231F4A01211520A7
:1043E00000F004FB082305F164020121162000F00F
:1043F000FDFA082305F184020121172000F0F6FAE6
:104400000823164A01210B2000F0F0FA00F04AFBC5
:104410000446019800F0D8FA114B002C18BF1C4636
:10442000A421284602F0FDFA204603B0BDE8F0833F
:104430000C4CF9E70C4CF7E70C4CF5E7084CEFE7B0
:1044400090108450A070000018710000607000008F
:1044500004710000C4700000E4700000807000006F
:104460008408F0007608F0008008F0008108F00071
:10447000C2690C4B1A60826943F8042C426943F804
:10448000082C026943F80C2CC26843F8102C82688F
:1044900043F8142C426843F8182C026843F81C2C8B
:1044A000704700BF5C1684500C4B1B68C3610C4BFB
:1044B0001B6883610B4B1B6843610B4B1B680361DB
:1044C0000A4B1B68C3600A4B1B688360094B1B685F
:1044D0004360094B1B680360704700BF5C16845043
:1044E0005816845054168450501684504C168450DC
:1044F00048168450441684504016845030B10268E7
:10450000034B04489A4208BF002070470248704796
:10451000DD55AABB0202F0000002F00038B50446E7
:1045200068B1051D7021284602F07BFA284620223A
:10453000044902F072FA0020034B236038BD03489F
:10454000FCE700BF2C710000DD55AABB0002F000A3
:104550002DE9F04385B015466F46274B04460E46BD
:104560000FCB87E80F002DB94FF00009484605B082
:10457000BDE8F0832046FFF7C1FF81460028F5D152
:10458000231D0193636AA3BB236F8BB1C3F1400862
:10459000A84528BFA84604F13000314618444246D9
:1045A00002F03BFA236F464443442367A5EB08051A
:1045B000226F402A06D104F13001384600F0B4FBE6
:1045C0000023236705F03F0835F03F0505D031464D
:1045D0002A46384600F0A8FB2E44B8F1000FC3D09D
:1045E0004246314604F1300002F017FAC4F87080F8
:1045F000BCE7DFF80890B9E7A06D00000C02F000FE
:104600002DE9FF4104466F46134B0E460FCB87E85A
:104610000F002046FFF772FF8046B0B9CEB1636A43
:10462000251D01953BB90123226F636204F130011E
:10463000384600F079FB2B46043E243453F8042B13
:1046400012BAA34246F8042FF8D1404604B0BDE8A0
:10465000F081DFF80880F8E7A06D00000502F000A7
:10466000084B1B681B0EF02B08D1074B1A68074B31
:104670009A4205D10020064B18607047052070470C
:104680000620704728198450241A84500000E02026
:104690000C1A8450002230B5134640F6FC754900D0
:1046A000023802F1A15404F5823490424FEA8404A6
:1046B00002F10102CABF236025605B181E2AF0D1F7
:1046C000034A13600B445360024B034A1A6030BD27
:1046D000781084508410845020F80F001E4B30B5A1
:1046E0001A4685B0196800910099CC07FAD500F1F7
:1046F000A15000F582308000016813680193019B8E
:10470000D807FAD5154B164C186820231F3090FB9C
:10471000F3F0144D0138002810DA00230130400175
:1047200053B14FF00042A0F12001134204D10138EF
:1047300088424FEA5202F8D105B030BD13680393A6
:10474000039BDB07FAD5431823602B680293029B77
:10475000002BE3D10138DEE7B4108450AC10845054
:10476000E4108450DC108450F0B51D6885B001F071
:104770001F040DB91F2C28D1174D2E462F68019705
:10478000019FFF07FAD500F1A15000F582308000AB
:10479000006835680395039DED07FAD51F2C00EBE3
:1047A000611018BFC9430D4D18BF01F01F012860EB
:1047B0000B480068029002981CBF00FA01F11160DA
:1047C0004FF0000108BF1060196010684300C00F6F
:1047D000136005B0F0BD00BFB4108450E4108450E5
:1047E000DC1084500C4B890118603F3020F03F00F2
:1047F0004030586099600948D960196159619961E0
:104800001C3382B0196002680192019AD207FAD56E
:10481000196002B0704700BF90108450B4108450EB
:1048200038B5A0F12003B3F5426F05462CD88F2888
:1048300026D800F1470300F16604DB064FEA541462
:1048400000D0013464013F34A409013411B1A14204
:104850001AD30C464FF48050E300B0FBF3F020284D
:1048600028BF202002B110600122084B21461A60A7
:10487000FFF710FF28462146FFF7B4FF002038BDA0
:1048800000F11F046409DDE70148F8E71C188450B3
:104890002221F000464BF0B51D4689B01C680194FA
:1048A000019CE407FAD5434B002413449B001A688B
:1048B0000B181E2B88BFC0F11E011F320B185209A6
:1048C0005343B3F5806F84BF4FF48061B1FBF2F1C5
:1048D000274688BF091ADFF8E4E000F1A150DFF8AD
:1048E000E0C000F58230A14233DC2B680493049BC6
:1048F000DB07FAD5304B1B68296805910599CF076E
:10490000FAD52E4C2E49236000231E46934203F114
:10491000010040D11946002620F0010228488A42B1
:104920003CD8296806910699CE07FAD52549096829
:10493000286807900798C007FAD5216000210C4627
:104940001F488B422DD100201D499A422CD809B016
:10495000F0BD2B680293029BDB07FAD503199B007D
:104960001B682E680396039EF607FAD5CEF8003032
:104970000023934203F1010306D1164623F00103FD
:10498000B34204D80134AEE7CCF80070F1E7CCF8BC
:1049900000700136F4E70E600346B7E706600131A8
:1049A000BDE704600131CCE708600133CDE700BF0B
:1049B000B4108450240421147C108450D4108450EA
:1049C000D81084507810845008B540B12028014692
:1049D0004FF0070228BF20210020FFF75BFF0022D5
:1049E000014B1A6008BD00BF1C188450F0B5294D5A
:1049F00085B02C462E680096009EF607FAD500F189
:104A0000A15000F58230800005682068019001986F
:104A1000C707FAD52048214F056002EB8306B24252
:104A200029D100275A1C1D4E22F001029A4227D894
:104A300023680293029BDE07FAD5194B0B449B00B7
:104A40001B681F335B099A4213D2216803910399B3
:104A5000C907FAD500211544056008469B1A0F4A7C
:104A60008B4210D800205A1C0C4922F001029A42B5
:104A70000CD805B0F0BD52F804CBC7F800C0CEE7A3
:104A800037600133D2E710600131E9E70860013394
:104A9000EDE700BFB4108450D4108450D810845077
:104AA000240421142DE9F041814BA0B01D689868C1
:104AB00020331E461A680192019AD707FAD57D4B1A
:104AC0007D4A1A6032680292029AD407FAD57B4A6C
:104AD0001A607B4A1446116803910399C907FAD5F5
:104AE000784A1168C1F3402137680497049FFF0793
:104AF000FAD5754F1F6027680597059FFF07FAD500
:104B00001768002900F0CF80B90540F1CC803168EA
:104B100006910699CF07FAD56C491960216807916B
:104B20000799C907FAD51168C1F34021376808977A
:104B3000089FFF07FAD5664F1F6027680997099FEE
:104B4000FF07FAD51268002900F0AF80910540F107
:104B5000AC8032680A920A9AD207FAD5564A1A608D
:104B600032680B920B9AD707FAD55A4A1A60316805
:104B70000C910C99CC07FAD55749196031680D9101
:104B80000D99C907FAD55549196031680E910E99EA
:104B9000CF07FAD55249196031680F910F99CC07A8
:104BA000FAD550491960504B1E461968109110995A
:104BB000C907FAD53F4C4D4B236033681193119BC5
:104BC000DB07FAD54A4B236033681293129BDF0749
:104BD000FAD5484B23603A4B9846196813911399BC
:104BE000C907FAD5324F386033681493149BDB073A
:104BF000FAD5226033681593159BD807FAD53E4B3A
:104C0000236033681693169BD907FAD53B4B236074
:104C100033681793179BDA07FAD5394B236033684B
:104C20001893189BDB07FAD5364B2360336819932A
:104C3000199BD807FAD5344B236033681A931A9B13
:104C4000D907FAD5314B236033681B931B9BDA07D6
:104C5000FAD52F4B236000F01DFC08BBD8F80030BC
:104C60001C931C9BDB07F9D53D6033681D931D9B8E
:104C7000D907FAD5274B236033681E931E9BDA07AA
:104C8000FAD5254B2360D8F800301F931F9BDB0714
:104C9000F9D50C4B1B6813F4805F204B08BF1846F6
:104CA00020B0BDE8F0811E48FAE71E48F8E700BFD3
:104CB000901084508010845000100251C01F72293F
:104CC000B410845088108450C0CF0129C01F0E2911
:104CD000C03F002940010249003184A80000164964
:104CE000400108A180440888B0108450C0447088F6
:104CF00080077A41C0077E4100006A498006164954
:104D000040006E49000200210082202140822021C3
:104D10008082242140A161A100C861510308F100F3
:104D20000108F1000208F100324B2DE9F74F8046EF
:104D30009246994644681A68002AFCD12E4B9B463D
:104D40001A68002AFCD14FF0FF30019100F094FC6A
:104D5000802000F097FC01230720284A284DA2F567
:104D60009E722B60C2F83C011360636A254F264E89
:104D70003B60A36A20463360D8F8003042F8043C18
:104D8000D8F8083098470199D9F80030002BFBD1AA
:104D9000BAF1000F20D104221C4B1A60D9F8003060
:104DA000002BFBD1DBF800A0BAF1000FFAD1D8F844
:104DB0000C30204698473B6863623368A362144B0B
:104DC000C3F800A0C3F844A1D9F80030002BFBD1F0
:104DD0002B6003B0BDE8F08F236A4020012B04BF95
:104DE0000B4A13600B4B1960C3F804A000F050FC91
:104DF000D4E700BF10198450201C8450001984503F
:104E000018188450CC178450D0178450C817845079
:104E100084168450281C8450544B10B5194698B001
:104E20001A680192019AD207FAD5514B514A1A6079
:104E30000A680292029AD407FAD54F4A1A600A68A1
:104E40000392039AD007FAD54C4818600A68049276
:104E5000049AD207FAD54A4A1A600A680592059A56
:104E6000D407FAD5474A1A600A680692069AD2070A
:104E7000FAD5454A1A600A680792079AD407FAD504
:104E8000424A1A600A680892089AD207FAD5404A3C
:104E90001A600A680992099AD407FAD53D4A1A603D
:104EA0000A680A920A9AD207FAD53B4A1A600A6837
:104EB0000B920B9AD407FAD5384A1A600A680C92FA
:104EC0000C9AD207FAD5364A1A600A680D920D9AE2
:104ED000D407FAD5334A1A600A680E920E9AD2079E
:104EE000FAD5314A1A600A680F920F9AD407FAD598
:104EF0002E4A1A600A681092109AD207FAD52C4AE4
:104F00001A601A4B19461C681194119CE407FAD5D3
:104F1000174B1860086812901298C407FAD51A60E7
:104F20000A681392139AD007FAD5124A1A600A68CF
:104F30001492149AD207FAD51E4A1A600A6815927A
:104F4000159AD407FAD51C4A1A600A681692169A5E
:104F5000D007FAD5194A1A600A681792179AD20729
:104F6000FAD5174A1A6018B010BD00BFB0108450AF
:104F70008010845000936521000431904096659024
:104F80000083612100C3302100C3649000816190DF
:104F900000461021008111210041442100C3202935
:104FA0000C4610C80086312100C3602140C1282969
:104FB000409665210013319040962529594614C822
:104FC00040043249494B10B5194694B01A68009212
:104FD000009AD207FAD5464B464A1A600A680192EF
:104FE000019AD407FAD5444A1A600A680292029AD2
:104FF000D007FAD5414818600A680392039AD2078D
:10500000FAD53F4A1A600A680492049AD407FAD57E
:105010003C4A1A600A680592059AD207FAD53A4ABC
:105020001A600A680692069AD407FAD5374A1A60B7
:105030000A680792079AD207FAD5354A1A600A68B1
:105040000892089AD407FAD5324A1A600A68099277
:10505000099AD207FAD5304A1A600A680A920A9A5F
:10506000D407FAD52D4A1A600A680B920B9AD20718
:10507000FAD52B4A1A600A680C920C9AD407FAD512
:10508000284A1A600A680D920D9AD207FAD5264A64
:105090001A600A680E920E9AD407FAD5234A1A604B
:1050A0000A680F920F9AD207FAD5214A1A600F4B5D
:1050B00019461C681094109CE407FAD50C4B186034
:1050C000086811901198C407FAD51A600A681292FC
:1050D000129AD007FAD5174A1A600A681392139ADF
:1050E000D207FAD5144A1A6014B010BDB01084501B
:1050F000801084508090652100040990409665904E
:10510000808061218020082180206490008161904E
:1051100000461021008111210041442180202029D6
:10512000024610C8008609218020602140212829DC
:105130004096652140962529594614C8504B10B514
:105140001C4696B01A680192019AD207FAD54D4BC7
:105150004D4A1A6022680292029AD207FAD54B4A47
:105160001A604B4A42EA804022680392039AD207AF
:10517000FAD5186022680492049AD007FAD5454AF5
:105180001A60A2F5800242EA814122680592059ADE
:10519000D207FAD5196022680692069AD007FAD586
:1051A0003D4A1A6022680792079AD107FAD53B4A0E
:1051B0001A6022680892089AD207FAD5384A1A600B
:1051C00022680992099AD007FAD5364A1A602268ED
:1051D0000A920A9AD107FAD5334A1A6022680B92CA
:1051E0000B9AD207FAD5314A1A6022680C920C9AAF
:1051F000D007FAD52E4A1A6022680D920D9AD1076F
:10520000FAD52C4A1A6022680E920E9AD207FAD565
:10521000294A1A6022680F920F9AD007FAD5274AB6
:105220001A60216810911099C907FAD51A60144BB9
:105230001A46196811911199C807FAD5114B2049DE
:105240001960116812911299C907FAD51D491960A0
:10525000116813911399CC07FAD50B49196011689D
:1052600014911499C807FAD5174919601168159156
:105270001599C907FAD5154A1A6016B010BD00BFB6
:10528000B010845080108450400441900086292939
:10529000D81001C8401441904014212940146521C0
:1052A0000034409000310C90C0400C90C030202958
:1052B00040960D9000416090031645C8008611216C
:1052C00000416021594644C84014459040142D9037
:1052D000264870B5054688B004680094009CE6072F
:1052E000FAD5234C23480460234C44EA83432C68BA
:1052F0000194019CE407FAD50360930143EA8242DA
:1053000042F0104444F4C0442B680293029BDE0731
:10531000FAD504602B680393039BDB07FAD5174B80
:1053200003608B0143EA814141F0104343F4C043E1
:105330002E680496049EF607FAD503602B68059341
:10534000059BDE07FAD5046041F058412B680693AF
:10535000069BDC07FAD5016042F058422B680793A0
:10536000079BDB07FAD5026008B070BDB01084500F
:10537000C0210229801084508071009880611890AB
:10538000354B8EB019461A680092009AD207FAD5AA
:10539000324B334A1A600A680192019AD007FAD553
:1053A000304A1A600A680292029AD207FAD52E4A47
:1053B0001A600A680392039AD007FAD52B4A1A603A
:1053C0000A680492049AD207FAD5294A1A600A6830
:1053D0000592059AD007FAD5264A1A600A680692FD
:1053E000069AD207FAD5244A1A600A680792079AE1
:1053F000D007FAD5214A1A600A680892089AD2079B
:10540000FAD51F4A1A600A680992099AD007FAD594
:105410001C4A1A600A680A920A9AD207FAD51A4AEE
:105420001A6008680B900B98C007FAD51A600A68D2
:105430000C920C9AD007FAD5144A1A600A680D9299
:105440000D9AD207FAD5124A0E211A6000200D23B8
:105450000F220EB0FFF73CBFB01084508010845074
:105460008043012940633921807001298020542123
:1054700000D13490C0403490C0302029C0530D90EA
:1054800000413890832308C880E31021004138216F
:10549000CF4308C801232DE9F04192B0CDE9033391
:1054A000624B1D461A680592059AD207FAD5604BE1
:1054B000604C2360604B19461A680692069AD7071B
:1054C000FAD55E4B1A68D60400F1A8802A680792C4
:1054D000079AD007FAD55A4A22600A680892089AB1
:1054E000D207FAD51E68C6F30036002E40F0988029
:1054F0001220FFF7F3F807461320FFF7EFF8874273
:105500008CBF12201320FFF7E9F8471EFFF738FF82
:1055100003AB01AA39461220FFF726F904AB8046F7
:1055200002AA39461320FFF71FF900EB48000228B2
:1055300032D003283ED0012874D12B680993099BEF
:10554000DB07FAD53F4B23602B680A930A9BD807E9
:10555000FAD53D4B23602B680F930F9BD907FAD5E3
:105560003A4B23602B681093109BDA07FAD5384B1F
:1055700023602B681193119BDB07FAD5354B236011
:10558000013F25D51023192218210020FFF7A0FE86
:10559000304612B0BDE8F0812B680B930B9BD90706
:1055A000FAD52D4B23602B680C930C9BDA07FAD5A8
:1055B0002A4BCFE72B680D930D9BDB07FAD5284BC1
:1055C00023602B680E930E9BD807FAD5254BC1E7B5
:1055D00003AB01AA39461220FFF7C6F804AB044614
:1055E00002AA39461320FFF7BFF810EB440402D19A
:1055F000FFF712FCC4E7FFF7E5FC022C08D0032CF0
:1056000009D0012C10D117211620FFF797FDB7E71D
:1056100015211420F9E70F210E20F6E7124EB7E707
:10562000124EB5E7124EB3E7124EB1E7B0108450F8
:1056300000084A5180108450B4108450881084505F
:1056400000084E5100065A4940065E490004424196
:105650000014424940042E4900065249400656496A
:1056600000063A4940063E490608F1000708F100E5
:105670000408F1000508F100014B1860704700BFF5
:10568000081A8450014B1860704700BF041A8450F8
:10569000034A13681842FCD0024A1060184670474B
:1056A000001A8450081A8450704729B101290CBF90
:1056B00009206FF0150070470320704700207047E5
:1056C00030B5836804468B42154685B00ED96368B1
:1056D000C068194401AA00F059FE28B96268019B0C
:1056E0009B1A2B60029B6B6005B030BD6FF02100F0
:1056F000FAE770472DE9F7430E46174699460446E8
:1057000028B94FF0FF38404603B0BDE8F0830029C8
:10571000F7D0002AF5D0CB680D8938461D44042304
:1057200029460DEB030200F072FC80460028E8D108
:1057300046F60812BDF804107389914225D1BDF8D0
:1057400006109942DDD1042338460DEB03022944AB
:1057500000F05DFC0028D4D146F60713BDF8042004
:105760009A42CED1C4E900679DF82830A4F8089089
:10577000A3727389BDF806202B44E3607389134438
:105780002B44043563612561BDE7002BE4D0B8E705
:105790002DE9F3410E4617461D46044620B94FF049
:1057A000FF3002B0BDE8F0810368002BF7D04368FA
:1057B000002BF4D04FF6FF78D4E904239A4216D296
:1057C00023685B8923B1E368934204BF04332361F8
:1057D0000423216960680DEB030200F018FC002827
:1057E000DDD1A37A2BB1D4E903329A4201D301204F
:1057F000D7E72389BDF80610434501F1040203D021
:10580000BDF804C09C450BD115B1BDF804302B8008
:105810002369043333603980236913442361C0E76B
:10582000236913442361C7E773B50C460646114646
:105830000223204601AA00F065FA0546E8B9019A5C
:105840001F2A0ED9A2F120013046202223681944D4
:1058500000F07AFC2368019A13442360284602B0C2
:1058600070BD0146C2F12002304600F078FC019A7A
:105870002168C2F120003044EAE76FF00205EDE74D
:105880004FF4C0735843303070470B78032B06D069
:10589000092B14BF4FF0FF304FF4C07070474FF426
:1058A000C070704710B5044600F0F1FB4FF4C072B1
:1058B000A368303B02FB103010BD70B50D460446A6
:1058C00000F099FE2A46A0F1080104232046BDE815
:1058D000704000F09CBB81680122183921F007015B
:1058E000083900F0F7BE13B50446019100F083FEBD
:1058F0000423A0F108010DEB0302204600F0BEFED8
:1059000002B010BDFFF7FEBFFFF7FCBFFFF7FABF05
:10591000FFF7F8BFFFF7F6BFFFF7F4BFFFF7F2BFDF
:10592000FFF7F0BFFFF7EEBF704770B513460E46A6
:105930001546002102460446FBF782FA50B92B4671
:105940000121204604F12C02FBF77AFA10B1002E57
:1059500008BF002070BD73B5044600200D461646F2
:10596000FFF7A3FE6946C0B2FCF72AF930BB2C232F
:1059700003FB0544E368258900981D440423294658
:105980000DEB030200F043FBC0B946F60813BDF867
:10599000042064899A42009815D1BDF806309C42D3
:1059A0000CD1042361190DEB030200F030FB28B980
:1059B00046F60713BDF804209A4207D0009800F07D
:1059C00025FB02B070BD002CF2D0F7E7BDF8061041
:1059D000214429443160F1E737B580250446426A05
:1059E00001A903200195FCF713F958B9019B09207F
:1059F000226DA36201A90195FCF70AF9054628B1B9
:105A0000092500E00125284603B030BD019B206A2E
:105A1000636500F03CFBE065F5E70123036003F1FB
:105A2000012343600023C0E9023370474379012B0F
:105A300007D10368012B04D10079431E5842584115
:105A40007047002070477FB506460D46032001A928
:105A5000FCF7B6F838BB0198FFF724FFF16D044658
:105A6000284600F0F0F80444019800F010FB0646C8
:105A7000019800F013FB082201460DEB020000F034
:105A80006EFB2B7921468DF808300198334602AA27
:105A900000F0D2FA041E019818BF012400F0B6FAF3
:105AA000204604B070BD0124FAE700F0DABA2DE90F
:105AB000F8430E46002107460846FFF7F6FD044668
:105AC00001210020FFF7F1FD33789C4221D098425C
:105AD00021D101252C2303FB0575F86DAC6AFFF776
